{"contracts/core/MessageHub.sol":{"MessageHub":{"abi":[{"inputs":[{"internalType":"address","name":"verifierAddress","type":"address"}],"stateMutability":"nonpayable","type":"constructor"},{"anonymous":false,"inputs":[{"indexed":true,"internalType":"bytes32","name":"groupId","type":"bytes32"},{"indexed":true,"internalType":"bytes32","name":"commitment","type":"bytes32"},{"indexed":false,"internalType":"bytes","name":"encryptedMetadata","type":"bytes"},{"indexed":false,"internalType":"bytes","name":"zkProof","type":"bytes"},{"indexed":false,"internalType":"bytes32","name":"nullifier","type":"bytes32"}],"name":"GroupMessagePosted","type":"event"},{"anonymous":false,"inputs":[{"indexed":true,"internalType":"bytes32","name":"commitment","type":"bytes32"},{"indexed":true,"internalType":"address","name":"stealthRecipient","type":"address"},{"indexed":false,"internalType":"bytes","name":"ephemeralPubKey","type":"bytes"},{"indexed":false,"internalType":"bytes1","name":"viewTag","type":"bytes1"},{"indexed":false,"internalType":"bytes","name":"encryptedMetadata","type":"bytes"},{"indexed":false,"internalType":"bytes32","name":"nullifier","type":"bytes32"}],"name":"MessagePosted","type":"event"},{"inputs":[{"internalType":"bytes32","name":"","type":"bytes32"}],"name":"commitmentTimestamp","outputs":[{"internalType":"uint256","name":"","type":"uint256"}],"stateMutability":"view","type":"function"},{"inputs":[{"internalType":"bytes1","name":"viewTag","type":"bytes1"}],"name":"getMessagesByViewTag","outputs":[{"internalType":"uint256[]","name":"","type":"uint256[]"}],"stateMutability":"view","type":"function"},{"inputs":[{"internalType":"bytes32","name":"nullifier","type":"bytes32"}],"name":"isNullifierUsed","outputs":[{"internalType":"bool","name":"","type":"bool"}],"stateMutability":"view","type":"function"},{"inputs":[{"internalType":"bytes1","name":"","type":"bytes1"},{"internalType":"uint256","name":"","type":"uint256"}],"name":"messagesByViewTag","outputs":[{"internalType":"uint256","name":"","type":"uint256"}],"stateMutability":"view","type":"function"},{"inputs":[{"internalType":"address","name":"stealthRecipient","type":"address"},{"internalType":"bytes","name":"ephemeralPubKey","type":"bytes"},{"internalType":"bytes1","name":"viewTag","type":"bytes1"},{"internalType":"bytes","name":"encryptedMetadata","type":"bytes"},{"internalType":"bytes32","name":"nullifier","type":"bytes32"}],"name":"postDirectMessage","outputs":[],"stateMutability":"nonpayable","type":"function"},{"inputs":[{"internalType":"address[]","name":"stealthRecipients","type":"address[]"},{"internalType":"bytes[]","name":"ephemeralPubKeys","type":"bytes[]"},{"internalType":"bytes1[]","name":"viewTags","type":"bytes1[]"},{"internalType":"bytes[]","name":"encryptedMetadatas","type":"bytes[]"},{"internalType":"bytes32[]","name":"nullifiers","type":"bytes32[]"}],"name":"postDirectMessageBatch","outputs":[],"stateMutability":"nonpayable","type":"function"},{"inputs":[{"internalType":"bytes32","name":"groupId","type":"bytes32"},{"internalType":"bytes","name":"encryptedMetadata","type":"bytes"},{"internalType":"bytes","name":"zkProof","type":"bytes"},{"internalType":"bytes32","name":"nullifier","type":"bytes32"},{"internalType":"bytes32","name":"merkleRoot","type":"bytes32"}],"name":"postGroupMessage","outputs":[],"stateMutability":"nonpayable","type":"function"},{"inputs":[],"name":"totalMessages","outputs":[{"internalType":"uint256","name":"","type":"uint256"}],"stateMutability":"view","type":"function"},{"inputs":[{"internalType":"bytes32","name":"","type":"bytes32"}],"name":"usedNullifiers","outputs":[{"internalType":"bool","name":"","type":"bool"}],"stateMutability":"view","type":"function"},{"inputs":[],"name":"verifier","outputs":[{"internalType":"contract IZKVerifier","name":"","type":"address"}],"stateMutability":"view","type":"function"}],"evm":{"bytecode":{"linkReferences":{},"object":"60803461007457601f610ba838819003918201601f19168301916001600160401b038311848410176100795780849260209460405283398101031261007457516001600160a01b0381169081900361007457600480546001600160a01b031916919091179055604051610b1890816100908239f35b600080fd5b634e487b7160e01b600052604160045260246000fdfe6080604081815260048036101561001557600080fd5b600092833560e01c908163206137aa146107dc5750806322dc7b4c146107b15780632b7ac3f31461078a57806376989a72146104ef5783816383649c63146103be5750806383711df314610310578063951166c0146102f1578063b899e9b514610297578063d4e81b83146100bd5763fb6162b01461009357600080fd5b346100b95760203660031901126100b95760209282913581526001845220549051908152f35b8280fd5b509190346102935760a036600319011261029357823567ffffffffffffffff60243581811161028f576100f3903690870161083f565b909160443590811161028b5761010c903690880161083f565b60649591953590818852602098888a5261012c60ff858b205416156108b2565b61015d8a8960018060a01b038454168751808095819463fb8f16fb60e01b8352608089840152896084840191610a19565b60843560248301528d604483015289606483015203915afa908115610281578a91610247575b50156102145750879861020a91837f15920d6fb18e6d69dfb1e81b124c94477372d54a2bca92e37920f95bc5e0f2fb98999a528a8252848b20600160ff198254161790556101d2368789610973565b828151910120996101e46003546109f4565b6003556101fd865198899860608a5260608a0191610a19565b9287840390880152610a19565b918301520390a380f35b835162461bcd60e51b81529081018a9052600d60248201526c24b73b30b634b210383937b7b360991b6044820152606490fd5b90508a81813d831161027a575b61025e818361093b565b81010312610276575180151581036102765738610183565b8980fd5b503d610254565b85513d8c823e3d90fd5b8580fd5b8480fd5b5080fd5b5050346102935780600319360112610293576102b161086d565b6001600160f81b03191682526002602052808220805460243593908410156102ee57506020926102e091610884565b91905490519160031b1c8152f35b80fd5b5050346102935781600319360112610293576020906003549051908152f35b8284346102ee57602090816003193601126102ee5782906001600160f81b031961033861086d565b16815260028352818120908251808584549182815201908194845286842090845b8181106103aa575050508161036f91038261093b565b83519485948186019282875251809352850193925b82811061039357505050500390f35b835185528695509381019392810192600101610384565b825484529288019260019283019201610359565b919050346102935760a03660031901126102935780356001600160a01b03811693908490036100b95767ffffffffffffffff60243581811161028f57610407903690850161083f565b9290916044359460ff60f81b86168087036104eb576064359283116104eb577f4f8d47bde0b0002726791070bd985462a30a10fca5fdf7aad758a033055994de966104e59461045d6104cd948b9636910161083f565b94909361047a60ff84608435998a815280602052205416156108b2565b61048660218b146108ef565b868c528b602052828c20600160ff19825416179055826104a7368888610973565b602081519101209c8d8152600160205242828220556003549281526002602052206109ba565b6104d86003546109f4565b6003555196879687610a3a565b0390a380f35b8780fd5b5090346100b95760a03660031901126100b95767ffffffffffffffff91803583811161028f576105229036908301610809565b9190936024358181116107865761053c9036908401610809565b604495919535838111610782576105569036908601610809565b94909360643581811161077e576105709036908401610809565b909160843590811161077a576105899036908501610809565b949093818a1480610771575b80610768575b8061075f575b1561072a57508b805b8a81106105b5575080f35b8c818c8c8f8c878f92868f8f92828e6105cf828588610a7b565b35875260209e8f528787205460ff16156105e8906108b2565b6105f192610a8b565b6105fe91506021146108ef565b61060792610a7b565b358152808952818120805460ff191660019081179091559861062a878d8f610a8b565b369061063592610973565b818151910120998a8352815242838320556003948554948860ff60f81b9261065c92610a7b565b61066590610acd565b168252600290522090610677916109ba565b8054610682906109f4565b905561068d92610a7b565b356001600160a01b038116908190036107265761071f927f4f8d47bde0b0002726791070bd985462a30a10fca5fdf7aad758a033055994de8c8f6107178d8f928d8f9161070b8f918f8f610703918f936106f8856106f08180966106fd95610a8b565b9f909e610a7b565b610acd565b95610a8b565b959094610a7b565b35935196879687610a3a565b0390a36109f4565b8c906105aa565b8e80fd5b606490602088519162461bcd60e51b8352820152600f60248201526e098cadccee8d040dad2e6dac2e8c6d608b1b6044820152fd5b508583146105a1565b5082891461059b565b50888214610595565b8b80fd5b8a80fd5b8880fd5b8680fd5b50346100b957826003193601126100b9575490516001600160a01b03909116815260209150f35b50346100b95760203660031901126100b9578160209360ff9235815280855220541690519015158152f35b929190503461080557602036600319011261080557358352602083815292205460ff1615158152f35b8380fd5b9181601f8401121561083a5782359167ffffffffffffffff831161083a576020808501948460051b01011161083a57565b600080fd5b9181601f8401121561083a5782359167ffffffffffffffff831161083a576020838186019501011161083a57565b600435906001600160f81b03198216820361083a57565b805482101561089c5760005260206000200190600090565b634e487b7160e01b600052603260045260246000fd5b156108b957565b60405162461bcd60e51b815260206004820152600e60248201526d139d5b1b1a599a595c881d5cd95960921b6044820152606490fd5b156108f657565b60405162461bcd60e51b815260206004820152601c60248201527f496e76616c696420657068656d6572616c206b6579206c656e677468000000006044820152606490fd5b90601f8019910116810190811067ffffffffffffffff82111761095d57604052565b634e487b7160e01b600052604160045260246000fd5b92919267ffffffffffffffff821161095d576040519161099d601f8201601f19166020018461093b565b82948184528183011161083a578281602093846000960137010152565b80546801000000000000000081101561095d576109dc91600182018155610884565b819291549060031b91821b91600019901b1916179055565b6000198114610a035760010190565b634e487b7160e01b600052601160045260246000fd5b908060209392818452848401376000828201840152601f01601f1916010190565b9695949093610a58606095610a76959460808b5260808b0191610a19565b6001600160f81b031990931660208901528783036040890152610a19565b930152565b919081101561089c5760051b0190565b919081101561089c5760051b81013590601e198136030182121561083a57019081359167ffffffffffffffff831161083a57602001823603811361083a579190565b356001600160f81b03198116810361083a579056fea26469706673582212204f5b9ff681b276d786cd7c977aadd96c6fc32bbeba1cdcef0762f290c3170d0464736f6c63430008140033","opcodes":"PUSH1 0x80 CALLVALUE PUSH2 0x74 JUMPI PUSH1 0x1F PUSH2 0xBA8 CODESIZE DUP2 SWAP1 SUB SWAP2 DUP3 ADD PUSH1 0x1F NOT AND DUP4 ADD SWAP2 PUSH1 0x1 PUSH1 0x1 PUSH1 0x40 SHL SUB DUP4 GT DUP5 DUP5 LT OR PUSH2 0x79 JUMPI DUP1 DUP5 SWAP3 PUSH1 0x20 SWAP5 PUSH1 0x40 MSTORE DUP4 CODECOPY DUP2 ADD SUB SLT PUSH2 0x74 JUMPI MLOAD PUSH1 0x1 PUSH1 0x1 PUSH1 0xA0 SHL SUB DUP2 AND SWAP1 DUP2 SWAP1 SUB PUSH2 0x74 JUMPI PUSH1 0x4 DUP1 SLOAD PUSH1 0x1 PUSH1 0x1 PUSH1 0xA0 SHL SUB NOT AND SWAP2 SWAP1 SWAP2 OR SWAP1 SSTORE PUSH1 0x40 MLOAD PUSH2 0xB18 SWAP1 DUP2 PUSH2 0x90 DUP3 CODECOPY RETURN JUMPDEST PUSH1 0x0 DUP1 REVERT JUMPDEST PUSH4 0x4E487B71 PUSH1 0xE0 SHL PUSH1 0x0 MSTORE PUSH1 0x41 PUSH1 0x4 MSTORE PUSH1 0x24 PUSH1 0x0 REVERT INVALID PUSH1 0x80 PUSH1 0x40 DUP2 DUP2 MSTORE PUSH1 0x4 DUP1 CALLDATASIZE LT ISZERO PUSH2 0x15 JUMPI PUSH1 0x0 DUP1 REVERT JUMPDEST PUSH1 0x0 SWAP3 DUP4 CALLDATALOAD PUSH1 0xE0 SHR SWAP1 DUP2 PUSH4 0x206137AA EQ PUSH2 0x7DC JUMPI POP DUP1 PUSH4 0x22DC7B4C EQ PUSH2 0x7B1 JUMPI DUP1 PUSH4 0x2B7AC3F3 EQ PUSH2 0x78A JUMPI DUP1 PUSH4 0x76989A72 EQ PUSH2 0x4EF JUMPI DUP4 DUP2 PUSH4 0x83649C63 EQ PUSH2 0x3BE JUMPI POP DUP1 PUSH4 0x83711DF3 EQ PUSH2 0x310 JUMPI DUP1 PUSH4 0x951166C0 EQ PUSH2 0x2F1 JUMPI DUP1 PUSH4 0xB899E9B5 EQ PUSH2 0x297 JUMPI DUP1 PUSH4 0xD4E81B83 EQ PUSH2 0xBD JUMPI PUSH4 0xFB6162B0 EQ PUSH2 0x93 JUMPI PUSH1 0x0 DUP1 REVERT JUMPDEST CALLVALUE PUSH2 0xB9 JUMPI PUSH1 0x20 CALLDATASIZE PUSH1 0x3 NOT ADD SLT PUSH2 0xB9 JUMPI PUSH1 0x20 SWAP3 DUP3 SWAP2 CALLDATALOAD DUP2 MSTORE PUSH1 0x1 DUP5 MSTORE KECCAK256 SLOAD SWAP1 MLOAD SWAP1 DUP2 MSTORE RETURN JUMPDEST DUP3 DUP1 REVERT JUMPDEST POP SWAP2 SWAP1 CALLVALUE PUSH2 0x293 JUMPI PUSH1 0xA0 CALLDATASIZE PUSH1 0x3 NOT ADD SLT PUSH2 0x293 JUMPI DUP3 CALLDATALOAD PUSH8 0xFFFFFFFFFFFFFFFF PUSH1 0x24 CALLDATALOAD DUP2 DUP2 GT PUSH2 0x28F JUMPI PUSH2 0xF3 SWAP1 CALLDATASIZE SWAP1 DUP8 ADD PUSH2 0x83F JUMP JUMPDEST SWAP1 SWAP2 PUSH1 0x44 CALLDATALOAD SWAP1 DUP2 GT PUSH2 0x28B JUMPI PUSH2 0x10C SWAP1 CALLDATASIZE SWAP1 DUP9 ADD PUSH2 0x83F JUMP JUMPDEST PUSH1 0x64 SWAP6 SWAP2 SWAP6 CALLDATALOAD SWAP1 DUP2 DUP9 MSTORE PUSH1 0x20 SWAP9 DUP9 DUP11 MSTORE PUSH2 0x12C PUSH1 0xFF DUP6 DUP12 KECCAK256 SLOAD AND ISZERO PUSH2 0x8B2 JUMP JUMPDEST PUSH2 0x15D DUP11 DUP10 PUSH1 0x1 DUP1 PUSH1 0xA0 SHL SUB DUP5 SLOAD AND DUP8 MLOAD DUP1 DUP1 SWAP6 DUP2 SWAP5 PUSH4 0xFB8F16FB PUSH1 0xE0 SHL DUP4 MSTORE PUSH1 0x80 DUP10 DUP5 ADD MSTORE DUP10 PUSH1 0x84 DUP5 ADD SWAP2 PUSH2 0xA19 JUMP JUMPDEST PUSH1 0x84 CALLDATALOAD PUSH1 0x24 DUP4 ADD MSTORE DUP14 PUSH1 0x44 DUP4 ADD MSTORE DUP10 PUSH1 0x64 DUP4 ADD MSTORE SUB SWAP2 GAS STATICCALL SWAP1 DUP2 ISZERO PUSH2 0x281 JUMPI DUP11 SWAP2 PUSH2 0x247 JUMPI JUMPDEST POP ISZERO PUSH2 0x214 JUMPI POP DUP8 SWAP9 PUSH2 0x20A SWAP2 DUP4 PUSH32 0x15920D6FB18E6D69DFB1E81B124C94477372D54A2BCA92E37920F95BC5E0F2FB SWAP9 SWAP10 SWAP11 MSTORE DUP11 DUP3 MSTORE DUP5 DUP12 KECCAK256 PUSH1 0x1 PUSH1 0xFF NOT DUP3 SLOAD AND OR SWAP1 SSTORE PUSH2 0x1D2 CALLDATASIZE DUP8 DUP10 PUSH2 0x973 JUMP JUMPDEST DUP3 DUP2 MLOAD SWAP2 ADD KECCAK256 SWAP10 PUSH2 0x1E4 PUSH1 0x3 SLOAD PUSH2 0x9F4 JUMP JUMPDEST PUSH1 0x3 SSTORE PUSH2 0x1FD DUP7 MLOAD SWAP9 DUP10 SWAP9 PUSH1 0x60 DUP11 MSTORE PUSH1 0x60 DUP11 ADD SWAP2 PUSH2 0xA19 JUMP JUMPDEST SWAP3 DUP8 DUP5 SUB SWAP1 DUP9 ADD MSTORE PUSH2 0xA19 JUMP JUMPDEST SWAP2 DUP4 ADD MSTORE SUB SWAP1 LOG3 DUP1 RETURN JUMPDEST DUP4 MLOAD PUSH3 0x461BCD PUSH1 0xE5 SHL DUP2 MSTORE SWAP1 DUP2 ADD DUP11 SWAP1 MSTORE PUSH1 0xD PUSH1 0x24 DUP3 ADD MSTORE PUSH13 0x24B73B30B634B210383937B7B3 PUSH1 0x99 SHL PUSH1 0x44 DUP3 ADD MSTORE PUSH1 0x64 SWAP1 REVERT JUMPDEST SWAP1 POP DUP11 DUP2 DUP2 RETURNDATASIZE DUP4 GT PUSH2 0x27A JUMPI JUMPDEST PUSH2 0x25E DUP2 DUP4 PUSH2 0x93B JUMP JUMPDEST DUP2 ADD SUB SLT PUSH2 0x276 JUMPI MLOAD DUP1 ISZERO ISZERO DUP2 SUB PUSH2 0x276 JUMPI CODESIZE PUSH2 0x183 JUMP JUMPDEST DUP10 DUP1 REVERT JUMPDEST POP RETURNDATASIZE PUSH2 0x254 JUMP JUMPDEST DUP6 MLOAD RETURNDATASIZE DUP13 DUP3 RETURNDATACOPY RETURNDATASIZE SWAP1 REVERT JUMPDEST DUP6 DUP1 REVERT JUMPDEST DUP5 DUP1 REVERT JUMPDEST POP DUP1 REVERT JUMPDEST POP POP CALLVALUE PUSH2 0x293 JUMPI DUP1 PUSH1 0x3 NOT CALLDATASIZE ADD SLT PUSH2 0x293 JUMPI PUSH2 0x2B1 PUSH2 0x86D JUMP JUMPDEST PUSH1 0x1 PUSH1 0x1 PUSH1 0xF8 SHL SUB NOT AND DUP3 MSTORE PUSH1 0x2 PUSH1 0x20 MSTORE DUP1 DUP3 KECCAK256 DUP1 SLOAD PUSH1 0x24 CALLDATALOAD SWAP4 SWAP1 DUP5 LT ISZERO PUSH2 0x2EE JUMPI POP PUSH1 0x20 SWAP3 PUSH2 0x2E0 SWAP2 PUSH2 0x884 JUMP JUMPDEST SWAP2 SWAP1 SLOAD SWAP1 MLOAD SWAP2 PUSH1 0x3 SHL SHR DUP2 MSTORE RETURN JUMPDEST DUP1 REVERT JUMPDEST POP POP CALLVALUE PUSH2 0x293 JUMPI DUP2 PUSH1 0x3 NOT CALLDATASIZE ADD SLT PUSH2 0x293 JUMPI PUSH1 0x20 SWAP1 PUSH1 0x3 SLOAD SWAP1 MLOAD SWAP1 DUP2 MSTORE RETURN JUMPDEST DUP3 DUP5 CALLVALUE PUSH2 0x2EE JUMPI PUSH1 0x20 SWAP1 DUP2 PUSH1 0x3 NOT CALLDATASIZE ADD SLT PUSH2 0x2EE JUMPI DUP3 SWAP1 PUSH1 0x1 PUSH1 0x1 PUSH1 0xF8 SHL SUB NOT PUSH2 0x338 PUSH2 0x86D JUMP JUMPDEST AND DUP2 MSTORE PUSH1 0x2 DUP4 MSTORE DUP2 DUP2 KECCAK256 SWAP1 DUP3 MLOAD DUP1 DUP6 DUP5 SLOAD SWAP2 DUP3 DUP2 MSTORE ADD SWAP1 DUP2 SWAP5 DUP5 MSTORE DUP7 DUP5 KECCAK256 SWAP1 DUP5 JUMPDEST DUP2 DUP2 LT PUSH2 0x3AA JUMPI POP POP POP DUP2 PUSH2 0x36F SWAP2 SUB DUP3 PUSH2 0x93B JUMP JUMPDEST DUP4 MLOAD SWAP5 DUP6 SWAP5 DUP2 DUP7 ADD SWAP3 DUP3 DUP8 MSTORE MLOAD DUP1 SWAP4 MSTORE DUP6 ADD SWAP4 SWAP3 JUMPDEST DUP3 DUP2 LT PUSH2 0x393 JUMPI POP POP POP POP SUB SWAP1 RETURN JUMPDEST DUP4 MLOAD DUP6 MSTORE DUP7 SWAP6 POP SWAP4 DUP2 ADD SWAP4 SWAP3 DUP2 ADD SWAP3 PUSH1 0x1 ADD PUSH2 0x384 JUMP JUMPDEST DUP3 SLOAD DUP5 MSTORE SWAP3 DUP9 ADD SWAP3 PUSH1 0x1 SWAP3 DUP4 ADD SWAP3 ADD PUSH2 0x359 JUMP JUMPDEST SWAP2 SWAP1 POP CALLVALUE PUSH2 0x293 JUMPI PUSH1 0xA0 CALLDATASIZE PUSH1 0x3 NOT ADD SLT PUSH2 0x293 JUMPI DUP1 CALLDATALOAD PUSH1 0x1 PUSH1 0x1 PUSH1 0xA0 SHL SUB DUP2 AND SWAP4 SWAP1 DUP5 SWAP1 SUB PUSH2 0xB9 JUMPI PUSH8 0xFFFFFFFFFFFFFFFF PUSH1 0x24 CALLDATALOAD DUP2 DUP2 GT PUSH2 0x28F JUMPI PUSH2 0x407 SWAP1 CALLDATASIZE SWAP1 DUP6 ADD PUSH2 0x83F JUMP JUMPDEST SWAP3 SWAP1 SWAP2 PUSH1 0x44 CALLDATALOAD SWAP5 PUSH1 0xFF PUSH1 0xF8 SHL DUP7 AND DUP1 DUP8 SUB PUSH2 0x4EB JUMPI PUSH1 0x64 CALLDATALOAD SWAP3 DUP4 GT PUSH2 0x4EB JUMPI PUSH32 0x4F8D47BDE0B0002726791070BD985462A30A10FCA5FDF7AAD758A033055994DE SWAP7 PUSH2 0x4E5 SWAP5 PUSH2 0x45D PUSH2 0x4CD SWAP5 DUP12 SWAP7 CALLDATASIZE SWAP2 ADD PUSH2 0x83F JUMP JUMPDEST SWAP5 SWAP1 SWAP4 PUSH2 0x47A PUSH1 0xFF DUP5 PUSH1 0x84 CALLDATALOAD SWAP10 DUP11 DUP2 MSTORE DUP1 PUSH1 0x20 MSTORE KECCAK256 SLOAD AND ISZERO PUSH2 0x8B2 JUMP JUMPDEST PUSH2 0x486 PUSH1 0x21 DUP12 EQ PUSH2 0x8EF JUMP JUMPDEST DUP7 DUP13 MSTORE DUP12 PUSH1 0x20 MSTORE DUP3 DUP13 KECCAK256 PUSH1 0x1 PUSH1 0xFF NOT DUP3 SLOAD AND OR SWAP1 SSTORE DUP3 PUSH2 0x4A7 CALLDATASIZE DUP9 DUP9 PUSH2 0x973 JUMP JUMPDEST PUSH1 0x20 DUP2 MLOAD SWAP2 ADD KECCAK256 SWAP13 DUP14 DUP2 MSTORE PUSH1 0x1 PUSH1 0x20 MSTORE TIMESTAMP DUP3 DUP3 KECCAK256 SSTORE PUSH1 0x3 SLOAD SWAP3 DUP2 MSTORE PUSH1 0x2 PUSH1 0x20 MSTORE KECCAK256 PUSH2 0x9BA JUMP JUMPDEST PUSH2 0x4D8 PUSH1 0x3 SLOAD PUSH2 0x9F4 JUMP JUMPDEST PUSH1 0x3 SSTORE MLOAD SWAP7 DUP8 SWAP7 DUP8 PUSH2 0xA3A JUMP JUMPDEST SUB SWAP1 LOG3 DUP1 RETURN JUMPDEST DUP8 DUP1 REVERT JUMPDEST POP SWAP1 CALLVALUE PUSH2 0xB9 JUMPI PUSH1 0xA0 CALLDATASIZE PUSH1 0x3 NOT ADD SLT PUSH2 0xB9 JUMPI PUSH8 0xFFFFFFFFFFFFFFFF SWAP2 DUP1 CALLDATALOAD DUP4 DUP2 GT PUSH2 0x28F JUMPI PUSH2 0x522 SWAP1 CALLDATASIZE SWAP1 DUP4 ADD PUSH2 0x809 JUMP JUMPDEST SWAP2 SWAP1 SWAP4 PUSH1 0x24 CALLDATALOAD DUP2 DUP2 GT PUSH2 0x786 JUMPI PUSH2 0x53C SWAP1 CALLDATASIZE SWAP1 DUP5 ADD PUSH2 0x809 JUMP JUMPDEST PUSH1 0x44 SWAP6 SWAP2 SWAP6 CALLDATALOAD DUP4 DUP2 GT PUSH2 0x782 JUMPI PUSH2 0x556 SWAP1 CALLDATASIZE SWAP1 DUP7 ADD PUSH2 0x809 JUMP JUMPDEST SWAP5 SWAP1 SWAP4 PUSH1 0x64 CALLDATALOAD DUP2 DUP2 GT PUSH2 0x77E JUMPI PUSH2 0x570 SWAP1 CALLDATASIZE SWAP1 DUP5 ADD PUSH2 0x809 JUMP JUMPDEST SWAP1 SWAP2 PUSH1 0x84 CALLDATALOAD SWAP1 DUP2 GT PUSH2 0x77A JUMPI PUSH2 0x589 SWAP1 CALLDATASIZE SWAP1 DUP6 ADD PUSH2 0x809 JUMP JUMPDEST SWAP5 SWAP1 SWAP4 DUP2 DUP11 EQ DUP1 PUSH2 0x771 JUMPI JUMPDEST DUP1 PUSH2 0x768 JUMPI JUMPDEST DUP1 PUSH2 0x75F JUMPI JUMPDEST ISZERO PUSH2 0x72A JUMPI POP DUP12 DUP1 JUMPDEST DUP11 DUP2 LT PUSH2 0x5B5 JUMPI POP DUP1 RETURN JUMPDEST DUP13 DUP2 DUP13 DUP13 DUP16 DUP13 DUP8 DUP16 SWAP3 DUP7 DUP16 DUP16 SWAP3 DUP3 DUP15 PUSH2 0x5CF DUP3 DUP6 DUP9 PUSH2 0xA7B JUMP JUMPDEST CALLDATALOAD DUP8 MSTORE PUSH1 0x20 SWAP15 DUP16 MSTORE DUP8 DUP8 KECCAK256 SLOAD PUSH1 0xFF AND ISZERO PUSH2 0x5E8 SWAP1 PUSH2 0x8B2 JUMP JUMPDEST PUSH2 0x5F1 SWAP3 PUSH2 0xA8B JUMP JUMPDEST PUSH2 0x5FE SWAP2 POP PUSH1 0x21 EQ PUSH2 0x8EF JUMP JUMPDEST PUSH2 0x607 SWAP3 PUSH2 0xA7B JUMP JUMPDEST CALLDATALOAD DUP2 MSTORE DUP1 DUP10 MSTORE DUP2 DUP2 KECCAK256 DUP1 SLOAD PUSH1 0xFF NOT AND PUSH1 0x1 SWAP1 DUP2 OR SWAP1 SWAP2 SSTORE SWAP9 PUSH2 0x62A DUP8 DUP14 DUP16 PUSH2 0xA8B JUMP JUMPDEST CALLDATASIZE SWAP1 PUSH2 0x635 SWAP3 PUSH2 0x973 JUMP JUMPDEST DUP2 DUP2 MLOAD SWAP2 ADD KECCAK256 SWAP10 DUP11 DUP4 MSTORE DUP2 MSTORE TIMESTAMP DUP4 DUP4 KECCAK256 SSTORE PUSH1 0x3 SWAP5 DUP6 SLOAD SWAP5 DUP9 PUSH1 0xFF PUSH1 0xF8 SHL SWAP3 PUSH2 0x65C SWAP3 PUSH2 0xA7B JUMP JUMPDEST PUSH2 0x665 SWAP1 PUSH2 0xACD JUMP JUMPDEST AND DUP3 MSTORE PUSH1 0x2 SWAP1 MSTORE KECCAK256 SWAP1 PUSH2 0x677 SWAP2 PUSH2 0x9BA JUMP JUMPDEST DUP1 SLOAD PUSH2 0x682 SWAP1 PUSH2 0x9F4 JUMP JUMPDEST SWAP1 SSTORE PUSH2 0x68D SWAP3 PUSH2 0xA7B JUMP JUMPDEST CALLDATALOAD PUSH1 0x1 PUSH1 0x1 PUSH1 0xA0 SHL SUB DUP2 AND SWAP1 DUP2 SWAP1 SUB PUSH2 0x726 JUMPI PUSH2 0x71F SWAP3 PUSH32 0x4F8D47BDE0B0002726791070BD985462A30A10FCA5FDF7AAD758A033055994DE DUP13 DUP16 PUSH2 0x717 DUP14 DUP16 SWAP3 DUP14 DUP16 SWAP2 PUSH2 0x70B DUP16 SWAP2 DUP16 DUP16 PUSH2 0x703 SWAP2 DUP16 SWAP4 PUSH2 0x6F8 DUP6 PUSH2 0x6F0 DUP2 DUP1 SWAP7 PUSH2 0x6FD SWAP6 PUSH2 0xA8B JUMP JUMPDEST SWAP16 SWAP1 SWAP15 PUSH2 0xA7B JUMP JUMPDEST PUSH2 0xACD JUMP JUMPDEST SWAP6 PUSH2 0xA8B JUMP JUMPDEST SWAP6 SWAP1 SWAP5 PUSH2 0xA7B JUMP JUMPDEST CALLDATALOAD SWAP4 MLOAD SWAP7 DUP8 SWAP7 DUP8 PUSH2 0xA3A JUMP JUMPDEST SUB SWAP1 LOG3 PUSH2 0x9F4 JUMP JUMPDEST DUP13 SWAP1 PUSH2 0x5AA JUMP JUMPDEST DUP15 DUP1 REVERT JUMPDEST PUSH1 0x64 SWAP1 PUSH1 0x20 DUP9 MLOAD SWAP2 PUSH3 0x461BCD PUSH1 0xE5 SHL DUP4 MSTORE DUP3 ADD MSTORE PUSH1 0xF PUSH1 0x24 DUP3 ADD MSTORE PUSH15 0x98CADCCEE8D040DAD2E6DAC2E8C6D PUSH1 0x8B SHL PUSH1 0x44 DUP3 ADD MSTORE REVERT JUMPDEST POP DUP6 DUP4 EQ PUSH2 0x5A1 JUMP JUMPDEST POP DUP3 DUP10 EQ PUSH2 0x59B JUMP JUMPDEST POP DUP9 DUP3 EQ PUSH2 0x595 JUMP JUMPDEST DUP12 DUP1 REVERT JUMPDEST DUP11 DUP1 REVERT JUMPDEST DUP9 DUP1 REVERT JUMPDEST DUP7 DUP1 REVERT JUMPDEST POP CALLVALUE PUSH2 0xB9 JUMPI DUP3 PUSH1 0x3 NOT CALLDATASIZE ADD SLT PUSH2 0xB9 JUMPI SLOAD SWAP1 MLOAD PUSH1 0x1 PUSH1 0x1 PUSH1 0xA0 SHL SUB SWAP1 SWAP2 AND DUP2 MSTORE PUSH1 0x20 SWAP2 POP RETURN JUMPDEST POP CALLVALUE PUSH2 0xB9 JUMPI PUSH1 0x20 CALLDATASIZE PUSH1 0x3 NOT ADD SLT PUSH2 0xB9 JUMPI DUP2 PUSH1 0x20 SWAP4 PUSH1 0xFF SWAP3 CALLDATALOAD DUP2 MSTORE DUP1 DUP6 MSTORE KECCAK256 SLOAD AND SWAP1 MLOAD SWAP1 ISZERO ISZERO DUP2 MSTORE RETURN JUMPDEST SWAP3 SWAP2 SWAP1 POP CALLVALUE PUSH2 0x805 JUMPI PUSH1 0x20 CALLDATASIZE PUSH1 0x3 NOT ADD SLT PUSH2 0x805 JUMPI CALLDATALOAD DUP4 MSTORE PUSH1 0x20 DUP4 DUP2 MSTORE SWAP3 KECCAK256 SLOAD PUSH1 0xFF AND ISZERO ISZERO DUP2 MSTORE RETURN JUMPDEST DUP4 DUP1 REVERT JUMPDEST SWAP2 DUP2 PUSH1 0x1F DUP5 ADD SLT ISZERO PUSH2 0x83A JUMPI DUP3 CALLDATALOAD SWAP2 PUSH8 0xFFFFFFFFFFFFFFFF DUP4 GT PUSH2 0x83A JUMPI PUSH1 0x20 DUP1 DUP6 ADD SWAP5 DUP5 PUSH1 0x5 SHL ADD ADD GT PUSH2 0x83A JUMPI JUMP JUMPDEST PUSH1 0x0 DUP1 REVERT JUMPDEST SWAP2 DUP2 PUSH1 0x1F DUP5 ADD SLT ISZERO PUSH2 0x83A JUMPI DUP3 CALLDATALOAD SWAP2 PUSH8 0xFFFFFFFFFFFFFFFF DUP4 GT PUSH2 0x83A JUMPI PUSH1 0x20 DUP4 DUP2 DUP7 ADD SWAP6 ADD ADD GT PUSH2 0x83A JUMPI JUMP JUMPDEST PUSH1 0x4 CALLDATALOAD SWAP1 PUSH1 0x1 PUSH1 0x1 PUSH1 0xF8 SHL SUB NOT DUP3 AND DUP3 SUB PUSH2 0x83A JUMPI JUMP JUMPDEST DUP1 SLOAD DUP3 LT ISZERO PUSH2 0x89C JUMPI PUSH1 0x0 MSTORE PUSH1 0x20 PUSH1 0x0 KECCAK256 ADD SWAP1 PUSH1 0x0 SWAP1 JUMP JUMPDEST PUSH4 0x4E487B71 PUSH1 0xE0 SHL PUSH1 0x0 MSTORE PUSH1 0x32 PUSH1 0x4 MSTORE PUSH1 0x24 PUSH1 0x0 REVERT JUMPDEST ISZERO PUSH2 0x8B9 JUMPI JUMP JUMPDEST PUSH1 0x40 MLOAD PUSH3 0x461BCD PUSH1 0xE5 SHL DUP2 MSTORE PUSH1 0x20 PUSH1 0x4 DUP3 ADD MSTORE PUSH1 0xE PUSH1 0x24 DUP3 ADD MSTORE PUSH14 0x139D5B1B1A599A595C881D5CD959 PUSH1 0x92 SHL PUSH1 0x44 DUP3 ADD MSTORE PUSH1 0x64 SWAP1 REVERT JUMPDEST ISZERO PUSH2 0x8F6 JUMPI JUMP JUMPDEST PUSH1 0x40 MLOAD PUSH3 0x461BCD PUSH1 0xE5 SHL DUP2 MSTORE PUSH1 0x20 PUSH1 0x4 DUP3 ADD MSTORE PUSH1 0x1C PUSH1 0x24 DUP3 ADD MSTORE PUSH32 0x496E76616C696420657068656D6572616C206B6579206C656E67746800000000 PUSH1 0x44 DUP3 ADD MSTORE PUSH1 0x64 SWAP1 REVERT JUMPDEST SWAP1 PUSH1 0x1F DUP1 NOT SWAP2 ADD AND DUP2 ADD SWAP1 DUP2 LT PUSH8 0xFFFFFFFFFFFFFFFF DUP3 GT OR PUSH2 0x95D JUMPI PUSH1 0x40 MSTORE JUMP JUMPDEST PUSH4 0x4E487B71 PUSH1 0xE0 SHL PUSH1 0x0 MSTORE PUSH1 0x41 PUSH1 0x4 MSTORE PUSH1 0x24 PUSH1 0x0 REVERT JUMPDEST SWAP3 SWAP2 SWAP3 PUSH8 0xFFFFFFFFFFFFFFFF DUP3 GT PUSH2 0x95D JUMPI PUSH1 0x40 MLOAD SWAP2 PUSH2 0x99D PUSH1 0x1F DUP3 ADD PUSH1 0x1F NOT AND PUSH1 0x20 ADD DUP5 PUSH2 0x93B JUMP JUMPDEST DUP3 SWAP5 DUP2 DUP5 MSTORE DUP2 DUP4 ADD GT PUSH2 0x83A JUMPI DUP3 DUP2 PUSH1 0x20 SWAP4 DUP5 PUSH1 0x0 SWAP7 ADD CALLDATACOPY ADD ADD MSTORE JUMP JUMPDEST DUP1 SLOAD PUSH9 0x10000000000000000 DUP2 LT ISZERO PUSH2 0x95D JUMPI PUSH2 0x9DC SWAP2 PUSH1 0x1 DUP3 ADD DUP2 SSTORE PUSH2 0x884 JUMP JUMPDEST DUP2 SWAP3 SWAP2 SLOAD SWAP1 PUSH1 0x3 SHL SWAP2 DUP3 SHL SWAP2 PUSH1 0x0 NOT SWAP1 SHL NOT AND OR SWAP1 SSTORE JUMP JUMPDEST PUSH1 0x0 NOT DUP2 EQ PUSH2 0xA03 JUMPI PUSH1 0x1 ADD SWAP1 JUMP JUMPDEST PUSH4 0x4E487B71 PUSH1 0xE0 SHL PUSH1 0x0 MSTORE PUSH1 0x11 PUSH1 0x4 MSTORE PUSH1 0x24 PUSH1 0x0 REVERT JUMPDEST SWAP1 DUP1 PUSH1 0x20 SWAP4 SWAP3 DUP2 DUP5 MSTORE DUP5 DUP5 ADD CALLDATACOPY PUSH1 0x0 DUP3 DUP3 ADD DUP5 ADD MSTORE PUSH1 0x1F ADD PUSH1 0x1F NOT AND ADD ADD SWAP1 JUMP JUMPDEST SWAP7 SWAP6 SWAP5 SWAP1 SWAP4 PUSH2 0xA58 PUSH1 0x60 SWAP6 PUSH2 0xA76 SWAP6 SWAP5 PUSH1 0x80 DUP12 MSTORE PUSH1 0x80 DUP12 ADD SWAP2 PUSH2 0xA19 JUMP JUMPDEST PUSH1 0x1 PUSH1 0x1 PUSH1 0xF8 SHL SUB NOT SWAP1 SWAP4 AND PUSH1 0x20 DUP10 ADD MSTORE DUP8 DUP4 SUB PUSH1 0x40 DUP10 ADD MSTORE PUSH2 0xA19 JUMP JUMPDEST SWAP4 ADD MSTORE JUMP JUMPDEST SWAP2 SWAP1 DUP2 LT ISZERO PUSH2 0x89C JUMPI PUSH1 0x5 SHL ADD SWAP1 JUMP JUMPDEST SWAP2 SWAP1 DUP2 LT ISZERO PUSH2 0x89C JUMPI PUSH1 0x5 SHL DUP2 ADD CALLDATALOAD SWAP1 PUSH1 0x1E NOT DUP2 CALLDATASIZE SUB ADD DUP3 SLT ISZERO PUSH2 0x83A JUMPI ADD SWAP1 DUP2 CALLDATALOAD SWAP2 PUSH8 0xFFFFFFFFFFFFFFFF DUP4 GT PUSH2 0x83A JUMPI PUSH1 0x20 ADD DUP3 CALLDATASIZE SUB DUP2 SGT PUSH2 0x83A JUMPI SWAP2 SWAP1 JUMP JUMPDEST CALLDATALOAD PUSH1 0x1 PUSH1 0x1 PUSH1 0xF8 SHL SUB NOT DUP2 AND DUP2 SUB PUSH2 0x83A JUMPI SWAP1 JUMP INVALID LOG2 PUSH5 0x6970667358 0x22 SLT KECCAK256 0x4F JUMPDEST SWAP16 0xF6 DUP2 0xB2 PUSH23 0xD786CD7C977AADD96C6FC32BBEBA1CDCEF0762F290C317 0xD DIV PUSH5 0x736F6C6343 STOP ADDMOD EQ STOP CALLER "},"methodIdentifiers":{"commitmentTimestamp(bytes32)":"fb6162b0","getMessagesByViewTag(bytes1)":"83711df3","isNullifierUsed(bytes32)":"22dc7b4c","messagesByViewTag(bytes1,uint256)":"b899e9b5","postDirectMessage(address,bytes,bytes1,bytes,bytes32)":"83649c63","postDirectMessageBatch(address[],bytes[],bytes1[],bytes[],bytes32[])":"76989a72","postGroupMessage(bytes32,bytes,bytes,bytes32,bytes32)":"d4e81b83","totalMessages()":"951166c0","usedNullifiers(bytes32)":"206137aa","verifier()":"2b7ac3f3"}}}}}