{"contracts/core/StealthRegistry.sol":{"StealthRegistry":{"abi":[{"inputs":[],"name":"ECDSAInvalidSignature","type":"error"},{"inputs":[{"internalType":"uint256","name":"length","type":"uint256"}],"name":"ECDSAInvalidSignatureLength","type":"error"},{"inputs":[{"internalType":"bytes32","name":"s","type":"bytes32"}],"name":"ECDSAInvalidSignatureS","type":"error"},{"anonymous":false,"inputs":[{"indexed":true,"internalType":"address","name":"owner","type":"address"},{"indexed":false,"internalType":"bytes32","name":"bundleHash","type":"bytes32"},{"indexed":false,"internalType":"string","name":"oneTimePreKeyBundleCid","type":"string"}],"name":"KeyBundleRegistered","type":"event"},{"anonymous":false,"inputs":[{"indexed":true,"internalType":"address","name":"owner","type":"address"}],"name":"KeyBundleRevoked","type":"event"},{"anonymous":false,"inputs":[{"indexed":true,"internalType":"address","name":"owner","type":"address"},{"indexed":false,"internalType":"uint256","name":"preKeyIndex","type":"uint256"},{"indexed":false,"internalType":"uint256","name":"remaining","type":"uint256"}],"name":"OneTimePreKeyConsumed","type":"event"},{"anonymous":false,"inputs":[{"indexed":true,"internalType":"address","name":"owner","type":"address"},{"indexed":false,"internalType":"uint256","name":"newCount","type":"uint256"},{"indexed":false,"internalType":"string","name":"newBundleCid","type":"string"}],"name":"OneTimePreKeysRefilled","type":"event"},{"anonymous":false,"inputs":[{"indexed":true,"internalType":"address","name":"owner","type":"address"},{"indexed":false,"internalType":"bytes","name":"newSignedPreKey","type":"bytes"},{"indexed":false,"internalType":"uint64","name":"timestamp","type":"uint64"}],"name":"SignedPreKeyRotated","type":"event"},{"inputs":[],"name":"MIN_UPDATE_INTERVAL","outputs":[{"internalType":"uint256","name":"","type":"uint256"}],"stateMutability":"view","type":"function"},{"inputs":[{"internalType":"address","name":"owner","type":"address"},{"internalType":"uint256","name":"preKeyIndex","type":"uint256"}],"name":"consumeOneTimePreKey","outputs":[{"internalType":"bool","name":"","type":"bool"}],"stateMutability":"nonpayable","type":"function"},{"inputs":[{"internalType":"address","name":"","type":"address"},{"internalType":"uint256","name":"","type":"uint256"}],"name":"consumedOneTimePreKeys","outputs":[{"internalType":"bool","name":"","type":"bool"}],"stateMutability":"view","type":"function"},{"inputs":[{"internalType":"address","name":"owner","type":"address"}],"name":"getKeyBundle","outputs":[{"components":[{"internalType":"bytes","name":"identityKey","type":"bytes"},{"internalType":"bytes","name":"signedPreKey","type":"bytes"},{"internalType":"bytes","name":"signedPreKeySignature","type":"bytes"},{"internalType":"string","name":"oneTimePreKeyBundleCid","type":"string"},{"internalType":"bytes","name":"stealthSpendingPubKey","type":"bytes"},{"internalType":"bytes","name":"stealthViewingPubKey","type":"bytes"},{"internalType":"bytes","name":"pqPublicKey","type":"bytes"},{"internalType":"uint64","name":"updatedAt","type":"uint64"},{"internalType":"uint256","name":"oneTimePreKeyCount","type":"uint256"},{"internalType":"uint256","name":"oneTimePreKeyConsumed","type":"uint256"}],"internalType":"struct StealthRegistry.KeyBundle","name":"","type":"tuple"}],"stateMutability":"view","type":"function"},{"inputs":[{"internalType":"address","name":"owner","type":"address"}],"name":"getRemainingOneTimePreKeys","outputs":[{"internalType":"uint256","name":"","type":"uint256"}],"stateMutability":"view","type":"function"},{"inputs":[{"internalType":"address","name":"owner","type":"address"}],"name":"hasKeyBundle","outputs":[{"internalType":"bool","name":"","type":"bool"}],"stateMutability":"view","type":"function"},{"inputs":[{"internalType":"address","name":"owner","type":"address"},{"internalType":"uint256","name":"preKeyIndex","type":"uint256"}],"name":"isOneTimePreKeyAvailable","outputs":[{"internalType":"bool","name":"","type":"bool"}],"stateMutability":"view","type":"function"},{"inputs":[{"internalType":"string","name":"newBundleCid","type":"string"},{"internalType":"uint256","name":"newCount","type":"uint256"}],"name":"refillOneTimePreKeys","outputs":[],"stateMutability":"nonpayable","type":"function"},{"inputs":[{"components":[{"internalType":"bytes","name":"identityKey","type":"bytes"},{"internalType":"bytes","name":"signedPreKey","type":"bytes"},{"internalType":"bytes","name":"signedPreKeySignature","type":"bytes"},{"internalType":"string","name":"oneTimePreKeyBundleCid","type":"string"},{"internalType":"bytes","name":"stealthSpendingPubKey","type":"bytes"},{"internalType":"bytes","name":"stealthViewingPubKey","type":"bytes"},{"internalType":"bytes","name":"pqPublicKey","type":"bytes"},{"internalType":"uint256","name":"oneTimePreKeyCount","type":"uint256"}],"internalType":"struct StealthRegistry.KeyBundleInput","name":"bundle","type":"tuple"},{"internalType":"bytes","name":"ethSignature","type":"bytes"}],"name":"registerKeyBundle","outputs":[],"stateMutability":"nonpayable","type":"function"},{"inputs":[],"name":"revokeKeyBundle","outputs":[],"stateMutability":"nonpayable","type":"function"},{"inputs":[{"internalType":"bytes","name":"newSignedPreKey","type":"bytes"},{"internalType":"bytes","name":"newSignature","type":"bytes"}],"name":"rotateSignedPreKey","outputs":[],"stateMutability":"nonpayable","type":"function"}],"evm":{"bytecode":{"linkReferences":{},"object":"6080806040523461001657611a62908161001c8239f35b600080fdfe6080604052600436101561001257600080fd5b60003560e01c80631bb5577d1461140357806345263b46146113d25780637cf318dc14611252578063a37b127d14611013578063b3d7c3da14610645578063bd3be27c14610628578063bf00bae9146105fd578063d4f5e7a7146105b9578063f3872e861461056c578063f7763368146104005763fa83f6ba1461009557600080fd5b346103fb5760403660031901126103fb576001600160401b036004358181116103fb576100c690369060040161150a565b6024358381116103fb576100de90369060040161150a565b909333600052602094600086526040600020926101056100fe855461168d565b1515611876565b600784019383855416610e1081018091116103e55742106103aa5761012b368789611607565b8881519101207f19457468657265756d205369676e6564204d6573736167653a0a333200000000600052601c52610190610180610177603c600020610171368789611607565b90611725565b909291926117f1565b6001600160a01b0316331461164d565b6001908181019085881161031b576101b2886101ac845461168d565b846116de565b60009188601f811160011461033c57600293600091610331575b5060001960038b901b1c191689851b1790555b019284831161031b576101fc836101f6865461168d565b866116de565b600090601f841160011461028d5792807f92001a3adc7278eb9143c080fb44958d66a0172a87407b7206260211e4f398c099959381936102769896600094610282575b50501b916000199060031b1c19161790555b421692836001600160401b0319825416179055604051936040855260408501916115a9565b938201528033930390a2005b01359250388061023f565b601f93929319831691856000528a6000209260005b8c8282106103075750509161027697959391857f92001a3adc7278eb9143c080fb44958d66a0172a87407b7206260211e4f398c09c989694106102ed575b505050811b019055610251565b0135600019600384901b60f8161c191690553880806102e0565b8484013586559487019492830192016102a2565b634e487b7160e01b600052604160045260246000fd5b90508a0135386101cc565b8a938c91601f1981168460005283600020936000905b8983831061038f575050506002965010610375575b50508389811b0190556101df565b8b013560001960038c901b60f8161c191690553880610367565b9885013586558f989590950194938401938e9350018f610352565b60405162461bcd60e51b8152600481018990526013602482015272155c19185d19481d1bdbc8199c995c5d595b9d606a1b6044820152606490fd5b634e487b7160e01b600052601160045260246000fd5b600080fd5b346103fb5760403660031901126103fb576104196114f4565b6024359060018060a01b0316806000526020916000835260406000206104426100fe825461168d565b60088101908154831015610530578360005260018552604060002083600052855260ff604060002054166104eb57600990846000526001865260406000208460005286526040600020600160ff198254161790550191825460001981146103e5577fe0e2f2d97dfcceb42a1c0d386ab3ebd035de376d1af5c8926efa3b99e331304f9360409360016104d89301809255546118c2565b825191825285820152a260405160018152f35b60405162461bcd60e51b815260048101869052601760248201527f5072656b657920616c726561647920636f6e73756d65640000000000000000006044820152606490fd5b60405162461bcd60e51b8152600481018690526014602482015273092dcecc2d8d2c840e0e4cad6caf240d2dcc8caf60631b6044820152606490fd5b346103fb5760403660031901126103fb576001600160a01b0361058d6114f4565b1660005260016020526040600020602435600052602052602060ff604060002054166040519015158152f35b346103fb5760203660031901126103fb576001600160a01b036105da6114f4565b16600052600060205260206105f360406000205461168d565b1515604051908152f35b346103fb5760203660031901126103fb57602061062061061b6114f4565b6119ae565b604051908152f35b346103fb5760003660031901126103fb576020604051610e108152f35b346103fb576003196040368201126103fb576001600160401b03600435116103fb5761010090600435360301126103fb576024356001600160401b0381116103fb5761069590369060040161150a565b6106a3600480350180611577565b6106b560048035602481019101611577565b906106c860048035604481019101611577565b906106db60048035606481019101611577565b906106ee60048035608481019101611577565b91909260043560a4016004356004019061070791611577565b95909660043560c4016004356004019061072091611577565b99909a6040519d8e9d8e3360208201526040810161012090526101400190610747926115a9565b908d601f1981840301906060015261075e926115a9565b90601f198c83030160808d0152610774926115a9565b90601f198a83030160a08b015261078a926115a9565b90601f198883030160c08901526107a0926115a9565b90601f198683030160e08701526107b6926115a9565b90601f19848303016101008501526107cd926115a9565b60043560e4013561012083015203601f19810182526107ec90826115e6565b80519060200120917f19457468657265756d205369676e6564204d6573736167653a0a33320000000060005282601c52603c60002091369061082d92611607565b61083691611725565b61083f916117f1565b610853906001600160a01b0316331461164d565b610861600480350180611577565b9061087460048035602481019101611577565b9061088760048035604481019101611577565b9061089a60048035606481019101611577565b906108ad60048035608481019101611577565b92909360043560a401600435600401906108c691611577565b96909760043560c401600435600401906108df91611577565b9a909b6040519d6108ef8f6115ca565b36906108fa92611607565b8d52369061090792611607565b60208c0152369061091792611607565b60408a0152369061092792611607565b6060880152369061093792611607565b6080860152369061094792611607565b60a0840152369061095792611607565b60c0820152426001600160401b031660e082015260043560e4013561010082015261012081016000905233600052600060205260406000209080519283516001600160401b03811161031b576109b1816101f6865461168d565b6020601f8211600114610faa578192939495600092610f9f575b50508160011b916000199060031b1c19161783555b60208201519283516001600160401b03811161031b57610a1081610a07600185015461168d565b600185016116de565b6020601f8211600114610f30578192939495600092610f25575b50508160011b916000199060031b1c19161760018201555b60408301519283516001600160401b03811161031b57610a7281610a69600286015461168d565b600286016116de565b6020601f8211600114610eb6578192939495600092610eab575b50508160011b916000199060031b1c19161760028301555b60608101519283516001600160401b03811161031b57610ad481610acb600387015461168d565b600387016116de565b6020601f8211600114610e3c578192939495600092610e31575b50508160011b916000199060031b1c19161760038401555b60808201519283516001600160401b03811161031b57610b3681610b2d600485015461168d565b600485016116de565b6020601f8211600114610dc2578192939495600092610db7575b50508160011b916000199060031b1c19161760048201555b60a08301519283516001600160401b03811161031b57610b9881610b8f600586015461168d565b600586016116de565b6020601f8211600114610d48578192939495600092610d3d575b50508160011b916000199060031b1c19161760058301555b60c08101518051906001600160401b03821161031b57610bfa82610bf1600687015461168d565b600687016116de565b602090601f8311600114610cc75791806009949261012094600092610cbc575b50508160011b916000199060031b1c19161760068501555b600784016001600160401b0360e0830151166001600160401b0319825416179055610100810151600885015501519101557f2ee13333ac8811576582ab97d74d21f45d3d9508b1ee0a7b53f8f8ef6ff74d43610c98606460043501600435600401611577565b92610cb7604051928392835260406020840152339560408401916115a9565b0390a2005b015190508780610c1a565b906006850160005260206000209160005b601f1985168110610d25575092600994926001926101209583601f19811610610d0c575b505050811b016006850155610c32565b015160001960f88460031b161c19169055878080610cfc565b91926020600181928685015181550194019201610cd8565b015190508580610bb2565b6005840160005260206000209060005b601f1984168110610d9f575060019394959683601f19811610610d86575b505050811b016005830155610bca565b015160001960f88460031b161c19169055858080610d76565b9091602060018192858b015181550193019101610d58565b015190508580610b50565b6004830160005260206000209060005b601f1984168110610e19575060019394959683601f19811610610e00575b505050811b016004820155610b68565b015160001960f88460031b161c19169055858080610df0565b9091602060018192858b015181550193019101610dd2565b015190508580610aee565b6003850160005260206000209060005b601f1984168110610e93575060019394959683601f19811610610e7a575b505050811b016003840155610b06565b015160001960f88460031b161c19169055858080610e6a565b9091602060018192858b015181550193019101610e4c565b015190508580610a8c565b6002840160005260206000209060005b601f1984168110610f0d575060019394959683601f19811610610ef4575b505050811b016002830155610aa4565b015160001960f88460031b161c19169055858080610ee4565b9091602060018192858b015181550193019101610ec6565b015190508580610a2a565b6001830160005260206000209060005b601f1984168110610f87575060019394959683601f19811610610f6e575b505050811b016001820155610a42565b015160001960f88460031b161c19169055858080610f5e565b9091602060018192858b015181550193019101610f40565b0151905085806109cb565b8460005260206000209060005b601f1984168110610ffb575060019394959683601f19811610610fe2575b505050811b0183556109e0565b015160001960f88460031b161c19169055858080610fd5565b9091602060018192858b015181550193019101610fb7565b346103fb5760203660031901126103fb5761102c6114f4565b600061012060405161103d816115ca565b60608152606060208201526060604082015260608082015260606080820152606060a0820152606060c08201528260e082015282610100820152015260018060a01b03166000526000602052604060002060096040519161109d836115ca565b6040516110b5816110ae8185611918565b03826115e6565b83526040516110cb816110ae8160018601611918565b60208401526040516110e4816110ae8160028601611918565b60408401526040516110fd816110ae8160038601611918565b6060840152604051611116816110ae8160048601611918565b608084015260405161112f816110ae8160058601611918565b60a0840152604051611148816110ae8160068601611918565b60c08401526001600160401b0360078201541660e08401526008810154610100840152015461012082015260405180916020825261012061122761119a83516101406020870152610160860190611537565b6112126111fe6111ea6111d66111c2602089015195601f1996878c83030160408d0152611537565b6040890151868b83030160608c0152611537565b6060880151858a83030160808b0152611537565b6080870151848983030160a08a0152611537565b60a0860151838883030160c0890152611537565b9060c0850151908683030160e0870152611537565b916001600160401b0360e0820151166101008501526101008101518285015201516101408301520390f35b346103fb5760403660031901126103fb576001600160401b036004358181116103fb5761128390369060040161150a565b90602435336000526020916000835260406000206112a46100fe825461168d565b6003810195851161031b576112c3856112bd885461168d565b886116de565b600095601f8611600114611344576009610cb79392600092887f3e746005717a4386d83e0a7c8f08d31e690abeea1593d82e68db7aa0307ff49c999a8591611339575b508a60011b9085198c60031b1c19161790555b8560088201550155604080519485948552840152339560408401916115a9565b90508501358b611306565b601f19861681600052856000209060005b8181106113bb575092600092600992899a7f3e746005717a4386d83e0a7c8f08d31e690abeea1593d82e68db7aa0307ff49c9a610cb79897106113a2575b505060018a811b019055611319565b851960f88d60031b161c19908701351690558a80611393565b858a01358355988701986001909201918701611355565b346103fb5760403660031901126103fb5760206113f96113f06114f4565b602435906119e8565b6040519015158152f35b346103fb5760003660031901126103fb57336000526000602052600060096040822061142e816118cf565b61143a600182016118cf565b611446600282016118cf565b60038101611454815461168d565b90816114b7575b5050611469600482016118cf565b611475600582016118cf565b611481600682016118cf565b8260078201558260088201550155337f0b6cc1736560b261cf186ac787327c60ef75690ea619f1750d9e7f44f58ee5af600080a2005b81601f8693116001146114ce5750555b838061145b565b9080839182526114ed601f60208420940160051c8401600185016116c7565b55556114c7565b600435906001600160a01b03821682036103fb57565b9181601f840112156103fb578235916001600160401b0383116103fb57602083818601950101116103fb57565b919082519283825260005b848110611563575050826000602080949584010152601f8019910116010190565b602081830181015184830182015201611542565b903590601e19813603018212156103fb57018035906001600160401b0382116103fb576020019181360383136103fb57565b908060209392818452848401376000828201840152601f01601f1916010190565b61014081019081106001600160401b0382111761031b57604052565b90601f801991011681019081106001600160401b0382111761031b57604052565b9291926001600160401b03821161031b5760405191611630601f8201601f1916602001846115e6565b8294818452818301116103fb578281602093846000960137010152565b1561165457565b60405162461bcd60e51b8152602060048201526011602482015270496e76616c6964207369676e617475726560781b6044820152606490fd5b90600182811c921680156116bd575b60208310146116a757565b634e487b7160e01b600052602260045260246000fd5b91607f169161169c565b8181106116d2575050565b600081556001016116c7565b9190601f81116116ed57505050565b611719926000526020600020906020601f840160051c8301931061171b575b601f0160051c01906116c7565b565b909150819061170c565b81519190604183036117565761174f92506020820151906060604084015193015160001a90611761565b9192909190565b505060009160029190565b91907f7fffffffffffffffffffffffffffffff5d576e7357a4501ddfe92f46681b20a084116117e557926020929160ff608095604051948552168484015260408301526060820152600092839182805260015afa156117d95780516001600160a01b038116156117d057918190565b50809160019190565b604051903d90823e3d90fd5b50505060009160039190565b60048110156118605780611803575050565b6001810361181d5760405163f645eedf60e01b8152600490fd5b6002810361183e5760405163fce698f760e01b815260048101839052602490fd5b6003146118485750565b602490604051906335e2f38360e21b82526004820152fd5b634e487b7160e01b600052602160045260246000fd5b1561187d57565b60405162461bcd60e51b815260206004820152601860248201527f4e6f206b65792062756e646c65207265676973746572656400000000000000006044820152606490fd5b919082039182116103e557565b6118d9815461168d565b90816118e3575050565b81601f600093116001146118f5575055565b908083918252611914601f60208420940160051c8401600185016116c7565b5555565b90600092918054916119298361168d565b91828252600193848116908160001461198b575060011461194b575b50505050565b90919394506000526020928360002092846000945b838610611977575050505001019038808080611945565b805485870183015294019385908201611960565b9294505050602093945060ff191683830152151560051b01019038808080611945565b6001600160a01b03166000908152602081905260409020600881015480156119e15760096119de920154906118c2565b90565b5050600090565b6001600160a01b0316600090815260208190526040812060080154909190811015611a285760ff9160409160016020528282209082526020522054161590565b509056fea26469706673582212202782f27b7da5e9e9f83f03a1426b7302b41b772ab4459fbf6e0f6fc4e058e28864736f6c63430008140033","opcodes":"PUSH1 0x80 DUP1 PUSH1 0x40 MSTORE CALLVALUE PUSH2 0x16 JUMPI PUSH2 0x1A62 SWAP1 DUP2 PUSH2 0x1C DUP3 CODECOPY RETURN JUMPDEST PUSH1 0x0 DUP1 REVERT INVALID PUSH1 0x80 PUSH1 0x40 MSTORE PUSH1 0x4 CALLDATASIZE LT ISZERO PUSH2 0x12 JUMPI PUSH1 0x0 DUP1 REVERT JUMPDEST PUSH1 0x0 CALLDATALOAD PUSH1 0xE0 SHR DUP1 PUSH4 0x1BB5577D EQ PUSH2 0x1403 JUMPI DUP1 PUSH4 0x45263B46 EQ PUSH2 0x13D2 JUMPI DUP1 PUSH4 0x7CF318DC EQ PUSH2 0x1252 JUMPI DUP1 PUSH4 0xA37B127D EQ PUSH2 0x1013 JUMPI DUP1 PUSH4 0xB3D7C3DA EQ PUSH2 0x645 JUMPI DUP1 PUSH4 0xBD3BE27C EQ PUSH2 0x628 JUMPI DUP1 PUSH4 0xBF00BAE9 EQ PUSH2 0x5FD JUMPI DUP1 PUSH4 0xD4F5E7A7 EQ PUSH2 0x5B9 JUMPI DUP1 PUSH4 0xF3872E86 EQ PUSH2 0x56C JUMPI DUP1 PUSH4 0xF7763368 EQ PUSH2 0x400 JUMPI PUSH4 0xFA83F6BA EQ PUSH2 0x95 JUMPI PUSH1 0x0 DUP1 REVERT JUMPDEST CALLVALUE PUSH2 0x3FB JUMPI PUSH1 0x40 CALLDATASIZE PUSH1 0x3 NOT ADD SLT PUSH2 0x3FB JUMPI PUSH1 0x1 PUSH1 0x1 PUSH1 0x40 SHL SUB PUSH1 0x4 CALLDATALOAD DUP2 DUP2 GT PUSH2 0x3FB JUMPI PUSH2 0xC6 SWAP1 CALLDATASIZE SWAP1 PUSH1 0x4 ADD PUSH2 0x150A JUMP JUMPDEST PUSH1 0x24 CALLDATALOAD DUP4 DUP2 GT PUSH2 0x3FB JUMPI PUSH2 0xDE SWAP1 CALLDATASIZE SWAP1 PUSH1 0x4 ADD PUSH2 0x150A JUMP JUMPDEST SWAP1 SWAP4 CALLER PUSH1 0x0 MSTORE PUSH1 0x20 SWAP5 PUSH1 0x0 DUP7 MSTORE PUSH1 0x40 PUSH1 0x0 KECCAK256 SWAP3 PUSH2 0x105 PUSH2 0xFE DUP6 SLOAD PUSH2 0x168D JUMP JUMPDEST ISZERO ISZERO PUSH2 0x1876 JUMP JUMPDEST PUSH1 0x7 DUP5 ADD SWAP4 DUP4 DUP6 SLOAD AND PUSH2 0xE10 DUP2 ADD DUP1 SWAP2 GT PUSH2 0x3E5 JUMPI TIMESTAMP LT PUSH2 0x3AA JUMPI PUSH2 0x12B CALLDATASIZE DUP8 DUP10 PUSH2 0x1607 JUMP JUMPDEST DUP9 DUP2 MLOAD SWAP2 ADD KECCAK256 PUSH32 0x19457468657265756D205369676E6564204D6573736167653A0A333200000000 PUSH1 0x0 MSTORE PUSH1 0x1C MSTORE PUSH2 0x190 PUSH2 0x180 PUSH2 0x177 PUSH1 0x3C PUSH1 0x0 KECCAK256 PUSH2 0x171 CALLDATASIZE DUP8 DUP10 PUSH2 0x1607 JUMP JUMPDEST SWAP1 PUSH2 0x1725 JUMP JUMPDEST SWAP1 SWAP3 SWAP2 SWAP3 PUSH2 0x17F1 JUMP JUMPDEST PUSH1 0x1 PUSH1 0x1 PUSH1 0xA0 SHL SUB AND CALLER EQ PUSH2 0x164D JUMP JUMPDEST PUSH1 0x1 SWAP1 DUP2 DUP2 ADD SWAP1 DUP6 DUP9 GT PUSH2 0x31B JUMPI PUSH2 0x1B2 DUP9 PUSH2 0x1AC DUP5 SLOAD PUSH2 0x168D JUMP JUMPDEST DUP5 PUSH2 0x16DE JUMP JUMPDEST PUSH1 0x0 SWAP2 DUP9 PUSH1 0x1F DUP2 GT PUSH1 0x1 EQ PUSH2 0x33C JUMPI PUSH1 0x2 SWAP4 PUSH1 0x0 SWAP2 PUSH2 0x331 JUMPI JUMPDEST POP PUSH1 0x0 NOT PUSH1 0x3 DUP12 SWAP1 SHL SHR NOT AND DUP10 DUP6 SHL OR SWAP1 SSTORE JUMPDEST ADD SWAP3 DUP5 DUP4 GT PUSH2 0x31B JUMPI PUSH2 0x1FC DUP4 PUSH2 0x1F6 DUP7 SLOAD PUSH2 0x168D JUMP JUMPDEST DUP7 PUSH2 0x16DE JUMP JUMPDEST PUSH1 0x0 SWAP1 PUSH1 0x1F DUP5 GT PUSH1 0x1 EQ PUSH2 0x28D JUMPI SWAP3 DUP1 PUSH32 0x92001A3ADC7278EB9143C080FB44958D66A0172A87407B7206260211E4F398C0 SWAP10 SWAP6 SWAP4 DUP2 SWAP4 PUSH2 0x276 SWAP9 SWAP7 PUSH1 0x0 SWAP5 PUSH2 0x282 JUMPI JUMPDEST POP POP SHL SWAP2 PUSH1 0x0 NOT SWAP1 PUSH1 0x3 SHL SHR NOT AND OR SWAP1 SSTORE JUMPDEST TIMESTAMP AND SWAP3 DUP4 PUSH1 0x1 PUSH1 0x1 PUSH1 0x40 SHL SUB NOT DUP3 SLOAD AND OR SWAP1 SSTORE PUSH1 0x40 MLOAD SWAP4 PUSH1 0x40 DUP6 MSTORE PUSH1 0x40 DUP6 ADD SWAP2 PUSH2 0x15A9 JUMP JUMPDEST SWAP4 DUP3 ADD MSTORE DUP1 CALLER SWAP4 SUB SWAP1 LOG2 STOP JUMPDEST ADD CALLDATALOAD SWAP3 POP CODESIZE DUP1 PUSH2 0x23F JUMP JUMPDEST PUSH1 0x1F SWAP4 SWAP3 SWAP4 NOT DUP4 AND SWAP2 DUP6 PUSH1 0x0 MSTORE DUP11 PUSH1 0x0 KECCAK256 SWAP3 PUSH1 0x0 JUMPDEST DUP13 DUP3 DUP3 LT PUSH2 0x307 JUMPI POP POP SWAP2 PUSH2 0x276 SWAP8 SWAP6 SWAP4 SWAP2 DUP6 PUSH32 0x92001A3ADC7278EB9143C080FB44958D66A0172A87407B7206260211E4F398C0 SWAP13 SWAP9 SWAP7 SWAP5 LT PUSH2 0x2ED JUMPI JUMPDEST POP POP POP DUP2 SHL ADD SWAP1 SSTORE PUSH2 0x251 JUMP JUMPDEST ADD CALLDATALOAD PUSH1 0x0 NOT PUSH1 0x3 DUP5 SWAP1 SHL PUSH1 0xF8 AND SHR NOT AND SWAP1 SSTORE CODESIZE DUP1 DUP1 PUSH2 0x2E0 JUMP JUMPDEST DUP5 DUP5 ADD CALLDATALOAD DUP7 SSTORE SWAP5 DUP8 ADD SWAP5 SWAP3 DUP4 ADD SWAP3 ADD PUSH2 0x2A2 JUMP JUMPDEST PUSH4 0x4E487B71 PUSH1 0xE0 SHL PUSH1 0x0 MSTORE PUSH1 0x41 PUSH1 0x4 MSTORE PUSH1 0x24 PUSH1 0x0 REVERT JUMPDEST SWAP1 POP DUP11 ADD CALLDATALOAD CODESIZE PUSH2 0x1CC JUMP JUMPDEST DUP11 SWAP4 DUP13 SWAP2 PUSH1 0x1F NOT DUP2 AND DUP5 PUSH1 0x0 MSTORE DUP4 PUSH1 0x0 KECCAK256 SWAP4 PUSH1 0x0 SWAP1 JUMPDEST DUP10 DUP4 DUP4 LT PUSH2 0x38F JUMPI POP POP POP PUSH1 0x2 SWAP7 POP LT PUSH2 0x375 JUMPI JUMPDEST POP POP DUP4 DUP10 DUP2 SHL ADD SWAP1 SSTORE PUSH2 0x1DF JUMP JUMPDEST DUP12 ADD CALLDATALOAD PUSH1 0x0 NOT PUSH1 0x3 DUP13 SWAP1 SHL PUSH1 0xF8 AND SHR NOT AND SWAP1 SSTORE CODESIZE DUP1 PUSH2 0x367 JUMP JUMPDEST SWAP9 DUP6 ADD CALLDATALOAD DUP7 SSTORE DUP16 SWAP9 SWAP6 SWAP1 SWAP6 ADD SWAP5 SWAP4 DUP5 ADD SWAP4 DUP15 SWAP4 POP ADD DUP16 PUSH2 0x352 JUMP JUMPDEST PUSH1 0x40 MLOAD PUSH3 0x461BCD PUSH1 0xE5 SHL DUP2 MSTORE PUSH1 0x4 DUP2 ADD DUP10 SWAP1 MSTORE PUSH1 0x13 PUSH1 0x24 DUP3 ADD MSTORE PUSH19 0x155C19185D19481D1BDBC8199C995C5D595B9D PUSH1 0x6A SHL PUSH1 0x44 DUP3 ADD MSTORE PUSH1 0x64 SWAP1 REVERT JUMPDEST PUSH4 0x4E487B71 PUSH1 0xE0 SHL PUSH1 0x0 MSTORE PUSH1 0x11 PUSH1 0x4 MSTORE PUSH1 0x24 PUSH1 0x0 REVERT JUMPDEST PUSH1 0x0 DUP1 REVERT JUMPDEST CALLVALUE PUSH2 0x3FB JUMPI PUSH1 0x40 CALLDATASIZE PUSH1 0x3 NOT ADD SLT PUSH2 0x3FB JUMPI PUSH2 0x419 PUSH2 0x14F4 JUMP JUMPDEST PUSH1 0x24 CALLDATALOAD SWAP1 PUSH1 0x1 DUP1 PUSH1 0xA0 SHL SUB AND DUP1 PUSH1 0x0 MSTORE PUSH1 0x20 SWAP2 PUSH1 0x0 DUP4 MSTORE PUSH1 0x40 PUSH1 0x0 KECCAK256 PUSH2 0x442 PUSH2 0xFE DUP3 SLOAD PUSH2 0x168D JUMP JUMPDEST PUSH1 0x8 DUP2 ADD SWAP1 DUP2 SLOAD DUP4 LT ISZERO PUSH2 0x530 JUMPI DUP4 PUSH1 0x0 MSTORE PUSH1 0x1 DUP6 MSTORE PUSH1 0x40 PUSH1 0x0 KECCAK256 DUP4 PUSH1 0x0 MSTORE DUP6 MSTORE PUSH1 0xFF PUSH1 0x40 PUSH1 0x0 KECCAK256 SLOAD AND PUSH2 0x4EB JUMPI PUSH1 0x9 SWAP1 DUP5 PUSH1 0x0 MSTORE PUSH1 0x1 DUP7 MSTORE PUSH1 0x40 PUSH1 0x0 KECCAK256 DUP5 PUSH1 0x0 MSTORE DUP7 MSTORE PUSH1 0x40 PUSH1 0x0 KECCAK256 PUSH1 0x1 PUSH1 0xFF NOT DUP3 SLOAD AND OR SWAP1 SSTORE ADD SWAP2 DUP3 SLOAD PUSH1 0x0 NOT DUP2 EQ PUSH2 0x3E5 JUMPI PUSH32 0xE0E2F2D97DFCCEB42A1C0D386AB3EBD035DE376D1AF5C8926EFA3B99E331304F SWAP4 PUSH1 0x40 SWAP4 PUSH1 0x1 PUSH2 0x4D8 SWAP4 ADD DUP1 SWAP3 SSTORE SLOAD PUSH2 0x18C2 JUMP JUMPDEST DUP3 MLOAD SWAP2 DUP3 MSTORE DUP6 DUP3 ADD MSTORE LOG2 PUSH1 0x40 MLOAD PUSH1 0x1 DUP2 MSTORE RETURN JUMPDEST PUSH1 0x40 MLOAD PUSH3 0x461BCD PUSH1 0xE5 SHL DUP2 MSTORE PUSH1 0x4 DUP2 ADD DUP7 SWAP1 MSTORE PUSH1 0x17 PUSH1 0x24 DUP3 ADD MSTORE PUSH32 0x5072656B657920616C726561647920636F6E73756D6564000000000000000000 PUSH1 0x44 DUP3 ADD MSTORE PUSH1 0x64 SWAP1 REVERT JUMPDEST PUSH1 0x40 MLOAD PUSH3 0x461BCD PUSH1 0xE5 SHL DUP2 MSTORE PUSH1 0x4 DUP2 ADD DUP7 SWAP1 MSTORE PUSH1 0x14 PUSH1 0x24 DUP3 ADD MSTORE PUSH20 0x92DCECC2D8D2C840E0E4CAD6CAF240D2DCC8CAF PUSH1 0x63 SHL PUSH1 0x44 DUP3 ADD MSTORE PUSH1 0x64 SWAP1 REVERT JUMPDEST CALLVALUE PUSH2 0x3FB JUMPI PUSH1 0x40 CALLDATASIZE PUSH1 0x3 NOT ADD SLT PUSH2 0x3FB JUMPI PUSH1 0x1 PUSH1 0x1 PUSH1 0xA0 SHL SUB PUSH2 0x58D PUSH2 0x14F4 JUMP JUMPDEST AND PUSH1 0x0 MSTORE PUSH1 0x1 PUSH1 0x20 MSTORE PUSH1 0x40 PUSH1 0x0 KECCAK256 PUSH1 0x24 CALLDATALOAD PUSH1 0x0 MSTORE PUSH1 0x20 MSTORE PUSH1 0x20 PUSH1 0xFF PUSH1 0x40 PUSH1 0x0 KECCAK256 SLOAD AND PUSH1 0x40 MLOAD SWAP1 ISZERO ISZERO DUP2 MSTORE RETURN JUMPDEST CALLVALUE PUSH2 0x3FB JUMPI PUSH1 0x20 CALLDATASIZE PUSH1 0x3 NOT ADD SLT PUSH2 0x3FB JUMPI PUSH1 0x1 PUSH1 0x1 PUSH1 0xA0 SHL SUB PUSH2 0x5DA PUSH2 0x14F4 JUMP JUMPDEST AND PUSH1 0x0 MSTORE PUSH1 0x0 PUSH1 0x20 MSTORE PUSH1 0x20 PUSH2 0x5F3 PUSH1 0x40 PUSH1 0x0 KECCAK256 SLOAD PUSH2 0x168D JUMP JUMPDEST ISZERO ISZERO PUSH1 0x40 MLOAD SWAP1 DUP2 MSTORE RETURN JUMPDEST CALLVALUE PUSH2 0x3FB JUMPI PUSH1 0x20 CALLDATASIZE PUSH1 0x3 NOT ADD SLT PUSH2 0x3FB JUMPI PUSH1 0x20 PUSH2 0x620 PUSH2 0x61B PUSH2 0x14F4 JUMP JUMPDEST PUSH2 0x19AE JUMP JUMPDEST PUSH1 0x40 MLOAD SWAP1 DUP2 MSTORE RETURN JUMPDEST CALLVALUE PUSH2 0x3FB JUMPI PUSH1 0x0 CALLDATASIZE PUSH1 0x3 NOT ADD SLT PUSH2 0x3FB JUMPI PUSH1 0x20 PUSH1 0x40 MLOAD PUSH2 0xE10 DUP2 MSTORE RETURN JUMPDEST CALLVALUE PUSH2 0x3FB JUMPI PUSH1 0x3 NOT PUSH1 0x40 CALLDATASIZE DUP3 ADD SLT PUSH2 0x3FB JUMPI PUSH1 0x1 PUSH1 0x1 PUSH1 0x40 SHL SUB PUSH1 0x4 CALLDATALOAD GT PUSH2 0x3FB JUMPI PUSH2 0x100 SWAP1 PUSH1 0x4 CALLDATALOAD CALLDATASIZE SUB ADD SLT PUSH2 0x3FB JUMPI PUSH1 0x24 CALLDATALOAD PUSH1 0x1 PUSH1 0x1 PUSH1 0x40 SHL SUB DUP2 GT PUSH2 0x3FB JUMPI PUSH2 0x695 SWAP1 CALLDATASIZE SWAP1 PUSH1 0x4 ADD PUSH2 0x150A JUMP JUMPDEST PUSH2 0x6A3 PUSH1 0x4 DUP1 CALLDATALOAD ADD DUP1 PUSH2 0x1577 JUMP JUMPDEST PUSH2 0x6B5 PUSH1 0x4 DUP1 CALLDATALOAD PUSH1 0x24 DUP2 ADD SWAP2 ADD PUSH2 0x1577 JUMP JUMPDEST SWAP1 PUSH2 0x6C8 PUSH1 0x4 DUP1 CALLDATALOAD PUSH1 0x44 DUP2 ADD SWAP2 ADD PUSH2 0x1577 JUMP JUMPDEST SWAP1 PUSH2 0x6DB PUSH1 0x4 DUP1 CALLDATALOAD PUSH1 0x64 DUP2 ADD SWAP2 ADD PUSH2 0x1577 JUMP JUMPDEST SWAP1 PUSH2 0x6EE PUSH1 0x4 DUP1 CALLDATALOAD PUSH1 0x84 DUP2 ADD SWAP2 ADD PUSH2 0x1577 JUMP JUMPDEST SWAP2 SWAP1 SWAP3 PUSH1 0x4 CALLDATALOAD PUSH1 0xA4 ADD PUSH1 0x4 CALLDATALOAD PUSH1 0x4 ADD SWAP1 PUSH2 0x707 SWAP2 PUSH2 0x1577 JUMP JUMPDEST SWAP6 SWAP1 SWAP7 PUSH1 0x4 CALLDATALOAD PUSH1 0xC4 ADD PUSH1 0x4 CALLDATALOAD PUSH1 0x4 ADD SWAP1 PUSH2 0x720 SWAP2 PUSH2 0x1577 JUMP JUMPDEST SWAP10 SWAP1 SWAP11 PUSH1 0x40 MLOAD SWAP14 DUP15 SWAP14 DUP15 CALLER PUSH1 0x20 DUP3 ADD MSTORE PUSH1 0x40 DUP2 ADD PUSH2 0x120 SWAP1 MSTORE PUSH2 0x140 ADD SWAP1 PUSH2 0x747 SWAP3 PUSH2 0x15A9 JUMP JUMPDEST SWAP1 DUP14 PUSH1 0x1F NOT DUP2 DUP5 SUB ADD SWAP1 PUSH1 0x60 ADD MSTORE PUSH2 0x75E SWAP3 PUSH2 0x15A9 JUMP JUMPDEST SWAP1 PUSH1 0x1F NOT DUP13 DUP4 SUB ADD PUSH1 0x80 DUP14 ADD MSTORE PUSH2 0x774 SWAP3 PUSH2 0x15A9 JUMP JUMPDEST SWAP1 PUSH1 0x1F NOT DUP11 DUP4 SUB ADD PUSH1 0xA0 DUP12 ADD MSTORE PUSH2 0x78A SWAP3 PUSH2 0x15A9 JUMP JUMPDEST SWAP1 PUSH1 0x1F NOT DUP9 DUP4 SUB ADD PUSH1 0xC0 DUP10 ADD MSTORE PUSH2 0x7A0 SWAP3 PUSH2 0x15A9 JUMP JUMPDEST SWAP1 PUSH1 0x1F NOT DUP7 DUP4 SUB ADD PUSH1 0xE0 DUP8 ADD MSTORE PUSH2 0x7B6 SWAP3 PUSH2 0x15A9 JUMP JUMPDEST SWAP1 PUSH1 0x1F NOT DUP5 DUP4 SUB ADD PUSH2 0x100 DUP6 ADD MSTORE PUSH2 0x7CD SWAP3 PUSH2 0x15A9 JUMP JUMPDEST PUSH1 0x4 CALLDATALOAD PUSH1 0xE4 ADD CALLDATALOAD PUSH2 0x120 DUP4 ADD MSTORE SUB PUSH1 0x1F NOT DUP2 ADD DUP3 MSTORE PUSH2 0x7EC SWAP1 DUP3 PUSH2 0x15E6 JUMP JUMPDEST DUP1 MLOAD SWAP1 PUSH1 0x20 ADD KECCAK256 SWAP2 PUSH32 0x19457468657265756D205369676E6564204D6573736167653A0A333200000000 PUSH1 0x0 MSTORE DUP3 PUSH1 0x1C MSTORE PUSH1 0x3C PUSH1 0x0 KECCAK256 SWAP2 CALLDATASIZE SWAP1 PUSH2 0x82D SWAP3 PUSH2 0x1607 JUMP JUMPDEST PUSH2 0x836 SWAP2 PUSH2 0x1725 JUMP JUMPDEST PUSH2 0x83F SWAP2 PUSH2 0x17F1 JUMP JUMPDEST PUSH2 0x853 SWAP1 PUSH1 0x1 PUSH1 0x1 PUSH1 0xA0 SHL SUB AND CALLER EQ PUSH2 0x164D JUMP JUMPDEST PUSH2 0x861 PUSH1 0x4 DUP1 CALLDATALOAD ADD DUP1 PUSH2 0x1577 JUMP JUMPDEST SWAP1 PUSH2 0x874 PUSH1 0x4 DUP1 CALLDATALOAD PUSH1 0x24 DUP2 ADD SWAP2 ADD PUSH2 0x1577 JUMP JUMPDEST SWAP1 PUSH2 0x887 PUSH1 0x4 DUP1 CALLDATALOAD PUSH1 0x44 DUP2 ADD SWAP2 ADD PUSH2 0x1577 JUMP JUMPDEST SWAP1 PUSH2 0x89A PUSH1 0x4 DUP1 CALLDATALOAD PUSH1 0x64 DUP2 ADD SWAP2 ADD PUSH2 0x1577 JUMP JUMPDEST SWAP1 PUSH2 0x8AD PUSH1 0x4 DUP1 CALLDATALOAD PUSH1 0x84 DUP2 ADD SWAP2 ADD PUSH2 0x1577 JUMP JUMPDEST SWAP3 SWAP1 SWAP4 PUSH1 0x4 CALLDATALOAD PUSH1 0xA4 ADD PUSH1 0x4 CALLDATALOAD PUSH1 0x4 ADD SWAP1 PUSH2 0x8C6 SWAP2 PUSH2 0x1577 JUMP JUMPDEST SWAP7 SWAP1 SWAP8 PUSH1 0x4 CALLDATALOAD PUSH1 0xC4 ADD PUSH1 0x4 CALLDATALOAD PUSH1 0x4 ADD SWAP1 PUSH2 0x8DF SWAP2 PUSH2 0x1577 JUMP JUMPDEST SWAP11 SWAP1 SWAP12 PUSH1 0x40 MLOAD SWAP14 PUSH2 0x8EF DUP16 PUSH2 0x15CA JUMP JUMPDEST CALLDATASIZE SWAP1 PUSH2 0x8FA SWAP3 PUSH2 0x1607 JUMP JUMPDEST DUP14 MSTORE CALLDATASIZE SWAP1 PUSH2 0x907 SWAP3 PUSH2 0x1607 JUMP JUMPDEST PUSH1 0x20 DUP13 ADD MSTORE CALLDATASIZE SWAP1 PUSH2 0x917 SWAP3 PUSH2 0x1607 JUMP JUMPDEST PUSH1 0x40 DUP11 ADD MSTORE CALLDATASIZE SWAP1 PUSH2 0x927 SWAP3 PUSH2 0x1607 JUMP JUMPDEST PUSH1 0x60 DUP9 ADD MSTORE CALLDATASIZE SWAP1 PUSH2 0x937 SWAP3 PUSH2 0x1607 JUMP JUMPDEST PUSH1 0x80 DUP7 ADD MSTORE CALLDATASIZE SWAP1 PUSH2 0x947 SWAP3 PUSH2 0x1607 JUMP JUMPDEST PUSH1 0xA0 DUP5 ADD MSTORE CALLDATASIZE SWAP1 PUSH2 0x957 SWAP3 PUSH2 0x1607 JUMP JUMPDEST PUSH1 0xC0 DUP3 ADD MSTORE TIMESTAMP PUSH1 0x1 PUSH1 0x1 PUSH1 0x40 SHL SUB AND PUSH1 0xE0 DUP3 ADD MSTORE PUSH1 0x4 CALLDATALOAD PUSH1 0xE4 ADD CALLDATALOAD PUSH2 0x100 DUP3 ADD MSTORE PUSH2 0x120 DUP2 ADD PUSH1 0x0 SWAP1 MSTORE CALLER PUSH1 0x0 MSTORE PUSH1 0x0 PUSH1 0x20 MSTORE PUSH1 0x40 PUSH1 0x0 KECCAK256 SWAP1 DUP1 MLOAD SWAP3 DUP4 MLOAD PUSH1 0x1 PUSH1 0x1 PUSH1 0x40 SHL SUB DUP2 GT PUSH2 0x31B JUMPI PUSH2 0x9B1 DUP2 PUSH2 0x1F6 DUP7 SLOAD PUSH2 0x168D JUMP JUMPDEST PUSH1 0x20 PUSH1 0x1F DUP3 GT PUSH1 0x1 EQ PUSH2 0xFAA JUMPI DUP2 SWAP3 SWAP4 SWAP5 SWAP6 PUSH1 0x0 SWAP3 PUSH2 0xF9F JUMPI JUMPDEST POP POP DUP2 PUSH1 0x1 SHL SWAP2 PUSH1 0x0 NOT SWAP1 PUSH1 0x3 SHL SHR NOT AND OR DUP4 SSTORE JUMPDEST PUSH1 0x20 DUP3 ADD MLOAD SWAP3 DUP4 MLOAD PUSH1 0x1 PUSH1 0x1 PUSH1 0x40 SHL SUB DUP2 GT PUSH2 0x31B JUMPI PUSH2 0xA10 DUP2 PUSH2 0xA07 PUSH1 0x1 DUP6 ADD SLOAD PUSH2 0x168D JUMP JUMPDEST PUSH1 0x1 DUP6 ADD PUSH2 0x16DE JUMP JUMPDEST PUSH1 0x20 PUSH1 0x1F DUP3 GT PUSH1 0x1 EQ PUSH2 0xF30 JUMPI DUP2 SWAP3 SWAP4 SWAP5 SWAP6 PUSH1 0x0 SWAP3 PUSH2 0xF25 JUMPI JUMPDEST POP POP DUP2 PUSH1 0x1 SHL SWAP2 PUSH1 0x0 NOT SWAP1 PUSH1 0x3 SHL SHR NOT AND OR PUSH1 0x1 DUP3 ADD SSTORE JUMPDEST PUSH1 0x40 DUP4 ADD MLOAD SWAP3 DUP4 MLOAD PUSH1 0x1 PUSH1 0x1 PUSH1 0x40 SHL SUB DUP2 GT PUSH2 0x31B JUMPI PUSH2 0xA72 DUP2 PUSH2 0xA69 PUSH1 0x2 DUP7 ADD SLOAD PUSH2 0x168D JUMP JUMPDEST PUSH1 0x2 DUP7 ADD PUSH2 0x16DE JUMP JUMPDEST PUSH1 0x20 PUSH1 0x1F DUP3 GT PUSH1 0x1 EQ PUSH2 0xEB6 JUMPI DUP2 SWAP3 SWAP4 SWAP5 SWAP6 PUSH1 0x0 SWAP3 PUSH2 0xEAB JUMPI JUMPDEST POP POP DUP2 PUSH1 0x1 SHL SWAP2 PUSH1 0x0 NOT SWAP1 PUSH1 0x3 SHL SHR NOT AND OR PUSH1 0x2 DUP4 ADD SSTORE JUMPDEST PUSH1 0x60 DUP2 ADD MLOAD SWAP3 DUP4 MLOAD PUSH1 0x1 PUSH1 0x1 PUSH1 0x40 SHL SUB DUP2 GT PUSH2 0x31B JUMPI PUSH2 0xAD4 DUP2 PUSH2 0xACB PUSH1 0x3 DUP8 ADD SLOAD PUSH2 0x168D JUMP JUMPDEST PUSH1 0x3 DUP8 ADD PUSH2 0x16DE JUMP JUMPDEST PUSH1 0x20 PUSH1 0x1F DUP3 GT PUSH1 0x1 EQ PUSH2 0xE3C JUMPI DUP2 SWAP3 SWAP4 SWAP5 SWAP6 PUSH1 0x0 SWAP3 PUSH2 0xE31 JUMPI JUMPDEST POP POP DUP2 PUSH1 0x1 SHL SWAP2 PUSH1 0x0 NOT SWAP1 PUSH1 0x3 SHL SHR NOT AND OR PUSH1 0x3 DUP5 ADD SSTORE JUMPDEST PUSH1 0x80 DUP3 ADD MLOAD SWAP3 DUP4 MLOAD PUSH1 0x1 PUSH1 0x1 PUSH1 0x40 SHL SUB DUP2 GT PUSH2 0x31B JUMPI PUSH2 0xB36 DUP2 PUSH2 0xB2D PUSH1 0x4 DUP6 ADD SLOAD PUSH2 0x168D JUMP JUMPDEST PUSH1 0x4 DUP6 ADD PUSH2 0x16DE JUMP JUMPDEST PUSH1 0x20 PUSH1 0x1F DUP3 GT PUSH1 0x1 EQ PUSH2 0xDC2 JUMPI DUP2 SWAP3 SWAP4 SWAP5 SWAP6 PUSH1 0x0 SWAP3 PUSH2 0xDB7 JUMPI JUMPDEST POP POP DUP2 PUSH1 0x1 SHL SWAP2 PUSH1 0x0 NOT SWAP1 PUSH1 0x3 SHL SHR NOT AND OR PUSH1 0x4 DUP3 ADD SSTORE JUMPDEST PUSH1 0xA0 DUP4 ADD MLOAD SWAP3 DUP4 MLOAD PUSH1 0x1 PUSH1 0x1 PUSH1 0x40 SHL SUB DUP2 GT PUSH2 0x31B JUMPI PUSH2 0xB98 DUP2 PUSH2 0xB8F PUSH1 0x5 DUP7 ADD SLOAD PUSH2 0x168D JUMP JUMPDEST PUSH1 0x5 DUP7 ADD PUSH2 0x16DE JUMP JUMPDEST PUSH1 0x20 PUSH1 0x1F DUP3 GT PUSH1 0x1 EQ PUSH2 0xD48 JUMPI DUP2 SWAP3 SWAP4 SWAP5 SWAP6 PUSH1 0x0 SWAP3 PUSH2 0xD3D JUMPI JUMPDEST POP POP DUP2 PUSH1 0x1 SHL SWAP2 PUSH1 0x0 NOT SWAP1 PUSH1 0x3 SHL SHR NOT AND OR PUSH1 0x5 DUP4 ADD SSTORE JUMPDEST PUSH1 0xC0 DUP2 ADD MLOAD DUP1 MLOAD SWAP1 PUSH1 0x1 PUSH1 0x1 PUSH1 0x40 SHL SUB DUP3 GT PUSH2 0x31B JUMPI PUSH2 0xBFA DUP3 PUSH2 0xBF1 PUSH1 0x6 DUP8 ADD SLOAD PUSH2 0x168D JUMP JUMPDEST PUSH1 0x6 DUP8 ADD PUSH2 0x16DE JUMP JUMPDEST PUSH1 0x20 SWAP1 PUSH1 0x1F DUP4 GT PUSH1 0x1 EQ PUSH2 0xCC7 JUMPI SWAP2 DUP1 PUSH1 0x9 SWAP5 SWAP3 PUSH2 0x120 SWAP5 PUSH1 0x0 SWAP3 PUSH2 0xCBC JUMPI JUMPDEST POP POP DUP2 PUSH1 0x1 SHL SWAP2 PUSH1 0x0 NOT SWAP1 PUSH1 0x3 SHL SHR NOT AND OR PUSH1 0x6 DUP6 ADD SSTORE JUMPDEST PUSH1 0x7 DUP5 ADD PUSH1 0x1 PUSH1 0x1 PUSH1 0x40 SHL SUB PUSH1 0xE0 DUP4 ADD MLOAD AND PUSH1 0x1 PUSH1 0x1 PUSH1 0x40 SHL SUB NOT DUP3 SLOAD AND OR SWAP1 SSTORE PUSH2 0x100 DUP2 ADD MLOAD PUSH1 0x8 DUP6 ADD SSTORE ADD MLOAD SWAP2 ADD SSTORE PUSH32 0x2EE13333AC8811576582AB97D74D21F45D3D9508B1EE0A7B53F8F8EF6FF74D43 PUSH2 0xC98 PUSH1 0x64 PUSH1 0x4 CALLDATALOAD ADD PUSH1 0x4 CALLDATALOAD PUSH1 0x4 ADD PUSH2 0x1577 JUMP JUMPDEST SWAP3 PUSH2 0xCB7 PUSH1 0x40 MLOAD SWAP3 DUP4 SWAP3 DUP4 MSTORE PUSH1 0x40 PUSH1 0x20 DUP5 ADD MSTORE CALLER SWAP6 PUSH1 0x40 DUP5 ADD SWAP2 PUSH2 0x15A9 JUMP JUMPDEST SUB SWAP1 LOG2 STOP JUMPDEST ADD MLOAD SWAP1 POP DUP8 DUP1 PUSH2 0xC1A JUMP JUMPDEST SWAP1 PUSH1 0x6 DUP6 ADD PUSH1 0x0 MSTORE PUSH1 0x20 PUSH1 0x0 KECCAK256 SWAP2 PUSH1 0x0 JUMPDEST PUSH1 0x1F NOT DUP6 AND DUP2 LT PUSH2 0xD25 JUMPI POP SWAP3 PUSH1 0x9 SWAP5 SWAP3 PUSH1 0x1 SWAP3 PUSH2 0x120 SWAP6 DUP4 PUSH1 0x1F NOT DUP2 AND LT PUSH2 0xD0C JUMPI JUMPDEST POP POP POP DUP2 SHL ADD PUSH1 0x6 DUP6 ADD SSTORE PUSH2 0xC32 JUMP JUMPDEST ADD MLOAD PUSH1 0x0 NOT PUSH1 0xF8 DUP5 PUSH1 0x3 SHL AND SHR NOT AND SWAP1 SSTORE DUP8 DUP1 DUP1 PUSH2 0xCFC JUMP JUMPDEST SWAP2 SWAP3 PUSH1 0x20 PUSH1 0x1 DUP2 SWAP3 DUP7 DUP6 ADD MLOAD DUP2 SSTORE ADD SWAP5 ADD SWAP3 ADD PUSH2 0xCD8 JUMP JUMPDEST ADD MLOAD SWAP1 POP DUP6 DUP1 PUSH2 0xBB2 JUMP JUMPDEST PUSH1 0x5 DUP5 ADD PUSH1 0x0 MSTORE PUSH1 0x20 PUSH1 0x0 KECCAK256 SWAP1 PUSH1 0x0 JUMPDEST PUSH1 0x1F NOT DUP5 AND DUP2 LT PUSH2 0xD9F JUMPI POP PUSH1 0x1 SWAP4 SWAP5 SWAP6 SWAP7 DUP4 PUSH1 0x1F NOT DUP2 AND LT PUSH2 0xD86 JUMPI JUMPDEST POP POP POP DUP2 SHL ADD PUSH1 0x5 DUP4 ADD SSTORE PUSH2 0xBCA JUMP JUMPDEST ADD MLOAD PUSH1 0x0 NOT PUSH1 0xF8 DUP5 PUSH1 0x3 SHL AND SHR NOT AND SWAP1 SSTORE DUP6 DUP1 DUP1 PUSH2 0xD76 JUMP JUMPDEST SWAP1 SWAP2 PUSH1 0x20 PUSH1 0x1 DUP2 SWAP3 DUP6 DUP12 ADD MLOAD DUP2 SSTORE ADD SWAP4 ADD SWAP2 ADD PUSH2 0xD58 JUMP JUMPDEST ADD MLOAD SWAP1 POP DUP6 DUP1 PUSH2 0xB50 JUMP JUMPDEST PUSH1 0x4 DUP4 ADD PUSH1 0x0 MSTORE PUSH1 0x20 PUSH1 0x0 KECCAK256 SWAP1 PUSH1 0x0 JUMPDEST PUSH1 0x1F NOT DUP5 AND DUP2 LT PUSH2 0xE19 JUMPI POP PUSH1 0x1 SWAP4 SWAP5 SWAP6 SWAP7 DUP4 PUSH1 0x1F NOT DUP2 AND LT PUSH2 0xE00 JUMPI JUMPDEST POP POP POP DUP2 SHL ADD PUSH1 0x4 DUP3 ADD SSTORE PUSH2 0xB68 JUMP JUMPDEST ADD MLOAD PUSH1 0x0 NOT PUSH1 0xF8 DUP5 PUSH1 0x3 SHL AND SHR NOT AND SWAP1 SSTORE DUP6 DUP1 DUP1 PUSH2 0xDF0 JUMP JUMPDEST SWAP1 SWAP2 PUSH1 0x20 PUSH1 0x1 DUP2 SWAP3 DUP6 DUP12 ADD MLOAD DUP2 SSTORE ADD SWAP4 ADD SWAP2 ADD PUSH2 0xDD2 JUMP JUMPDEST ADD MLOAD SWAP1 POP DUP6 DUP1 PUSH2 0xAEE JUMP JUMPDEST PUSH1 0x3 DUP6 ADD PUSH1 0x0 MSTORE PUSH1 0x20 PUSH1 0x0 KECCAK256 SWAP1 PUSH1 0x0 JUMPDEST PUSH1 0x1F NOT DUP5 AND DUP2 LT PUSH2 0xE93 JUMPI POP PUSH1 0x1 SWAP4 SWAP5 SWAP6 SWAP7 DUP4 PUSH1 0x1F NOT DUP2 AND LT PUSH2 0xE7A JUMPI JUMPDEST POP POP POP DUP2 SHL ADD PUSH1 0x3 DUP5 ADD SSTORE PUSH2 0xB06 JUMP JUMPDEST ADD MLOAD PUSH1 0x0 NOT PUSH1 0xF8 DUP5 PUSH1 0x3 SHL AND SHR NOT AND SWAP1 SSTORE DUP6 DUP1 DUP1 PUSH2 0xE6A JUMP JUMPDEST SWAP1 SWAP2 PUSH1 0x20 PUSH1 0x1 DUP2 SWAP3 DUP6 DUP12 ADD MLOAD DUP2 SSTORE ADD SWAP4 ADD SWAP2 ADD PUSH2 0xE4C JUMP JUMPDEST ADD MLOAD SWAP1 POP DUP6 DUP1 PUSH2 0xA8C JUMP JUMPDEST PUSH1 0x2 DUP5 ADD PUSH1 0x0 MSTORE PUSH1 0x20 PUSH1 0x0 KECCAK256 SWAP1 PUSH1 0x0 JUMPDEST PUSH1 0x1F NOT DUP5 AND DUP2 LT PUSH2 0xF0D JUMPI POP PUSH1 0x1 SWAP4 SWAP5 SWAP6 SWAP7 DUP4 PUSH1 0x1F NOT DUP2 AND LT PUSH2 0xEF4 JUMPI JUMPDEST POP POP POP DUP2 SHL ADD PUSH1 0x2 DUP4 ADD SSTORE PUSH2 0xAA4 JUMP JUMPDEST ADD MLOAD PUSH1 0x0 NOT PUSH1 0xF8 DUP5 PUSH1 0x3 SHL AND SHR NOT AND SWAP1 SSTORE DUP6 DUP1 DUP1 PUSH2 0xEE4 JUMP JUMPDEST SWAP1 SWAP2 PUSH1 0x20 PUSH1 0x1 DUP2 SWAP3 DUP6 DUP12 ADD MLOAD DUP2 SSTORE ADD SWAP4 ADD SWAP2 ADD PUSH2 0xEC6 JUMP JUMPDEST ADD MLOAD SWAP1 POP DUP6 DUP1 PUSH2 0xA2A JUMP JUMPDEST PUSH1 0x1 DUP4 ADD PUSH1 0x0 MSTORE PUSH1 0x20 PUSH1 0x0 KECCAK256 SWAP1 PUSH1 0x0 JUMPDEST PUSH1 0x1F NOT DUP5 AND DUP2 LT PUSH2 0xF87 JUMPI POP PUSH1 0x1 SWAP4 SWAP5 SWAP6 SWAP7 DUP4 PUSH1 0x1F NOT DUP2 AND LT PUSH2 0xF6E JUMPI JUMPDEST POP POP POP DUP2 SHL ADD PUSH1 0x1 DUP3 ADD SSTORE PUSH2 0xA42 JUMP JUMPDEST ADD MLOAD PUSH1 0x0 NOT PUSH1 0xF8 DUP5 PUSH1 0x3 SHL AND SHR NOT AND SWAP1 SSTORE DUP6 DUP1 DUP1 PUSH2 0xF5E JUMP JUMPDEST SWAP1 SWAP2 PUSH1 0x20 PUSH1 0x1 DUP2 SWAP3 DUP6 DUP12 ADD MLOAD DUP2 SSTORE ADD SWAP4 ADD SWAP2 ADD PUSH2 0xF40 JUMP JUMPDEST ADD MLOAD SWAP1 POP DUP6 DUP1 PUSH2 0x9CB JUMP JUMPDEST DUP5 PUSH1 0x0 MSTORE PUSH1 0x20 PUSH1 0x0 KECCAK256 SWAP1 PUSH1 0x0 JUMPDEST PUSH1 0x1F NOT DUP5 AND DUP2 LT PUSH2 0xFFB JUMPI POP PUSH1 0x1 SWAP4 SWAP5 SWAP6 SWAP7 DUP4 PUSH1 0x1F NOT DUP2 AND LT PUSH2 0xFE2 JUMPI JUMPDEST POP POP POP DUP2 SHL ADD DUP4 SSTORE PUSH2 0x9E0 JUMP JUMPDEST ADD MLOAD PUSH1 0x0 NOT PUSH1 0xF8 DUP5 PUSH1 0x3 SHL AND SHR NOT AND SWAP1 SSTORE DUP6 DUP1 DUP1 PUSH2 0xFD5 JUMP JUMPDEST SWAP1 SWAP2 PUSH1 0x20 PUSH1 0x1 DUP2 SWAP3 DUP6 DUP12 ADD MLOAD DUP2 SSTORE ADD SWAP4 ADD SWAP2 ADD PUSH2 0xFB7 JUMP JUMPDEST CALLVALUE PUSH2 0x3FB JUMPI PUSH1 0x20 CALLDATASIZE PUSH1 0x3 NOT ADD SLT PUSH2 0x3FB JUMPI PUSH2 0x102C PUSH2 0x14F4 JUMP JUMPDEST PUSH1 0x0 PUSH2 0x120 PUSH1 0x40 MLOAD PUSH2 0x103D DUP2 PUSH2 0x15CA JUMP JUMPDEST PUSH1 0x60 DUP2 MSTORE PUSH1 0x60 PUSH1 0x20 DUP3 ADD MSTORE PUSH1 0x60 PUSH1 0x40 DUP3 ADD MSTORE PUSH1 0x60 DUP1 DUP3 ADD MSTORE PUSH1 0x60 PUSH1 0x80 DUP3 ADD MSTORE PUSH1 0x60 PUSH1 0xA0 DUP3 ADD MSTORE PUSH1 0x60 PUSH1 0xC0 DUP3 ADD MSTORE DUP3 PUSH1 0xE0 DUP3 ADD MSTORE DUP3 PUSH2 0x100 DUP3 ADD MSTORE ADD MSTORE PUSH1 0x1 DUP1 PUSH1 0xA0 SHL SUB AND PUSH1 0x0 MSTORE PUSH1 0x0 PUSH1 0x20 MSTORE PUSH1 0x40 PUSH1 0x0 KECCAK256 PUSH1 0x9 PUSH1 0x40 MLOAD SWAP2 PUSH2 0x109D DUP4 PUSH2 0x15CA JUMP JUMPDEST PUSH1 0x40 MLOAD PUSH2 0x10B5 DUP2 PUSH2 0x10AE DUP2 DUP6 PUSH2 0x1918 JUMP JUMPDEST SUB DUP3 PUSH2 0x15E6 JUMP JUMPDEST DUP4 MSTORE PUSH1 0x40 MLOAD PUSH2 0x10CB DUP2 PUSH2 0x10AE DUP2 PUSH1 0x1 DUP7 ADD PUSH2 0x1918 JUMP JUMPDEST PUSH1 0x20 DUP5 ADD MSTORE PUSH1 0x40 MLOAD PUSH2 0x10E4 DUP2 PUSH2 0x10AE DUP2 PUSH1 0x2 DUP7 ADD PUSH2 0x1918 JUMP JUMPDEST PUSH1 0x40 DUP5 ADD MSTORE PUSH1 0x40 MLOAD PUSH2 0x10FD DUP2 PUSH2 0x10AE DUP2 PUSH1 0x3 DUP7 ADD PUSH2 0x1918 JUMP JUMPDEST PUSH1 0x60 DUP5 ADD MSTORE PUSH1 0x40 MLOAD PUSH2 0x1116 DUP2 PUSH2 0x10AE DUP2 PUSH1 0x4 DUP7 ADD PUSH2 0x1918 JUMP JUMPDEST PUSH1 0x80 DUP5 ADD MSTORE PUSH1 0x40 MLOAD PUSH2 0x112F DUP2 PUSH2 0x10AE DUP2 PUSH1 0x5 DUP7 ADD PUSH2 0x1918 JUMP JUMPDEST PUSH1 0xA0 DUP5 ADD MSTORE PUSH1 0x40 MLOAD PUSH2 0x1148 DUP2 PUSH2 0x10AE DUP2 PUSH1 0x6 DUP7 ADD PUSH2 0x1918 JUMP JUMPDEST PUSH1 0xC0 DUP5 ADD MSTORE PUSH1 0x1 PUSH1 0x1 PUSH1 0x40 SHL SUB PUSH1 0x7 DUP3 ADD SLOAD AND PUSH1 0xE0 DUP5 ADD MSTORE PUSH1 0x8 DUP2 ADD SLOAD PUSH2 0x100 DUP5 ADD MSTORE ADD SLOAD PUSH2 0x120 DUP3 ADD MSTORE PUSH1 0x40 MLOAD DUP1 SWAP2 PUSH1 0x20 DUP3 MSTORE PUSH2 0x120 PUSH2 0x1227 PUSH2 0x119A DUP4 MLOAD PUSH2 0x140 PUSH1 0x20 DUP8 ADD MSTORE PUSH2 0x160 DUP7 ADD SWAP1 PUSH2 0x1537 JUMP JUMPDEST PUSH2 0x1212 PUSH2 0x11FE PUSH2 0x11EA PUSH2 0x11D6 PUSH2 0x11C2 PUSH1 0x20 DUP10 ADD MLOAD SWAP6 PUSH1 0x1F NOT SWAP7 DUP8 DUP13 DUP4 SUB ADD PUSH1 0x40 DUP14 ADD MSTORE PUSH2 0x1537 JUMP JUMPDEST PUSH1 0x40 DUP10 ADD MLOAD DUP7 DUP12 DUP4 SUB ADD PUSH1 0x60 DUP13 ADD MSTORE PUSH2 0x1537 JUMP JUMPDEST PUSH1 0x60 DUP9 ADD MLOAD DUP6 DUP11 DUP4 SUB ADD PUSH1 0x80 DUP12 ADD MSTORE PUSH2 0x1537 JUMP JUMPDEST PUSH1 0x80 DUP8 ADD MLOAD DUP5 DUP10 DUP4 SUB ADD PUSH1 0xA0 DUP11 ADD MSTORE PUSH2 0x1537 JUMP JUMPDEST PUSH1 0xA0 DUP7 ADD MLOAD DUP4 DUP9 DUP4 SUB ADD PUSH1 0xC0 DUP10 ADD MSTORE PUSH2 0x1537 JUMP JUMPDEST SWAP1 PUSH1 0xC0 DUP6 ADD MLOAD SWAP1 DUP7 DUP4 SUB ADD PUSH1 0xE0 DUP8 ADD MSTORE PUSH2 0x1537 JUMP JUMPDEST SWAP2 PUSH1 0x1 PUSH1 0x1 PUSH1 0x40 SHL SUB PUSH1 0xE0 DUP3 ADD MLOAD AND PUSH2 0x100 DUP6 ADD MSTORE PUSH2 0x100 DUP2 ADD MLOAD DUP3 DUP6 ADD MSTORE ADD MLOAD PUSH2 0x140 DUP4 ADD MSTORE SUB SWAP1 RETURN JUMPDEST CALLVALUE PUSH2 0x3FB JUMPI PUSH1 0x40 CALLDATASIZE PUSH1 0x3 NOT ADD SLT PUSH2 0x3FB JUMPI PUSH1 0x1 PUSH1 0x1 PUSH1 0x40 SHL SUB PUSH1 0x4 CALLDATALOAD DUP2 DUP2 GT PUSH2 0x3FB JUMPI PUSH2 0x1283 SWAP1 CALLDATASIZE SWAP1 PUSH1 0x4 ADD PUSH2 0x150A JUMP JUMPDEST SWAP1 PUSH1 0x24 CALLDATALOAD CALLER PUSH1 0x0 MSTORE PUSH1 0x20 SWAP2 PUSH1 0x0 DUP4 MSTORE PUSH1 0x40 PUSH1 0x0 KECCAK256 PUSH2 0x12A4 PUSH2 0xFE DUP3 SLOAD PUSH2 0x168D JUMP JUMPDEST PUSH1 0x3 DUP2 ADD SWAP6 DUP6 GT PUSH2 0x31B JUMPI PUSH2 0x12C3 DUP6 PUSH2 0x12BD DUP9 SLOAD PUSH2 0x168D JUMP JUMPDEST DUP9 PUSH2 0x16DE JUMP JUMPDEST PUSH1 0x0 SWAP6 PUSH1 0x1F DUP7 GT PUSH1 0x1 EQ PUSH2 0x1344 JUMPI PUSH1 0x9 PUSH2 0xCB7 SWAP4 SWAP3 PUSH1 0x0 SWAP3 DUP9 PUSH32 0x3E746005717A4386D83E0A7C8F08D31E690ABEEA1593D82E68DB7AA0307FF49C SWAP10 SWAP11 DUP6 SWAP2 PUSH2 0x1339 JUMPI JUMPDEST POP DUP11 PUSH1 0x1 SHL SWAP1 DUP6 NOT DUP13 PUSH1 0x3 SHL SHR NOT AND OR SWAP1 SSTORE JUMPDEST DUP6 PUSH1 0x8 DUP3 ADD SSTORE ADD SSTORE PUSH1 0x40 DUP1 MLOAD SWAP5 DUP6 SWAP5 DUP6 MSTORE DUP5 ADD MSTORE CALLER SWAP6 PUSH1 0x40 DUP5 ADD SWAP2 PUSH2 0x15A9 JUMP JUMPDEST SWAP1 POP DUP6 ADD CALLDATALOAD DUP12 PUSH2 0x1306 JUMP JUMPDEST PUSH1 0x1F NOT DUP7 AND DUP2 PUSH1 0x0 MSTORE DUP6 PUSH1 0x0 KECCAK256 SWAP1 PUSH1 0x0 JUMPDEST DUP2 DUP2 LT PUSH2 0x13BB JUMPI POP SWAP3 PUSH1 0x0 SWAP3 PUSH1 0x9 SWAP3 DUP10 SWAP11 PUSH32 0x3E746005717A4386D83E0A7C8F08D31E690ABEEA1593D82E68DB7AA0307FF49C SWAP11 PUSH2 0xCB7 SWAP9 SWAP8 LT PUSH2 0x13A2 JUMPI JUMPDEST POP POP PUSH1 0x1 DUP11 DUP2 SHL ADD SWAP1 SSTORE PUSH2 0x1319 JUMP JUMPDEST DUP6 NOT PUSH1 0xF8 DUP14 PUSH1 0x3 SHL AND SHR NOT SWAP1 DUP8 ADD CALLDATALOAD AND SWAP1 SSTORE DUP11 DUP1 PUSH2 0x1393 JUMP JUMPDEST DUP6 DUP11 ADD CALLDATALOAD DUP4 SSTORE SWAP9 DUP8 ADD SWAP9 PUSH1 0x1 SWAP1 SWAP3 ADD SWAP2 DUP8 ADD PUSH2 0x1355 JUMP JUMPDEST CALLVALUE PUSH2 0x3FB JUMPI PUSH1 0x40 CALLDATASIZE PUSH1 0x3 NOT ADD SLT PUSH2 0x3FB JUMPI PUSH1 0x20 PUSH2 0x13F9 PUSH2 0x13F0 PUSH2 0x14F4 JUMP JUMPDEST PUSH1 0x24 CALLDATALOAD SWAP1 PUSH2 0x19E8 JUMP JUMPDEST PUSH1 0x40 MLOAD SWAP1 ISZERO ISZERO DUP2 MSTORE RETURN JUMPDEST CALLVALUE PUSH2 0x3FB JUMPI PUSH1 0x0 CALLDATASIZE PUSH1 0x3 NOT ADD SLT PUSH2 0x3FB JUMPI CALLER PUSH1 0x0 MSTORE PUSH1 0x0 PUSH1 0x20 MSTORE PUSH1 0x0 PUSH1 0x9 PUSH1 0x40 DUP3 KECCAK256 PUSH2 0x142E DUP2 PUSH2 0x18CF JUMP JUMPDEST PUSH2 0x143A PUSH1 0x1 DUP3 ADD PUSH2 0x18CF JUMP JUMPDEST PUSH2 0x1446 PUSH1 0x2 DUP3 ADD PUSH2 0x18CF JUMP JUMPDEST PUSH1 0x3 DUP2 ADD PUSH2 0x1454 DUP2 SLOAD PUSH2 0x168D JUMP JUMPDEST SWAP1 DUP2 PUSH2 0x14B7 JUMPI JUMPDEST POP POP PUSH2 0x1469 PUSH1 0x4 DUP3 ADD PUSH2 0x18CF JUMP JUMPDEST PUSH2 0x1475 PUSH1 0x5 DUP3 ADD PUSH2 0x18CF JUMP JUMPDEST PUSH2 0x1481 PUSH1 0x6 DUP3 ADD PUSH2 0x18CF JUMP JUMPDEST DUP3 PUSH1 0x7 DUP3 ADD SSTORE DUP3 PUSH1 0x8 DUP3 ADD SSTORE ADD SSTORE CALLER PUSH32 0xB6CC1736560B261CF186AC787327C60EF75690EA619F1750D9E7F44F58EE5AF PUSH1 0x0 DUP1 LOG2 STOP JUMPDEST DUP2 PUSH1 0x1F DUP7 SWAP4 GT PUSH1 0x1 EQ PUSH2 0x14CE JUMPI POP SSTORE JUMPDEST DUP4 DUP1 PUSH2 0x145B JUMP JUMPDEST SWAP1 DUP1 DUP4 SWAP2 DUP3 MSTORE PUSH2 0x14ED PUSH1 0x1F PUSH1 0x20 DUP5 KECCAK256 SWAP5 ADD PUSH1 0x5 SHR DUP5 ADD PUSH1 0x1 DUP6 ADD PUSH2 0x16C7 JUMP JUMPDEST SSTORE SSTORE PUSH2 0x14C7 JUMP JUMPDEST PUSH1 0x4 CALLDATALOAD SWAP1 PUSH1 0x1 PUSH1 0x1 PUSH1 0xA0 SHL SUB DUP3 AND DUP3 SUB PUSH2 0x3FB JUMPI JUMP JUMPDEST SWAP2 DUP2 PUSH1 0x1F DUP5 ADD SLT ISZERO PUSH2 0x3FB JUMPI DUP3 CALLDATALOAD SWAP2 PUSH1 0x1 PUSH1 0x1 PUSH1 0x40 SHL SUB DUP4 GT PUSH2 0x3FB JUMPI PUSH1 0x20 DUP4 DUP2 DUP7 ADD SWAP6 ADD ADD GT PUSH2 0x3FB JUMPI JUMP JUMPDEST SWAP2 SWAP1 DUP3 MLOAD SWAP3 DUP4 DUP3 MSTORE PUSH1 0x0 JUMPDEST DUP5 DUP2 LT PUSH2 0x1563 JUMPI POP POP DUP3 PUSH1 0x0 PUSH1 0x20 DUP1 SWAP5 SWAP6 DUP5 ADD ADD MSTORE PUSH1 0x1F DUP1 NOT SWAP2 ADD AND ADD ADD SWAP1 JUMP JUMPDEST PUSH1 0x20 DUP2 DUP4 ADD DUP2 ADD MLOAD DUP5 DUP4 ADD DUP3 ADD MSTORE ADD PUSH2 0x1542 JUMP JUMPDEST SWAP1 CALLDATALOAD SWAP1 PUSH1 0x1E NOT DUP2 CALLDATASIZE SUB ADD DUP3 SLT ISZERO PUSH2 0x3FB JUMPI ADD DUP1 CALLDATALOAD SWAP1 PUSH1 0x1 PUSH1 0x1 PUSH1 0x40 SHL SUB DUP3 GT PUSH2 0x3FB JUMPI PUSH1 0x20 ADD SWAP2 DUP2 CALLDATASIZE SUB DUP4 SGT PUSH2 0x3FB JUMPI JUMP JUMPDEST SWAP1 DUP1 PUSH1 0x20 SWAP4 SWAP3 DUP2 DUP5 MSTORE DUP5 DUP5 ADD CALLDATACOPY PUSH1 0x0 DUP3 DUP3 ADD DUP5 ADD MSTORE PUSH1 0x1F ADD PUSH1 0x1F NOT AND ADD ADD SWAP1 JUMP JUMPDEST PUSH2 0x140 DUP2 ADD SWAP1 DUP2 LT PUSH1 0x1 PUSH1 0x1 PUSH1 0x40 SHL SUB DUP3 GT OR PUSH2 0x31B JUMPI PUSH1 0x40 MSTORE JUMP JUMPDEST SWAP1 PUSH1 0x1F DUP1 NOT SWAP2 ADD AND DUP2 ADD SWAP1 DUP2 LT PUSH1 0x1 PUSH1 0x1 PUSH1 0x40 SHL SUB DUP3 GT OR PUSH2 0x31B JUMPI PUSH1 0x40 MSTORE JUMP JUMPDEST SWAP3 SWAP2 SWAP3 PUSH1 0x1 PUSH1 0x1 PUSH1 0x40 SHL SUB DUP3 GT PUSH2 0x31B JUMPI PUSH1 0x40 MLOAD SWAP2 PUSH2 0x1630 PUSH1 0x1F DUP3 ADD PUSH1 0x1F NOT AND PUSH1 0x20 ADD DUP5 PUSH2 0x15E6 JUMP JUMPDEST DUP3 SWAP5 DUP2 DUP5 MSTORE DUP2 DUP4 ADD GT PUSH2 0x3FB JUMPI DUP3 DUP2 PUSH1 0x20 SWAP4 DUP5 PUSH1 0x0 SWAP7 ADD CALLDATACOPY ADD ADD MSTORE JUMP JUMPDEST ISZERO PUSH2 0x1654 JUMPI JUMP JUMPDEST PUSH1 0x40 MLOAD PUSH3 0x461BCD PUSH1 0xE5 SHL DUP2 MSTORE PUSH1 0x20 PUSH1 0x4 DUP3 ADD MSTORE PUSH1 0x11 PUSH1 0x24 DUP3 ADD MSTORE PUSH17 0x496E76616C6964207369676E6174757265 PUSH1 0x78 SHL PUSH1 0x44 DUP3 ADD MSTORE PUSH1 0x64 SWAP1 REVERT JUMPDEST SWAP1 PUSH1 0x1 DUP3 DUP2 SHR SWAP3 AND DUP1 ISZERO PUSH2 0x16BD JUMPI JUMPDEST PUSH1 0x20 DUP4 LT EQ PUSH2 0x16A7 JUMPI JUMP JUMPDEST PUSH4 0x4E487B71 PUSH1 0xE0 SHL PUSH1 0x0 MSTORE PUSH1 0x22 PUSH1 0x4 MSTORE PUSH1 0x24 PUSH1 0x0 REVERT JUMPDEST SWAP2 PUSH1 0x7F AND SWAP2 PUSH2 0x169C JUMP JUMPDEST DUP2 DUP2 LT PUSH2 0x16D2 JUMPI POP POP JUMP JUMPDEST PUSH1 0x0 DUP2 SSTORE PUSH1 0x1 ADD PUSH2 0x16C7 JUMP JUMPDEST SWAP2 SWAP1 PUSH1 0x1F DUP2 GT PUSH2 0x16ED JUMPI POP POP POP JUMP JUMPDEST PUSH2 0x1719 SWAP3 PUSH1 0x0 MSTORE PUSH1 0x20 PUSH1 0x0 KECCAK256 SWAP1 PUSH1 0x20 PUSH1 0x1F DUP5 ADD PUSH1 0x5 SHR DUP4 ADD SWAP4 LT PUSH2 0x171B JUMPI JUMPDEST PUSH1 0x1F ADD PUSH1 0x5 SHR ADD SWAP1 PUSH2 0x16C7 JUMP JUMPDEST JUMP JUMPDEST SWAP1 SWAP2 POP DUP2 SWAP1 PUSH2 0x170C JUMP JUMPDEST DUP2 MLOAD SWAP2 SWAP1 PUSH1 0x41 DUP4 SUB PUSH2 0x1756 JUMPI PUSH2 0x174F SWAP3 POP PUSH1 0x20 DUP3 ADD MLOAD SWAP1 PUSH1 0x60 PUSH1 0x40 DUP5 ADD MLOAD SWAP4 ADD MLOAD PUSH1 0x0 BYTE SWAP1 PUSH2 0x1761 JUMP JUMPDEST SWAP2 SWAP3 SWAP1 SWAP2 SWAP1 JUMP JUMPDEST POP POP PUSH1 0x0 SWAP2 PUSH1 0x2 SWAP2 SWAP1 JUMP JUMPDEST SWAP2 SWAP1 PUSH32 0x7FFFFFFFFFFFFFFFFFFFFFFFFFFFFFFF5D576E7357A4501DDFE92F46681B20A0 DUP5 GT PUSH2 0x17E5 JUMPI SWAP3 PUSH1 0x20 SWAP3 SWAP2 PUSH1 0xFF PUSH1 0x80 SWAP6 PUSH1 0x40 MLOAD SWAP5 DUP6 MSTORE AND DUP5 DUP5 ADD MSTORE PUSH1 0x40 DUP4 ADD MSTORE PUSH1 0x60 DUP3 ADD MSTORE PUSH1 0x0 SWAP3 DUP4 SWAP2 DUP3 DUP1 MSTORE PUSH1 0x1 GAS STATICCALL ISZERO PUSH2 0x17D9 JUMPI DUP1 MLOAD PUSH1 0x1 PUSH1 0x1 PUSH1 0xA0 SHL SUB DUP2 AND ISZERO PUSH2 0x17D0 JUMPI SWAP2 DUP2 SWAP1 JUMP JUMPDEST POP DUP1 SWAP2 PUSH1 0x1 SWAP2 SWAP1 JUMP JUMPDEST PUSH1 0x40 MLOAD SWAP1 RETURNDATASIZE SWAP1 DUP3 RETURNDATACOPY RETURNDATASIZE SWAP1 REVERT JUMPDEST POP POP POP PUSH1 0x0 SWAP2 PUSH1 0x3 SWAP2 SWAP1 JUMP JUMPDEST PUSH1 0x4 DUP2 LT ISZERO PUSH2 0x1860 JUMPI DUP1 PUSH2 0x1803 JUMPI POP POP JUMP JUMPDEST PUSH1 0x1 DUP2 SUB PUSH2 0x181D JUMPI PUSH1 0x40 MLOAD PUSH4 0xF645EEDF PUSH1 0xE0 SHL DUP2 MSTORE PUSH1 0x4 SWAP1 REVERT JUMPDEST PUSH1 0x2 DUP2 SUB PUSH2 0x183E JUMPI PUSH1 0x40 MLOAD PUSH4 0xFCE698F7 PUSH1 0xE0 SHL DUP2 MSTORE PUSH1 0x4 DUP2 ADD DUP4 SWAP1 MSTORE PUSH1 0x24 SWAP1 REVERT JUMPDEST PUSH1 0x3 EQ PUSH2 0x1848 JUMPI POP JUMP JUMPDEST PUSH1 0x24 SWAP1 PUSH1 0x40 MLOAD SWAP1 PUSH4 0x35E2F383 PUSH1 0xE2 SHL DUP3 MSTORE PUSH1 0x4 DUP3 ADD MSTORE REVERT JUMPDEST PUSH4 0x4E487B71 PUSH1 0xE0 SHL PUSH1 0x0 MSTORE PUSH1 0x21 PUSH1 0x4 MSTORE PUSH1 0x24 PUSH1 0x0 REVERT JUMPDEST ISZERO PUSH2 0x187D JUMPI JUMP JUMPDEST PUSH1 0x40 MLOAD PUSH3 0x461BCD PUSH1 0xE5 SHL DUP2 MSTORE PUSH1 0x20 PUSH1 0x4 DUP3 ADD MSTORE PUSH1 0x18 PUSH1 0x24 DUP3 ADD MSTORE PUSH32 0x4E6F206B65792062756E646C6520726567697374657265640000000000000000 PUSH1 0x44 DUP3 ADD MSTORE PUSH1 0x64 SWAP1 REVERT JUMPDEST SWAP2 SWAP1 DUP3 SUB SWAP2 DUP3 GT PUSH2 0x3E5 JUMPI JUMP JUMPDEST PUSH2 0x18D9 DUP2 SLOAD PUSH2 0x168D JUMP JUMPDEST SWAP1 DUP2 PUSH2 0x18E3 JUMPI POP POP JUMP JUMPDEST DUP2 PUSH1 0x1F PUSH1 0x0 SWAP4 GT PUSH1 0x1 EQ PUSH2 0x18F5 JUMPI POP SSTORE JUMP JUMPDEST SWAP1 DUP1 DUP4 SWAP2 DUP3 MSTORE PUSH2 0x1914 PUSH1 0x1F PUSH1 0x20 DUP5 KECCAK256 SWAP5 ADD PUSH1 0x5 SHR DUP5 ADD PUSH1 0x1 DUP6 ADD PUSH2 0x16C7 JUMP JUMPDEST SSTORE SSTORE JUMP JUMPDEST SWAP1 PUSH1 0x0 SWAP3 SWAP2 DUP1 SLOAD SWAP2 PUSH2 0x1929 DUP4 PUSH2 0x168D JUMP JUMPDEST SWAP2 DUP3 DUP3 MSTORE PUSH1 0x1 SWAP4 DUP5 DUP2 AND SWAP1 DUP2 PUSH1 0x0 EQ PUSH2 0x198B JUMPI POP PUSH1 0x1 EQ PUSH2 0x194B JUMPI JUMPDEST POP POP POP POP JUMP JUMPDEST SWAP1 SWAP2 SWAP4 SWAP5 POP PUSH1 0x0 MSTORE PUSH1 0x20 SWAP3 DUP4 PUSH1 0x0 KECCAK256 SWAP3 DUP5 PUSH1 0x0 SWAP5 JUMPDEST DUP4 DUP7 LT PUSH2 0x1977 JUMPI POP POP POP POP ADD ADD SWAP1 CODESIZE DUP1 DUP1 DUP1 PUSH2 0x1945 JUMP JUMPDEST DUP1 SLOAD DUP6 DUP8 ADD DUP4 ADD MSTORE SWAP5 ADD SWAP4 DUP6 SWAP1 DUP3 ADD PUSH2 0x1960 JUMP JUMPDEST SWAP3 SWAP5 POP POP POP PUSH1 0x20 SWAP4 SWAP5 POP PUSH1 0xFF NOT AND DUP4 DUP4 ADD MSTORE ISZERO ISZERO PUSH1 0x5 SHL ADD ADD SWAP1 CODESIZE DUP1 DUP1 DUP1 PUSH2 0x1945 JUMP JUMPDEST PUSH1 0x1 PUSH1 0x1 PUSH1 0xA0 SHL SUB AND PUSH1 0x0 SWAP1 DUP2 MSTORE PUSH1 0x20 DUP2 SWAP1 MSTORE PUSH1 0x40 SWAP1 KECCAK256 PUSH1 0x8 DUP2 ADD SLOAD DUP1 ISZERO PUSH2 0x19E1 JUMPI PUSH1 0x9 PUSH2 0x19DE SWAP3 ADD SLOAD SWAP1 PUSH2 0x18C2 JUMP JUMPDEST SWAP1 JUMP JUMPDEST POP POP PUSH1 0x0 SWAP1 JUMP JUMPDEST PUSH1 0x1 PUSH1 0x1 PUSH1 0xA0 SHL SUB AND PUSH1 0x0 SWAP1 DUP2 MSTORE PUSH1 0x20 DUP2 SWAP1 MSTORE PUSH1 0x40 DUP2 KECCAK256 PUSH1 0x8 ADD SLOAD SWAP1 SWAP2 SWAP1 DUP2 LT ISZERO PUSH2 0x1A28 JUMPI PUSH1 0xFF SWAP2 PUSH1 0x40 SWAP2 PUSH1 0x1 PUSH1 0x20 MSTORE DUP3 DUP3 KECCAK256 SWAP1 DUP3 MSTORE PUSH1 0x20 MSTORE KECCAK256 SLOAD AND ISZERO SWAP1 JUMP JUMPDEST POP SWAP1 JUMP INVALID LOG2 PUSH5 0x6970667358 0x22 SLT KECCAK256 0x27 DUP3 CALLCODE PUSH28 0x7DA5E9E9F83F03A1426B7302B41B772AB4459FBF6E0F6FC4E058E288 PUSH5 0x736F6C6343 STOP ADDMOD EQ STOP CALLER "},"methodIdentifiers":{"MIN_UPDATE_INTERVAL()":"bd3be27c","consumeOneTimePreKey(address,uint256)":"f7763368","consumedOneTimePreKeys(address,uint256)":"f3872e86","getKeyBundle(address)":"a37b127d","getRemainingOneTimePreKeys(address)":"bf00bae9","hasKeyBundle(address)":"d4f5e7a7","isOneTimePreKeyAvailable(address,uint256)":"45263b46","refillOneTimePreKeys(string,uint256)":"7cf318dc","registerKeyBundle((bytes,bytes,bytes,string,bytes,bytes,bytes,uint256),bytes)":"b3d7c3da","revokeKeyBundle()":"1bb5577d","rotateSignedPreKey(bytes,bytes)":"fa83f6ba"}}}}}