{"contracts/core/ZKVerifier.sol":{"ZKVerifier":{"abi":[{"inputs":[],"stateMutability":"nonpayable","type":"constructor"},{"anonymous":false,"inputs":[{"indexed":true,"internalType":"bytes32","name":"groupId","type":"bytes32"},{"indexed":false,"internalType":"bytes32","name":"nullifier","type":"bytes32"}],"name":"NullifierUsed","type":"event"},{"anonymous":false,"inputs":[{"indexed":true,"internalType":"bytes32","name":"groupId","type":"bytes32"},{"indexed":false,"internalType":"bytes32","name":"merkleRoot","type":"bytes32"}],"name":"RootValidated","type":"event"},{"anonymous":false,"inputs":[],"name":"VerificationKeyUpdated","type":"event"},{"inputs":[{"internalType":"bytes32","name":"","type":"bytes32"},{"internalType":"bytes32","name":"","type":"bytes32"}],"name":"groupNullifiers","outputs":[{"internalType":"bool","name":"","type":"bool"}],"stateMutability":"view","type":"function"},{"inputs":[],"name":"owner","outputs":[{"internalType":"address","name":"","type":"address"}],"stateMutability":"view","type":"function"},{"inputs":[{"internalType":"bytes32","name":"groupId","type":"bytes32"},{"internalType":"bytes32","name":"root","type":"bytes32"},{"internalType":"bool","name":"valid","type":"bool"}],"name":"setValidRoot","outputs":[],"stateMutability":"nonpayable","type":"function"},{"inputs":[{"components":[{"components":[{"internalType":"uint256","name":"X","type":"uint256"},{"internalType":"uint256","name":"Y","type":"uint256"}],"internalType":"struct ZKVerifier.G1Point","name":"alpha","type":"tuple"},{"components":[{"internalType":"uint256[2]","name":"X","type":"uint256[2]"},{"internalType":"uint256[2]","name":"Y","type":"uint256[2]"}],"internalType":"struct ZKVerifier.G2Point","name":"beta","type":"tuple"},{"components":[{"internalType":"uint256[2]","name":"X","type":"uint256[2]"},{"internalType":"uint256[2]","name":"Y","type":"uint256[2]"}],"internalType":"struct ZKVerifier.G2Point","name":"gamma","type":"tuple"},{"components":[{"internalType":"uint256[2]","name":"X","type":"uint256[2]"},{"internalType":"uint256[2]","name":"Y","type":"uint256[2]"}],"internalType":"struct ZKVerifier.G2Point","name":"delta","type":"tuple"},{"components":[{"internalType":"uint256","name":"X","type":"uint256"},{"internalType":"uint256","name":"Y","type":"uint256"}],"internalType":"struct ZKVerifier.G1Point[]","name":"gammaABC","type":"tuple[]"}],"internalType":"struct ZKVerifier.VerifyingKey","name":"newVk","type":"tuple"}],"name":"setVerifyingKey","outputs":[],"stateMutability":"nonpayable","type":"function"},{"inputs":[{"internalType":"bytes32","name":"","type":"bytes32"},{"internalType":"bytes32","name":"","type":"bytes32"}],"name":"validRoots","outputs":[{"internalType":"bool","name":"","type":"bool"}],"stateMutability":"view","type":"function"},{"inputs":[{"internalType":"bytes","name":"proof","type":"bytes"},{"internalType":"bytes32","name":"merkleRoot","type":"bytes32"},{"internalType":"bytes32","name":"groupId","type":"bytes32"},{"internalType":"bytes32","name":"nullifier","type":"bytes32"}],"name":"verifyAndConsumeNullifier","outputs":[{"internalType":"bool","name":"","type":"bool"}],"stateMutability":"nonpayable","type":"function"},{"inputs":[{"internalType":"bytes","name":"proof","type":"bytes"},{"internalType":"bytes32","name":"merkleRoot","type":"bytes32"},{"internalType":"bytes32","name":"groupId","type":"bytes32"},{"internalType":"bytes32","name":"nullifier","type":"bytes32"}],"name":"verifyMembership","outputs":[{"internalType":"bool","name":"","type":"bool"}],"stateMutability":"view","type":"function"}],"evm":{"bytecode":{"linkReferences":{},"object":"6080604052346200042857600080546001600160a01b03191633179055620000266200042d565b600181526020810190600282526200003d6200042d565b6001815260016020820152620000526200042d565b6001815260016020820152620000676200042d565b918252602082019081526200007b6200042d565b6001815260016020820152620000906200042d565b906001825260016020830152620000a66200042d565b90815260208101918252620000ba6200042d565b926001845260016020850152620000d06200042d565b946001865260016020870152620000e66200042d565b948552602085019586526040519760a089016001600160401b0381118a8210176200041257604052600497888a5260005b60808110620003ed575060405160a081016001600160401b03811182821017620003d8578b91608091604052838152856020820152876040820152896060820152015251600155516002555160005b60028110620003c25750505160005b60028110620003ac5750505160005b60028110620003965750505160005b60028110620003805750505160005b600281106200036a5750505160005b600281106200035457505081516801000000000000000081116200033f57600f928354828555808310620002c2575b506020018360005260206000206000915b8383106200029657858560005b8181106200021657604051610ed490816200044e8239f35b620002206200042d565b60018152600260208201528354821015620002815762000259908460005260206000208360011b01906020600191805184550151910155565b60001981146200026c57600101620001fe565b601182634e487b7160e01b6000525260246000fd5b603283634e487b7160e01b6000525260246000fd5b6002602082620002b56001945186906020600191805184550151910155565b01920192019190620001f1565b6001600160ff1b0381811682036200032a578316830362000315578460005260206000209060011b8101908360011b015b818110620003025750620001e0565b60008082556001820155600201620002f3565b601184634e487b7160e01b6000525260246000fd5b601185634e487b7160e01b6000525260246000fd5b604182634e487b7160e01b6000525260246000fd5b6001906020835193019281600d015501620001b1565b6001906020835193019281600b015501620001a2565b6001906020835193019281600901550162000193565b6001906020835193019281600701550162000184565b6001906020835193019281600501550162000175565b6001906020835193019281600301550162000166565b60418b634e487b7160e01b6000525260246000fd5b808b60208093620003fd6200042d565b92600084526000838501520101520162000117565b634e487b7160e01b600052604160045260246000fd5b600080fd5b60408051919082016001600160401b03811183821017620004125760405256fe6080604052600436101561001257600080fd5b6000803560e01c90816319b390e81461008a5750806325d39f431461008557806326f1a864146100805780638da5cb5b1461007b578063ad08d20914610076578063cf90c6b6146100715763fb8f16fb1461006c57600080fd5b61042d565b61034a565b6102ba565b610291565b610252565b610121565b346100c35760403660031901126100c357604060ff91600435815260116020528181206024358252602052205416151560805260206080f35b80fd5b90608060031983011261011c5760043567ffffffffffffffff9283821161011c578060238301121561011c57816004013593841161011c576024848301011161011c576024019190602435906044359060643590565b600080fd5b3461011c576101d86101bd61018f610138366100c6565b959361014b610100859397949514610721565b610156871515610764565b85600052601160205260406000208760005260205261018a610185610181604060002060ff90541690565b1590565b6107b0565b610c72565b610197610876565b916101a1836108a3565b52836101ac836108b5565b52846101b7836108c5565b526109ea565b91826101dc575b505060405190151581529081906020820190565b0390f35b6102488161023861022b7f7bf7b383fa73202309da50f1feabeff4936f245a2f469ad667e684555c92eb2b9461021c876000526011602052604060002090565b90600052602052604060002090565b805460ff19166001179055565b6040519081529081906020820190565b0390a238806101c4565b3461011c57604036600319011261011c5760043560005260106020526040600020602435600052602052602060ff604060002054166040519015158152f35b3461011c57600036600319011261011c576000546040516001600160a01b039091168152602090f35b3461011c57606036600319011261011c57604435600435602435821515830361011c5760207fa15474ecae8e2948af6aa117308b027ee98a3ceabb662802e18256d92bea10419161034060009561031b60018060a01b0388541633146104c2565b85875260108452604087208388528452604087209060ff801983541691151516179055565b604051908152a280f35b3461011c576020600319818136011261011c5760043567ffffffffffffffff811161011c576101e08160040192823603011261011c5760009261039760018060a01b0385541633146104c2565b60019083358255600290602484013582556044840190865b83811061041b57876103f46103ee896101c48a6103ce60848201610541565b6103da60c48201610565565b6103e761014482016105af565b01906105f9565b9061062f565b7f700ad29a50ef4fb344099eee3ea1747a3082e61404dc86e753b7fde79277e8068180a180f35b823560038201559181019184016103af565b3461011c5760206104b8610486610443366100c6565b9290936104566101008397949714610721565b610461841515610764565b8460005260118852604060002084600052885261018a60ff60406000205416156107b0565b9161048f610835565b9360038552606036888701376104a4856108a3565b526104ae846108b5565b526101b7836108c5565b6040519015158152f35b156104c957565b60405162461bcd60e51b81526020600482015260096024820152682737ba1037bbb732b960b91b6044820152606490fd5b634e487b7160e01b600052604160045260246000fd5b634e487b7160e01b600052601160045260246000fd5b908160051b918083046020149015171561053c57565b610510565b60005b60028110610550575050565b60019060208335930192816005015501610544565b8060005b6002811061059a57505060400160005b60028110610585575050565b60019060208335930192816009015501610579565b60019060208335930192816007015501610569565b8060005b600281106105e457505060400160005b600281106105cf575050565b6001906020833593019281600d0155016105c3565b6001906020833593019281600b0155016105b3565b903590601e198136030182121561011c570180359067ffffffffffffffff821161011c57602001918160061b3603831361011c57565b68010000000000000000821161071c57600f5482600f558083106106af575b50600f6000527f8d1108e10bcb7c27dddfc02ed9d693a074039d026cf4ea4240b40f7d581ac8026000915b8383106106865750505050565b60026040826106a360019486906020600191803584550135910155565b01920192019190610679565b6001600160ff1b03818116820361053c578316830361053c576000600f815260017f8d1108e10bcb7c27dddfc02ed9d693a074039d026cf4ea4240b40f7d581ac80292811b83019285821b015b83811061070b5750505061064e565b8083600292558383820155016106fc565b6104fa565b1561072857565b60405162461bcd60e51b8152602060048201526014602482015273092dcecc2d8d2c840e0e4dedecc40d8cadccee8d60631b6044820152606490fd5b1561076b57565b60405162461bcd60e51b815260206004820152601860248201527f4e756c6c69666965722063616e6e6f74206265207a65726f00000000000000006044820152606490fd5b156107b757565b60405162461bcd60e51b8152602060048201526016602482015275139d5b1b1a599a595c88185b1c9958591e481d5cd95960521b6044820152606490fd5b604051906040820182811067ffffffffffffffff82111761071c57604052565b604051906060820182811067ffffffffffffffff82111761071c57604052565b604051906080820182811067ffffffffffffffff82111761071c57604052565b60405190610300820182811067ffffffffffffffff82111761071c57604052565b61087e610835565b60038152906060366020840137565b634e487b7160e01b600052603260045260246000fd5b8051156108b05760200190565b61088d565b8051600110156108b05760400190565b8051600210156108b05760600190565b80518210156108b05760209160051b010190565b600019811461053c5760010190565b156108ff57565b60405162461bcd60e51b8152602060048201526016602482015275546f6f206d616e79207075626c696320696e7075747360501b6044820152606490fd5b600f548110156108b057600f60005260011b7f8d1108e10bcb7c27dddfc02ed9d693a074039d026cf4ea4240b40f7d581ac8020190600090565b9060016109826107f5565b928054845201546020830152565b604051906020820182811067ffffffffffffffff82111761071c576040526020368337565b6040519061010080830183811067ffffffffffffffff82111761071c57604052368337565b6109e26107f5565b906040368337565b9190916109f56107f5565b6000928382526020918483820152918493600f54935b8751861015610a5f57610a53610a5991610a268789106108f8565b610a4d8a610a48610a418b610a3a8161093d565b50936108d5565b5191610977565b610ded565b90610d6f565b956108e9565b94610a0b565b61030096939750829550610a74919450610e50565b81610a826040860151610e50565b918180610a8d610855565b8851518152885182015182820152970180515160200151604089015280515151606089015280518201516020015160808901525101515160a0870152805160c0870152015160e0850152600854610100850152600754610120850152600a54610140850152600954610160850152805161018085015201516101a0830152600c546101c0830152600b546101e0830152600e54610200830152600d54610220830152806102408301528061026083015280610280830152806102a0830152806102c08301526102e0820152610b60610990565b92839160085afa9081610b71575090565b60019150511490565b610b82610815565b90610b8b6107f5565b60008152600060208201528252610ba06107f5565b610ba86107f5565b60403682378152610bb76107f5565b604036823760208201526020830152610bce6107f5565b60008152600060208201526040830152565b15610be757565b60405162461bcd60e51b815260206004820152600f60248201526e141c9bdbd9881d1bdbc81cda1bdc9d608a1b6044820152606490fd5b906001820180921161053c57565b9093929384831161011c57841161011c578101920390565b359060208110610c52575090565b6000199060200360031b1b1690565b9060088110156108b05760051b0190565b90610c7b610b7a565b50610c8a610100821015610be0565b610c926109b5565b9160005b60088110610d2857505050805190602080820151610cb26107f5565b93845281840152610cc16107f5565b9060608301518252604083015181830152610cda6107f5565b60a08401518152608084015182820152610cf26107f5565b9283528183015260e060c0840151930151610d0b6107f5565b93845281840152610d1a610815565b938452830152604082015290565b80610d5a610d54610d3b610d6a94610526565b610d4c610d4785610c1e565b610526565b908787610c2c565b90610c44565b610d648287610c61565b526108e9565b610c96565b610d776107f5565b90600082526000602080930152604051608081019181831067ffffffffffffffff84111761071c5760809484809260409586528051855201518284015280518484015201516060820152610dc96109da565b93849160065afa1561011c5780825192015190610de46107f5565b92835282015290565b60409060609260006020610dff6107f5565b82815201526020610e0e610815565b92805184520151602083015282820152610e266107f5565b9283918336843760075afa1561011c5760208151910151610e456107f5565b918252602082015290565b60006020610e5c6107f5565b828152015260208151917f30644e72e131a029b85045b68181585d2833e84879b9709143e1f593f0000001918291015106810390811161053c57610e456107f556fea2646970667358221220bc8024321b5256c5b6d82060e00fb53b5a4edf159d9cd9a49b8165a6d625e1ec64736f6c63430008140033","opcodes":"PUSH1 0x80 PUSH1 0x40 MSTORE CALLVALUE PUSH3 0x428 JUMPI PUSH1 0x0 DUP1 SLOAD PUSH1 0x1 PUSH1 0x1 PUSH1 0xA0 SHL SUB NOT AND CALLER OR SWAP1 SSTORE PUSH3 0x26 PUSH3 0x42D JUMP JUMPDEST PUSH1 0x1 DUP2 MSTORE PUSH1 0x20 DUP2 ADD SWAP1 PUSH1 0x2 DUP3 MSTORE PUSH3 0x3D PUSH3 0x42D JUMP JUMPDEST PUSH1 0x1 DUP2 MSTORE PUSH1 0x1 PUSH1 0x20 DUP3 ADD MSTORE PUSH3 0x52 PUSH3 0x42D JUMP JUMPDEST PUSH1 0x1 DUP2 MSTORE PUSH1 0x1 PUSH1 0x20 DUP3 ADD MSTORE PUSH3 0x67 PUSH3 0x42D JUMP JUMPDEST SWAP2 DUP3 MSTORE PUSH1 0x20 DUP3 ADD SWAP1 DUP2 MSTORE PUSH3 0x7B PUSH3 0x42D JUMP JUMPDEST PUSH1 0x1 DUP2 MSTORE PUSH1 0x1 PUSH1 0x20 DUP3 ADD MSTORE PUSH3 0x90 PUSH3 0x42D JUMP JUMPDEST SWAP1 PUSH1 0x1 DUP3 MSTORE PUSH1 0x1 PUSH1 0x20 DUP4 ADD MSTORE PUSH3 0xA6 PUSH3 0x42D JUMP JUMPDEST SWAP1 DUP2 MSTORE PUSH1 0x20 DUP2 ADD SWAP2 DUP3 MSTORE PUSH3 0xBA PUSH3 0x42D JUMP JUMPDEST SWAP3 PUSH1 0x1 DUP5 MSTORE PUSH1 0x1 PUSH1 0x20 DUP6 ADD MSTORE PUSH3 0xD0 PUSH3 0x42D JUMP JUMPDEST SWAP5 PUSH1 0x1 DUP7 MSTORE PUSH1 0x1 PUSH1 0x20 DUP8 ADD MSTORE PUSH3 0xE6 PUSH3 0x42D JUMP JUMPDEST SWAP5 DUP6 MSTORE PUSH1 0x20 DUP6 ADD SWAP6 DUP7 MSTORE PUSH1 0x40 MLOAD SWAP8 PUSH1 0xA0 DUP10 ADD PUSH1 0x1 PUSH1 0x1 PUSH1 0x40 SHL SUB DUP2 GT DUP11 DUP3 LT OR PUSH3 0x412 JUMPI PUSH1 0x40 MSTORE PUSH1 0x4 SWAP8 DUP9 DUP11 MSTORE PUSH1 0x0 JUMPDEST PUSH1 0x80 DUP2 LT PUSH3 0x3ED JUMPI POP PUSH1 0x40 MLOAD PUSH1 0xA0 DUP2 ADD PUSH1 0x1 PUSH1 0x1 PUSH1 0x40 SHL SUB DUP2 GT DUP3 DUP3 LT OR PUSH3 0x3D8 JUMPI DUP12 SWAP2 PUSH1 0x80 SWAP2 PUSH1 0x40 MSTORE DUP4 DUP2 MSTORE DUP6 PUSH1 0x20 DUP3 ADD MSTORE DUP8 PUSH1 0x40 DUP3 ADD MSTORE DUP10 PUSH1 0x60 DUP3 ADD MSTORE ADD MSTORE MLOAD PUSH1 0x1 SSTORE MLOAD PUSH1 0x2 SSTORE MLOAD PUSH1 0x0 JUMPDEST PUSH1 0x2 DUP2 LT PUSH3 0x3C2 JUMPI POP POP MLOAD PUSH1 0x0 JUMPDEST PUSH1 0x2 DUP2 LT PUSH3 0x3AC JUMPI POP POP MLOAD PUSH1 0x0 JUMPDEST PUSH1 0x2 DUP2 LT PUSH3 0x396 JUMPI POP POP MLOAD PUSH1 0x0 JUMPDEST PUSH1 0x2 DUP2 LT PUSH3 0x380 JUMPI POP POP MLOAD PUSH1 0x0 JUMPDEST PUSH1 0x2 DUP2 LT PUSH3 0x36A JUMPI POP POP MLOAD PUSH1 0x0 JUMPDEST PUSH1 0x2 DUP2 LT PUSH3 0x354 JUMPI POP POP DUP2 MLOAD PUSH9 0x10000000000000000 DUP2 GT PUSH3 0x33F JUMPI PUSH1 0xF SWAP3 DUP4 SLOAD DUP3 DUP6 SSTORE DUP1 DUP4 LT PUSH3 0x2C2 JUMPI JUMPDEST POP PUSH1 0x20 ADD DUP4 PUSH1 0x0 MSTORE PUSH1 0x20 PUSH1 0x0 KECCAK256 PUSH1 0x0 SWAP2 JUMPDEST DUP4 DUP4 LT PUSH3 0x296 JUMPI DUP6 DUP6 PUSH1 0x0 JUMPDEST DUP2 DUP2 LT PUSH3 0x216 JUMPI PUSH1 0x40 MLOAD PUSH2 0xED4 SWAP1 DUP2 PUSH3 0x44E DUP3 CODECOPY RETURN JUMPDEST PUSH3 0x220 PUSH3 0x42D JUMP JUMPDEST PUSH1 0x1 DUP2 MSTORE PUSH1 0x2 PUSH1 0x20 DUP3 ADD MSTORE DUP4 SLOAD DUP3 LT ISZERO PUSH3 0x281 JUMPI PUSH3 0x259 SWAP1 DUP5 PUSH1 0x0 MSTORE PUSH1 0x20 PUSH1 0x0 KECCAK256 DUP4 PUSH1 0x1 SHL ADD SWAP1 PUSH1 0x20 PUSH1 0x1 SWAP2 DUP1 MLOAD DUP5 SSTORE ADD MLOAD SWAP2 ADD SSTORE JUMP JUMPDEST PUSH1 0x0 NOT DUP2 EQ PUSH3 0x26C JUMPI PUSH1 0x1 ADD PUSH3 0x1FE JUMP JUMPDEST PUSH1 0x11 DUP3 PUSH4 0x4E487B71 PUSH1 0xE0 SHL PUSH1 0x0 MSTORE MSTORE PUSH1 0x24 PUSH1 0x0 REVERT JUMPDEST PUSH1 0x32 DUP4 PUSH4 0x4E487B71 PUSH1 0xE0 SHL PUSH1 0x0 MSTORE MSTORE PUSH1 0x24 PUSH1 0x0 REVERT JUMPDEST PUSH1 0x2 PUSH1 0x20 DUP3 PUSH3 0x2B5 PUSH1 0x1 SWAP5 MLOAD DUP7 SWAP1 PUSH1 0x20 PUSH1 0x1 SWAP2 DUP1 MLOAD DUP5 SSTORE ADD MLOAD SWAP2 ADD SSTORE JUMP JUMPDEST ADD SWAP3 ADD SWAP3 ADD SWAP2 SWAP1 PUSH3 0x1F1 JUMP JUMPDEST PUSH1 0x1 PUSH1 0x1 PUSH1 0xFF SHL SUB DUP2 DUP2 AND DUP3 SUB PUSH3 0x32A JUMPI DUP4 AND DUP4 SUB PUSH3 0x315 JUMPI DUP5 PUSH1 0x0 MSTORE PUSH1 0x20 PUSH1 0x0 KECCAK256 SWAP1 PUSH1 0x1 SHL DUP2 ADD SWAP1 DUP4 PUSH1 0x1 SHL ADD JUMPDEST DUP2 DUP2 LT PUSH3 0x302 JUMPI POP PUSH3 0x1E0 JUMP JUMPDEST PUSH1 0x0 DUP1 DUP3 SSTORE PUSH1 0x1 DUP3 ADD SSTORE PUSH1 0x2 ADD PUSH3 0x2F3 JUMP JUMPDEST PUSH1 0x11 DUP5 PUSH4 0x4E487B71 PUSH1 0xE0 SHL PUSH1 0x0 MSTORE MSTORE PUSH1 0x24 PUSH1 0x0 REVERT JUMPDEST PUSH1 0x11 DUP6 PUSH4 0x4E487B71 PUSH1 0xE0 SHL PUSH1 0x0 MSTORE MSTORE PUSH1 0x24 PUSH1 0x0 REVERT JUMPDEST PUSH1 0x41 DUP3 PUSH4 0x4E487B71 PUSH1 0xE0 SHL PUSH1 0x0 MSTORE MSTORE PUSH1 0x24 PUSH1 0x0 REVERT JUMPDEST PUSH1 0x1 SWAP1 PUSH1 0x20 DUP4 MLOAD SWAP4 ADD SWAP3 DUP2 PUSH1 0xD ADD SSTORE ADD PUSH3 0x1B1 JUMP JUMPDEST PUSH1 0x1 SWAP1 PUSH1 0x20 DUP4 MLOAD SWAP4 ADD SWAP3 DUP2 PUSH1 0xB ADD SSTORE ADD PUSH3 0x1A2 JUMP JUMPDEST PUSH1 0x1 SWAP1 PUSH1 0x20 DUP4 MLOAD SWAP4 ADD SWAP3 DUP2 PUSH1 0x9 ADD SSTORE ADD PUSH3 0x193 JUMP JUMPDEST PUSH1 0x1 SWAP1 PUSH1 0x20 DUP4 MLOAD SWAP4 ADD SWAP3 DUP2 PUSH1 0x7 ADD SSTORE ADD PUSH3 0x184 JUMP JUMPDEST PUSH1 0x1 SWAP1 PUSH1 0x20 DUP4 MLOAD SWAP4 ADD SWAP3 DUP2 PUSH1 0x5 ADD SSTORE ADD PUSH3 0x175 JUMP JUMPDEST PUSH1 0x1 SWAP1 PUSH1 0x20 DUP4 MLOAD SWAP4 ADD SWAP3 DUP2 PUSH1 0x3 ADD SSTORE ADD PUSH3 0x166 JUMP JUMPDEST PUSH1 0x41 DUP12 PUSH4 0x4E487B71 PUSH1 0xE0 SHL PUSH1 0x0 MSTORE MSTORE PUSH1 0x24 PUSH1 0x0 REVERT JUMPDEST DUP1 DUP12 PUSH1 0x20 DUP1 SWAP4 PUSH3 0x3FD PUSH3 0x42D JUMP JUMPDEST SWAP3 PUSH1 0x0 DUP5 MSTORE PUSH1 0x0 DUP4 DUP6 ADD MSTORE ADD ADD MSTORE ADD PUSH3 0x117 JUMP JUMPDEST PUSH4 0x4E487B71 PUSH1 0xE0 SHL PUSH1 0x0 MSTORE PUSH1 0x41 PUSH1 0x4 MSTORE PUSH1 0x24 PUSH1 0x0 REVERT JUMPDEST PUSH1 0x0 DUP1 REVERT JUMPDEST PUSH1 0x40 DUP1 MLOAD SWAP2 SWAP1 DUP3 ADD PUSH1 0x1 PUSH1 0x1 PUSH1 0x40 SHL SUB DUP2 GT DUP4 DUP3 LT OR PUSH3 0x412 JUMPI PUSH1 0x40 MSTORE JUMP INVALID PUSH1 0x80 PUSH1 0x40 MSTORE PUSH1 0x4 CALLDATASIZE LT ISZERO PUSH2 0x12 JUMPI PUSH1 0x0 DUP1 REVERT JUMPDEST PUSH1 0x0 DUP1 CALLDATALOAD PUSH1 0xE0 SHR SWAP1 DUP2 PUSH4 0x19B390E8 EQ PUSH2 0x8A JUMPI POP DUP1 PUSH4 0x25D39F43 EQ PUSH2 0x85 JUMPI DUP1 PUSH4 0x26F1A864 EQ PUSH2 0x80 JUMPI DUP1 PUSH4 0x8DA5CB5B EQ PUSH2 0x7B JUMPI DUP1 PUSH4 0xAD08D209 EQ PUSH2 0x76 JUMPI DUP1 PUSH4 0xCF90C6B6 EQ PUSH2 0x71 JUMPI PUSH4 0xFB8F16FB EQ PUSH2 0x6C JUMPI PUSH1 0x0 DUP1 REVERT JUMPDEST PUSH2 0x42D JUMP JUMPDEST PUSH2 0x34A JUMP JUMPDEST PUSH2 0x2BA JUMP JUMPDEST PUSH2 0x291 JUMP JUMPDEST PUSH2 0x252 JUMP JUMPDEST PUSH2 0x121 JUMP JUMPDEST CALLVALUE PUSH2 0xC3 JUMPI PUSH1 0x40 CALLDATASIZE PUSH1 0x3 NOT ADD SLT PUSH2 0xC3 JUMPI PUSH1 0x40 PUSH1 0xFF SWAP2 PUSH1 0x4 CALLDATALOAD DUP2 MSTORE PUSH1 0x11 PUSH1 0x20 MSTORE DUP2 DUP2 KECCAK256 PUSH1 0x24 CALLDATALOAD DUP3 MSTORE PUSH1 0x20 MSTORE KECCAK256 SLOAD AND ISZERO ISZERO PUSH1 0x80 MSTORE PUSH1 0x20 PUSH1 0x80 RETURN JUMPDEST DUP1 REVERT JUMPDEST SWAP1 PUSH1 0x80 PUSH1 0x3 NOT DUP4 ADD SLT PUSH2 0x11C JUMPI PUSH1 0x4 CALLDATALOAD PUSH8 0xFFFFFFFFFFFFFFFF SWAP3 DUP4 DUP3 GT PUSH2 0x11C JUMPI DUP1 PUSH1 0x23 DUP4 ADD SLT ISZERO PUSH2 0x11C JUMPI DUP2 PUSH1 0x4 ADD CALLDATALOAD SWAP4 DUP5 GT PUSH2 0x11C JUMPI PUSH1 0x24 DUP5 DUP4 ADD ADD GT PUSH2 0x11C JUMPI PUSH1 0x24 ADD SWAP2 SWAP1 PUSH1 0x24 CALLDATALOAD SWAP1 PUSH1 0x44 CALLDATALOAD SWAP1 PUSH1 0x64 CALLDATALOAD SWAP1 JUMP JUMPDEST PUSH1 0x0 DUP1 REVERT JUMPDEST CALLVALUE PUSH2 0x11C JUMPI PUSH2 0x1D8 PUSH2 0x1BD PUSH2 0x18F PUSH2 0x138 CALLDATASIZE PUSH2 0xC6 JUMP JUMPDEST SWAP6 SWAP4 PUSH2 0x14B PUSH2 0x100 DUP6 SWAP4 SWAP8 SWAP5 SWAP6 EQ PUSH2 0x721 JUMP JUMPDEST PUSH2 0x156 DUP8 ISZERO ISZERO PUSH2 0x764 JUMP JUMPDEST DUP6 PUSH1 0x0 MSTORE PUSH1 0x11 PUSH1 0x20 MSTORE PUSH1 0x40 PUSH1 0x0 KECCAK256 DUP8 PUSH1 0x0 MSTORE PUSH1 0x20 MSTORE PUSH2 0x18A PUSH2 0x185 PUSH2 0x181 PUSH1 0x40 PUSH1 0x0 KECCAK256 PUSH1 0xFF SWAP1 SLOAD AND SWAP1 JUMP JUMPDEST ISZERO SWAP1 JUMP JUMPDEST PUSH2 0x7B0 JUMP JUMPDEST PUSH2 0xC72 JUMP JUMPDEST PUSH2 0x197 PUSH2 0x876 JUMP JUMPDEST SWAP2 PUSH2 0x1A1 DUP4 PUSH2 0x8A3 JUMP JUMPDEST MSTORE DUP4 PUSH2 0x1AC DUP4 PUSH2 0x8B5 JUMP JUMPDEST MSTORE DUP5 PUSH2 0x1B7 DUP4 PUSH2 0x8C5 JUMP JUMPDEST MSTORE PUSH2 0x9EA JUMP JUMPDEST SWAP2 DUP3 PUSH2 0x1DC JUMPI JUMPDEST POP POP PUSH1 0x40 MLOAD SWAP1 ISZERO ISZERO DUP2 MSTORE SWAP1 DUP2 SWAP1 PUSH1 0x20 DUP3 ADD SWAP1 JUMP JUMPDEST SUB SWAP1 RETURN JUMPDEST PUSH2 0x248 DUP2 PUSH2 0x238 PUSH2 0x22B PUSH32 0x7BF7B383FA73202309DA50F1FEABEFF4936F245A2F469AD667E684555C92EB2B SWAP5 PUSH2 0x21C DUP8 PUSH1 0x0 MSTORE PUSH1 0x11 PUSH1 0x20 MSTORE PUSH1 0x40 PUSH1 0x0 KECCAK256 SWAP1 JUMP JUMPDEST SWAP1 PUSH1 0x0 MSTORE PUSH1 0x20 MSTORE PUSH1 0x40 PUSH1 0x0 KECCAK256 SWAP1 JUMP JUMPDEST DUP1 SLOAD PUSH1 0xFF NOT AND PUSH1 0x1 OR SWAP1 SSTORE JUMP JUMPDEST PUSH1 0x40 MLOAD SWAP1 DUP2 MSTORE SWAP1 DUP2 SWAP1 PUSH1 0x20 DUP3 ADD SWAP1 JUMP JUMPDEST SUB SWAP1 LOG2 CODESIZE DUP1 PUSH2 0x1C4 JUMP JUMPDEST CALLVALUE PUSH2 0x11C JUMPI PUSH1 0x40 CALLDATASIZE PUSH1 0x3 NOT ADD SLT PUSH2 0x11C JUMPI PUSH1 0x4 CALLDATALOAD PUSH1 0x0 MSTORE PUSH1 0x10 PUSH1 0x20 MSTORE PUSH1 0x40 PUSH1 0x0 KECCAK256 PUSH1 0x24 CALLDATALOAD PUSH1 0x0 MSTORE PUSH1 0x20 MSTORE PUSH1 0x20 PUSH1 0xFF PUSH1 0x40 PUSH1 0x0 KECCAK256 SLOAD AND PUSH1 0x40 MLOAD SWAP1 ISZERO ISZERO DUP2 MSTORE RETURN JUMPDEST CALLVALUE PUSH2 0x11C JUMPI PUSH1 0x0 CALLDATASIZE PUSH1 0x3 NOT ADD SLT PUSH2 0x11C JUMPI PUSH1 0x0 SLOAD PUSH1 0x40 MLOAD PUSH1 0x1 PUSH1 0x1 PUSH1 0xA0 SHL SUB SWAP1 SWAP2 AND DUP2 MSTORE PUSH1 0x20 SWAP1 RETURN JUMPDEST CALLVALUE PUSH2 0x11C JUMPI PUSH1 0x60 CALLDATASIZE PUSH1 0x3 NOT ADD SLT PUSH2 0x11C JUMPI PUSH1 0x44 CALLDATALOAD PUSH1 0x4 CALLDATALOAD PUSH1 0x24 CALLDATALOAD DUP3 ISZERO ISZERO DUP4 SUB PUSH2 0x11C JUMPI PUSH1 0x20 PUSH32 0xA15474ECAE8E2948AF6AA117308B027EE98A3CEABB662802E18256D92BEA1041 SWAP2 PUSH2 0x340 PUSH1 0x0 SWAP6 PUSH2 0x31B PUSH1 0x1 DUP1 PUSH1 0xA0 SHL SUB DUP9 SLOAD AND CALLER EQ PUSH2 0x4C2 JUMP JUMPDEST DUP6 DUP8 MSTORE PUSH1 0x10 DUP5 MSTORE PUSH1 0x40 DUP8 KECCAK256 DUP4 DUP9 MSTORE DUP5 MSTORE PUSH1 0x40 DUP8 KECCAK256 SWAP1 PUSH1 0xFF DUP1 NOT DUP4 SLOAD AND SWAP2 ISZERO ISZERO AND OR SWAP1 SSTORE JUMP JUMPDEST PUSH1 0x40 MLOAD SWAP1 DUP2 MSTORE LOG2 DUP1 RETURN JUMPDEST CALLVALUE PUSH2 0x11C JUMPI PUSH1 0x20 PUSH1 0x3 NOT DUP2 DUP2 CALLDATASIZE ADD SLT PUSH2 0x11C JUMPI PUSH1 0x4 CALLDATALOAD PUSH8 0xFFFFFFFFFFFFFFFF DUP2 GT PUSH2 0x11C JUMPI PUSH2 0x1E0 DUP2 PUSH1 0x4 ADD SWAP3 DUP3 CALLDATASIZE SUB ADD SLT PUSH2 0x11C JUMPI PUSH1 0x0 SWAP3 PUSH2 0x397 PUSH1 0x1 DUP1 PUSH1 0xA0 SHL SUB DUP6 SLOAD AND CALLER EQ PUSH2 0x4C2 JUMP JUMPDEST PUSH1 0x1 SWAP1 DUP4 CALLDATALOAD DUP3 SSTORE PUSH1 0x2 SWAP1 PUSH1 0x24 DUP5 ADD CALLDATALOAD DUP3 SSTORE PUSH1 0x44 DUP5 ADD SWAP1 DUP7 JUMPDEST DUP4 DUP2 LT PUSH2 0x41B JUMPI DUP8 PUSH2 0x3F4 PUSH2 0x3EE DUP10 PUSH2 0x1C4 DUP11 PUSH2 0x3CE PUSH1 0x84 DUP3 ADD PUSH2 0x541 JUMP JUMPDEST PUSH2 0x3DA PUSH1 0xC4 DUP3 ADD PUSH2 0x565 JUMP JUMPDEST PUSH2 0x3E7 PUSH2 0x144 DUP3 ADD PUSH2 0x5AF JUMP JUMPDEST ADD SWAP1 PUSH2 0x5F9 JUMP JUMPDEST SWAP1 PUSH2 0x62F JUMP JUMPDEST PUSH32 0x700AD29A50EF4FB344099EEE3EA1747A3082E61404DC86E753B7FDE79277E806 DUP2 DUP1 LOG1 DUP1 RETURN JUMPDEST DUP3 CALLDATALOAD PUSH1 0x3 DUP3 ADD SSTORE SWAP2 DUP2 ADD SWAP2 DUP5 ADD PUSH2 0x3AF JUMP JUMPDEST CALLVALUE PUSH2 0x11C JUMPI PUSH1 0x20 PUSH2 0x4B8 PUSH2 0x486 PUSH2 0x443 CALLDATASIZE PUSH2 0xC6 JUMP JUMPDEST SWAP3 SWAP1 SWAP4 PUSH2 0x456 PUSH2 0x100 DUP4 SWAP8 SWAP5 SWAP8 EQ PUSH2 0x721 JUMP JUMPDEST PUSH2 0x461 DUP5 ISZERO ISZERO PUSH2 0x764 JUMP JUMPDEST DUP5 PUSH1 0x0 MSTORE PUSH1 0x11 DUP9 MSTORE PUSH1 0x40 PUSH1 0x0 KECCAK256 DUP5 PUSH1 0x0 MSTORE DUP9 MSTORE PUSH2 0x18A PUSH1 0xFF PUSH1 0x40 PUSH1 0x0 KECCAK256 SLOAD AND ISZERO PUSH2 0x7B0 JUMP JUMPDEST SWAP2 PUSH2 0x48F PUSH2 0x835 JUMP JUMPDEST SWAP4 PUSH1 0x3 DUP6 MSTORE PUSH1 0x60 CALLDATASIZE DUP9 DUP8 ADD CALLDATACOPY PUSH2 0x4A4 DUP6 PUSH2 0x8A3 JUMP JUMPDEST MSTORE PUSH2 0x4AE DUP5 PUSH2 0x8B5 JUMP JUMPDEST MSTORE PUSH2 0x1B7 DUP4 PUSH2 0x8C5 JUMP JUMPDEST PUSH1 0x40 MLOAD SWAP1 ISZERO ISZERO DUP2 MSTORE RETURN JUMPDEST ISZERO PUSH2 0x4C9 JUMPI JUMP JUMPDEST PUSH1 0x40 MLOAD PUSH3 0x461BCD PUSH1 0xE5 SHL DUP2 MSTORE PUSH1 0x20 PUSH1 0x4 DUP3 ADD MSTORE PUSH1 0x9 PUSH1 0x24 DUP3 ADD MSTORE PUSH9 0x2737BA1037BBB732B9 PUSH1 0xB9 SHL PUSH1 0x44 DUP3 ADD MSTORE PUSH1 0x64 SWAP1 REVERT JUMPDEST PUSH4 0x4E487B71 PUSH1 0xE0 SHL PUSH1 0x0 MSTORE PUSH1 0x41 PUSH1 0x4 MSTORE PUSH1 0x24 PUSH1 0x0 REVERT JUMPDEST PUSH4 0x4E487B71 PUSH1 0xE0 SHL PUSH1 0x0 MSTORE PUSH1 0x11 PUSH1 0x4 MSTORE PUSH1 0x24 PUSH1 0x0 REVERT JUMPDEST SWAP1 DUP2 PUSH1 0x5 SHL SWAP2 DUP1 DUP4 DIV PUSH1 0x20 EQ SWAP1 ISZERO OR ISZERO PUSH2 0x53C JUMPI JUMP JUMPDEST PUSH2 0x510 JUMP JUMPDEST PUSH1 0x0 JUMPDEST PUSH1 0x2 DUP2 LT PUSH2 0x550 JUMPI POP POP JUMP JUMPDEST PUSH1 0x1 SWAP1 PUSH1 0x20 DUP4 CALLDATALOAD SWAP4 ADD SWAP3 DUP2 PUSH1 0x5 ADD SSTORE ADD PUSH2 0x544 JUMP JUMPDEST DUP1 PUSH1 0x0 JUMPDEST PUSH1 0x2 DUP2 LT PUSH2 0x59A JUMPI POP POP PUSH1 0x40 ADD PUSH1 0x0 JUMPDEST PUSH1 0x2 DUP2 LT PUSH2 0x585 JUMPI POP POP JUMP JUMPDEST PUSH1 0x1 SWAP1 PUSH1 0x20 DUP4 CALLDATALOAD SWAP4 ADD SWAP3 DUP2 PUSH1 0x9 ADD SSTORE ADD PUSH2 0x579 JUMP JUMPDEST PUSH1 0x1 SWAP1 PUSH1 0x20 DUP4 CALLDATALOAD SWAP4 ADD SWAP3 DUP2 PUSH1 0x7 ADD SSTORE ADD PUSH2 0x569 JUMP JUMPDEST DUP1 PUSH1 0x0 JUMPDEST PUSH1 0x2 DUP2 LT PUSH2 0x5E4 JUMPI POP POP PUSH1 0x40 ADD PUSH1 0x0 JUMPDEST PUSH1 0x2 DUP2 LT PUSH2 0x5CF JUMPI POP POP JUMP JUMPDEST PUSH1 0x1 SWAP1 PUSH1 0x20 DUP4 CALLDATALOAD SWAP4 ADD SWAP3 DUP2 PUSH1 0xD ADD SSTORE ADD PUSH2 0x5C3 JUMP JUMPDEST PUSH1 0x1 SWAP1 PUSH1 0x20 DUP4 CALLDATALOAD SWAP4 ADD SWAP3 DUP2 PUSH1 0xB ADD SSTORE ADD PUSH2 0x5B3 JUMP JUMPDEST SWAP1 CALLDATALOAD SWAP1 PUSH1 0x1E NOT DUP2 CALLDATASIZE SUB ADD DUP3 SLT ISZERO PUSH2 0x11C JUMPI ADD DUP1 CALLDATALOAD SWAP1 PUSH8 0xFFFFFFFFFFFFFFFF DUP3 GT PUSH2 0x11C JUMPI PUSH1 0x20 ADD SWAP2 DUP2 PUSH1 0x6 SHL CALLDATASIZE SUB DUP4 SGT PUSH2 0x11C JUMPI JUMP JUMPDEST PUSH9 0x10000000000000000 DUP3 GT PUSH2 0x71C JUMPI PUSH1 0xF SLOAD DUP3 PUSH1 0xF SSTORE DUP1 DUP4 LT PUSH2 0x6AF JUMPI JUMPDEST POP PUSH1 0xF PUSH1 0x0 MSTORE PUSH32 0x8D1108E10BCB7C27DDDFC02ED9D693A074039D026CF4EA4240B40F7D581AC802 PUSH1 0x0 SWAP2 JUMPDEST DUP4 DUP4 LT PUSH2 0x686 JUMPI POP POP POP POP JUMP JUMPDEST PUSH1 0x2 PUSH1 0x40 DUP3 PUSH2 0x6A3 PUSH1 0x1 SWAP5 DUP7 SWAP1 PUSH1 0x20 PUSH1 0x1 SWAP2 DUP1 CALLDATALOAD DUP5 SSTORE ADD CALLDATALOAD SWAP2 ADD SSTORE JUMP JUMPDEST ADD SWAP3 ADD SWAP3 ADD SWAP2 SWAP1 PUSH2 0x679 JUMP JUMPDEST PUSH1 0x1 PUSH1 0x1 PUSH1 0xFF SHL SUB DUP2 DUP2 AND DUP3 SUB PUSH2 0x53C JUMPI DUP4 AND DUP4 SUB PUSH2 0x53C JUMPI PUSH1 0x0 PUSH1 0xF DUP2 MSTORE PUSH1 0x1 PUSH32 0x8D1108E10BCB7C27DDDFC02ED9D693A074039D026CF4EA4240B40F7D581AC802 SWAP3 DUP2 SHL DUP4 ADD SWAP3 DUP6 DUP3 SHL ADD JUMPDEST DUP4 DUP2 LT PUSH2 0x70B JUMPI POP POP POP PUSH2 0x64E JUMP JUMPDEST DUP1 DUP4 PUSH1 0x2 SWAP3 SSTORE DUP4 DUP4 DUP3 ADD SSTORE ADD PUSH2 0x6FC JUMP JUMPDEST PUSH2 0x4FA JUMP JUMPDEST ISZERO PUSH2 0x728 JUMPI JUMP JUMPDEST PUSH1 0x40 MLOAD PUSH3 0x461BCD PUSH1 0xE5 SHL DUP2 MSTORE PUSH1 0x20 PUSH1 0x4 DUP3 ADD MSTORE PUSH1 0x14 PUSH1 0x24 DUP3 ADD MSTORE PUSH20 0x92DCECC2D8D2C840E0E4DEDECC40D8CADCCEE8D PUSH1 0x63 SHL PUSH1 0x44 DUP3 ADD MSTORE PUSH1 0x64 SWAP1 REVERT JUMPDEST ISZERO PUSH2 0x76B JUMPI JUMP JUMPDEST PUSH1 0x40 MLOAD PUSH3 0x461BCD PUSH1 0xE5 SHL DUP2 MSTORE PUSH1 0x20 PUSH1 0x4 DUP3 ADD MSTORE PUSH1 0x18 PUSH1 0x24 DUP3 ADD MSTORE PUSH32 0x4E756C6C69666965722063616E6E6F74206265207A65726F0000000000000000 PUSH1 0x44 DUP3 ADD MSTORE PUSH1 0x64 SWAP1 REVERT JUMPDEST ISZERO PUSH2 0x7B7 JUMPI JUMP JUMPDEST PUSH1 0x40 MLOAD PUSH3 0x461BCD PUSH1 0xE5 SHL DUP2 MSTORE PUSH1 0x20 PUSH1 0x4 DUP3 ADD MSTORE PUSH1 0x16 PUSH1 0x24 DUP3 ADD MSTORE PUSH22 0x139D5B1B1A599A595C88185B1C9958591E481D5CD959 PUSH1 0x52 SHL PUSH1 0x44 DUP3 ADD MSTORE PUSH1 0x64 SWAP1 REVERT JUMPDEST PUSH1 0x40 MLOAD SWAP1 PUSH1 0x40 DUP3 ADD DUP3 DUP2 LT PUSH8 0xFFFFFFFFFFFFFFFF DUP3 GT OR PUSH2 0x71C JUMPI PUSH1 0x40 MSTORE JUMP JUMPDEST PUSH1 0x40 MLOAD SWAP1 PUSH1 0x60 DUP3 ADD DUP3 DUP2 LT PUSH8 0xFFFFFFFFFFFFFFFF DUP3 GT OR PUSH2 0x71C JUMPI PUSH1 0x40 MSTORE JUMP JUMPDEST PUSH1 0x40 MLOAD SWAP1 PUSH1 0x80 DUP3 ADD DUP3 DUP2 LT PUSH8 0xFFFFFFFFFFFFFFFF DUP3 GT OR PUSH2 0x71C JUMPI PUSH1 0x40 MSTORE JUMP JUMPDEST PUSH1 0x40 MLOAD SWAP1 PUSH2 0x300 DUP3 ADD DUP3 DUP2 LT PUSH8 0xFFFFFFFFFFFFFFFF DUP3 GT OR PUSH2 0x71C JUMPI PUSH1 0x40 MSTORE JUMP JUMPDEST PUSH2 0x87E PUSH2 0x835 JUMP JUMPDEST PUSH1 0x3 DUP2 MSTORE SWAP1 PUSH1 0x60 CALLDATASIZE PUSH1 0x20 DUP5 ADD CALLDATACOPY JUMP JUMPDEST PUSH4 0x4E487B71 PUSH1 0xE0 SHL PUSH1 0x0 MSTORE PUSH1 0x32 PUSH1 0x4 MSTORE PUSH1 0x24 PUSH1 0x0 REVERT JUMPDEST DUP1 MLOAD ISZERO PUSH2 0x8B0 JUMPI PUSH1 0x20 ADD SWAP1 JUMP JUMPDEST PUSH2 0x88D JUMP JUMPDEST DUP1 MLOAD PUSH1 0x1 LT ISZERO PUSH2 0x8B0 JUMPI PUSH1 0x40 ADD SWAP1 JUMP JUMPDEST DUP1 MLOAD PUSH1 0x2 LT ISZERO PUSH2 0x8B0 JUMPI PUSH1 0x60 ADD SWAP1 JUMP JUMPDEST DUP1 MLOAD DUP3 LT ISZERO PUSH2 0x8B0 JUMPI PUSH1 0x20 SWAP2 PUSH1 0x5 SHL ADD ADD SWAP1 JUMP JUMPDEST PUSH1 0x0 NOT DUP2 EQ PUSH2 0x53C JUMPI PUSH1 0x1 ADD SWAP1 JUMP JUMPDEST ISZERO PUSH2 0x8FF JUMPI JUMP JUMPDEST PUSH1 0x40 MLOAD PUSH3 0x461BCD PUSH1 0xE5 SHL DUP2 MSTORE PUSH1 0x20 PUSH1 0x4 DUP3 ADD MSTORE PUSH1 0x16 PUSH1 0x24 DUP3 ADD MSTORE PUSH22 0x546F6F206D616E79207075626C696320696E70757473 PUSH1 0x50 SHL PUSH1 0x44 DUP3 ADD MSTORE PUSH1 0x64 SWAP1 REVERT JUMPDEST PUSH1 0xF SLOAD DUP2 LT ISZERO PUSH2 0x8B0 JUMPI PUSH1 0xF PUSH1 0x0 MSTORE PUSH1 0x1 SHL PUSH32 0x8D1108E10BCB7C27DDDFC02ED9D693A074039D026CF4EA4240B40F7D581AC802 ADD SWAP1 PUSH1 0x0 SWAP1 JUMP JUMPDEST SWAP1 PUSH1 0x1 PUSH2 0x982 PUSH2 0x7F5 JUMP JUMPDEST SWAP3 DUP1 SLOAD DUP5 MSTORE ADD SLOAD PUSH1 0x20 DUP4 ADD MSTORE JUMP JUMPDEST PUSH1 0x40 MLOAD SWAP1 PUSH1 0x20 DUP3 ADD DUP3 DUP2 LT PUSH8 0xFFFFFFFFFFFFFFFF DUP3 GT OR PUSH2 0x71C JUMPI PUSH1 0x40 MSTORE PUSH1 0x20 CALLDATASIZE DUP4 CALLDATACOPY JUMP JUMPDEST PUSH1 0x40 MLOAD SWAP1 PUSH2 0x100 DUP1 DUP4 ADD DUP4 DUP2 LT PUSH8 0xFFFFFFFFFFFFFFFF DUP3 GT OR PUSH2 0x71C JUMPI PUSH1 0x40 MSTORE CALLDATASIZE DUP4 CALLDATACOPY JUMP JUMPDEST PUSH2 0x9E2 PUSH2 0x7F5 JUMP JUMPDEST SWAP1 PUSH1 0x40 CALLDATASIZE DUP4 CALLDATACOPY JUMP JUMPDEST SWAP2 SWAP1 SWAP2 PUSH2 0x9F5 PUSH2 0x7F5 JUMP JUMPDEST PUSH1 0x0 SWAP3 DUP4 DUP3 MSTORE PUSH1 0x20 SWAP2 DUP5 DUP4 DUP3 ADD MSTORE SWAP2 DUP5 SWAP4 PUSH1 0xF SLOAD SWAP4 JUMPDEST DUP8 MLOAD DUP7 LT ISZERO PUSH2 0xA5F JUMPI PUSH2 0xA53 PUSH2 0xA59 SWAP2 PUSH2 0xA26 DUP8 DUP10 LT PUSH2 0x8F8 JUMP JUMPDEST PUSH2 0xA4D DUP11 PUSH2 0xA48 PUSH2 0xA41 DUP12 PUSH2 0xA3A DUP2 PUSH2 0x93D JUMP JUMPDEST POP SWAP4 PUSH2 0x8D5 JUMP JUMPDEST MLOAD SWAP2 PUSH2 0x977 JUMP JUMPDEST PUSH2 0xDED JUMP JUMPDEST SWAP1 PUSH2 0xD6F JUMP JUMPDEST SWAP6 PUSH2 0x8E9 JUMP JUMPDEST SWAP5 PUSH2 0xA0B JUMP JUMPDEST PUSH2 0x300 SWAP7 SWAP4 SWAP8 POP DUP3 SWAP6 POP PUSH2 0xA74 SWAP2 SWAP5 POP PUSH2 0xE50 JUMP JUMPDEST DUP2 PUSH2 0xA82 PUSH1 0x40 DUP7 ADD MLOAD PUSH2 0xE50 JUMP JUMPDEST SWAP2 DUP2 DUP1 PUSH2 0xA8D PUSH2 0x855 JUMP JUMPDEST DUP9 MLOAD MLOAD DUP2 MSTORE DUP9 MLOAD DUP3 ADD MLOAD DUP3 DUP3 ADD MSTORE SWAP8 ADD DUP1 MLOAD MLOAD PUSH1 0x20 ADD MLOAD PUSH1 0x40 DUP10 ADD MSTORE DUP1 MLOAD MLOAD MLOAD PUSH1 0x60 DUP10 ADD MSTORE DUP1 MLOAD DUP3 ADD MLOAD PUSH1 0x20 ADD MLOAD PUSH1 0x80 DUP10 ADD MSTORE MLOAD ADD MLOAD MLOAD PUSH1 0xA0 DUP8 ADD MSTORE DUP1 MLOAD PUSH1 0xC0 DUP8 ADD MSTORE ADD MLOAD PUSH1 0xE0 DUP6 ADD MSTORE PUSH1 0x8 SLOAD PUSH2 0x100 DUP6 ADD MSTORE PUSH1 0x7 SLOAD PUSH2 0x120 DUP6 ADD MSTORE PUSH1 0xA SLOAD PUSH2 0x140 DUP6 ADD MSTORE PUSH1 0x9 SLOAD PUSH2 0x160 DUP6 ADD MSTORE DUP1 MLOAD PUSH2 0x180 DUP6 ADD MSTORE ADD MLOAD PUSH2 0x1A0 DUP4 ADD MSTORE PUSH1 0xC SLOAD PUSH2 0x1C0 DUP4 ADD MSTORE PUSH1 0xB SLOAD PUSH2 0x1E0 DUP4 ADD MSTORE PUSH1 0xE SLOAD PUSH2 0x200 DUP4 ADD MSTORE PUSH1 0xD SLOAD PUSH2 0x220 DUP4 ADD MSTORE DUP1 PUSH2 0x240 DUP4 ADD MSTORE DUP1 PUSH2 0x260 DUP4 ADD MSTORE DUP1 PUSH2 0x280 DUP4 ADD MSTORE DUP1 PUSH2 0x2A0 DUP4 ADD MSTORE DUP1 PUSH2 0x2C0 DUP4 ADD MSTORE PUSH2 0x2E0 DUP3 ADD MSTORE PUSH2 0xB60 PUSH2 0x990 JUMP JUMPDEST SWAP3 DUP4 SWAP2 PUSH1 0x8 GAS STATICCALL SWAP1 DUP2 PUSH2 0xB71 JUMPI POP SWAP1 JUMP JUMPDEST PUSH1 0x1 SWAP2 POP MLOAD EQ SWAP1 JUMP JUMPDEST PUSH2 0xB82 PUSH2 0x815 JUMP JUMPDEST SWAP1 PUSH2 0xB8B PUSH2 0x7F5 JUMP JUMPDEST PUSH1 0x0 DUP2 MSTORE PUSH1 0x0 PUSH1 0x20 DUP3 ADD MSTORE DUP3 MSTORE PUSH2 0xBA0 PUSH2 0x7F5 JUMP JUMPDEST PUSH2 0xBA8 PUSH2 0x7F5 JUMP JUMPDEST PUSH1 0x40 CALLDATASIZE DUP3 CALLDATACOPY DUP2 MSTORE PUSH2 0xBB7 PUSH2 0x7F5 JUMP JUMPDEST PUSH1 0x40 CALLDATASIZE DUP3 CALLDATACOPY PUSH1 0x20 DUP3 ADD MSTORE PUSH1 0x20 DUP4 ADD MSTORE PUSH2 0xBCE PUSH2 0x7F5 JUMP JUMPDEST PUSH1 0x0 DUP2 MSTORE PUSH1 0x0 PUSH1 0x20 DUP3 ADD MSTORE PUSH1 0x40 DUP4 ADD MSTORE JUMP JUMPDEST ISZERO PUSH2 0xBE7 JUMPI JUMP JUMPDEST PUSH1 0x40 MLOAD PUSH3 0x461BCD PUSH1 0xE5 SHL DUP2 MSTORE PUSH1 0x20 PUSH1 0x4 DUP3 ADD MSTORE PUSH1 0xF PUSH1 0x24 DUP3 ADD MSTORE PUSH15 0x141C9BDBD9881D1BDBC81CDA1BDC9D PUSH1 0x8A SHL PUSH1 0x44 DUP3 ADD MSTORE PUSH1 0x64 SWAP1 REVERT JUMPDEST SWAP1 PUSH1 0x1 DUP3 ADD DUP1 SWAP3 GT PUSH2 0x53C JUMPI JUMP JUMPDEST SWAP1 SWAP4 SWAP3 SWAP4 DUP5 DUP4 GT PUSH2 0x11C JUMPI DUP5 GT PUSH2 0x11C JUMPI DUP2 ADD SWAP3 SUB SWAP1 JUMP JUMPDEST CALLDATALOAD SWAP1 PUSH1 0x20 DUP2 LT PUSH2 0xC52 JUMPI POP SWAP1 JUMP JUMPDEST PUSH1 0x0 NOT SWAP1 PUSH1 0x20 SUB PUSH1 0x3 SHL SHL AND SWAP1 JUMP JUMPDEST SWAP1 PUSH1 0x8 DUP2 LT ISZERO PUSH2 0x8B0 JUMPI PUSH1 0x5 SHL ADD SWAP1 JUMP JUMPDEST SWAP1 PUSH2 0xC7B PUSH2 0xB7A JUMP JUMPDEST POP PUSH2 0xC8A PUSH2 0x100 DUP3 LT ISZERO PUSH2 0xBE0 JUMP JUMPDEST PUSH2 0xC92 PUSH2 0x9B5 JUMP JUMPDEST SWAP2 PUSH1 0x0 JUMPDEST PUSH1 0x8 DUP2 LT PUSH2 0xD28 JUMPI POP POP POP DUP1 MLOAD SWAP1 PUSH1 0x20 DUP1 DUP3 ADD MLOAD PUSH2 0xCB2 PUSH2 0x7F5 JUMP JUMPDEST SWAP4 DUP5 MSTORE DUP2 DUP5 ADD MSTORE PUSH2 0xCC1 PUSH2 0x7F5 JUMP JUMPDEST SWAP1 PUSH1 0x60 DUP4 ADD MLOAD DUP3 MSTORE PUSH1 0x40 DUP4 ADD MLOAD DUP2 DUP4 ADD MSTORE PUSH2 0xCDA PUSH2 0x7F5 JUMP JUMPDEST PUSH1 0xA0 DUP5 ADD MLOAD DUP2 MSTORE PUSH1 0x80 DUP5 ADD MLOAD DUP3 DUP3 ADD MSTORE PUSH2 0xCF2 PUSH2 0x7F5 JUMP JUMPDEST SWAP3 DUP4 MSTORE DUP2 DUP4 ADD MSTORE PUSH1 0xE0 PUSH1 0xC0 DUP5 ADD MLOAD SWAP4 ADD MLOAD PUSH2 0xD0B PUSH2 0x7F5 JUMP JUMPDEST SWAP4 DUP5 MSTORE DUP2 DUP5 ADD MSTORE PUSH2 0xD1A PUSH2 0x815 JUMP JUMPDEST SWAP4 DUP5 MSTORE DUP4 ADD MSTORE PUSH1 0x40 DUP3 ADD MSTORE SWAP1 JUMP JUMPDEST DUP1 PUSH2 0xD5A PUSH2 0xD54 PUSH2 0xD3B PUSH2 0xD6A SWAP5 PUSH2 0x526 JUMP JUMPDEST PUSH2 0xD4C PUSH2 0xD47 DUP6 PUSH2 0xC1E JUMP JUMPDEST PUSH2 0x526 JUMP JUMPDEST SWAP1 DUP8 DUP8 PUSH2 0xC2C JUMP JUMPDEST SWAP1 PUSH2 0xC44 JUMP JUMPDEST PUSH2 0xD64 DUP3 DUP8 PUSH2 0xC61 JUMP JUMPDEST MSTORE PUSH2 0x8E9 JUMP JUMPDEST PUSH2 0xC96 JUMP JUMPDEST PUSH2 0xD77 PUSH2 0x7F5 JUMP JUMPDEST SWAP1 PUSH1 0x0 DUP3 MSTORE PUSH1 0x0 PUSH1 0x20 DUP1 SWAP4 ADD MSTORE PUSH1 0x40 MLOAD PUSH1 0x80 DUP2 ADD SWAP2 DUP2 DUP4 LT PUSH8 0xFFFFFFFFFFFFFFFF DUP5 GT OR PUSH2 0x71C JUMPI PUSH1 0x80 SWAP5 DUP5 DUP1 SWAP3 PUSH1 0x40 SWAP6 DUP7 MSTORE DUP1 MLOAD DUP6 MSTORE ADD MLOAD DUP3 DUP5 ADD MSTORE DUP1 MLOAD DUP5 DUP5 ADD MSTORE ADD MLOAD PUSH1 0x60 DUP3 ADD MSTORE PUSH2 0xDC9 PUSH2 0x9DA JUMP JUMPDEST SWAP4 DUP5 SWAP2 PUSH1 0x6 GAS STATICCALL ISZERO PUSH2 0x11C JUMPI DUP1 DUP3 MLOAD SWAP3 ADD MLOAD SWAP1 PUSH2 0xDE4 PUSH2 0x7F5 JUMP JUMPDEST SWAP3 DUP4 MSTORE DUP3 ADD MSTORE SWAP1 JUMP JUMPDEST PUSH1 0x40 SWAP1 PUSH1 0x60 SWAP3 PUSH1 0x0 PUSH1 0x20 PUSH2 0xDFF PUSH2 0x7F5 JUMP JUMPDEST DUP3 DUP2 MSTORE ADD MSTORE PUSH1 0x20 PUSH2 0xE0E PUSH2 0x815 JUMP JUMPDEST SWAP3 DUP1 MLOAD DUP5 MSTORE ADD MLOAD PUSH1 0x20 DUP4 ADD MSTORE DUP3 DUP3 ADD MSTORE PUSH2 0xE26 PUSH2 0x7F5 JUMP JUMPDEST SWAP3 DUP4 SWAP2 DUP4 CALLDATASIZE DUP5 CALLDATACOPY PUSH1 0x7 GAS STATICCALL ISZERO PUSH2 0x11C JUMPI PUSH1 0x20 DUP2 MLOAD SWAP2 ADD MLOAD PUSH2 0xE45 PUSH2 0x7F5 JUMP JUMPDEST SWAP2 DUP3 MSTORE PUSH1 0x20 DUP3 ADD MSTORE SWAP1 JUMP JUMPDEST PUSH1 0x0 PUSH1 0x20 PUSH2 0xE5C PUSH2 0x7F5 JUMP JUMPDEST DUP3 DUP2 MSTORE ADD MSTORE PUSH1 0x20 DUP2 MLOAD SWAP2 PUSH32 0x30644E72E131A029B85045B68181585D2833E84879B9709143E1F593F0000001 SWAP2 DUP3 SWAP2 ADD MLOAD MOD DUP2 SUB SWAP1 DUP2 GT PUSH2 0x53C JUMPI PUSH2 0xE45 PUSH2 0x7F5 JUMP INVALID LOG2 PUSH5 0x6970667358 0x22 SLT KECCAK256 0xBC DUP1 0x24 ORIGIN SHL MSTORE JUMP 0xC5 0xB6 0xD8 KECCAK256 PUSH1 0xE0 0xF 0xB5 EXTCODESIZE GAS 0x4E 0xDF ISZERO SWAP14 SWAP13 0xD9 LOG4 SWAP12 DUP2 PUSH6 0xA6D625E1EC64 PUSH20 0x6F6C634300081400330000000000000000000000 "},"methodIdentifiers":{"groupNullifiers(bytes32,bytes32)":"19b390e8","owner()":"8da5cb5b","setValidRoot(bytes32,bytes32,bool)":"ad08d209","setVerifyingKey(((uint256,uint256),(uint256[2],uint256[2]),(uint256[2],uint256[2]),(uint256[2],uint256[2]),(uint256,uint256)[]))":"cf90c6b6","validRoots(bytes32,bytes32)":"26f1a864","verifyAndConsumeNullifier(bytes,bytes32,bytes32,bytes32)":"25d39f43","verifyMembership(bytes,bytes32,bytes32,bytes32)":"fb8f16fb"}}}}}