{"contracts/core/StealthRegistry.sol":{"StealthRegistry":{"abi":[{"inputs":[],"name":"ECDSAInvalidSignature","type":"error"},{"inputs":[{"internalType":"uint256","name":"length","type":"uint256"}],"name":"ECDSAInvalidSignatureLength","type":"error"},{"inputs":[{"internalType":"bytes32","name":"s","type":"bytes32"}],"name":"ECDSAInvalidSignatureS","type":"error"},{"anonymous":false,"inputs":[{"indexed":true,"internalType":"address","name":"owner","type":"address"},{"indexed":false,"internalType":"bytes32","name":"bundleHash","type":"bytes32"},{"indexed":false,"internalType":"string","name":"oneTimePreKeyBundleCid","type":"string"}],"name":"KeyBundleRegistered","type":"event"},{"anonymous":false,"inputs":[{"indexed":true,"internalType":"address","name":"owner","type":"address"}],"name":"KeyBundleRevoked","type":"event"},{"inputs":[{"internalType":"address","name":"owner","type":"address"}],"name":"getKeyBundle","outputs":[{"components":[{"internalType":"bytes","name":"identityKey","type":"bytes"},{"internalType":"bytes","name":"signedPreKey","type":"bytes"},{"internalType":"bytes","name":"signedPreKeySignature","type":"bytes"},{"internalType":"string","name":"oneTimePreKeyBundleCid","type":"string"},{"internalType":"bytes","name":"stealthSpendingPubKey","type":"bytes"},{"internalType":"bytes","name":"stealthViewingPubKey","type":"bytes"},{"internalType":"bytes","name":"pqPublicKey","type":"bytes"},{"internalType":"uint64","name":"updatedAt","type":"uint64"}],"internalType":"struct StealthRegistry.KeyBundle","name":"","type":"tuple"}],"stateMutability":"view","type":"function"},{"inputs":[{"components":[{"internalType":"bytes","name":"identityKey","type":"bytes"},{"internalType":"bytes","name":"signedPreKey","type":"bytes"},{"internalType":"bytes","name":"signedPreKeySignature","type":"bytes"},{"internalType":"string","name":"oneTimePreKeyBundleCid","type":"string"},{"internalType":"bytes","name":"stealthSpendingPubKey","type":"bytes"},{"internalType":"bytes","name":"stealthViewingPubKey","type":"bytes"},{"internalType":"bytes","name":"pqPublicKey","type":"bytes"}],"internalType":"struct StealthRegistry.KeyBundleInput","name":"bundle","type":"tuple"},{"internalType":"bytes","name":"ethSignature","type":"bytes"}],"name":"registerKeyBundle","outputs":[],"stateMutability":"nonpayable","type":"function"},{"inputs":[],"name":"revokeKeyBundle","outputs":[],"stateMutability":"nonpayable","type":"function"}],"evm":{"bytecode":{"linkReferences":{},"object":"6080806040523461001657611179908161001c8239f35b600080fdfe6080604052600436101561001257600080fd5b60003560e01c80631bb5577d14610c80578063962d8d99146102755763a37b127d1461003d57600080fd5b3461027057602080600319360112610270576004356001600160a01b0381169190829003610270576040519161007283610df8565b606092838152838382015283604082015283808201528360808201528360a08201528360c082015260e0016000905260005260008152604060002091604051916100bb83610df8565b604051806100c981876110ad565b036100d49082610e14565b835260405193846100e881600184016110ad565b036100f39086610e14565b838201948552604051948561010b81600285016110ad565b036101169087610e14565b6040858101968752518061012d81600386016110ad565b036101389082610e14565b8585019081526040518061014f81600487016110ad565b0361015a9082610e14565b60808701908152604051908161017381600588016110ad565b0361017e9083610e14565b60a08801918252604051928361019781600689016110ad565b036101a29085610e14565b60c089019384526001600160401b03600781970154169760e08a019889526040519a8b9a898c5251610100809a8d01526101208c016101e091610d65565b9651601f198c8903810160408e0152976101f991610d65565b905191878c830301908c015261020e91610d65565b905190858a82030160808b015261022491610d65565b905190848982030160a08a015261023a91610d65565b905190838882030160c089015261025091610d65565b9051918682030160e087015261026591610d65565b925116908301520390f35b600080fd5b3461027057600319604036820112610270576001600160401b03600435116102705760e09060043536030112610270576001600160401b036024351161027057366023602435011215610270576001600160401b036024356004013511610270573660248035600401358135010111610270576102f6600480350180610da5565b61030860048035602481019101610da5565b9061031b60048035604481019101610da5565b9061032e60048035606481019101610da5565b9061034160048035608481019101610da5565b91909260043560a4016004356004019061035a91610da5565b95909660043560c4016004356004019061037391610da5565b99909a6040519d8e9d8e336020820152604081016101009052610120019061039a92610dd7565b908d601f198184030190606001526103b192610dd7565b90601f198c83030160808d01526103c792610dd7565b90601f198a83030160a08b01526103dd92610dd7565b90601f198883030160c08901526103f392610dd7565b90601f198683030160e087015261040992610dd7565b90601f198483030161010085015261042092610dd7565b03601f19810182526104329082610e14565b805190602001207f19457468657265756d205369676e6564204d6573736167653a0a33320000000060005280601c52603c6000203660243560040135906024356024019161047f92610e35565b61048891610f13565b61049191610fdf565b336001600160a01b0390911603610c47576104b0600480350180610da5565b906104c360048035602481019101610da5565b906104d660048035604481019101610da5565b906104e960048035606481019101610da5565b906104fc60048035608481019101610da5565b92909360043560a4016004356004019061051591610da5565b96909760043560c4016004356004019061052e91610da5565b9a909b6040519d61053e8f610df8565b369061054992610e35565b8d52369061055692610e35565b60208c0152369061056692610e35565b60408a0152369061057692610e35565b6060880152369061058692610e35565b6080860152369061059692610e35565b60a084015236906105a692610e35565b60c0820152426001600160401b031660e0820152336000526000602052604060002081519283516001600160401b03811161095b576105ef816105e98554610e7b565b85610ecc565b6020601f8211600114610bde578192939495600092610bd3575b50508160011b916000199060031b1c19161782555b60208301519283516001600160401b03811161095b5761064e816106456001870154610e7b565b60018701610ecc565b6020601f8211600114610b64578192939495600092610b59575b50508160011b916000199060031b1c19161760018401555b60408101519283516001600160401b03811161095b576106b0816106a76002850154610e7b565b60028501610ecc565b6020601f8211600114610aea578192939495600092610adf575b50508160011b916000199060031b1c19161760028201555b60608201519283516001600160401b03811161095b57610712816107096003860154610e7b565b60038601610ecc565b6020601f8211600114610a70578192939495600092610a65575b50508160011b916000199060031b1c19161760038301555b60808301519283516001600160401b03811161095b576107748161076b6004870154610e7b565b60048701610ecc565b6020601f82116001146109f65781929394956000926109eb575b50508160011b916000199060031b1c19161760048401555b60a08101519283516001600160401b03811161095b576107d6816107cd6005850154610e7b565b60058501610ecc565b6020601f821160011461097c578192939495600092610971575b50508160011b916000199060031b1c19161760058201555b6006810160c08301518051906001600160401b03821161095b57610830826105e98554610e7b565b602090601f83116001146108e55792826007936001600160401b03969360e0966000926108da575b50508160011b916000199060031b1c19161790555b01920151166001600160401b03198254161790557f2ee13333ac8811576582ab97d74d21f45d3d9508b1ee0a7b53f8f8ef6ff74d436108b6606460043501600435600401610da5565b926108d560405192839283526040602084015233956040840191610dd7565b0390a2005b015190508980610858565b90601f198316918460005260206000209260005b8181106109435750936001600160401b03969360e09693600193836007981061092a575b505050811b01905561086d565b015160001960f88460031b161c1916905589808061091d565b929360206001819287860151815501950193016108f9565b634e487b7160e01b600052604160045260246000fd5b0151905085806107f0565b6005830160005260206000209060005b601f19841681106109d3575060019394959683601f198116106109ba575b505050811b016005820155610808565b015160001960f88460031b161c191690558580806109aa565b9091602060018192858b01518155019301910161098c565b01519050858061078e565b6004850160005260206000209060005b601f1984168110610a4d575060019394959683601f19811610610a34575b505050811b0160048401556107a6565b015160001960f88460031b161c19169055858080610a24565b9091602060018192858b015181550193019101610a06565b01519050858061072c565b6003840160005260206000209060005b601f1984168110610ac7575060019394959683601f19811610610aae575b505050811b016003830155610744565b015160001960f88460031b161c19169055858080610a9e565b9091602060018192858b015181550193019101610a80565b0151905085806106ca565b6002830160005260206000209060005b601f1984168110610b41575060019394959683601f19811610610b28575b505050811b0160028201556106e2565b015160001960f88460031b161c19169055858080610b18565b9091602060018192858b015181550193019101610afa565b015190508580610668565b6001850160005260206000209060005b601f1984168110610bbb575060019394959683601f19811610610ba2575b505050811b016001840155610680565b015160001960f88460031b161c19169055858080610b92565b9091602060018192858b015181550193019101610b74565b015190508580610609565b8360005260206000209060005b601f1984168110610c2f575060019394959683601f19811610610c16575b505050811b01825561061e565b015160001960f88460031b161c19169055858080610c09565b9091602060018192858b015181550193019101610beb565b60405162461bcd60e51b8152602060048201526011602482015270496e76616c6964207369676e617475726560781b6044820152606490fd5b34610270576000366003190112610270573360005260006020526000600760408220610cab81611064565b610cb760018201611064565b610cc360028201611064565b60038101610cd18154610e7b565b9081610d28575b5050610ce660048201611064565b610cf260058201611064565b610cfe60068201611064565b0155337f0b6cc1736560b261cf186ac787327c60ef75690ea619f1750d9e7f44f58ee5af600080a2005b81601f869311600114610d3f5750555b8380610cd8565b908083918252610d5e601f60208420940160051c840160018501610eb5565b5555610d38565b919082519283825260005b848110610d91575050826000602080949584010152601f8019910116010190565b602081830181015184830182015201610d70565b903590601e198136030182121561027057018035906001600160401b0382116102705760200191813603831361027057565b908060209392818452848401376000828201840152601f01601f1916010190565b61010081019081106001600160401b0382111761095b57604052565b90601f801991011681019081106001600160401b0382111761095b57604052565b9291926001600160401b03821161095b5760405191610e5e601f8201601f191660200184610e14565b829481845281830111610270578281602093846000960137010152565b90600182811c92168015610eab575b6020831014610e9557565b634e487b7160e01b600052602260045260246000fd5b91607f1691610e8a565b818110610ec0575050565b60008155600101610eb5565b9190601f8111610edb57505050565b610f07926000526020600020906020601f840160051c83019310610f09575b601f0160051c0190610eb5565b565b9091508190610efa565b8151919060418303610f4457610f3d92506020820151906060604084015193015160001a90610f4f565b9192909190565b505060009160029190565b91907f7fffffffffffffffffffffffffffffff5d576e7357a4501ddfe92f46681b20a08411610fd357926020929160ff608095604051948552168484015260408301526060820152600092839182805260015afa15610fc75780516001600160a01b03811615610fbe57918190565b50809160019190565b604051903d90823e3d90fd5b50505060009160039190565b600481101561104e5780610ff1575050565b6001810361100b5760405163f645eedf60e01b8152600490fd5b6002810361102c5760405163fce698f760e01b815260048101839052602490fd5b6003146110365750565b602490604051906335e2f38360e21b82526004820152fd5b634e487b7160e01b600052602160045260246000fd5b61106e8154610e7b565b9081611078575050565b81601f6000931160011461108a575055565b9080839182526110a9601f60208420940160051c840160018501610eb5565b5555565b90600092918054916110be83610e7b565b91828252600193848116908160001461112057506001146110e0575b50505050565b90919394506000526020928360002092846000945b83861061110c5750505050010190388080806110da565b8054858701830152940193859082016110f5565b9294505050602093945060ff191683830152151560051b010190388080806110da56fea2646970667358221220ee8e0e8062c4ec60e639ab107903b2ab17c18b155353ac24824a98f93fc7fa5c64736f6c63430008140033","opcodes":"PUSH1 0x80 DUP1 PUSH1 0x40 MSTORE CALLVALUE PUSH2 0x16 JUMPI PUSH2 0x1179 SWAP1 DUP2 PUSH2 0x1C DUP3 CODECOPY RETURN JUMPDEST PUSH1 0x0 DUP1 REVERT INVALID PUSH1 0x80 PUSH1 0x40 MSTORE PUSH1 0x4 CALLDATASIZE LT ISZERO PUSH2 0x12 JUMPI PUSH1 0x0 DUP1 REVERT JUMPDEST PUSH1 0x0 CALLDATALOAD PUSH1 0xE0 SHR DUP1 PUSH4 0x1BB5577D EQ PUSH2 0xC80 JUMPI DUP1 PUSH4 0x962D8D99 EQ PUSH2 0x275 JUMPI PUSH4 0xA37B127D EQ PUSH2 0x3D JUMPI PUSH1 0x0 DUP1 REVERT JUMPDEST CALLVALUE PUSH2 0x270 JUMPI PUSH1 0x20 DUP1 PUSH1 0x3 NOT CALLDATASIZE ADD SLT PUSH2 0x270 JUMPI PUSH1 0x4 CALLDATALOAD PUSH1 0x1 PUSH1 0x1 PUSH1 0xA0 SHL SUB DUP2 AND SWAP2 SWAP1 DUP3 SWAP1 SUB PUSH2 0x270 JUMPI PUSH1 0x40 MLOAD SWAP2 PUSH2 0x72 DUP4 PUSH2 0xDF8 JUMP JUMPDEST PUSH1 0x60 SWAP3 DUP4 DUP2 MSTORE DUP4 DUP4 DUP3 ADD MSTORE DUP4 PUSH1 0x40 DUP3 ADD MSTORE DUP4 DUP1 DUP3 ADD MSTORE DUP4 PUSH1 0x80 DUP3 ADD MSTORE DUP4 PUSH1 0xA0 DUP3 ADD MSTORE DUP4 PUSH1 0xC0 DUP3 ADD MSTORE PUSH1 0xE0 ADD PUSH1 0x0 SWAP1 MSTORE PUSH1 0x0 MSTORE PUSH1 0x0 DUP2 MSTORE PUSH1 0x40 PUSH1 0x0 KECCAK256 SWAP2 PUSH1 0x40 MLOAD SWAP2 PUSH2 0xBB DUP4 PUSH2 0xDF8 JUMP JUMPDEST PUSH1 0x40 MLOAD DUP1 PUSH2 0xC9 DUP2 DUP8 PUSH2 0x10AD JUMP JUMPDEST SUB PUSH2 0xD4 SWAP1 DUP3 PUSH2 0xE14 JUMP JUMPDEST DUP4 MSTORE PUSH1 0x40 MLOAD SWAP4 DUP5 PUSH2 0xE8 DUP2 PUSH1 0x1 DUP5 ADD PUSH2 0x10AD JUMP JUMPDEST SUB PUSH2 0xF3 SWAP1 DUP7 PUSH2 0xE14 JUMP JUMPDEST DUP4 DUP3 ADD SWAP5 DUP6 MSTORE PUSH1 0x40 MLOAD SWAP5 DUP6 PUSH2 0x10B DUP2 PUSH1 0x2 DUP6 ADD PUSH2 0x10AD JUMP JUMPDEST SUB PUSH2 0x116 SWAP1 DUP8 PUSH2 0xE14 JUMP JUMPDEST PUSH1 0x40 DUP6 DUP2 ADD SWAP7 DUP8 MSTORE MLOAD DUP1 PUSH2 0x12D DUP2 PUSH1 0x3 DUP7 ADD PUSH2 0x10AD JUMP JUMPDEST SUB PUSH2 0x138 SWAP1 DUP3 PUSH2 0xE14 JUMP JUMPDEST DUP6 DUP6 ADD SWAP1 DUP2 MSTORE PUSH1 0x40 MLOAD DUP1 PUSH2 0x14F DUP2 PUSH1 0x4 DUP8 ADD PUSH2 0x10AD JUMP JUMPDEST SUB PUSH2 0x15A SWAP1 DUP3 PUSH2 0xE14 JUMP JUMPDEST PUSH1 0x80 DUP8 ADD SWAP1 DUP2 MSTORE PUSH1 0x40 MLOAD SWAP1 DUP2 PUSH2 0x173 DUP2 PUSH1 0x5 DUP9 ADD PUSH2 0x10AD JUMP JUMPDEST SUB PUSH2 0x17E SWAP1 DUP4 PUSH2 0xE14 JUMP JUMPDEST PUSH1 0xA0 DUP9 ADD SWAP2 DUP3 MSTORE PUSH1 0x40 MLOAD SWAP3 DUP4 PUSH2 0x197 DUP2 PUSH1 0x6 DUP10 ADD PUSH2 0x10AD JUMP JUMPDEST SUB PUSH2 0x1A2 SWAP1 DUP6 PUSH2 0xE14 JUMP JUMPDEST PUSH1 0xC0 DUP10 ADD SWAP4 DUP5 MSTORE PUSH1 0x1 PUSH1 0x1 PUSH1 0x40 SHL SUB PUSH1 0x7 DUP2 SWAP8 ADD SLOAD AND SWAP8 PUSH1 0xE0 DUP11 ADD SWAP9 DUP10 MSTORE PUSH1 0x40 MLOAD SWAP11 DUP12 SWAP11 DUP10 DUP13 MSTORE MLOAD PUSH2 0x100 DUP1 SWAP11 DUP14 ADD MSTORE PUSH2 0x120 DUP13 ADD PUSH2 0x1E0 SWAP2 PUSH2 0xD65 JUMP JUMPDEST SWAP7 MLOAD PUSH1 0x1F NOT DUP13 DUP10 SUB DUP2 ADD PUSH1 0x40 DUP15 ADD MSTORE SWAP8 PUSH2 0x1F9 SWAP2 PUSH2 0xD65 JUMP JUMPDEST SWAP1 MLOAD SWAP2 DUP8 DUP13 DUP4 SUB ADD SWAP1 DUP13 ADD MSTORE PUSH2 0x20E SWAP2 PUSH2 0xD65 JUMP JUMPDEST SWAP1 MLOAD SWAP1 DUP6 DUP11 DUP3 SUB ADD PUSH1 0x80 DUP12 ADD MSTORE PUSH2 0x224 SWAP2 PUSH2 0xD65 JUMP JUMPDEST SWAP1 MLOAD SWAP1 DUP5 DUP10 DUP3 SUB ADD PUSH1 0xA0 DUP11 ADD MSTORE PUSH2 0x23A SWAP2 PUSH2 0xD65 JUMP JUMPDEST SWAP1 MLOAD SWAP1 DUP4 DUP9 DUP3 SUB ADD PUSH1 0xC0 DUP10 ADD MSTORE PUSH2 0x250 SWAP2 PUSH2 0xD65 JUMP JUMPDEST SWAP1 MLOAD SWAP2 DUP7 DUP3 SUB ADD PUSH1 0xE0 DUP8 ADD MSTORE PUSH2 0x265 SWAP2 PUSH2 0xD65 JUMP JUMPDEST SWAP3 MLOAD AND SWAP1 DUP4 ADD MSTORE SUB SWAP1 RETURN JUMPDEST PUSH1 0x0 DUP1 REVERT JUMPDEST CALLVALUE PUSH2 0x270 JUMPI PUSH1 0x3 NOT PUSH1 0x40 CALLDATASIZE DUP3 ADD SLT PUSH2 0x270 JUMPI PUSH1 0x1 PUSH1 0x1 PUSH1 0x40 SHL SUB PUSH1 0x4 CALLDATALOAD GT PUSH2 0x270 JUMPI PUSH1 0xE0 SWAP1 PUSH1 0x4 CALLDATALOAD CALLDATASIZE SUB ADD SLT PUSH2 0x270 JUMPI PUSH1 0x1 PUSH1 0x1 PUSH1 0x40 SHL SUB PUSH1 0x24 CALLDATALOAD GT PUSH2 0x270 JUMPI CALLDATASIZE PUSH1 0x23 PUSH1 0x24 CALLDATALOAD ADD SLT ISZERO PUSH2 0x270 JUMPI PUSH1 0x1 PUSH1 0x1 PUSH1 0x40 SHL SUB PUSH1 0x24 CALLDATALOAD PUSH1 0x4 ADD CALLDATALOAD GT PUSH2 0x270 JUMPI CALLDATASIZE PUSH1 0x24 DUP1 CALLDATALOAD PUSH1 0x4 ADD CALLDATALOAD DUP2 CALLDATALOAD ADD ADD GT PUSH2 0x270 JUMPI PUSH2 0x2F6 PUSH1 0x4 DUP1 CALLDATALOAD ADD DUP1 PUSH2 0xDA5 JUMP JUMPDEST PUSH2 0x308 PUSH1 0x4 DUP1 CALLDATALOAD PUSH1 0x24 DUP2 ADD SWAP2 ADD PUSH2 0xDA5 JUMP JUMPDEST SWAP1 PUSH2 0x31B PUSH1 0x4 DUP1 CALLDATALOAD PUSH1 0x44 DUP2 ADD SWAP2 ADD PUSH2 0xDA5 JUMP JUMPDEST SWAP1 PUSH2 0x32E PUSH1 0x4 DUP1 CALLDATALOAD PUSH1 0x64 DUP2 ADD SWAP2 ADD PUSH2 0xDA5 JUMP JUMPDEST SWAP1 PUSH2 0x341 PUSH1 0x4 DUP1 CALLDATALOAD PUSH1 0x84 DUP2 ADD SWAP2 ADD PUSH2 0xDA5 JUMP JUMPDEST SWAP2 SWAP1 SWAP3 PUSH1 0x4 CALLDATALOAD PUSH1 0xA4 ADD PUSH1 0x4 CALLDATALOAD PUSH1 0x4 ADD SWAP1 PUSH2 0x35A SWAP2 PUSH2 0xDA5 JUMP JUMPDEST SWAP6 SWAP1 SWAP7 PUSH1 0x4 CALLDATALOAD PUSH1 0xC4 ADD PUSH1 0x4 CALLDATALOAD PUSH1 0x4 ADD SWAP1 PUSH2 0x373 SWAP2 PUSH2 0xDA5 JUMP JUMPDEST SWAP10 SWAP1 SWAP11 PUSH1 0x40 MLOAD SWAP14 DUP15 SWAP14 DUP15 CALLER PUSH1 0x20 DUP3 ADD MSTORE PUSH1 0x40 DUP2 ADD PUSH2 0x100 SWAP1 MSTORE PUSH2 0x120 ADD SWAP1 PUSH2 0x39A SWAP3 PUSH2 0xDD7 JUMP JUMPDEST SWAP1 DUP14 PUSH1 0x1F NOT DUP2 DUP5 SUB ADD SWAP1 PUSH1 0x60 ADD MSTORE PUSH2 0x3B1 SWAP3 PUSH2 0xDD7 JUMP JUMPDEST SWAP1 PUSH1 0x1F NOT DUP13 DUP4 SUB ADD PUSH1 0x80 DUP14 ADD MSTORE PUSH2 0x3C7 SWAP3 PUSH2 0xDD7 JUMP JUMPDEST SWAP1 PUSH1 0x1F NOT DUP11 DUP4 SUB ADD PUSH1 0xA0 DUP12 ADD MSTORE PUSH2 0x3DD SWAP3 PUSH2 0xDD7 JUMP JUMPDEST SWAP1 PUSH1 0x1F NOT DUP9 DUP4 SUB ADD PUSH1 0xC0 DUP10 ADD MSTORE PUSH2 0x3F3 SWAP3 PUSH2 0xDD7 JUMP JUMPDEST SWAP1 PUSH1 0x1F NOT DUP7 DUP4 SUB ADD PUSH1 0xE0 DUP8 ADD MSTORE PUSH2 0x409 SWAP3 PUSH2 0xDD7 JUMP JUMPDEST SWAP1 PUSH1 0x1F NOT DUP5 DUP4 SUB ADD PUSH2 0x100 DUP6 ADD MSTORE PUSH2 0x420 SWAP3 PUSH2 0xDD7 JUMP JUMPDEST SUB PUSH1 0x1F NOT DUP2 ADD DUP3 MSTORE PUSH2 0x432 SWAP1 DUP3 PUSH2 0xE14 JUMP JUMPDEST DUP1 MLOAD SWAP1 PUSH1 0x20 ADD KECCAK256 PUSH32 0x19457468657265756D205369676E6564204D6573736167653A0A333200000000 PUSH1 0x0 MSTORE DUP1 PUSH1 0x1C MSTORE PUSH1 0x3C PUSH1 0x0 KECCAK256 CALLDATASIZE PUSH1 0x24 CALLDATALOAD PUSH1 0x4 ADD CALLDATALOAD SWAP1 PUSH1 0x24 CALLDATALOAD PUSH1 0x24 ADD SWAP2 PUSH2 0x47F SWAP3 PUSH2 0xE35 JUMP JUMPDEST PUSH2 0x488 SWAP2 PUSH2 0xF13 JUMP JUMPDEST PUSH2 0x491 SWAP2 PUSH2 0xFDF JUMP JUMPDEST CALLER PUSH1 0x1 PUSH1 0x1 PUSH1 0xA0 SHL SUB SWAP1 SWAP2 AND SUB PUSH2 0xC47 JUMPI PUSH2 0x4B0 PUSH1 0x4 DUP1 CALLDATALOAD ADD DUP1 PUSH2 0xDA5 JUMP JUMPDEST SWAP1 PUSH2 0x4C3 PUSH1 0x4 DUP1 CALLDATALOAD PUSH1 0x24 DUP2 ADD SWAP2 ADD PUSH2 0xDA5 JUMP JUMPDEST SWAP1 PUSH2 0x4D6 PUSH1 0x4 DUP1 CALLDATALOAD PUSH1 0x44 DUP2 ADD SWAP2 ADD PUSH2 0xDA5 JUMP JUMPDEST SWAP1 PUSH2 0x4E9 PUSH1 0x4 DUP1 CALLDATALOAD PUSH1 0x64 DUP2 ADD SWAP2 ADD PUSH2 0xDA5 JUMP JUMPDEST SWAP1 PUSH2 0x4FC PUSH1 0x4 DUP1 CALLDATALOAD PUSH1 0x84 DUP2 ADD SWAP2 ADD PUSH2 0xDA5 JUMP JUMPDEST SWAP3 SWAP1 SWAP4 PUSH1 0x4 CALLDATALOAD PUSH1 0xA4 ADD PUSH1 0x4 CALLDATALOAD PUSH1 0x4 ADD SWAP1 PUSH2 0x515 SWAP2 PUSH2 0xDA5 JUMP JUMPDEST SWAP7 SWAP1 SWAP8 PUSH1 0x4 CALLDATALOAD PUSH1 0xC4 ADD PUSH1 0x4 CALLDATALOAD PUSH1 0x4 ADD SWAP1 PUSH2 0x52E SWAP2 PUSH2 0xDA5 JUMP JUMPDEST SWAP11 SWAP1 SWAP12 PUSH1 0x40 MLOAD SWAP14 PUSH2 0x53E DUP16 PUSH2 0xDF8 JUMP JUMPDEST CALLDATASIZE SWAP1 PUSH2 0x549 SWAP3 PUSH2 0xE35 JUMP JUMPDEST DUP14 MSTORE CALLDATASIZE SWAP1 PUSH2 0x556 SWAP3 PUSH2 0xE35 JUMP JUMPDEST PUSH1 0x20 DUP13 ADD MSTORE CALLDATASIZE SWAP1 PUSH2 0x566 SWAP3 PUSH2 0xE35 JUMP JUMPDEST PUSH1 0x40 DUP11 ADD MSTORE CALLDATASIZE SWAP1 PUSH2 0x576 SWAP3 PUSH2 0xE35 JUMP JUMPDEST PUSH1 0x60 DUP9 ADD MSTORE CALLDATASIZE SWAP1 PUSH2 0x586 SWAP3 PUSH2 0xE35 JUMP JUMPDEST PUSH1 0x80 DUP7 ADD MSTORE CALLDATASIZE SWAP1 PUSH2 0x596 SWAP3 PUSH2 0xE35 JUMP JUMPDEST PUSH1 0xA0 DUP5 ADD MSTORE CALLDATASIZE SWAP1 PUSH2 0x5A6 SWAP3 PUSH2 0xE35 JUMP JUMPDEST PUSH1 0xC0 DUP3 ADD MSTORE TIMESTAMP PUSH1 0x1 PUSH1 0x1 PUSH1 0x40 SHL SUB AND PUSH1 0xE0 DUP3 ADD MSTORE CALLER PUSH1 0x0 MSTORE PUSH1 0x0 PUSH1 0x20 MSTORE PUSH1 0x40 PUSH1 0x0 KECCAK256 DUP2 MLOAD SWAP3 DUP4 MLOAD PUSH1 0x1 PUSH1 0x1 PUSH1 0x40 SHL SUB DUP2 GT PUSH2 0x95B JUMPI PUSH2 0x5EF DUP2 PUSH2 0x5E9 DUP6 SLOAD PUSH2 0xE7B JUMP JUMPDEST DUP6 PUSH2 0xECC JUMP JUMPDEST PUSH1 0x20 PUSH1 0x1F DUP3 GT PUSH1 0x1 EQ PUSH2 0xBDE JUMPI DUP2 SWAP3 SWAP4 SWAP5 SWAP6 PUSH1 0x0 SWAP3 PUSH2 0xBD3 JUMPI JUMPDEST POP POP DUP2 PUSH1 0x1 SHL SWAP2 PUSH1 0x0 NOT SWAP1 PUSH1 0x3 SHL SHR NOT AND OR DUP3 SSTORE JUMPDEST PUSH1 0x20 DUP4 ADD MLOAD SWAP3 DUP4 MLOAD PUSH1 0x1 PUSH1 0x1 PUSH1 0x40 SHL SUB DUP2 GT PUSH2 0x95B JUMPI PUSH2 0x64E DUP2 PUSH2 0x645 PUSH1 0x1 DUP8 ADD SLOAD PUSH2 0xE7B JUMP JUMPDEST PUSH1 0x1 DUP8 ADD PUSH2 0xECC JUMP JUMPDEST PUSH1 0x20 PUSH1 0x1F DUP3 GT PUSH1 0x1 EQ PUSH2 0xB64 JUMPI DUP2 SWAP3 SWAP4 SWAP5 SWAP6 PUSH1 0x0 SWAP3 PUSH2 0xB59 JUMPI JUMPDEST POP POP DUP2 PUSH1 0x1 SHL SWAP2 PUSH1 0x0 NOT SWAP1 PUSH1 0x3 SHL SHR NOT AND OR PUSH1 0x1 DUP5 ADD SSTORE JUMPDEST PUSH1 0x40 DUP2 ADD MLOAD SWAP3 DUP4 MLOAD PUSH1 0x1 PUSH1 0x1 PUSH1 0x40 SHL SUB DUP2 GT PUSH2 0x95B JUMPI PUSH2 0x6B0 DUP2 PUSH2 0x6A7 PUSH1 0x2 DUP6 ADD SLOAD PUSH2 0xE7B JUMP JUMPDEST PUSH1 0x2 DUP6 ADD PUSH2 0xECC JUMP JUMPDEST PUSH1 0x20 PUSH1 0x1F DUP3 GT PUSH1 0x1 EQ PUSH2 0xAEA JUMPI DUP2 SWAP3 SWAP4 SWAP5 SWAP6 PUSH1 0x0 SWAP3 PUSH2 0xADF JUMPI JUMPDEST POP POP DUP2 PUSH1 0x1 SHL SWAP2 PUSH1 0x0 NOT SWAP1 PUSH1 0x3 SHL SHR NOT AND OR PUSH1 0x2 DUP3 ADD SSTORE JUMPDEST PUSH1 0x60 DUP3 ADD MLOAD SWAP3 DUP4 MLOAD PUSH1 0x1 PUSH1 0x1 PUSH1 0x40 SHL SUB DUP2 GT PUSH2 0x95B JUMPI PUSH2 0x712 DUP2 PUSH2 0x709 PUSH1 0x3 DUP7 ADD SLOAD PUSH2 0xE7B JUMP JUMPDEST PUSH1 0x3 DUP7 ADD PUSH2 0xECC JUMP JUMPDEST PUSH1 0x20 PUSH1 0x1F DUP3 GT PUSH1 0x1 EQ PUSH2 0xA70 JUMPI DUP2 SWAP3 SWAP4 SWAP5 SWAP6 PUSH1 0x0 SWAP3 PUSH2 0xA65 JUMPI JUMPDEST POP POP DUP2 PUSH1 0x1 SHL SWAP2 PUSH1 0x0 NOT SWAP1 PUSH1 0x3 SHL SHR NOT AND OR PUSH1 0x3 DUP4 ADD SSTORE JUMPDEST PUSH1 0x80 DUP4 ADD MLOAD SWAP3 DUP4 MLOAD PUSH1 0x1 PUSH1 0x1 PUSH1 0x40 SHL SUB DUP2 GT PUSH2 0x95B JUMPI PUSH2 0x774 DUP2 PUSH2 0x76B PUSH1 0x4 DUP8 ADD SLOAD PUSH2 0xE7B JUMP JUMPDEST PUSH1 0x4 DUP8 ADD PUSH2 0xECC JUMP JUMPDEST PUSH1 0x20 PUSH1 0x1F DUP3 GT PUSH1 0x1 EQ PUSH2 0x9F6 JUMPI DUP2 SWAP3 SWAP4 SWAP5 SWAP6 PUSH1 0x0 SWAP3 PUSH2 0x9EB JUMPI JUMPDEST POP POP DUP2 PUSH1 0x1 SHL SWAP2 PUSH1 0x0 NOT SWAP1 PUSH1 0x3 SHL SHR NOT AND OR PUSH1 0x4 DUP5 ADD SSTORE JUMPDEST PUSH1 0xA0 DUP2 ADD MLOAD SWAP3 DUP4 MLOAD PUSH1 0x1 PUSH1 0x1 PUSH1 0x40 SHL SUB DUP2 GT PUSH2 0x95B JUMPI PUSH2 0x7D6 DUP2 PUSH2 0x7CD PUSH1 0x5 DUP6 ADD SLOAD PUSH2 0xE7B JUMP JUMPDEST PUSH1 0x5 DUP6 ADD PUSH2 0xECC JUMP JUMPDEST PUSH1 0x20 PUSH1 0x1F DUP3 GT PUSH1 0x1 EQ PUSH2 0x97C JUMPI DUP2 SWAP3 SWAP4 SWAP5 SWAP6 PUSH1 0x0 SWAP3 PUSH2 0x971 JUMPI JUMPDEST POP POP DUP2 PUSH1 0x1 SHL SWAP2 PUSH1 0x0 NOT SWAP1 PUSH1 0x3 SHL SHR NOT AND OR PUSH1 0x5 DUP3 ADD SSTORE JUMPDEST PUSH1 0x6 DUP2 ADD PUSH1 0xC0 DUP4 ADD MLOAD DUP1 MLOAD SWAP1 PUSH1 0x1 PUSH1 0x1 PUSH1 0x40 SHL SUB DUP3 GT PUSH2 0x95B JUMPI PUSH2 0x830 DUP3 PUSH2 0x5E9 DUP6 SLOAD PUSH2 0xE7B JUMP JUMPDEST PUSH1 0x20 SWAP1 PUSH1 0x1F DUP4 GT PUSH1 0x1 EQ PUSH2 0x8E5 JUMPI SWAP3 DUP3 PUSH1 0x7 SWAP4 PUSH1 0x1 PUSH1 0x1 PUSH1 0x40 SHL SUB SWAP7 SWAP4 PUSH1 0xE0 SWAP7 PUSH1 0x0 SWAP3 PUSH2 0x8DA JUMPI JUMPDEST POP POP DUP2 PUSH1 0x1 SHL SWAP2 PUSH1 0x0 NOT SWAP1 PUSH1 0x3 SHL SHR NOT AND OR SWAP1 SSTORE JUMPDEST ADD SWAP3 ADD MLOAD AND PUSH1 0x1 PUSH1 0x1 PUSH1 0x40 SHL SUB NOT DUP3 SLOAD AND OR SWAP1 SSTORE PUSH32 0x2EE13333AC8811576582AB97D74D21F45D3D9508B1EE0A7B53F8F8EF6FF74D43 PUSH2 0x8B6 PUSH1 0x64 PUSH1 0x4 CALLDATALOAD ADD PUSH1 0x4 CALLDATALOAD PUSH1 0x4 ADD PUSH2 0xDA5 JUMP JUMPDEST SWAP3 PUSH2 0x8D5 PUSH1 0x40 MLOAD SWAP3 DUP4 SWAP3 DUP4 MSTORE PUSH1 0x40 PUSH1 0x20 DUP5 ADD MSTORE CALLER SWAP6 PUSH1 0x40 DUP5 ADD SWAP2 PUSH2 0xDD7 JUMP JUMPDEST SUB SWAP1 LOG2 STOP JUMPDEST ADD MLOAD SWAP1 POP DUP10 DUP1 PUSH2 0x858 JUMP JUMPDEST SWAP1 PUSH1 0x1F NOT DUP4 AND SWAP2 DUP5 PUSH1 0x0 MSTORE PUSH1 0x20 PUSH1 0x0 KECCAK256 SWAP3 PUSH1 0x0 JUMPDEST DUP2 DUP2 LT PUSH2 0x943 JUMPI POP SWAP4 PUSH1 0x1 PUSH1 0x1 PUSH1 0x40 SHL SUB SWAP7 SWAP4 PUSH1 0xE0 SWAP7 SWAP4 PUSH1 0x1 SWAP4 DUP4 PUSH1 0x7 SWAP9 LT PUSH2 0x92A JUMPI JUMPDEST POP POP POP DUP2 SHL ADD SWAP1 SSTORE PUSH2 0x86D JUMP JUMPDEST ADD MLOAD PUSH1 0x0 NOT PUSH1 0xF8 DUP5 PUSH1 0x3 SHL AND SHR NOT AND SWAP1 SSTORE DUP10 DUP1 DUP1 PUSH2 0x91D JUMP JUMPDEST SWAP3 SWAP4 PUSH1 0x20 PUSH1 0x1 DUP2 SWAP3 DUP8 DUP7 ADD MLOAD DUP2 SSTORE ADD SWAP6 ADD SWAP4 ADD PUSH2 0x8F9 JUMP JUMPDEST PUSH4 0x4E487B71 PUSH1 0xE0 SHL PUSH1 0x0 MSTORE PUSH1 0x41 PUSH1 0x4 MSTORE PUSH1 0x24 PUSH1 0x0 REVERT JUMPDEST ADD MLOAD SWAP1 POP DUP6 DUP1 PUSH2 0x7F0 JUMP JUMPDEST PUSH1 0x5 DUP4 ADD PUSH1 0x0 MSTORE PUSH1 0x20 PUSH1 0x0 KECCAK256 SWAP1 PUSH1 0x0 JUMPDEST PUSH1 0x1F NOT DUP5 AND DUP2 LT PUSH2 0x9D3 JUMPI POP PUSH1 0x1 SWAP4 SWAP5 SWAP6 SWAP7 DUP4 PUSH1 0x1F NOT DUP2 AND LT PUSH2 0x9BA JUMPI JUMPDEST POP POP POP DUP2 SHL ADD PUSH1 0x5 DUP3 ADD SSTORE PUSH2 0x808 JUMP JUMPDEST ADD MLOAD PUSH1 0x0 NOT PUSH1 0xF8 DUP5 PUSH1 0x3 SHL AND SHR NOT AND SWAP1 SSTORE DUP6 DUP1 DUP1 PUSH2 0x9AA JUMP JUMPDEST SWAP1 SWAP2 PUSH1 0x20 PUSH1 0x1 DUP2 SWAP3 DUP6 DUP12 ADD MLOAD DUP2 SSTORE ADD SWAP4 ADD SWAP2 ADD PUSH2 0x98C JUMP JUMPDEST ADD MLOAD SWAP1 POP DUP6 DUP1 PUSH2 0x78E JUMP JUMPDEST PUSH1 0x4 DUP6 ADD PUSH1 0x0 MSTORE PUSH1 0x20 PUSH1 0x0 KECCAK256 SWAP1 PUSH1 0x0 JUMPDEST PUSH1 0x1F NOT DUP5 AND DUP2 LT PUSH2 0xA4D JUMPI POP PUSH1 0x1 SWAP4 SWAP5 SWAP6 SWAP7 DUP4 PUSH1 0x1F NOT DUP2 AND LT PUSH2 0xA34 JUMPI JUMPDEST POP POP POP DUP2 SHL ADD PUSH1 0x4 DUP5 ADD SSTORE PUSH2 0x7A6 JUMP JUMPDEST ADD MLOAD PUSH1 0x0 NOT PUSH1 0xF8 DUP5 PUSH1 0x3 SHL AND SHR NOT AND SWAP1 SSTORE DUP6 DUP1 DUP1 PUSH2 0xA24 JUMP JUMPDEST SWAP1 SWAP2 PUSH1 0x20 PUSH1 0x1 DUP2 SWAP3 DUP6 DUP12 ADD MLOAD DUP2 SSTORE ADD SWAP4 ADD SWAP2 ADD PUSH2 0xA06 JUMP JUMPDEST ADD MLOAD SWAP1 POP DUP6 DUP1 PUSH2 0x72C JUMP JUMPDEST PUSH1 0x3 DUP5 ADD PUSH1 0x0 MSTORE PUSH1 0x20 PUSH1 0x0 KECCAK256 SWAP1 PUSH1 0x0 JUMPDEST PUSH1 0x1F NOT DUP5 AND DUP2 LT PUSH2 0xAC7 JUMPI POP PUSH1 0x1 SWAP4 SWAP5 SWAP6 SWAP7 DUP4 PUSH1 0x1F NOT DUP2 AND LT PUSH2 0xAAE JUMPI JUMPDEST POP POP POP DUP2 SHL ADD PUSH1 0x3 DUP4 ADD SSTORE PUSH2 0x744 JUMP JUMPDEST ADD MLOAD PUSH1 0x0 NOT PUSH1 0xF8 DUP5 PUSH1 0x3 SHL AND SHR NOT AND SWAP1 SSTORE DUP6 DUP1 DUP1 PUSH2 0xA9E JUMP JUMPDEST SWAP1 SWAP2 PUSH1 0x20 PUSH1 0x1 DUP2 SWAP3 DUP6 DUP12 ADD MLOAD DUP2 SSTORE ADD SWAP4 ADD SWAP2 ADD PUSH2 0xA80 JUMP JUMPDEST ADD MLOAD SWAP1 POP DUP6 DUP1 PUSH2 0x6CA JUMP JUMPDEST PUSH1 0x2 DUP4 ADD PUSH1 0x0 MSTORE PUSH1 0x20 PUSH1 0x0 KECCAK256 SWAP1 PUSH1 0x0 JUMPDEST PUSH1 0x1F NOT DUP5 AND DUP2 LT PUSH2 0xB41 JUMPI POP PUSH1 0x1 SWAP4 SWAP5 SWAP6 SWAP7 DUP4 PUSH1 0x1F NOT DUP2 AND LT PUSH2 0xB28 JUMPI JUMPDEST POP POP POP DUP2 SHL ADD PUSH1 0x2 DUP3 ADD SSTORE PUSH2 0x6E2 JUMP JUMPDEST ADD MLOAD PUSH1 0x0 NOT PUSH1 0xF8 DUP5 PUSH1 0x3 SHL AND SHR NOT AND SWAP1 SSTORE DUP6 DUP1 DUP1 PUSH2 0xB18 JUMP JUMPDEST SWAP1 SWAP2 PUSH1 0x20 PUSH1 0x1 DUP2 SWAP3 DUP6 DUP12 ADD MLOAD DUP2 SSTORE ADD SWAP4 ADD SWAP2 ADD PUSH2 0xAFA JUMP JUMPDEST ADD MLOAD SWAP1 POP DUP6 DUP1 PUSH2 0x668 JUMP JUMPDEST PUSH1 0x1 DUP6 ADD PUSH1 0x0 MSTORE PUSH1 0x20 PUSH1 0x0 KECCAK256 SWAP1 PUSH1 0x0 JUMPDEST PUSH1 0x1F NOT DUP5 AND DUP2 LT PUSH2 0xBBB JUMPI POP PUSH1 0x1 SWAP4 SWAP5 SWAP6 SWAP7 DUP4 PUSH1 0x1F NOT DUP2 AND LT PUSH2 0xBA2 JUMPI JUMPDEST POP POP POP DUP2 SHL ADD PUSH1 0x1 DUP5 ADD SSTORE PUSH2 0x680 JUMP JUMPDEST ADD MLOAD PUSH1 0x0 NOT PUSH1 0xF8 DUP5 PUSH1 0x3 SHL AND SHR NOT AND SWAP1 SSTORE DUP6 DUP1 DUP1 PUSH2 0xB92 JUMP JUMPDEST SWAP1 SWAP2 PUSH1 0x20 PUSH1 0x1 DUP2 SWAP3 DUP6 DUP12 ADD MLOAD DUP2 SSTORE ADD SWAP4 ADD SWAP2 ADD PUSH2 0xB74 JUMP JUMPDEST ADD MLOAD SWAP1 POP DUP6 DUP1 PUSH2 0x609 JUMP JUMPDEST DUP4 PUSH1 0x0 MSTORE PUSH1 0x20 PUSH1 0x0 KECCAK256 SWAP1 PUSH1 0x0 JUMPDEST PUSH1 0x1F NOT DUP5 AND DUP2 LT PUSH2 0xC2F JUMPI POP PUSH1 0x1 SWAP4 SWAP5 SWAP6 SWAP7 DUP4 PUSH1 0x1F NOT DUP2 AND LT PUSH2 0xC16 JUMPI JUMPDEST POP POP POP DUP2 SHL ADD DUP3 SSTORE PUSH2 0x61E JUMP JUMPDEST ADD MLOAD PUSH1 0x0 NOT PUSH1 0xF8 DUP5 PUSH1 0x3 SHL AND SHR NOT AND SWAP1 SSTORE DUP6 DUP1 DUP1 PUSH2 0xC09 JUMP JUMPDEST SWAP1 SWAP2 PUSH1 0x20 PUSH1 0x1 DUP2 SWAP3 DUP6 DUP12 ADD MLOAD DUP2 SSTORE ADD SWAP4 ADD SWAP2 ADD PUSH2 0xBEB JUMP JUMPDEST PUSH1 0x40 MLOAD PUSH3 0x461BCD PUSH1 0xE5 SHL DUP2 MSTORE PUSH1 0x20 PUSH1 0x4 DUP3 ADD MSTORE PUSH1 0x11 PUSH1 0x24 DUP3 ADD MSTORE PUSH17 0x496E76616C6964207369676E6174757265 PUSH1 0x78 SHL PUSH1 0x44 DUP3 ADD MSTORE PUSH1 0x64 SWAP1 REVERT JUMPDEST CALLVALUE PUSH2 0x270 JUMPI PUSH1 0x0 CALLDATASIZE PUSH1 0x3 NOT ADD SLT PUSH2 0x270 JUMPI CALLER PUSH1 0x0 MSTORE PUSH1 0x0 PUSH1 0x20 MSTORE PUSH1 0x0 PUSH1 0x7 PUSH1 0x40 DUP3 KECCAK256 PUSH2 0xCAB DUP2 PUSH2 0x1064 JUMP JUMPDEST PUSH2 0xCB7 PUSH1 0x1 DUP3 ADD PUSH2 0x1064 JUMP JUMPDEST PUSH2 0xCC3 PUSH1 0x2 DUP3 ADD PUSH2 0x1064 JUMP JUMPDEST PUSH1 0x3 DUP2 ADD PUSH2 0xCD1 DUP2 SLOAD PUSH2 0xE7B JUMP JUMPDEST SWAP1 DUP2 PUSH2 0xD28 JUMPI JUMPDEST POP POP PUSH2 0xCE6 PUSH1 0x4 DUP3 ADD PUSH2 0x1064 JUMP JUMPDEST PUSH2 0xCF2 PUSH1 0x5 DUP3 ADD PUSH2 0x1064 JUMP JUMPDEST PUSH2 0xCFE PUSH1 0x6 DUP3 ADD PUSH2 0x1064 JUMP JUMPDEST ADD SSTORE CALLER PUSH32 0xB6CC1736560B261CF186AC787327C60EF75690EA619F1750D9E7F44F58EE5AF PUSH1 0x0 DUP1 LOG2 STOP JUMPDEST DUP2 PUSH1 0x1F DUP7 SWAP4 GT PUSH1 0x1 EQ PUSH2 0xD3F JUMPI POP SSTORE JUMPDEST DUP4 DUP1 PUSH2 0xCD8 JUMP JUMPDEST SWAP1 DUP1 DUP4 SWAP2 DUP3 MSTORE PUSH2 0xD5E PUSH1 0x1F PUSH1 0x20 DUP5 KECCAK256 SWAP5 ADD PUSH1 0x5 SHR DUP5 ADD PUSH1 0x1 DUP6 ADD PUSH2 0xEB5 JUMP JUMPDEST SSTORE SSTORE PUSH2 0xD38 JUMP JUMPDEST SWAP2 SWAP1 DUP3 MLOAD SWAP3 DUP4 DUP3 MSTORE PUSH1 0x0 JUMPDEST DUP5 DUP2 LT PUSH2 0xD91 JUMPI POP POP DUP3 PUSH1 0x0 PUSH1 0x20 DUP1 SWAP5 SWAP6 DUP5 ADD ADD MSTORE PUSH1 0x1F DUP1 NOT SWAP2 ADD AND ADD ADD SWAP1 JUMP JUMPDEST PUSH1 0x20 DUP2 DUP4 ADD DUP2 ADD MLOAD DUP5 DUP4 ADD DUP3 ADD MSTORE ADD PUSH2 0xD70 JUMP JUMPDEST SWAP1 CALLDATALOAD SWAP1 PUSH1 0x1E NOT DUP2 CALLDATASIZE SUB ADD DUP3 SLT ISZERO PUSH2 0x270 JUMPI ADD DUP1 CALLDATALOAD SWAP1 PUSH1 0x1 PUSH1 0x1 PUSH1 0x40 SHL SUB DUP3 GT PUSH2 0x270 JUMPI PUSH1 0x20 ADD SWAP2 DUP2 CALLDATASIZE SUB DUP4 SGT PUSH2 0x270 JUMPI JUMP JUMPDEST SWAP1 DUP1 PUSH1 0x20 SWAP4 SWAP3 DUP2 DUP5 MSTORE DUP5 DUP5 ADD CALLDATACOPY PUSH1 0x0 DUP3 DUP3 ADD DUP5 ADD MSTORE PUSH1 0x1F ADD PUSH1 0x1F NOT AND ADD ADD SWAP1 JUMP JUMPDEST PUSH2 0x100 DUP2 ADD SWAP1 DUP2 LT PUSH1 0x1 PUSH1 0x1 PUSH1 0x40 SHL SUB DUP3 GT OR PUSH2 0x95B JUMPI PUSH1 0x40 MSTORE JUMP JUMPDEST SWAP1 PUSH1 0x1F DUP1 NOT SWAP2 ADD AND DUP2 ADD SWAP1 DUP2 LT PUSH1 0x1 PUSH1 0x1 PUSH1 0x40 SHL SUB DUP3 GT OR PUSH2 0x95B JUMPI PUSH1 0x40 MSTORE JUMP JUMPDEST SWAP3 SWAP2 SWAP3 PUSH1 0x1 PUSH1 0x1 PUSH1 0x40 SHL SUB DUP3 GT PUSH2 0x95B JUMPI PUSH1 0x40 MLOAD SWAP2 PUSH2 0xE5E PUSH1 0x1F DUP3 ADD PUSH1 0x1F NOT AND PUSH1 0x20 ADD DUP5 PUSH2 0xE14 JUMP JUMPDEST DUP3 SWAP5 DUP2 DUP5 MSTORE DUP2 DUP4 ADD GT PUSH2 0x270 JUMPI DUP3 DUP2 PUSH1 0x20 SWAP4 DUP5 PUSH1 0x0 SWAP7 ADD CALLDATACOPY ADD ADD MSTORE JUMP JUMPDEST SWAP1 PUSH1 0x1 DUP3 DUP2 SHR SWAP3 AND DUP1 ISZERO PUSH2 0xEAB JUMPI JUMPDEST PUSH1 0x20 DUP4 LT EQ PUSH2 0xE95 JUMPI JUMP JUMPDEST PUSH4 0x4E487B71 PUSH1 0xE0 SHL PUSH1 0x0 MSTORE PUSH1 0x22 PUSH1 0x4 MSTORE PUSH1 0x24 PUSH1 0x0 REVERT JUMPDEST SWAP2 PUSH1 0x7F AND SWAP2 PUSH2 0xE8A JUMP JUMPDEST DUP2 DUP2 LT PUSH2 0xEC0 JUMPI POP POP JUMP JUMPDEST PUSH1 0x0 DUP2 SSTORE PUSH1 0x1 ADD PUSH2 0xEB5 JUMP JUMPDEST SWAP2 SWAP1 PUSH1 0x1F DUP2 GT PUSH2 0xEDB JUMPI POP POP POP JUMP JUMPDEST PUSH2 0xF07 SWAP3 PUSH1 0x0 MSTORE PUSH1 0x20 PUSH1 0x0 KECCAK256 SWAP1 PUSH1 0x20 PUSH1 0x1F DUP5 ADD PUSH1 0x5 SHR DUP4 ADD SWAP4 LT PUSH2 0xF09 JUMPI JUMPDEST PUSH1 0x1F ADD PUSH1 0x5 SHR ADD SWAP1 PUSH2 0xEB5 JUMP JUMPDEST JUMP JUMPDEST SWAP1 SWAP2 POP DUP2 SWAP1 PUSH2 0xEFA JUMP JUMPDEST DUP2 MLOAD SWAP2 SWAP1 PUSH1 0x41 DUP4 SUB PUSH2 0xF44 JUMPI PUSH2 0xF3D SWAP3 POP PUSH1 0x20 DUP3 ADD MLOAD SWAP1 PUSH1 0x60 PUSH1 0x40 DUP5 ADD MLOAD SWAP4 ADD MLOAD PUSH1 0x0 BYTE SWAP1 PUSH2 0xF4F JUMP JUMPDEST SWAP2 SWAP3 SWAP1 SWAP2 SWAP1 JUMP JUMPDEST POP POP PUSH1 0x0 SWAP2 PUSH1 0x2 SWAP2 SWAP1 JUMP JUMPDEST SWAP2 SWAP1 PUSH32 0x7FFFFFFFFFFFFFFFFFFFFFFFFFFFFFFF5D576E7357A4501DDFE92F46681B20A0 DUP5 GT PUSH2 0xFD3 JUMPI SWAP3 PUSH1 0x20 SWAP3 SWAP2 PUSH1 0xFF PUSH1 0x80 SWAP6 PUSH1 0x40 MLOAD SWAP5 DUP6 MSTORE AND DUP5 DUP5 ADD MSTORE PUSH1 0x40 DUP4 ADD MSTORE PUSH1 0x60 DUP3 ADD MSTORE PUSH1 0x0 SWAP3 DUP4 SWAP2 DUP3 DUP1 MSTORE PUSH1 0x1 GAS STATICCALL ISZERO PUSH2 0xFC7 JUMPI DUP1 MLOAD PUSH1 0x1 PUSH1 0x1 PUSH1 0xA0 SHL SUB DUP2 AND ISZERO PUSH2 0xFBE JUMPI SWAP2 DUP2 SWAP1 JUMP JUMPDEST POP DUP1 SWAP2 PUSH1 0x1 SWAP2 SWAP1 JUMP JUMPDEST PUSH1 0x40 MLOAD SWAP1 RETURNDATASIZE SWAP1 DUP3 RETURNDATACOPY RETURNDATASIZE SWAP1 REVERT JUMPDEST POP POP POP PUSH1 0x0 SWAP2 PUSH1 0x3 SWAP2 SWAP1 JUMP JUMPDEST PUSH1 0x4 DUP2 LT ISZERO PUSH2 0x104E JUMPI DUP1 PUSH2 0xFF1 JUMPI POP POP JUMP JUMPDEST PUSH1 0x1 DUP2 SUB PUSH2 0x100B JUMPI PUSH1 0x40 MLOAD PUSH4 0xF645EEDF PUSH1 0xE0 SHL DUP2 MSTORE PUSH1 0x4 SWAP1 REVERT JUMPDEST PUSH1 0x2 DUP2 SUB PUSH2 0x102C JUMPI PUSH1 0x40 MLOAD PUSH4 0xFCE698F7 PUSH1 0xE0 SHL DUP2 MSTORE PUSH1 0x4 DUP2 ADD DUP4 SWAP1 MSTORE PUSH1 0x24 SWAP1 REVERT JUMPDEST PUSH1 0x3 EQ PUSH2 0x1036 JUMPI POP JUMP JUMPDEST PUSH1 0x24 SWAP1 PUSH1 0x40 MLOAD SWAP1 PUSH4 0x35E2F383 PUSH1 0xE2 SHL DUP3 MSTORE PUSH1 0x4 DUP3 ADD MSTORE REVERT JUMPDEST PUSH4 0x4E487B71 PUSH1 0xE0 SHL PUSH1 0x0 MSTORE PUSH1 0x21 PUSH1 0x4 MSTORE PUSH1 0x24 PUSH1 0x0 REVERT JUMPDEST PUSH2 0x106E DUP2 SLOAD PUSH2 0xE7B JUMP JUMPDEST SWAP1 DUP2 PUSH2 0x1078 JUMPI POP POP JUMP JUMPDEST DUP2 PUSH1 0x1F PUSH1 0x0 SWAP4 GT PUSH1 0x1 EQ PUSH2 0x108A JUMPI POP SSTORE JUMP JUMPDEST SWAP1 DUP1 DUP4 SWAP2 DUP3 MSTORE PUSH2 0x10A9 PUSH1 0x1F PUSH1 0x20 DUP5 KECCAK256 SWAP5 ADD PUSH1 0x5 SHR DUP5 ADD PUSH1 0x1 DUP6 ADD PUSH2 0xEB5 JUMP JUMPDEST SSTORE SSTORE JUMP JUMPDEST SWAP1 PUSH1 0x0 SWAP3 SWAP2 DUP1 SLOAD SWAP2 PUSH2 0x10BE DUP4 PUSH2 0xE7B JUMP JUMPDEST SWAP2 DUP3 DUP3 MSTORE PUSH1 0x1 SWAP4 DUP5 DUP2 AND SWAP1 DUP2 PUSH1 0x0 EQ PUSH2 0x1120 JUMPI POP PUSH1 0x1 EQ PUSH2 0x10E0 JUMPI JUMPDEST POP POP POP POP JUMP JUMPDEST SWAP1 SWAP2 SWAP4 SWAP5 POP PUSH1 0x0 MSTORE PUSH1 0x20 SWAP3 DUP4 PUSH1 0x0 KECCAK256 SWAP3 DUP5 PUSH1 0x0 SWAP5 JUMPDEST DUP4 DUP7 LT PUSH2 0x110C JUMPI POP POP POP POP ADD ADD SWAP1 CODESIZE DUP1 DUP1 DUP1 PUSH2 0x10DA JUMP JUMPDEST DUP1 SLOAD DUP6 DUP8 ADD DUP4 ADD MSTORE SWAP5 ADD SWAP4 DUP6 SWAP1 DUP3 ADD PUSH2 0x10F5 JUMP JUMPDEST SWAP3 SWAP5 POP POP POP PUSH1 0x20 SWAP4 SWAP5 POP PUSH1 0xFF NOT AND DUP4 DUP4 ADD MSTORE ISZERO ISZERO PUSH1 0x5 SHL ADD ADD SWAP1 CODESIZE DUP1 DUP1 DUP1 PUSH2 0x10DA JUMP INVALID LOG2 PUSH5 0x6970667358 0x22 SLT KECCAK256 0xEE DUP15 0xE DUP1 PUSH3 0xC4EC60 0xE6 CODECOPY 0xAB LT PUSH26 0x3B2AB17C18B155353AC24824A98F93FC7FA5C64736F6C634300 ADDMOD EQ STOP CALLER "},"methodIdentifiers":{"getKeyBundle(address)":"a37b127d","registerKeyBundle((bytes,bytes,bytes,string,bytes,bytes,bytes),bytes)":"962d8d99","revokeKeyBundle()":"1bb5577d"}}}}}