{"contracts/core/ZKVerifier.sol":{"ZKVerifier":{"abi":[{"inputs":[],"stateMutability":"nonpayable","type":"constructor"},{"inputs":[],"name":"owner","outputs":[{"internalType":"address","name":"","type":"address"}],"stateMutability":"view","type":"function"},{"inputs":[{"internalType":"bytes32","name":"groupId","type":"bytes32"},{"internalType":"bytes32","name":"root","type":"bytes32"},{"internalType":"bool","name":"valid","type":"bool"}],"name":"setValidRoot","outputs":[],"stateMutability":"nonpayable","type":"function"},{"inputs":[{"internalType":"bytes32","name":"","type":"bytes32"},{"internalType":"bytes32","name":"","type":"bytes32"}],"name":"validRoots","outputs":[{"internalType":"bool","name":"","type":"bool"}],"stateMutability":"view","type":"function"},{"inputs":[{"internalType":"bytes","name":"proof","type":"bytes"},{"internalType":"bytes32","name":"merkleRoot","type":"bytes32"},{"internalType":"bytes32","name":"groupId","type":"bytes32"},{"internalType":"bytes32","name":"nullifier","type":"bytes32"}],"name":"verifyMembership","outputs":[{"internalType":"bool","name":"","type":"bool"}],"stateMutability":"view","type":"function"}],"evm":{"bytecode":{"linkReferences":{},"object":"6080806040523461002857600080546001600160a01b03191633179055610219908161002e8239f35b600080fdfe608060408181526004918236101561001657600080fd5b600090813560e01c90816326f1a86414610173575080638da5cb5b1461014b578063ad08d209146100c15763fb8f16fb1461005057600080fd5b346100b65760803660031901126100b657823567ffffffffffffffff938482116100bd57366023830112156100bd578101359384116100b95760248436920101116100b657506100ad6020926064359060443590602435906101a7565b90519015158152f35b80fd5b5080fd5b8280fd5b509190346100bd5760603660031901126100bd57604435918215158093036101475783546001600160a01b03163303610119573583526001602052808320602435845260205282209060ff8019835416911617905580f35b6020606492519162461bcd60e51b835282015260096024820152682737ba1037bbb732b960b91b6044820152fd5b8380fd5b5090346100b957816003193601126100b957905490516001600160a01b039091168152602090f35b9050828434610147578160031936011261014757358352600160209081528184206024358552815292205460ff1615158152f35b929092156101db57156101d457600052600160205260406000209060005260205260ff6040600020541690565b5050600090565b50505060009056fea264697066735822122010641ddb87b1079aba1b631d4d8c306e05003aa93eb843b9e46f3d1cd4c13bca64736f6c63430008140033","opcodes":"PUSH1 0x80 DUP1 PUSH1 0x40 MSTORE CALLVALUE PUSH2 0x28 JUMPI PUSH1 0x0 DUP1 SLOAD PUSH1 0x1 PUSH1 0x1 PUSH1 0xA0 SHL SUB NOT AND CALLER OR SWAP1 SSTORE PUSH2 0x219 SWAP1 DUP2 PUSH2 0x2E DUP3 CODECOPY RETURN JUMPDEST PUSH1 0x0 DUP1 REVERT INVALID PUSH1 0x80 PUSH1 0x40 DUP2 DUP2 MSTORE PUSH1 0x4 SWAP2 DUP3 CALLDATASIZE LT ISZERO PUSH2 0x16 JUMPI PUSH1 0x0 DUP1 REVERT JUMPDEST PUSH1 0x0 SWAP1 DUP2 CALLDATALOAD PUSH1 0xE0 SHR SWAP1 DUP2 PUSH4 0x26F1A864 EQ PUSH2 0x173 JUMPI POP DUP1 PUSH4 0x8DA5CB5B EQ PUSH2 0x14B JUMPI DUP1 PUSH4 0xAD08D209 EQ PUSH2 0xC1 JUMPI PUSH4 0xFB8F16FB EQ PUSH2 0x50 JUMPI PUSH1 0x0 DUP1 REVERT JUMPDEST CALLVALUE PUSH2 0xB6 JUMPI PUSH1 0x80 CALLDATASIZE PUSH1 0x3 NOT ADD SLT PUSH2 0xB6 JUMPI DUP3 CALLDATALOAD PUSH8 0xFFFFFFFFFFFFFFFF SWAP4 DUP5 DUP3 GT PUSH2 0xBD JUMPI CALLDATASIZE PUSH1 0x23 DUP4 ADD SLT ISZERO PUSH2 0xBD JUMPI DUP2 ADD CALLDATALOAD SWAP4 DUP5 GT PUSH2 0xB9 JUMPI PUSH1 0x24 DUP5 CALLDATASIZE SWAP3 ADD ADD GT PUSH2 0xB6 JUMPI POP PUSH2 0xAD PUSH1 0x20 SWAP3 PUSH1 0x64 CALLDATALOAD SWAP1 PUSH1 0x44 CALLDATALOAD SWAP1 PUSH1 0x24 CALLDATALOAD SWAP1 PUSH2 0x1A7 JUMP JUMPDEST SWAP1 MLOAD SWAP1 ISZERO ISZERO DUP2 MSTORE RETURN JUMPDEST DUP1 REVERT JUMPDEST POP DUP1 REVERT JUMPDEST DUP3 DUP1 REVERT JUMPDEST POP SWAP2 SWAP1 CALLVALUE PUSH2 0xBD JUMPI PUSH1 0x60 CALLDATASIZE PUSH1 0x3 NOT ADD SLT PUSH2 0xBD JUMPI PUSH1 0x44 CALLDATALOAD SWAP2 DUP3 ISZERO ISZERO DUP1 SWAP4 SUB PUSH2 0x147 JUMPI DUP4 SLOAD PUSH1 0x1 PUSH1 0x1 PUSH1 0xA0 SHL SUB AND CALLER SUB PUSH2 0x119 JUMPI CALLDATALOAD DUP4 MSTORE PUSH1 0x1 PUSH1 0x20 MSTORE DUP1 DUP4 KECCAK256 PUSH1 0x24 CALLDATALOAD DUP5 MSTORE PUSH1 0x20 MSTORE DUP3 KECCAK256 SWAP1 PUSH1 0xFF DUP1 NOT DUP4 SLOAD AND SWAP2 AND OR SWAP1 SSTORE DUP1 RETURN JUMPDEST PUSH1 0x20 PUSH1 0x64 SWAP3 MLOAD SWAP2 PUSH3 0x461BCD PUSH1 0xE5 SHL DUP4 MSTORE DUP3 ADD MSTORE PUSH1 0x9 PUSH1 0x24 DUP3 ADD MSTORE PUSH9 0x2737BA1037BBB732B9 PUSH1 0xB9 SHL PUSH1 0x44 DUP3 ADD MSTORE REVERT JUMPDEST DUP4 DUP1 REVERT JUMPDEST POP SWAP1 CALLVALUE PUSH2 0xB9 JUMPI DUP2 PUSH1 0x3 NOT CALLDATASIZE ADD SLT PUSH2 0xB9 JUMPI SWAP1 SLOAD SWAP1 MLOAD PUSH1 0x1 PUSH1 0x1 PUSH1 0xA0 SHL SUB SWAP1 SWAP2 AND DUP2 MSTORE PUSH1 0x20 SWAP1 RETURN JUMPDEST SWAP1 POP DUP3 DUP5 CALLVALUE PUSH2 0x147 JUMPI DUP2 PUSH1 0x3 NOT CALLDATASIZE ADD SLT PUSH2 0x147 JUMPI CALLDATALOAD DUP4 MSTORE PUSH1 0x1 PUSH1 0x20 SWAP1 DUP2 MSTORE DUP2 DUP5 KECCAK256 PUSH1 0x24 CALLDATALOAD DUP6 MSTORE DUP2 MSTORE SWAP3 KECCAK256 SLOAD PUSH1 0xFF AND ISZERO ISZERO DUP2 MSTORE RETURN JUMPDEST SWAP3 SWAP1 SWAP3 ISZERO PUSH2 0x1DB JUMPI ISZERO PUSH2 0x1D4 JUMPI PUSH1 0x0 MSTORE PUSH1 0x1 PUSH1 0x20 MSTORE PUSH1 0x40 PUSH1 0x0 KECCAK256 SWAP1 PUSH1 0x0 MSTORE PUSH1 0x20 MSTORE PUSH1 0xFF PUSH1 0x40 PUSH1 0x0 KECCAK256 SLOAD AND SWAP1 JUMP JUMPDEST POP POP PUSH1 0x0 SWAP1 JUMP JUMPDEST POP POP POP PUSH1 0x0 SWAP1 JUMP INVALID LOG2 PUSH5 0x6970667358 0x22 SLT KECCAK256 LT PUSH5 0x1DDB87B107 SWAP11 0xBA SHL PUSH4 0x1D4D8C30 PUSH15 0x5003AA93EB843B9E46F3D1CD4C13B 0xCA PUSH5 0x736F6C6343 STOP ADDMOD EQ STOP CALLER "},"methodIdentifiers":{"owner()":"8da5cb5b","setValidRoot(bytes32,bytes32,bool)":"ad08d209","validRoots(bytes32,bytes32)":"26f1a864","verifyMembership(bytes,bytes32,bytes32,bytes32)":"fb8f16fb"}}}}}