{"contracts/core/GroupRegistry.sol":{"GroupRegistry":{"abi":[{"anonymous":false,"inputs":[{"indexed":true,"internalType":"bytes32","name":"groupId","type":"bytes32"},{"indexed":false,"internalType":"address","name":"admin","type":"address"}],"name":"GroupCreated","type":"event"},{"anonymous":false,"inputs":[{"indexed":true,"internalType":"bytes32","name":"groupId","type":"bytes32"},{"indexed":false,"internalType":"bytes","name":"newEncryptedKey","type":"bytes"},{"indexed":false,"internalType":"uint256","name":"newEpoch","type":"uint256"}],"name":"GroupKeyRotated","type":"event"},{"anonymous":false,"inputs":[{"indexed":true,"internalType":"bytes32","name":"groupId","type":"bytes32"},{"indexed":false,"internalType":"bytes32","name":"identityCommitment","type":"bytes32"}],"name":"MemberAdded","type":"event"},{"inputs":[{"internalType":"bytes32","name":"groupId","type":"bytes32"},{"internalType":"bytes32","name":"identityCommitment","type":"bytes32"},{"internalType":"bytes32","name":"newMerkleRoot","type":"bytes32"},{"internalType":"bytes","name":"encryptedKeyForMember","type":"bytes"}],"name":"addMember","outputs":[],"stateMutability":"nonpayable","type":"function"},{"inputs":[{"internalType":"bytes32","name":"groupId","type":"bytes32"},{"internalType":"bool","name":"isPublic","type":"bool"},{"internalType":"bytes","name":"adminEncryptedKey","type":"bytes"}],"name":"createGroup","outputs":[],"stateMutability":"nonpayable","type":"function"},{"inputs":[{"internalType":"bytes32","name":"","type":"bytes32"}],"name":"groups","outputs":[{"internalType":"address","name":"admin","type":"address"},{"internalType":"bytes32","name":"merkleRoot","type":"bytes32"},{"internalType":"uint256","name":"memberCount","type":"uint256"},{"internalType":"bool","name":"isPublic","type":"bool"},{"internalType":"bytes","name":"encryptedGroupKey","type":"bytes"},{"internalType":"uint256","name":"epoch","type":"uint256"}],"stateMutability":"view","type":"function"},{"inputs":[{"internalType":"bytes32","name":"","type":"bytes32"},{"internalType":"uint256","name":"","type":"uint256"}],"name":"memberEncryptedKeys","outputs":[{"internalType":"bytes","name":"","type":"bytes"}],"stateMutability":"view","type":"function"},{"inputs":[{"internalType":"bytes32","name":"groupId","type":"bytes32"},{"internalType":"bytes","name":"newEncryptedGroupKey","type":"bytes"}],"name":"rotateGroupKey","outputs":[],"stateMutability":"nonpayable","type":"function"}],"evm":{"bytecode":{"linkReferences":{},"object":"608080604052346100165761096b908161001c8239f35b600080fdfe608060408181526004918236101561001657600080fd5b600090813560e01c90816359f8924614610485575080637ea6211714610436578063d3bad36814610287578063ddeef5b7146100de5763ef161bcb1461005b57600080fd5b346100db5760203660031901126100db578190833581528060205220906100d160018060a01b0383541692600181015494600282015460056100a660ff6003860154169385016107c3565b930154948051978897885260208801528601521515606085015260c0608085015260c0840190610869565b9060a08301520390f35b80fd5b50903461028357806003193601126102835782359067ffffffffffffffff9060243582811161027f57610114903690870161071e565b9284865260209086825283872061013560018060a01b0382541633146108fd565b88810191861161026c576101538661014d8454610751565b846108a9565b879186601f8111600114610204576005938a916101f9575b508760011b906000198960031b1c19161790555b0191825492600184018094116101e65792859492857f479b4ba8c2af1ac84341b9ab248a8186984f1aef769921cbbe1e561cfc5bcd58979383606097558551978689978852870152868601378383018501899052830152601f01601f19168101030190a280f35b634e487b7160e01b885260118952602488fd5b90508501353861016b565b50808952838920899388601f1981165b8781881061025057506005965010610236575b5050600187811b01905561017f565b86013560001960038a901b60f8161c191690553880610227565b838a0135855596870196600190940193909201918a9150610214565b634e487b7160e01b885260418952602488fd5b8480fd5b5080fd5b508234610283576080366003190112610283578035906064359367ffffffffffffffff9485811161027f576102bf903690840161071e565b959092848652602093868552838720916102e360018060a01b0384541633146108fd565b600283018054604435600195860155908482019081831161042357558789528387528589209089528652848820938911610410575061032c886103268554610751565b856108a9565b8690601f8911600114610390579780928192899a7f95f2c6778a97783858e2e08e96dd2f7a1d01c70f5a6375579c7aa7640d8aedc5999a94610385575b50501b916000199060031b1c19161790555b516024358152a280f35b013592508a80610369565b9790601f1982169884895286892091895b8b81106103fb5750837f95f2c6778a97783858e2e08e96dd2f7a1d01c70f5a6375579c7aa7640d8aedc5999a9b106103e1575b505050811b01905561037b565b0135600019600384901b60f8161c191690558880806103d4565b828201358455928501929088019088016103a1565b634e487b7160e01b885260419052602487fd5b634e487b7160e01b8b526011845260248bfd5b5091346104815781600319360112610481578161047d9361046a9235815260016020528181206024358252602052206107c3565b9051918291602083526020830190610869565b0390f35b8280fd5b8493915034610481576060366003190112610481578335916024359182151580930361027f5767ffffffffffffffff9060443582811161071a576104cc903690890161071e565b909286885260209588875260018060a01b039384878b2054166106ea575085519460c08601868110848211176106c0578752338652878601918a8352878701928b8452606088019182528486116106d757885195601f1993610535601f830186168d018961078b565b81885236828201116106d357818e928d92838b0137880101526080880195865260a08801968c88528b8d528c8b52898d209851166bffffffffffffffffffffffff60a01b895416178855519260019384890155516002880155600387019051151560ff801983541691161790558a8601935180519384116106c0578a9b506105ca846105c4879d9c9d54610751565b876108a9565b8891601f85116001146106335750928092819260059796957fe6a96675e2b0e31cf54a0b5ba9b935dcd1a4374a0f999a4a071d9144c9b47d569c94610628575b50501b916000199060031b1c19161790555b5191015551338152a280f35b015192508d8061060a565b909294959697989950831691858c52898c20928c5b8181106106ab5750917fe6a96675e2b0e31cf54a0b5ba9b935dcd1a4374a0f999a4a071d9144c9b47d569a99989795939185600598969410610692575b505050811b01905561061c565b015160001960f88460031b161c191690558b8080610685565b82840151855593860193928b01928b01610648565b634e487b7160e01b8b5260418c5260248bfd5b8d80fd5b634e487b7160e01b8c5260418d5260248cfd5b62461bcd60e51b81528a8101889052600c60248201526b47726f75702065786973747360a01b6044820152606490fd5b8680fd5b9181601f8401121561074c5782359167ffffffffffffffff831161074c576020838186019501011161074c57565b600080fd5b90600182811c92168015610781575b602083101461076b57565b634e487b7160e01b600052602260045260246000fd5b91607f1691610760565b90601f8019910116810190811067ffffffffffffffff8211176107ad57604052565b634e487b7160e01b600052604160045260246000fd5b90604051918260008254926107d784610751565b9081845260019485811690816000146108465750600114610803575b50506108019250038361078b565b565b9093915060005260209081600020936000915b81831061082e575050610801935082010138806107f3565b85548884018501529485019487945091830191610816565b91505061080194506020925060ff191682840152151560051b82010138806107f3565b919082519283825260005b848110610895575050826000602080949584010152601f8019910116010190565b602081830181015184830182015201610874565b90601f81116108b757505050565b600091825260208220906020601f850160051c830194106108f3575b601f0160051c01915b8281106108e857505050565b8181556001016108dc565b90925082906108d3565b1561090457565b60405162461bcd60e51b81526020600482015260096024820152682737ba1030b236b4b760b91b6044820152606490fdfea2646970667358221220daac2b6cf7fedb1a54df48a56a72e252f0e19be0170d968f989dbc84476e778164736f6c63430008140033","opcodes":"PUSH1 0x80 DUP1 PUSH1 0x40 MSTORE CALLVALUE PUSH2 0x16 JUMPI PUSH2 0x96B SWAP1 DUP2 PUSH2 0x1C DUP3 CODECOPY RETURN JUMPDEST PUSH1 0x0 DUP1 REVERT INVALID PUSH1 0x80 PUSH1 0x40 DUP2 DUP2 MSTORE PUSH1 0x4 SWAP2 DUP3 CALLDATASIZE LT ISZERO PUSH2 0x16 JUMPI PUSH1 0x0 DUP1 REVERT JUMPDEST PUSH1 0x0 SWAP1 DUP2 CALLDATALOAD PUSH1 0xE0 SHR SWAP1 DUP2 PUSH4 0x59F89246 EQ PUSH2 0x485 JUMPI POP DUP1 PUSH4 0x7EA62117 EQ PUSH2 0x436 JUMPI DUP1 PUSH4 0xD3BAD368 EQ PUSH2 0x287 JUMPI DUP1 PUSH4 0xDDEEF5B7 EQ PUSH2 0xDE JUMPI PUSH4 0xEF161BCB EQ PUSH2 0x5B JUMPI PUSH1 0x0 DUP1 REVERT JUMPDEST CALLVALUE PUSH2 0xDB JUMPI PUSH1 0x20 CALLDATASIZE PUSH1 0x3 NOT ADD SLT PUSH2 0xDB JUMPI DUP2 SWAP1 DUP4 CALLDATALOAD DUP2 MSTORE DUP1 PUSH1 0x20 MSTORE KECCAK256 SWAP1 PUSH2 0xD1 PUSH1 0x1 DUP1 PUSH1 0xA0 SHL SUB DUP4 SLOAD AND SWAP3 PUSH1 0x1 DUP2 ADD SLOAD SWAP5 PUSH1 0x2 DUP3 ADD SLOAD PUSH1 0x5 PUSH2 0xA6 PUSH1 0xFF PUSH1 0x3 DUP7 ADD SLOAD AND SWAP4 DUP6 ADD PUSH2 0x7C3 JUMP JUMPDEST SWAP4 ADD SLOAD SWAP5 DUP1 MLOAD SWAP8 DUP9 SWAP8 DUP9 MSTORE PUSH1 0x20 DUP9 ADD MSTORE DUP7 ADD MSTORE ISZERO ISZERO PUSH1 0x60 DUP6 ADD MSTORE PUSH1 0xC0 PUSH1 0x80 DUP6 ADD MSTORE PUSH1 0xC0 DUP5 ADD SWAP1 PUSH2 0x869 JUMP JUMPDEST SWAP1 PUSH1 0xA0 DUP4 ADD MSTORE SUB SWAP1 RETURN JUMPDEST DUP1 REVERT JUMPDEST POP SWAP1 CALLVALUE PUSH2 0x283 JUMPI DUP1 PUSH1 0x3 NOT CALLDATASIZE ADD SLT PUSH2 0x283 JUMPI DUP3 CALLDATALOAD SWAP1 PUSH8 0xFFFFFFFFFFFFFFFF SWAP1 PUSH1 0x24 CALLDATALOAD DUP3 DUP2 GT PUSH2 0x27F JUMPI PUSH2 0x114 SWAP1 CALLDATASIZE SWAP1 DUP8 ADD PUSH2 0x71E JUMP JUMPDEST SWAP3 DUP5 DUP7 MSTORE PUSH1 0x20 SWAP1 DUP7 DUP3 MSTORE DUP4 DUP8 KECCAK256 PUSH2 0x135 PUSH1 0x1 DUP1 PUSH1 0xA0 SHL SUB DUP3 SLOAD AND CALLER EQ PUSH2 0x8FD JUMP JUMPDEST DUP9 DUP2 ADD SWAP2 DUP7 GT PUSH2 0x26C JUMPI PUSH2 0x153 DUP7 PUSH2 0x14D DUP5 SLOAD PUSH2 0x751 JUMP JUMPDEST DUP5 PUSH2 0x8A9 JUMP JUMPDEST DUP8 SWAP2 DUP7 PUSH1 0x1F DUP2 GT PUSH1 0x1 EQ PUSH2 0x204 JUMPI PUSH1 0x5 SWAP4 DUP11 SWAP2 PUSH2 0x1F9 JUMPI JUMPDEST POP DUP8 PUSH1 0x1 SHL SWAP1 PUSH1 0x0 NOT DUP10 PUSH1 0x3 SHL SHR NOT AND OR SWAP1 SSTORE JUMPDEST ADD SWAP2 DUP3 SLOAD SWAP3 PUSH1 0x1 DUP5 ADD DUP1 SWAP5 GT PUSH2 0x1E6 JUMPI SWAP3 DUP6 SWAP5 SWAP3 DUP6 PUSH32 0x479B4BA8C2AF1AC84341B9AB248A8186984F1AEF769921CBBE1E561CFC5BCD58 SWAP8 SWAP4 DUP4 PUSH1 0x60 SWAP8 SSTORE DUP6 MLOAD SWAP8 DUP7 DUP10 SWAP8 DUP9 MSTORE DUP8 ADD MSTORE DUP7 DUP7 ADD CALLDATACOPY DUP4 DUP4 ADD DUP6 ADD DUP10 SWAP1 MSTORE DUP4 ADD MSTORE PUSH1 0x1F ADD PUSH1 0x1F NOT AND DUP2 ADD SUB ADD SWAP1 LOG2 DUP1 RETURN JUMPDEST PUSH4 0x4E487B71 PUSH1 0xE0 SHL DUP9 MSTORE PUSH1 0x11 DUP10 MSTORE PUSH1 0x24 DUP9 REVERT JUMPDEST SWAP1 POP DUP6 ADD CALLDATALOAD CODESIZE PUSH2 0x16B JUMP JUMPDEST POP DUP1 DUP10 MSTORE DUP4 DUP10 KECCAK256 DUP10 SWAP4 DUP9 PUSH1 0x1F NOT DUP2 AND JUMPDEST DUP8 DUP2 DUP9 LT PUSH2 0x250 JUMPI POP PUSH1 0x5 SWAP7 POP LT PUSH2 0x236 JUMPI JUMPDEST POP POP PUSH1 0x1 DUP8 DUP2 SHL ADD SWAP1 SSTORE PUSH2 0x17F JUMP JUMPDEST DUP7 ADD CALLDATALOAD PUSH1 0x0 NOT PUSH1 0x3 DUP11 SWAP1 SHL PUSH1 0xF8 AND SHR NOT AND SWAP1 SSTORE CODESIZE DUP1 PUSH2 0x227 JUMP JUMPDEST DUP4 DUP11 ADD CALLDATALOAD DUP6 SSTORE SWAP7 DUP8 ADD SWAP7 PUSH1 0x1 SWAP1 SWAP5 ADD SWAP4 SWAP1 SWAP3 ADD SWAP2 DUP11 SWAP2 POP PUSH2 0x214 JUMP JUMPDEST PUSH4 0x4E487B71 PUSH1 0xE0 SHL DUP9 MSTORE PUSH1 0x41 DUP10 MSTORE PUSH1 0x24 DUP9 REVERT JUMPDEST DUP5 DUP1 REVERT JUMPDEST POP DUP1 REVERT JUMPDEST POP DUP3 CALLVALUE PUSH2 0x283 JUMPI PUSH1 0x80 CALLDATASIZE PUSH1 0x3 NOT ADD SLT PUSH2 0x283 JUMPI DUP1 CALLDATALOAD SWAP1 PUSH1 0x64 CALLDATALOAD SWAP4 PUSH8 0xFFFFFFFFFFFFFFFF SWAP5 DUP6 DUP2 GT PUSH2 0x27F JUMPI PUSH2 0x2BF SWAP1 CALLDATASIZE SWAP1 DUP5 ADD PUSH2 0x71E JUMP JUMPDEST SWAP6 SWAP1 SWAP3 DUP5 DUP7 MSTORE PUSH1 0x20 SWAP4 DUP7 DUP6 MSTORE DUP4 DUP8 KECCAK256 SWAP2 PUSH2 0x2E3 PUSH1 0x1 DUP1 PUSH1 0xA0 SHL SUB DUP5 SLOAD AND CALLER EQ PUSH2 0x8FD JUMP JUMPDEST PUSH1 0x2 DUP4 ADD DUP1 SLOAD PUSH1 0x44 CALLDATALOAD PUSH1 0x1 SWAP6 DUP7 ADD SSTORE SWAP1 DUP5 DUP3 ADD SWAP1 DUP2 DUP4 GT PUSH2 0x423 JUMPI SSTORE DUP8 DUP10 MSTORE DUP4 DUP8 MSTORE DUP6 DUP10 KECCAK256 SWAP1 DUP10 MSTORE DUP7 MSTORE DUP5 DUP9 KECCAK256 SWAP4 DUP10 GT PUSH2 0x410 JUMPI POP PUSH2 0x32C DUP9 PUSH2 0x326 DUP6 SLOAD PUSH2 0x751 JUMP JUMPDEST DUP6 PUSH2 0x8A9 JUMP JUMPDEST DUP7 SWAP1 PUSH1 0x1F DUP10 GT PUSH1 0x1 EQ PUSH2 0x390 JUMPI SWAP8 DUP1 SWAP3 DUP2 SWAP3 DUP10 SWAP11 PUSH32 0x95F2C6778A97783858E2E08E96DD2F7A1D01C70F5A6375579C7AA7640D8AEDC5 SWAP10 SWAP11 SWAP5 PUSH2 0x385 JUMPI JUMPDEST POP POP SHL SWAP2 PUSH1 0x0 NOT SWAP1 PUSH1 0x3 SHL SHR NOT AND OR SWAP1 SSTORE JUMPDEST MLOAD PUSH1 0x24 CALLDATALOAD DUP2 MSTORE LOG2 DUP1 RETURN JUMPDEST ADD CALLDATALOAD SWAP3 POP DUP11 DUP1 PUSH2 0x369 JUMP JUMPDEST SWAP8 SWAP1 PUSH1 0x1F NOT DUP3 AND SWAP9 DUP5 DUP10 MSTORE DUP7 DUP10 KECCAK256 SWAP2 DUP10 JUMPDEST DUP12 DUP2 LT PUSH2 0x3FB JUMPI POP DUP4 PUSH32 0x95F2C6778A97783858E2E08E96DD2F7A1D01C70F5A6375579C7AA7640D8AEDC5 SWAP10 SWAP11 SWAP12 LT PUSH2 0x3E1 JUMPI JUMPDEST POP POP POP DUP2 SHL ADD SWAP1 SSTORE PUSH2 0x37B JUMP JUMPDEST ADD CALLDATALOAD PUSH1 0x0 NOT PUSH1 0x3 DUP5 SWAP1 SHL PUSH1 0xF8 AND SHR NOT AND SWAP1 SSTORE DUP9 DUP1 DUP1 PUSH2 0x3D4 JUMP JUMPDEST DUP3 DUP3 ADD CALLDATALOAD DUP5 SSTORE SWAP3 DUP6 ADD SWAP3 SWAP1 DUP9 ADD SWAP1 DUP9 ADD PUSH2 0x3A1 JUMP JUMPDEST PUSH4 0x4E487B71 PUSH1 0xE0 SHL DUP9 MSTORE PUSH1 0x41 SWAP1 MSTORE PUSH1 0x24 DUP8 REVERT JUMPDEST PUSH4 0x4E487B71 PUSH1 0xE0 SHL DUP12 MSTORE PUSH1 0x11 DUP5 MSTORE PUSH1 0x24 DUP12 REVERT JUMPDEST POP SWAP2 CALLVALUE PUSH2 0x481 JUMPI DUP2 PUSH1 0x3 NOT CALLDATASIZE ADD SLT PUSH2 0x481 JUMPI DUP2 PUSH2 0x47D SWAP4 PUSH2 0x46A SWAP3 CALLDATALOAD DUP2 MSTORE PUSH1 0x1 PUSH1 0x20 MSTORE DUP2 DUP2 KECCAK256 PUSH1 0x24 CALLDATALOAD DUP3 MSTORE PUSH1 0x20 MSTORE KECCAK256 PUSH2 0x7C3 JUMP JUMPDEST SWAP1 MLOAD SWAP2 DUP3 SWAP2 PUSH1 0x20 DUP4 MSTORE PUSH1 0x20 DUP4 ADD SWAP1 PUSH2 0x869 JUMP JUMPDEST SUB SWAP1 RETURN JUMPDEST DUP3 DUP1 REVERT JUMPDEST DUP5 SWAP4 SWAP2 POP CALLVALUE PUSH2 0x481 JUMPI PUSH1 0x60 CALLDATASIZE PUSH1 0x3 NOT ADD SLT PUSH2 0x481 JUMPI DUP4 CALLDATALOAD SWAP2 PUSH1 0x24 CALLDATALOAD SWAP2 DUP3 ISZERO ISZERO DUP1 SWAP4 SUB PUSH2 0x27F JUMPI PUSH8 0xFFFFFFFFFFFFFFFF SWAP1 PUSH1 0x44 CALLDATALOAD DUP3 DUP2 GT PUSH2 0x71A JUMPI PUSH2 0x4CC SWAP1 CALLDATASIZE SWAP1 DUP10 ADD PUSH2 0x71E JUMP JUMPDEST SWAP1 SWAP3 DUP7 DUP9 MSTORE PUSH1 0x20 SWAP6 DUP9 DUP8 MSTORE PUSH1 0x1 DUP1 PUSH1 0xA0 SHL SUB SWAP4 DUP5 DUP8 DUP12 KECCAK256 SLOAD AND PUSH2 0x6EA JUMPI POP DUP6 MLOAD SWAP5 PUSH1 0xC0 DUP7 ADD DUP7 DUP2 LT DUP5 DUP3 GT OR PUSH2 0x6C0 JUMPI DUP8 MSTORE CALLER DUP7 MSTORE DUP8 DUP7 ADD SWAP2 DUP11 DUP4 MSTORE DUP8 DUP8 ADD SWAP3 DUP12 DUP5 MSTORE PUSH1 0x60 DUP9 ADD SWAP2 DUP3 MSTORE DUP5 DUP7 GT PUSH2 0x6D7 JUMPI DUP9 MLOAD SWAP6 PUSH1 0x1F NOT SWAP4 PUSH2 0x535 PUSH1 0x1F DUP4 ADD DUP7 AND DUP14 ADD DUP10 PUSH2 0x78B JUMP JUMPDEST DUP2 DUP9 MSTORE CALLDATASIZE DUP3 DUP3 ADD GT PUSH2 0x6D3 JUMPI DUP2 DUP15 SWAP3 DUP14 SWAP3 DUP4 DUP12 ADD CALLDATACOPY DUP9 ADD ADD MSTORE PUSH1 0x80 DUP9 ADD SWAP6 DUP7 MSTORE PUSH1 0xA0 DUP9 ADD SWAP7 DUP13 DUP9 MSTORE DUP12 DUP14 MSTORE DUP13 DUP12 MSTORE DUP10 DUP14 KECCAK256 SWAP9 MLOAD AND PUSH12 0xFFFFFFFFFFFFFFFFFFFFFFFF PUSH1 0xA0 SHL DUP10 SLOAD AND OR DUP9 SSTORE MLOAD SWAP3 PUSH1 0x1 SWAP4 DUP5 DUP10 ADD SSTORE MLOAD PUSH1 0x2 DUP9 ADD SSTORE PUSH1 0x3 DUP8 ADD SWAP1 MLOAD ISZERO ISZERO PUSH1 0xFF DUP1 NOT DUP4 SLOAD AND SWAP2 AND OR SWAP1 SSTORE DUP11 DUP7 ADD SWAP4 MLOAD DUP1 MLOAD SWAP4 DUP5 GT PUSH2 0x6C0 JUMPI DUP11 SWAP12 POP PUSH2 0x5CA DUP5 PUSH2 0x5C4 DUP8 SWAP14 SWAP13 SWAP14 SLOAD PUSH2 0x751 JUMP JUMPDEST DUP8 PUSH2 0x8A9 JUMP JUMPDEST DUP9 SWAP2 PUSH1 0x1F DUP6 GT PUSH1 0x1 EQ PUSH2 0x633 JUMPI POP SWAP3 DUP1 SWAP3 DUP2 SWAP3 PUSH1 0x5 SWAP8 SWAP7 SWAP6 PUSH32 0xE6A96675E2B0E31CF54A0B5BA9B935DCD1A4374A0F999A4A071D9144C9B47D56 SWAP13 SWAP5 PUSH2 0x628 JUMPI JUMPDEST POP POP SHL SWAP2 PUSH1 0x0 NOT SWAP1 PUSH1 0x3 SHL SHR NOT AND OR SWAP1 SSTORE JUMPDEST MLOAD SWAP2 ADD SSTORE MLOAD CALLER DUP2 MSTORE LOG2 DUP1 RETURN JUMPDEST ADD MLOAD SWAP3 POP DUP14 DUP1 PUSH2 0x60A JUMP JUMPDEST SWAP1 SWAP3 SWAP5 SWAP6 SWAP7 SWAP8 SWAP9 SWAP10 POP DUP4 AND SWAP2 DUP6 DUP13 MSTORE DUP10 DUP13 KECCAK256 SWAP3 DUP13 JUMPDEST DUP2 DUP2 LT PUSH2 0x6AB JUMPI POP SWAP2 PUSH32 0xE6A96675E2B0E31CF54A0B5BA9B935DCD1A4374A0F999A4A071D9144C9B47D56 SWAP11 SWAP10 SWAP9 SWAP8 SWAP6 SWAP4 SWAP2 DUP6 PUSH1 0x5 SWAP9 SWAP7 SWAP5 LT PUSH2 0x692 JUMPI JUMPDEST POP POP POP DUP2 SHL ADD SWAP1 SSTORE PUSH2 0x61C JUMP JUMPDEST ADD MLOAD PUSH1 0x0 NOT PUSH1 0xF8 DUP5 PUSH1 0x3 SHL AND SHR NOT AND SWAP1 SSTORE DUP12 DUP1 DUP1 PUSH2 0x685 JUMP JUMPDEST DUP3 DUP5 ADD MLOAD DUP6 SSTORE SWAP4 DUP7 ADD SWAP4 SWAP3 DUP12 ADD SWAP3 DUP12 ADD PUSH2 0x648 JUMP JUMPDEST PUSH4 0x4E487B71 PUSH1 0xE0 SHL DUP12 MSTORE PUSH1 0x41 DUP13 MSTORE PUSH1 0x24 DUP12 REVERT JUMPDEST DUP14 DUP1 REVERT JUMPDEST PUSH4 0x4E487B71 PUSH1 0xE0 SHL DUP13 MSTORE PUSH1 0x41 DUP14 MSTORE PUSH1 0x24 DUP13 REVERT JUMPDEST PUSH3 0x461BCD PUSH1 0xE5 SHL DUP2 MSTORE DUP11 DUP2 ADD DUP9 SWAP1 MSTORE PUSH1 0xC PUSH1 0x24 DUP3 ADD MSTORE PUSH12 0x47726F757020657869737473 PUSH1 0xA0 SHL PUSH1 0x44 DUP3 ADD MSTORE PUSH1 0x64 SWAP1 REVERT JUMPDEST DUP7 DUP1 REVERT JUMPDEST SWAP2 DUP2 PUSH1 0x1F DUP5 ADD SLT ISZERO PUSH2 0x74C JUMPI DUP3 CALLDATALOAD SWAP2 PUSH8 0xFFFFFFFFFFFFFFFF DUP4 GT PUSH2 0x74C JUMPI PUSH1 0x20 DUP4 DUP2 DUP7 ADD SWAP6 ADD ADD GT PUSH2 0x74C JUMPI JUMP JUMPDEST PUSH1 0x0 DUP1 REVERT JUMPDEST SWAP1 PUSH1 0x1 DUP3 DUP2 SHR SWAP3 AND DUP1 ISZERO PUSH2 0x781 JUMPI JUMPDEST PUSH1 0x20 DUP4 LT EQ PUSH2 0x76B JUMPI JUMP JUMPDEST PUSH4 0x4E487B71 PUSH1 0xE0 SHL PUSH1 0x0 MSTORE PUSH1 0x22 PUSH1 0x4 MSTORE PUSH1 0x24 PUSH1 0x0 REVERT JUMPDEST SWAP2 PUSH1 0x7F AND SWAP2 PUSH2 0x760 JUMP JUMPDEST SWAP1 PUSH1 0x1F DUP1 NOT SWAP2 ADD AND DUP2 ADD SWAP1 DUP2 LT PUSH8 0xFFFFFFFFFFFFFFFF DUP3 GT OR PUSH2 0x7AD JUMPI PUSH1 0x40 MSTORE JUMP JUMPDEST PUSH4 0x4E487B71 PUSH1 0xE0 SHL PUSH1 0x0 MSTORE PUSH1 0x41 PUSH1 0x4 MSTORE PUSH1 0x24 PUSH1 0x0 REVERT JUMPDEST SWAP1 PUSH1 0x40 MLOAD SWAP2 DUP3 PUSH1 0x0 DUP3 SLOAD SWAP3 PUSH2 0x7D7 DUP5 PUSH2 0x751 JUMP JUMPDEST SWAP1 DUP2 DUP5 MSTORE PUSH1 0x1 SWAP5 DUP6 DUP2 AND SWAP1 DUP2 PUSH1 0x0 EQ PUSH2 0x846 JUMPI POP PUSH1 0x1 EQ PUSH2 0x803 JUMPI JUMPDEST POP POP PUSH2 0x801 SWAP3 POP SUB DUP4 PUSH2 0x78B JUMP JUMPDEST JUMP JUMPDEST SWAP1 SWAP4 SWAP2 POP PUSH1 0x0 MSTORE PUSH1 0x20 SWAP1 DUP2 PUSH1 0x0 KECCAK256 SWAP4 PUSH1 0x0 SWAP2 JUMPDEST DUP2 DUP4 LT PUSH2 0x82E JUMPI POP POP PUSH2 0x801 SWAP4 POP DUP3 ADD ADD CODESIZE DUP1 PUSH2 0x7F3 JUMP JUMPDEST DUP6 SLOAD DUP9 DUP5 ADD DUP6 ADD MSTORE SWAP5 DUP6 ADD SWAP5 DUP8 SWAP5 POP SWAP2 DUP4 ADD SWAP2 PUSH2 0x816 JUMP JUMPDEST SWAP2 POP POP PUSH2 0x801 SWAP5 POP PUSH1 0x20 SWAP3 POP PUSH1 0xFF NOT AND DUP3 DUP5 ADD MSTORE ISZERO ISZERO PUSH1 0x5 SHL DUP3 ADD ADD CODESIZE DUP1 PUSH2 0x7F3 JUMP JUMPDEST SWAP2 SWAP1 DUP3 MLOAD SWAP3 DUP4 DUP3 MSTORE PUSH1 0x0 JUMPDEST DUP5 DUP2 LT PUSH2 0x895 JUMPI POP POP DUP3 PUSH1 0x0 PUSH1 0x20 DUP1 SWAP5 SWAP6 DUP5 ADD ADD MSTORE PUSH1 0x1F DUP1 NOT SWAP2 ADD AND ADD ADD SWAP1 JUMP JUMPDEST PUSH1 0x20 DUP2 DUP4 ADD DUP2 ADD MLOAD DUP5 DUP4 ADD DUP3 ADD MSTORE ADD PUSH2 0x874 JUMP JUMPDEST SWAP1 PUSH1 0x1F DUP2 GT PUSH2 0x8B7 JUMPI POP POP POP JUMP JUMPDEST PUSH1 0x0 SWAP2 DUP3 MSTORE PUSH1 0x20 DUP3 KECCAK256 SWAP1 PUSH1 0x20 PUSH1 0x1F DUP6 ADD PUSH1 0x5 SHR DUP4 ADD SWAP5 LT PUSH2 0x8F3 JUMPI JUMPDEST PUSH1 0x1F ADD PUSH1 0x5 SHR ADD SWAP2 JUMPDEST DUP3 DUP2 LT PUSH2 0x8E8 JUMPI POP POP POP JUMP JUMPDEST DUP2 DUP2 SSTORE PUSH1 0x1 ADD PUSH2 0x8DC JUMP JUMPDEST SWAP1 SWAP3 POP DUP3 SWAP1 PUSH2 0x8D3 JUMP JUMPDEST ISZERO PUSH2 0x904 JUMPI JUMP JUMPDEST PUSH1 0x40 MLOAD PUSH3 0x461BCD PUSH1 0xE5 SHL DUP2 MSTORE PUSH1 0x20 PUSH1 0x4 DUP3 ADD MSTORE PUSH1 0x9 PUSH1 0x24 DUP3 ADD MSTORE PUSH9 0x2737BA1030B236B4B7 PUSH1 0xB9 SHL PUSH1 0x44 DUP3 ADD MSTORE PUSH1 0x64 SWAP1 REVERT INVALID LOG2 PUSH5 0x6970667358 0x22 SLT KECCAK256 0xDA 0xAC 0x2B PUSH13 0xF7FEDB1A54DF48A56A72E252F0 0xE1 SWAP12 0xE0 OR 0xD SWAP7 DUP16 SWAP9 SWAP14 0xBC DUP5 SELFBALANCE PUSH15 0x778164736F6C634300081400330000 "},"methodIdentifiers":{"addMember(bytes32,bytes32,bytes32,bytes)":"d3bad368","createGroup(bytes32,bool,bytes)":"59f89246","groups(bytes32)":"ef161bcb","memberEncryptedKeys(bytes32,uint256)":"7ea62117","rotateGroupKey(bytes32,bytes)":"ddeef5b7"}}}}}