{"contracts/core/MessageHub.sol":{"MessageHub":{"abi":[{"inputs":[{"internalType":"address","name":"verifierAddress","type":"address"}],"stateMutability":"nonpayable","type":"constructor"},{"anonymous":false,"inputs":[{"indexed":true,"internalType":"bytes32","name":"groupId","type":"bytes32"},{"indexed":true,"internalType":"bytes32","name":"commitment","type":"bytes32"},{"indexed":false,"internalType":"bytes","name":"encryptedMetadata","type":"bytes"},{"indexed":false,"internalType":"bytes","name":"zkProof","type":"bytes"},{"indexed":false,"internalType":"bytes32","name":"nullifier","type":"bytes32"}],"name":"GroupMessagePosted","type":"event"},{"anonymous":false,"inputs":[{"indexed":true,"internalType":"bytes32","name":"commitment","type":"bytes32"},{"indexed":true,"internalType":"address","name":"stealthRecipient","type":"address"},{"indexed":false,"internalType":"uint256","name":"ephemeralPubKey","type":"uint256"},{"indexed":false,"internalType":"bytes","name":"encryptedMetadata","type":"bytes"},{"indexed":false,"internalType":"bytes32","name":"nullifier","type":"bytes32"}],"name":"MessagePosted","type":"event"},{"inputs":[{"internalType":"bytes32","name":"","type":"bytes32"}],"name":"commitmentTimestamp","outputs":[{"internalType":"uint256","name":"","type":"uint256"}],"stateMutability":"view","type":"function"},{"inputs":[{"internalType":"address","name":"stealthRecipient","type":"address"},{"internalType":"uint256","name":"ephemeralPubKey","type":"uint256"},{"internalType":"bytes","name":"encryptedMetadata","type":"bytes"},{"internalType":"bytes32","name":"nullifier","type":"bytes32"}],"name":"postDirectMessage","outputs":[],"stateMutability":"nonpayable","type":"function"},{"inputs":[{"internalType":"address[]","name":"stealthRecipients","type":"address[]"},{"internalType":"uint256[]","name":"ephemeralPubKeys","type":"uint256[]"},{"internalType":"bytes[]","name":"encryptedMetadatas","type":"bytes[]"},{"internalType":"bytes32[]","name":"nullifiers","type":"bytes32[]"}],"name":"postDirectMessageBatch","outputs":[],"stateMutability":"nonpayable","type":"function"},{"inputs":[{"internalType":"bytes32","name":"groupId","type":"bytes32"},{"internalType":"bytes","name":"encryptedMetadata","type":"bytes"},{"internalType":"bytes","name":"zkProof","type":"bytes"},{"internalType":"bytes32","name":"nullifier","type":"bytes32"},{"internalType":"bytes32","name":"merkleRoot","type":"bytes32"}],"name":"postGroupMessage","outputs":[],"stateMutability":"nonpayable","type":"function"},{"inputs":[{"internalType":"bytes32","name":"","type":"bytes32"}],"name":"usedNullifiers","outputs":[{"internalType":"bool","name":"","type":"bool"}],"stateMutability":"view","type":"function"},{"inputs":[],"name":"verifier","outputs":[{"internalType":"contract IZKVerifier","name":"","type":"address"}],"stateMutability":"view","type":"function"}],"evm":{"bytecode":{"linkReferences":{},"object":"60803461007457601f61081738819003918201601f19168301916001600160401b038311848410176100795780849260209460405283398101031261007457516001600160a01b0381169081900361007457600280546001600160a01b03191691909117905560405161078790816100908239f35b600080fd5b634e487b7160e01b600052604160045260246000fdfe6080604081815260048036101561001557600080fd5b600092833560e01c908163206137aa1461055c575080632b2ca31c1461048e5780632b7ac3f314610465578063d4e81b83146102a0578063e1c1c2811461008f5763fb6162b01461006557600080fd5b3461008b57602036600319011261008b5760209282913581526001845220549051908152f35b8280fd5b5091903461029c57608036600319011261029c5767ffffffffffffffff908335828111610298576100c390369086016105b8565b9490916024938435818111610294576100df90369085016105b8565b919092604435828111610290576100f990369087016105b8565b909260643590811161028c5761011290369088016105b8565b919094808c1480610283575b8061027a575b15610246578a5b8c8110610136578b80f35b8b6101b0828f838a61019a610193858f8e6101788f8f93908161015b878381956106e9565b358b5260209e8f5261017360ff868d205416156105e9565b6106e9565b358752868b528620946001958660ff1982541617905561070f565b369161065e565b868151910120958683525289429120558d6106e9565b356001600160a01b0381169190829003610242577f9a19a0320eeb560e90cddf1d76bd223efc5340ab417fb0e8aea273a6798cc815898961021c8961020f8f6102078a8d610200828f81966106e9565b359761070f565b9390966106e9565b35908c51948594856106c6565b0390a360001981146102305760010161012b565b634e487b7160e01b8c52601189528a8cfd5b8d80fd5b835162461bcd60e51b81526020818a0152600f818c01526e098cadccee8d040dad2e6dac2e8c6d608b1b6044820152606490fd5b50828214610124565b5081811461011e565b8980fd5b8880fd5b8680fd5b8380fd5b5080fd5b5091903461029c5760a036600319011261029c57823567ffffffffffffffff602435818111610461576102d69036908701610585565b909160443590811161045d576102ef9036908801610585565b60649591953590818852602098888a5261030f60ff858b205416156105e9565b6103418a8960018060a01b03600254168751808095819463fb8f16fb60e01b83526080898401528960848401916106a5565b60843560248301528d604483015289606483015203915afa908115610453578a9161041d575b50156103ea575087986103e091837f15920d6fb18e6d69dfb1e81b124c94477372d54a2bca92e37920f95bc5e0f2fb98999a528a8252848b20600160ff198254161790556103b636878961065e565b828151910120996103d3865198899860608a5260608a01916106a5565b92878403908801526106a5565b918301520390a380f35b835162461bcd60e51b81529081018a9052600d60248201526c24b73b30b634b210383937b7b360991b6044820152606490fd5b90508a81813d831161044c575b6104348183610626565b8101031261028c5751801515810361028c5738610367565b503d61042a565b85513d8c823e3d90fd5b8580fd5b8480fd5b50503461029c578160031936011261029c5760025490516001600160a01b039091168152602090f35b50903461008b57608036600319011261008b5781356001600160a01b03811692908390036102985760443567ffffffffffffffff8111610461577f9a19a0320eeb560e90cddf1d76bd223efc5340ab417fb0e8aea273a6798cc815916104f691369101610585565b906105566064358088528760205261051460ff878a205416156105e9565b80885287602052858820600160ff1982541617905561053436858561065e565b6020815191012095868952600160205242818a205551938493602435856106c6565b0390a380f35b929190503461029857602036600319011261029857358352602083815292205460ff1615158152f35b9181601f840112156105b35782359167ffffffffffffffff83116105b357602083818601950101116105b357565b600080fd5b9181601f840112156105b35782359167ffffffffffffffff83116105b3576020808501948460051b0101116105b357565b156105f057565b60405162461bcd60e51b815260206004820152600e60248201526d139d5b1b1a599a595c881d5cd95960921b6044820152606490fd5b90601f8019910116810190811067ffffffffffffffff82111761064857604052565b634e487b7160e01b600052604160045260246000fd5b92919267ffffffffffffffff82116106485760405191610688601f8201601f191660200184610626565b8294818452818301116105b3578281602093846000960137010152565b908060209392818452848401376000828201840152601f01601f1916010190565b949392916040926106e49287526060602088015260608701916106a5565b930152565b91908110156106f95760051b0190565b634e487b7160e01b600052603260045260246000fd5b91908110156106f95760051b81013590601e19813603018212156105b357019081359167ffffffffffffffff83116105b35760200182360381136105b357919056fea2646970667358221220a3d81b7aa9fadc207e6eb31ffaeb40427598e822fc88772b03634aa59853091a64736f6c63430008140033","opcodes":"PUSH1 0x80 CALLVALUE PUSH2 0x74 JUMPI PUSH1 0x1F PUSH2 0x817 CODESIZE DUP2 SWAP1 SUB SWAP2 DUP3 ADD PUSH1 0x1F NOT AND DUP4 ADD SWAP2 PUSH1 0x1 PUSH1 0x1 PUSH1 0x40 SHL SUB DUP4 GT DUP5 DUP5 LT OR PUSH2 0x79 JUMPI DUP1 DUP5 SWAP3 PUSH1 0x20 SWAP5 PUSH1 0x40 MSTORE DUP4 CODECOPY DUP2 ADD SUB SLT PUSH2 0x74 JUMPI MLOAD PUSH1 0x1 PUSH1 0x1 PUSH1 0xA0 SHL SUB DUP2 AND SWAP1 DUP2 SWAP1 SUB PUSH2 0x74 JUMPI PUSH1 0x2 DUP1 SLOAD PUSH1 0x1 PUSH1 0x1 PUSH1 0xA0 SHL SUB NOT AND SWAP2 SWAP1 SWAP2 OR SWAP1 SSTORE PUSH1 0x40 MLOAD PUSH2 0x787 SWAP1 DUP2 PUSH2 0x90 DUP3 CODECOPY RETURN JUMPDEST PUSH1 0x0 DUP1 REVERT JUMPDEST PUSH4 0x4E487B71 PUSH1 0xE0 SHL PUSH1 0x0 MSTORE PUSH1 0x41 PUSH1 0x4 MSTORE PUSH1 0x24 PUSH1 0x0 REVERT INVALID PUSH1 0x80 PUSH1 0x40 DUP2 DUP2 MSTORE PUSH1 0x4 DUP1 CALLDATASIZE LT ISZERO PUSH2 0x15 JUMPI PUSH1 0x0 DUP1 REVERT JUMPDEST PUSH1 0x0 SWAP3 DUP4 CALLDATALOAD PUSH1 0xE0 SHR SWAP1 DUP2 PUSH4 0x206137AA EQ PUSH2 0x55C JUMPI POP DUP1 PUSH4 0x2B2CA31C EQ PUSH2 0x48E JUMPI DUP1 PUSH4 0x2B7AC3F3 EQ PUSH2 0x465 JUMPI DUP1 PUSH4 0xD4E81B83 EQ PUSH2 0x2A0 JUMPI DUP1 PUSH4 0xE1C1C281 EQ PUSH2 0x8F JUMPI PUSH4 0xFB6162B0 EQ PUSH2 0x65 JUMPI PUSH1 0x0 DUP1 REVERT JUMPDEST CALLVALUE PUSH2 0x8B JUMPI PUSH1 0x20 CALLDATASIZE PUSH1 0x3 NOT ADD SLT PUSH2 0x8B JUMPI PUSH1 0x20 SWAP3 DUP3 SWAP2 CALLDATALOAD DUP2 MSTORE PUSH1 0x1 DUP5 MSTORE KECCAK256 SLOAD SWAP1 MLOAD SWAP1 DUP2 MSTORE RETURN JUMPDEST DUP3 DUP1 REVERT JUMPDEST POP SWAP2 SWAP1 CALLVALUE PUSH2 0x29C JUMPI PUSH1 0x80 CALLDATASIZE PUSH1 0x3 NOT ADD SLT PUSH2 0x29C JUMPI PUSH8 0xFFFFFFFFFFFFFFFF SWAP1 DUP4 CALLDATALOAD DUP3 DUP2 GT PUSH2 0x298 JUMPI PUSH2 0xC3 SWAP1 CALLDATASIZE SWAP1 DUP7 ADD PUSH2 0x5B8 JUMP JUMPDEST SWAP5 SWAP1 SWAP2 PUSH1 0x24 SWAP4 DUP5 CALLDATALOAD DUP2 DUP2 GT PUSH2 0x294 JUMPI PUSH2 0xDF SWAP1 CALLDATASIZE SWAP1 DUP6 ADD PUSH2 0x5B8 JUMP JUMPDEST SWAP2 SWAP1 SWAP3 PUSH1 0x44 CALLDATALOAD DUP3 DUP2 GT PUSH2 0x290 JUMPI PUSH2 0xF9 SWAP1 CALLDATASIZE SWAP1 DUP8 ADD PUSH2 0x5B8 JUMP JUMPDEST SWAP1 SWAP3 PUSH1 0x64 CALLDATALOAD SWAP1 DUP2 GT PUSH2 0x28C JUMPI PUSH2 0x112 SWAP1 CALLDATASIZE SWAP1 DUP9 ADD PUSH2 0x5B8 JUMP JUMPDEST SWAP2 SWAP1 SWAP5 DUP1 DUP13 EQ DUP1 PUSH2 0x283 JUMPI JUMPDEST DUP1 PUSH2 0x27A JUMPI JUMPDEST ISZERO PUSH2 0x246 JUMPI DUP11 JUMPDEST DUP13 DUP2 LT PUSH2 0x136 JUMPI DUP12 DUP1 RETURN JUMPDEST DUP12 PUSH2 0x1B0 DUP3 DUP16 DUP4 DUP11 PUSH2 0x19A PUSH2 0x193 DUP6 DUP16 DUP15 PUSH2 0x178 DUP16 DUP16 SWAP4 SWAP1 DUP2 PUSH2 0x15B DUP8 DUP4 DUP2 SWAP6 PUSH2 0x6E9 JUMP JUMPDEST CALLDATALOAD DUP12 MSTORE PUSH1 0x20 SWAP15 DUP16 MSTORE PUSH2 0x173 PUSH1 0xFF DUP7 DUP14 KECCAK256 SLOAD AND ISZERO PUSH2 0x5E9 JUMP JUMPDEST PUSH2 0x6E9 JUMP JUMPDEST CALLDATALOAD DUP8 MSTORE DUP7 DUP12 MSTORE DUP7 KECCAK256 SWAP5 PUSH1 0x1 SWAP6 DUP7 PUSH1 0xFF NOT DUP3 SLOAD AND OR SWAP1 SSTORE PUSH2 0x70F JUMP JUMPDEST CALLDATASIZE SWAP2 PUSH2 0x65E JUMP JUMPDEST DUP7 DUP2 MLOAD SWAP2 ADD KECCAK256 SWAP6 DUP7 DUP4 MSTORE MSTORE DUP10 TIMESTAMP SWAP2 KECCAK256 SSTORE DUP14 PUSH2 0x6E9 JUMP JUMPDEST CALLDATALOAD PUSH1 0x1 PUSH1 0x1 PUSH1 0xA0 SHL SUB DUP2 AND SWAP2 SWAP1 DUP3 SWAP1 SUB PUSH2 0x242 JUMPI PUSH32 0x9A19A0320EEB560E90CDDF1D76BD223EFC5340AB417FB0E8AEA273A6798CC815 DUP10 DUP10 PUSH2 0x21C DUP10 PUSH2 0x20F DUP16 PUSH2 0x207 DUP11 DUP14 PUSH2 0x200 DUP3 DUP16 DUP2 SWAP7 PUSH2 0x6E9 JUMP JUMPDEST CALLDATALOAD SWAP8 PUSH2 0x70F JUMP JUMPDEST SWAP4 SWAP1 SWAP7 PUSH2 0x6E9 JUMP JUMPDEST CALLDATALOAD SWAP1 DUP13 MLOAD SWAP5 DUP6 SWAP5 DUP6 PUSH2 0x6C6 JUMP JUMPDEST SUB SWAP1 LOG3 PUSH1 0x0 NOT DUP2 EQ PUSH2 0x230 JUMPI PUSH1 0x1 ADD PUSH2 0x12B JUMP JUMPDEST PUSH4 0x4E487B71 PUSH1 0xE0 SHL DUP13 MSTORE PUSH1 0x11 DUP10 MSTORE DUP11 DUP13 REVERT JUMPDEST DUP14 DUP1 REVERT JUMPDEST DUP4 MLOAD PUSH3 0x461BCD PUSH1 0xE5 SHL DUP2 MSTORE PUSH1 0x20 DUP2 DUP11 ADD MSTORE PUSH1 0xF DUP2 DUP13 ADD MSTORE PUSH15 0x98CADCCEE8D040DAD2E6DAC2E8C6D PUSH1 0x8B SHL PUSH1 0x44 DUP3 ADD MSTORE PUSH1 0x64 SWAP1 REVERT JUMPDEST POP DUP3 DUP3 EQ PUSH2 0x124 JUMP JUMPDEST POP DUP2 DUP2 EQ PUSH2 0x11E JUMP JUMPDEST DUP10 DUP1 REVERT JUMPDEST DUP9 DUP1 REVERT JUMPDEST DUP7 DUP1 REVERT JUMPDEST DUP4 DUP1 REVERT JUMPDEST POP DUP1 REVERT JUMPDEST POP SWAP2 SWAP1 CALLVALUE PUSH2 0x29C JUMPI PUSH1 0xA0 CALLDATASIZE PUSH1 0x3 NOT ADD SLT PUSH2 0x29C JUMPI DUP3 CALLDATALOAD PUSH8 0xFFFFFFFFFFFFFFFF PUSH1 0x24 CALLDATALOAD DUP2 DUP2 GT PUSH2 0x461 JUMPI PUSH2 0x2D6 SWAP1 CALLDATASIZE SWAP1 DUP8 ADD PUSH2 0x585 JUMP JUMPDEST SWAP1 SWAP2 PUSH1 0x44 CALLDATALOAD SWAP1 DUP2 GT PUSH2 0x45D JUMPI PUSH2 0x2EF SWAP1 CALLDATASIZE SWAP1 DUP9 ADD PUSH2 0x585 JUMP JUMPDEST PUSH1 0x64 SWAP6 SWAP2 SWAP6 CALLDATALOAD SWAP1 DUP2 DUP9 MSTORE PUSH1 0x20 SWAP9 DUP9 DUP11 MSTORE PUSH2 0x30F PUSH1 0xFF DUP6 DUP12 KECCAK256 SLOAD AND ISZERO PUSH2 0x5E9 JUMP JUMPDEST PUSH2 0x341 DUP11 DUP10 PUSH1 0x1 DUP1 PUSH1 0xA0 SHL SUB PUSH1 0x2 SLOAD AND DUP8 MLOAD DUP1 DUP1 SWAP6 DUP2 SWAP5 PUSH4 0xFB8F16FB PUSH1 0xE0 SHL DUP4 MSTORE PUSH1 0x80 DUP10 DUP5 ADD MSTORE DUP10 PUSH1 0x84 DUP5 ADD SWAP2 PUSH2 0x6A5 JUMP JUMPDEST PUSH1 0x84 CALLDATALOAD PUSH1 0x24 DUP4 ADD MSTORE DUP14 PUSH1 0x44 DUP4 ADD MSTORE DUP10 PUSH1 0x64 DUP4 ADD MSTORE SUB SWAP2 GAS STATICCALL SWAP1 DUP2 ISZERO PUSH2 0x453 JUMPI DUP11 SWAP2 PUSH2 0x41D JUMPI JUMPDEST POP ISZERO PUSH2 0x3EA JUMPI POP DUP8 SWAP9 PUSH2 0x3E0 SWAP2 DUP4 PUSH32 0x15920D6FB18E6D69DFB1E81B124C94477372D54A2BCA92E37920F95BC5E0F2FB SWAP9 SWAP10 SWAP11 MSTORE DUP11 DUP3 MSTORE DUP5 DUP12 KECCAK256 PUSH1 0x1 PUSH1 0xFF NOT DUP3 SLOAD AND OR SWAP1 SSTORE PUSH2 0x3B6 CALLDATASIZE DUP8 DUP10 PUSH2 0x65E JUMP JUMPDEST DUP3 DUP2 MLOAD SWAP2 ADD KECCAK256 SWAP10 PUSH2 0x3D3 DUP7 MLOAD SWAP9 DUP10 SWAP9 PUSH1 0x60 DUP11 MSTORE PUSH1 0x60 DUP11 ADD SWAP2 PUSH2 0x6A5 JUMP JUMPDEST SWAP3 DUP8 DUP5 SUB SWAP1 DUP9 ADD MSTORE PUSH2 0x6A5 JUMP JUMPDEST SWAP2 DUP4 ADD MSTORE SUB SWAP1 LOG3 DUP1 RETURN JUMPDEST DUP4 MLOAD PUSH3 0x461BCD PUSH1 0xE5 SHL DUP2 MSTORE SWAP1 DUP2 ADD DUP11 SWAP1 MSTORE PUSH1 0xD PUSH1 0x24 DUP3 ADD MSTORE PUSH13 0x24B73B30B634B210383937B7B3 PUSH1 0x99 SHL PUSH1 0x44 DUP3 ADD MSTORE PUSH1 0x64 SWAP1 REVERT JUMPDEST SWAP1 POP DUP11 DUP2 DUP2 RETURNDATASIZE DUP4 GT PUSH2 0x44C JUMPI JUMPDEST PUSH2 0x434 DUP2 DUP4 PUSH2 0x626 JUMP JUMPDEST DUP2 ADD SUB SLT PUSH2 0x28C JUMPI MLOAD DUP1 ISZERO ISZERO DUP2 SUB PUSH2 0x28C JUMPI CODESIZE PUSH2 0x367 JUMP JUMPDEST POP RETURNDATASIZE PUSH2 0x42A JUMP JUMPDEST DUP6 MLOAD RETURNDATASIZE DUP13 DUP3 RETURNDATACOPY RETURNDATASIZE SWAP1 REVERT JUMPDEST DUP6 DUP1 REVERT JUMPDEST DUP5 DUP1 REVERT JUMPDEST POP POP CALLVALUE PUSH2 0x29C JUMPI DUP2 PUSH1 0x3 NOT CALLDATASIZE ADD SLT PUSH2 0x29C JUMPI PUSH1 0x2 SLOAD SWAP1 MLOAD PUSH1 0x1 PUSH1 0x1 PUSH1 0xA0 SHL SUB SWAP1 SWAP2 AND DUP2 MSTORE PUSH1 0x20 SWAP1 RETURN JUMPDEST POP SWAP1 CALLVALUE PUSH2 0x8B JUMPI PUSH1 0x80 CALLDATASIZE PUSH1 0x3 NOT ADD SLT PUSH2 0x8B JUMPI DUP2 CALLDATALOAD PUSH1 0x1 PUSH1 0x1 PUSH1 0xA0 SHL SUB DUP2 AND SWAP3 SWAP1 DUP4 SWAP1 SUB PUSH2 0x298 JUMPI PUSH1 0x44 CALLDATALOAD PUSH8 0xFFFFFFFFFFFFFFFF DUP2 GT PUSH2 0x461 JUMPI PUSH32 0x9A19A0320EEB560E90CDDF1D76BD223EFC5340AB417FB0E8AEA273A6798CC815 SWAP2 PUSH2 0x4F6 SWAP2 CALLDATASIZE SWAP2 ADD PUSH2 0x585 JUMP JUMPDEST SWAP1 PUSH2 0x556 PUSH1 0x64 CALLDATALOAD DUP1 DUP9 MSTORE DUP8 PUSH1 0x20 MSTORE PUSH2 0x514 PUSH1 0xFF DUP8 DUP11 KECCAK256 SLOAD AND ISZERO PUSH2 0x5E9 JUMP JUMPDEST DUP1 DUP9 MSTORE DUP8 PUSH1 0x20 MSTORE DUP6 DUP9 KECCAK256 PUSH1 0x1 PUSH1 0xFF NOT DUP3 SLOAD AND OR SWAP1 SSTORE PUSH2 0x534 CALLDATASIZE DUP6 DUP6 PUSH2 0x65E JUMP JUMPDEST PUSH1 0x20 DUP2 MLOAD SWAP2 ADD KECCAK256 SWAP6 DUP7 DUP10 MSTORE PUSH1 0x1 PUSH1 0x20 MSTORE TIMESTAMP DUP2 DUP11 KECCAK256 SSTORE MLOAD SWAP4 DUP5 SWAP4 PUSH1 0x24 CALLDATALOAD DUP6 PUSH2 0x6C6 JUMP JUMPDEST SUB SWAP1 LOG3 DUP1 RETURN JUMPDEST SWAP3 SWAP2 SWAP1 POP CALLVALUE PUSH2 0x298 JUMPI PUSH1 0x20 CALLDATASIZE PUSH1 0x3 NOT ADD SLT PUSH2 0x298 JUMPI CALLDATALOAD DUP4 MSTORE PUSH1 0x20 DUP4 DUP2 MSTORE SWAP3 KECCAK256 SLOAD PUSH1 0xFF AND ISZERO ISZERO DUP2 MSTORE RETURN JUMPDEST SWAP2 DUP2 PUSH1 0x1F DUP5 ADD SLT ISZERO PUSH2 0x5B3 JUMPI DUP3 CALLDATALOAD SWAP2 PUSH8 0xFFFFFFFFFFFFFFFF DUP4 GT PUSH2 0x5B3 JUMPI PUSH1 0x20 DUP4 DUP2 DUP7 ADD SWAP6 ADD ADD GT PUSH2 0x5B3 JUMPI JUMP JUMPDEST PUSH1 0x0 DUP1 REVERT JUMPDEST SWAP2 DUP2 PUSH1 0x1F DUP5 ADD SLT ISZERO PUSH2 0x5B3 JUMPI DUP3 CALLDATALOAD SWAP2 PUSH8 0xFFFFFFFFFFFFFFFF DUP4 GT PUSH2 0x5B3 JUMPI PUSH1 0x20 DUP1 DUP6 ADD SWAP5 DUP5 PUSH1 0x5 SHL ADD ADD GT PUSH2 0x5B3 JUMPI JUMP JUMPDEST ISZERO PUSH2 0x5F0 JUMPI JUMP JUMPDEST PUSH1 0x40 MLOAD PUSH3 0x461BCD PUSH1 0xE5 SHL DUP2 MSTORE PUSH1 0x20 PUSH1 0x4 DUP3 ADD MSTORE PUSH1 0xE PUSH1 0x24 DUP3 ADD MSTORE PUSH14 0x139D5B1B1A599A595C881D5CD959 PUSH1 0x92 SHL PUSH1 0x44 DUP3 ADD MSTORE PUSH1 0x64 SWAP1 REVERT JUMPDEST SWAP1 PUSH1 0x1F DUP1 NOT SWAP2 ADD AND DUP2 ADD SWAP1 DUP2 LT PUSH8 0xFFFFFFFFFFFFFFFF DUP3 GT OR PUSH2 0x648 JUMPI PUSH1 0x40 MSTORE JUMP JUMPDEST PUSH4 0x4E487B71 PUSH1 0xE0 SHL PUSH1 0x0 MSTORE PUSH1 0x41 PUSH1 0x4 MSTORE PUSH1 0x24 PUSH1 0x0 REVERT JUMPDEST SWAP3 SWAP2 SWAP3 PUSH8 0xFFFFFFFFFFFFFFFF DUP3 GT PUSH2 0x648 JUMPI PUSH1 0x40 MLOAD SWAP2 PUSH2 0x688 PUSH1 0x1F DUP3 ADD PUSH1 0x1F NOT AND PUSH1 0x20 ADD DUP5 PUSH2 0x626 JUMP JUMPDEST DUP3 SWAP5 DUP2 DUP5 MSTORE DUP2 DUP4 ADD GT PUSH2 0x5B3 JUMPI DUP3 DUP2 PUSH1 0x20 SWAP4 DUP5 PUSH1 0x0 SWAP7 ADD CALLDATACOPY ADD ADD MSTORE JUMP JUMPDEST SWAP1 DUP1 PUSH1 0x20 SWAP4 SWAP3 DUP2 DUP5 MSTORE DUP5 DUP5 ADD CALLDATACOPY PUSH1 0x0 DUP3 DUP3 ADD DUP5 ADD MSTORE PUSH1 0x1F ADD PUSH1 0x1F NOT AND ADD ADD SWAP1 JUMP JUMPDEST SWAP5 SWAP4 SWAP3 SWAP2 PUSH1 0x40 SWAP3 PUSH2 0x6E4 SWAP3 DUP8 MSTORE PUSH1 0x60 PUSH1 0x20 DUP9 ADD MSTORE PUSH1 0x60 DUP8 ADD SWAP2 PUSH2 0x6A5 JUMP JUMPDEST SWAP4 ADD MSTORE JUMP JUMPDEST SWAP2 SWAP1 DUP2 LT ISZERO PUSH2 0x6F9 JUMPI PUSH1 0x5 SHL ADD SWAP1 JUMP JUMPDEST PUSH4 0x4E487B71 PUSH1 0xE0 SHL PUSH1 0x0 MSTORE PUSH1 0x32 PUSH1 0x4 MSTORE PUSH1 0x24 PUSH1 0x0 REVERT JUMPDEST SWAP2 SWAP1 DUP2 LT ISZERO PUSH2 0x6F9 JUMPI PUSH1 0x5 SHL DUP2 ADD CALLDATALOAD SWAP1 PUSH1 0x1E NOT DUP2 CALLDATASIZE SUB ADD DUP3 SLT ISZERO PUSH2 0x5B3 JUMPI ADD SWAP1 DUP2 CALLDATALOAD SWAP2 PUSH8 0xFFFFFFFFFFFFFFFF DUP4 GT PUSH2 0x5B3 JUMPI PUSH1 0x20 ADD DUP3 CALLDATASIZE SUB DUP2 SGT PUSH2 0x5B3 JUMPI SWAP2 SWAP1 JUMP INVALID LOG2 PUSH5 0x6970667358 0x22 SLT KECCAK256 LOG3 0xD8 SHL PUSH27 0xA9FADC207E6EB31FFAEB40427598E822FC88772B03634AA5985309 BYTE PUSH5 0x736F6C6343 STOP ADDMOD EQ STOP CALLER "},"methodIdentifiers":{"commitmentTimestamp(bytes32)":"fb6162b0","postDirectMessage(address,uint256,bytes,bytes32)":"2b2ca31c","postDirectMessageBatch(address[],uint256[],bytes[],bytes32[])":"e1c1c281","postGroupMessage(bytes32,bytes,bytes,bytes32,bytes32)":"d4e81b83","usedNullifiers(bytes32)":"206137aa","verifier()":"2b7ac3f3"}}}}}