{
  "_format": "hh-sol-artifact-1",
  "contractName": "StealthRegistry",
  "sourceName": "contracts/core/StealthRegistry.sol",
  "abi": [
    {
      "inputs": [],
      "name": "ECDSAInvalidSignature",
      "type": "error"
    },
    {
      "inputs": [
        {
          "internalType": "uint256",
          "name": "length",
          "type": "uint256"
        }
      ],
      "name": "ECDSAInvalidSignatureLength",
      "type": "error"
    },
    {
      "inputs": [
        {
          "internalType": "bytes32",
          "name": "s",
          "type": "bytes32"
        }
      ],
      "name": "ECDSAInvalidSignatureS",
      "type": "error"
    },
    {
      "anonymous": false,
      "inputs": [
        {
          "indexed": true,
          "internalType": "address",
          "name": "owner",
          "type": "address"
        },
        {
          "indexed": false,
          "internalType": "bytes32",
          "name": "bundleHash",
          "type": "bytes32"
        },
        {
          "indexed": false,
          "internalType": "string",
          "name": "oneTimePreKeyBundleCid",
          "type": "string"
        }
      ],
      "name": "KeyBundleRegistered",
      "type": "event"
    },
    {
      "anonymous": false,
      "inputs": [
        {
          "indexed": true,
          "internalType": "address",
          "name": "owner",
          "type": "address"
        }
      ],
      "name": "KeyBundleRevoked",
      "type": "event"
    },
    {
      "anonymous": false,
      "inputs": [
        {
          "indexed": true,
          "internalType": "address",
          "name": "owner",
          "type": "address"
        },
        {
          "indexed": false,
          "internalType": "uint256",
          "name": "preKeyIndex",
          "type": "uint256"
        },
        {
          "indexed": false,
          "internalType": "uint256",
          "name": "remaining",
          "type": "uint256"
        }
      ],
      "name": "OneTimePreKeyConsumed",
      "type": "event"
    },
    {
      "anonymous": false,
      "inputs": [
        {
          "indexed": true,
          "internalType": "address",
          "name": "owner",
          "type": "address"
        },
        {
          "indexed": false,
          "internalType": "uint256",
          "name": "newCount",
          "type": "uint256"
        },
        {
          "indexed": false,
          "internalType": "string",
          "name": "newBundleCid",
          "type": "string"
        }
      ],
      "name": "OneTimePreKeysRefilled",
      "type": "event"
    },
    {
      "anonymous": false,
      "inputs": [
        {
          "indexed": true,
          "internalType": "address",
          "name": "owner",
          "type": "address"
        },
        {
          "indexed": false,
          "internalType": "bytes",
          "name": "newSignedPreKey",
          "type": "bytes"
        },
        {
          "indexed": false,
          "internalType": "uint64",
          "name": "timestamp",
          "type": "uint64"
        }
      ],
      "name": "SignedPreKeyRotated",
      "type": "event"
    },
    {
      "inputs": [],
      "name": "MIN_UPDATE_INTERVAL",
      "outputs": [
        {
          "internalType": "uint256",
          "name": "",
          "type": "uint256"
        }
      ],
      "stateMutability": "view",
      "type": "function"
    },
    {
      "inputs": [
        {
          "internalType": "address",
          "name": "owner",
          "type": "address"
        },
        {
          "internalType": "uint256",
          "name": "preKeyIndex",
          "type": "uint256"
        },
        {
          "internalType": "bytes",
          "name": "senderSignature",
          "type": "bytes"
        }
      ],
      "name": "consumeOneTimePreKey",
      "outputs": [
        {
          "internalType": "bool",
          "name": "",
          "type": "bool"
        }
      ],
      "stateMutability": "nonpayable",
      "type": "function"
    },
    {
      "inputs": [
        {
          "internalType": "uint256",
          "name": "preKeyIndex",
          "type": "uint256"
        }
      ],
      "name": "consumeOwnOneTimePreKey",
      "outputs": [
        {
          "internalType": "bool",
          "name": "",
          "type": "bool"
        }
      ],
      "stateMutability": "nonpayable",
      "type": "function"
    },
    {
      "inputs": [
        {
          "internalType": "address",
          "name": "",
          "type": "address"
        },
        {
          "internalType": "uint256",
          "name": "",
          "type": "uint256"
        }
      ],
      "name": "consumedOneTimePreKeys",
      "outputs": [
        {
          "internalType": "bool",
          "name": "",
          "type": "bool"
        }
      ],
      "stateMutability": "view",
      "type": "function"
    },
    {
      "inputs": [
        {
          "internalType": "address",
          "name": "owner",
          "type": "address"
        }
      ],
      "name": "getKeyBundle",
      "outputs": [
        {
          "components": [
            {
              "internalType": "bytes",
              "name": "identityKey",
              "type": "bytes"
            },
            {
              "internalType": "bytes",
              "name": "signedPreKey",
              "type": "bytes"
            },
            {
              "internalType": "bytes",
              "name": "signedPreKeySignature",
              "type": "bytes"
            },
            {
              "internalType": "string",
              "name": "oneTimePreKeyBundleCid",
              "type": "string"
            },
            {
              "internalType": "bytes",
              "name": "stealthSpendingPubKey",
              "type": "bytes"
            },
            {
              "internalType": "bytes",
              "name": "stealthViewingPubKey",
              "type": "bytes"
            },
            {
              "internalType": "bytes",
              "name": "pqPublicKey",
              "type": "bytes"
            },
            {
              "internalType": "uint64",
              "name": "updatedAt",
              "type": "uint64"
            },
            {
              "internalType": "uint256",
              "name": "oneTimePreKeyCount",
              "type": "uint256"
            },
            {
              "internalType": "uint256",
              "name": "oneTimePreKeyConsumed",
              "type": "uint256"
            }
          ],
          "internalType": "struct StealthRegistry.KeyBundle",
          "name": "",
          "type": "tuple"
        }
      ],
      "stateMutability": "view",
      "type": "function"
    },
    {
      "inputs": [
        {
          "internalType": "address",
          "name": "owner",
          "type": "address"
        }
      ],
      "name": "getRemainingOneTimePreKeys",
      "outputs": [
        {
          "internalType": "uint256",
          "name": "",
          "type": "uint256"
        }
      ],
      "stateMutability": "view",
      "type": "function"
    },
    {
      "inputs": [
        {
          "internalType": "address",
          "name": "owner",
          "type": "address"
        }
      ],
      "name": "hasKeyBundle",
      "outputs": [
        {
          "internalType": "bool",
          "name": "",
          "type": "bool"
        }
      ],
      "stateMutability": "view",
      "type": "function"
    },
    {
      "inputs": [
        {
          "internalType": "address",
          "name": "owner",
          "type": "address"
        },
        {
          "internalType": "uint256",
          "name": "preKeyIndex",
          "type": "uint256"
        }
      ],
      "name": "isOneTimePreKeyAvailable",
      "outputs": [
        {
          "internalType": "bool",
          "name": "",
          "type": "bool"
        }
      ],
      "stateMutability": "view",
      "type": "function"
    },
    {
      "inputs": [
        {
          "internalType": "string",
          "name": "newBundleCid",
          "type": "string"
        },
        {
          "internalType": "uint256",
          "name": "newCount",
          "type": "uint256"
        }
      ],
      "name": "refillOneTimePreKeys",
      "outputs": [],
      "stateMutability": "nonpayable",
      "type": "function"
    },
    {
      "inputs": [
        {
          "components": [
            {
              "internalType": "bytes",
              "name": "identityKey",
              "type": "bytes"
            },
            {
              "internalType": "bytes",
              "name": "signedPreKey",
              "type": "bytes"
            },
            {
              "internalType": "bytes",
              "name": "signedPreKeySignature",
              "type": "bytes"
            },
            {
              "internalType": "string",
              "name": "oneTimePreKeyBundleCid",
              "type": "string"
            },
            {
              "internalType": "bytes",
              "name": "stealthSpendingPubKey",
              "type": "bytes"
            },
            {
              "internalType": "bytes",
              "name": "stealthViewingPubKey",
              "type": "bytes"
            },
            {
              "internalType": "bytes",
              "name": "pqPublicKey",
              "type": "bytes"
            },
            {
              "internalType": "uint256",
              "name": "oneTimePreKeyCount",
              "type": "uint256"
            }
          ],
          "internalType": "struct StealthRegistry.KeyBundleInput",
          "name": "bundle",
          "type": "tuple"
        },
        {
          "internalType": "bytes",
          "name": "ethSignature",
          "type": "bytes"
        }
      ],
      "name": "registerKeyBundle",
      "outputs": [],
      "stateMutability": "nonpayable",
      "type": "function"
    },
    {
      "inputs": [],
      "name": "revokeKeyBundle",
      "outputs": [],
      "stateMutability": "nonpayable",
      "type": "function"
    },
    {
      "inputs": [
        {
          "internalType": "bytes",
          "name": "newSignedPreKey",
          "type": "bytes"
        },
        {
          "internalType": "bytes",
          "name": "newSignature",
          "type": "bytes"
        }
      ],
      "name": "rotateSignedPreKey",
      "outputs": [],
      "stateMutability": "nonpayable",
      "type": "function"
    }
  ],
  "bytecode": "0x608060405234801561001057600080fd5b50611e72806100206000396000f3fe608060405234801561001057600080fd5b50600436106100b45760003560e01c8063bd3be27c11610071578063bd3be27c14610144578063bf00bae91461015b578063d4f5e7a71461016e578063d5072d0314610181578063f3872e8614610194578063fa83f6ba146101c257600080fd5b80631bb5577d146100b957806345263b46146100c35780635fd0207e146100eb5780637cf318dc146100fe578063a37b127d14610111578063b3d7c3da14610131575b600080fd5b6100c16101d5565b005b6100d66100d1366004611646565b610292565b60405190151581526020015b60405180910390f35b6100d66100f93660046116b8565b6102f0565b6100c161010c366004611711565b61058f565b61012461011f36600461175c565b61062f565b6040516100e291906117c7565b6100c161013f3660046118d2565b610add565b61014d610e1081565b6040519081526020016100e2565b61014d61016936600461175c565b610be1565b6100d661017c36600461175c565b610c28565b6100d661018f366004611943565b610c58565b6100d66101a2366004611646565b600160209081526000928352604080842090915290825290205460ff1681565b6100c16101d036600461195c565b610ddc565b336000908152602081905260408120906101ef82826115d4565b6101fd6001830160006115d4565b61020b6002830160006115d4565b6102196003830160006115d4565b6102276004830160006115d4565b6102356005830160006115d4565b6102436006830160006115d4565b5060078101805467ffffffffffffffff19169055600060088201819055600990910181905560405133917f0b6cc1736560b261cf186ac787327c60ef75690ea619f1750d9e7f44f58ee5af91a2565b6001600160a01b0382166000908152602081905260408120600881015483106102bf5760009150506102ea565b50506001600160a01b038216600090815260016020908152604080832084845290915290205460ff16155b92915050565b6001600160a01b0384166000908152602081905260408120805482908290610317906119bb565b90501161033f5760405162461bcd60e51b8152600401610336906119f5565b60405180910390fd5b806008015485106103895760405162461bcd60e51b8152602060048201526014602482015273092dcecc2d8d2c840e0e4cad6caf240d2dcc8caf60631b6044820152606401610336565b6001600160a01b038616600090815260016020908152604080832088845290915290205460ff16156103f75760405162461bcd60e51b8152602060048201526017602482015276141c995ad95e48185b1c9958591e4818dbdb9cdd5b5959604a1b6044820152606401610336565b60098101546040805133602082015290810187905260608101919091526000906104399060800160405160208183030381529060405280519060200120610fb5565b9050600061047d8287878080601f016020809104026020016040519081016040528093929190818152602001838380828437600092019190915250610fe892505050565b9050876001600160a01b0316816001600160a01b0316146104e05760405162461bcd60e51b815260206004820152601f60248201527f556e617574686f72697a65643a20696e76616c6964207369676e6174757265006044820152606401610336565b6001600160a01b03881660009081526001602081815260408084208b85529091528220805460ff191690911790556009840180549161051e83611a42565b91905055506000836009015484600801546105399190611a5b565b604080518a8152602081018390529192506001600160a01b038b16917fe0e2f2d97dfcceb42a1c0d386ab3ebd035de376d1af5c8926efa3b99e331304f910160405180910390a250600198975050505050505050565b336000908152602081905260408120805490919082906105ae906119bb565b9050116105cd5760405162461bcd60e51b8152600401610336906119f5565b600381016105dc848683611ad3565b50600881018290556000600982015560405133907f3e746005717a4386d83e0a7c8f08d31e690abeea1593d82e68db7aa0307ff49c9061062190859088908890611bbc565b60405180910390a250505050565b61068e6040518061014001604052806060815260200160608152602001606081526020016060815260200160608152602001606081526020016060815260200160006001600160401b0316815260200160008152602001600081525090565b6001600160a01b03821660009081526020819052604090819020815161014081019092528054829082906106c1906119bb565b80601f01602080910402602001604051908101604052809291908181526020018280546106ed906119bb565b801561073a5780601f1061070f5761010080835404028352916020019161073a565b820191906000526020600020905b81548152906001019060200180831161071d57829003601f168201915b50505050508152602001600182018054610753906119bb565b80601f016020809104026020016040519081016040528092919081815260200182805461077f906119bb565b80156107cc5780601f106107a1576101008083540402835291602001916107cc565b820191906000526020600020905b8154815290600101906020018083116107af57829003601f168201915b505050505081526020016002820180546107e5906119bb565b80601f0160208091040260200160405190810160405280929190818152602001828054610811906119bb565b801561085e5780601f106108335761010080835404028352916020019161085e565b820191906000526020600020905b81548152906001019060200180831161084157829003601f168201915b50505050508152602001600382018054610877906119bb565b80601f01602080910402602001604051908101604052809291908181526020018280546108a3906119bb565b80156108f05780601f106108c5576101008083540402835291602001916108f0565b820191906000526020600020905b8154815290600101906020018083116108d357829003601f168201915b50505050508152602001600482018054610909906119bb565b80601f0160208091040260200160405190810160405280929190818152602001828054610935906119bb565b80156109825780601f1061095757610100808354040283529160200191610982565b820191906000526020600020905b81548152906001019060200180831161096557829003601f168201915b5050505050815260200160058201805461099b906119bb565b80601f01602080910402602001604051908101604052809291908181526020018280546109c7906119bb565b8015610a145780601f106109e957610100808354040283529160200191610a14565b820191906000526020600020905b8154815290600101906020018083116109f757829003601f168201915b50505050508152602001600682018054610a2d906119bb565b80601f0160208091040260200160405190810160405280929190818152602001828054610a59906119bb565b8015610aa65780601f10610a7b57610100808354040283529160200191610aa6565b820191906000526020600020905b815481529060010190602001808311610a8957829003601f168201915b505050918352505060078201546001600160401b031660208201526008820154604082015260099091015460609091015292915050565b6000610ae93385611012565b90506000610af682610fb5565b90506000610b3a8286868080601f016020809104026020016040519081016040528093929190818152602001838380828437600092019190915250610fe892505050565b90506001600160a01b0381163314610b885760405162461bcd60e51b8152602060048201526011602482015270496e76616c6964207369676e617475726560781b6044820152606401610336565b610b9233876110f9565b337f2ee13333ac8811576582ab97d74d21f45d3d9508b1ee0a7b53f8f8ef6ff74d4384610bc260608a018a611bdf565b604051610bd193929190611bbc565b60405180910390a2505050505050565b6001600160a01b038116600090815260208190526040812060088101548203610c0d5750600092915050565b80600901548160080154610c219190611a5b565b9392505050565b6001600160a01b03811660009081526020819052604081208054829190610c4e906119bb565b9050119050919050565b336000908152602081905260408120805482908290610c76906119bb565b905011610c955760405162461bcd60e51b8152600401610336906119f5565b80600801548310610cdf5760405162461bcd60e51b8152602060048201526014602482015273092dcecc2d8d2c840e0e4cad6caf240d2dcc8caf60631b6044820152606401610336565b33600090815260016020908152604080832086845290915290205460ff1615610d445760405162461bcd60e51b8152602060048201526017602482015276141c995ad95e48185b1c9958591e4818dbdb9cdd5b5959604a1b6044820152606401610336565b3360009081526001602081815260408084208785529091528220805460ff1916909117905560098201805491610d7983611a42565b9190505550600081600901548260080154610d949190611a5b565b604080518681526020810183905291925033917fe0e2f2d97dfcceb42a1c0d386ab3ebd035de376d1af5c8926efa3b99e331304f910160405180910390a25060019392505050565b33600090815260208190526040812080549091908290610dfb906119bb565b905011610e1a5760405162461bcd60e51b8152600401610336906119f5565b6007810154610e3590610e10906001600160401b0316611c25565b421015610e7a5760405162461bcd60e51b8152602060048201526013602482015272155c19185d19481d1bdbc8199c995c5d595b9d606a1b6044820152606401610336565b6000610e9c8686604051610e8f929190611c38565b6040518091039020610fb5565b90506000610ee08286868080601f016020809104026020016040519081016040528093929190818152602001838380828437600092019190915250610fe892505050565b90506001600160a01b0381163314610f2e5760405162461bcd60e51b8152602060048201526011602482015270496e76616c6964207369676e617475726560781b6044820152606401610336565b60018301610f3d878983611ad3565b5060028301610f4d858783611ad3565b5060078301805467ffffffffffffffff1916426001600160401b031690811790915560405133917f92001a3adc7278eb9143c080fb44958d66a0172a87407b7206260211e4f398c091610fa4918b918b9190611c48565b60405180910390a250505050505050565b7f19457468657265756d205369676e6564204d6573736167653a0a3332000000006000908152601c91909152603c902090565b600080600080610ff886866113fb565b9250925092506110088282611448565b5090949350505050565b600080836110208480611bdf565b61102d6020870187611bdf565b61103a6040890189611bdf565b6040516020016110509796959493929190611c75565b60408051601f19818403018152919052905060006110716060850185611bdf565b61107e6080870187611bdf565b61108b60a0890189611bdf565b61109860c08b018b611bdf565b8b60e001356040516020016110b599989796959493929190611cd0565b604051602081830303815290604052905081816040516020016110d9929190611d38565b604051602081830303815290604052805190602001209250505092915050565b604080516101408101909152806111108380611bdf565b8080601f01602080910402602001604051908101604052809392919081815260200183838082843760009201919091525050509082525060209081019061115990840184611bdf565b8080601f0160208091040260200160405190810160405280939291908181526020018383808284376000920191909152505050908252506020016111a06040840184611bdf565b8080601f0160208091040260200160405190810160405280939291908181526020018383808284376000920191909152505050908252506020016111e76060840184611bdf565b8080601f01602080910402602001604051908101604052809392919081815260200183838082843760009201919091525050509082525060200161122e6080840184611bdf565b8080601f01602080910402602001604051908101604052809392919081815260200183838082843760009201919091525050509082525060200161127560a0840184611bdf565b8080601f0160208091040260200160405190810160405280939291908181526020018383808284376000920191909152505050908252506020016112bc60c0840184611bdf565b8080601f01602080910402602001604051908101604052809392919081815260200183838082843760009201829052509385525050506001600160401b03421660208084019190915260e085013560408085019190915260609093018290526001600160a01b038616825281905220815181906113399082611d67565b506020820151600182019061134e9082611d67565b50604082015160028201906113639082611d67565b50606082015160038201906113789082611d67565b506080820151600482019061138d9082611d67565b5060a082015160058201906113a29082611d67565b5060c082015160068201906113b79082611d67565b5060e082015160078201805467ffffffffffffffff19166001600160401b039092169190911790556101008201516008820155610120909101516009909101555050565b600080600083516041036114355760208401516040850151606086015160001a61142788828585611505565b955095509550505050611441565b50508151600091506002905b9250925092565b600082600381111561145c5761145c611e26565b03611465575050565b600182600381111561147957611479611e26565b036114975760405163f645eedf60e01b815260040160405180910390fd5b60028260038111156114ab576114ab611e26565b036114cc5760405163fce698f760e01b815260048101829052602401610336565b60038260038111156114e0576114e0611e26565b03611501576040516335e2f38360e21b815260048101829052602401610336565b5050565b600080807f7fffffffffffffffffffffffffffffff5d576e7357a4501ddfe92f46681b20a084111561154057506000915060039050826115ca565b604080516000808252602082018084528a905260ff891692820192909252606081018790526080810186905260019060a0016020604051602081039080840390855afa158015611594573d6000803e3d6000fd5b5050604051601f1901519150506001600160a01b0381166115c0575060009250600191508290506115ca565b9250600091508190505b9450945094915050565b5080546115e0906119bb565b6000825580601f106115f0575050565b601f01602090049060005260206000209081019061160e9190611611565b50565b5b808211156116265760008155600101611612565b5090565b80356001600160a01b038116811461164157600080fd5b919050565b6000806040838503121561165957600080fd5b6116628361162a565b946020939093013593505050565b60008083601f84011261168257600080fd5b5081356001600160401b0381111561169957600080fd5b6020830191508360208285010111156116b157600080fd5b9250929050565b600080600080606085870312156116ce57600080fd5b6116d78561162a565b93506020850135925060408501356001600160401b038111156116f957600080fd5b61170587828801611670565b95989497509550505050565b60008060006040848603121561172657600080fd5b83356001600160401b0381111561173c57600080fd5b61174886828701611670565b909790965060209590950135949350505050565b60006020828403121561176e57600080fd5b610c218261162a565b60005b8381101561179257818101518382015260200161177a565b50506000910152565b600081518084526117b3816020860160208601611777565b601f01601f19169290920160200192915050565b60208152600082516101408060208501526117e661016085018361179b565b91506020850151601f1980868503016040870152611804848361179b565b93506040870151915080868503016060870152611821848361179b565b9350606087015191508086850301608087015261183e848361179b565b935060808701519150808685030160a087015261185b848361179b565b935060a08701519150808685030160c0870152611878848361179b565b935060c08701519150808685030160e087015250611896838261179b565b92505060e08501516101006118b5818701836001600160401b03169052565b860151610120868101919091529095015193019290925250919050565b6000806000604084860312156118e757600080fd5b83356001600160401b03808211156118fe57600080fd5b90850190610100828803121561191357600080fd5b9093506020850135908082111561192957600080fd5b5061193686828701611670565b9497909650939450505050565b60006020828403121561195557600080fd5b5035919050565b6000806000806040858703121561197257600080fd5b84356001600160401b038082111561198957600080fd5b61199588838901611670565b909650945060208701359150808211156119ae57600080fd5b5061170587828801611670565b600181811c908216806119cf57607f821691505b6020821081036119ef57634e487b7160e01b600052602260045260246000fd5b50919050565b60208082526018908201527f4e6f206b65792062756e646c6520726567697374657265640000000000000000604082015260600190565b634e487b7160e01b600052601160045260246000fd5b600060018201611a5457611a54611a2c565b5060010190565b818103818111156102ea576102ea611a2c565b634e487b7160e01b600052604160045260246000fd5b601f821115611ace57600081815260208120601f850160051c81016020861015611aab5750805b601f850160051c820191505b81811015611aca57828155600101611ab7565b5050505b505050565b6001600160401b03831115611aea57611aea611a6e565b611afe83611af883546119bb565b83611a84565b6000601f841160018114611b325760008515611b1a5750838201355b600019600387901b1c1916600186901b178355611b8c565b600083815260209020601f19861690835b82811015611b635786850135825560209485019460019092019101611b43565b5086821015611b805760001960f88860031b161c19848701351681555b505060018560011b0183555b5050505050565b81835281816020850137506000828201602090810191909152601f909101601f19169091010190565b838152604060208201526000611bd6604083018486611b93565b95945050505050565b6000808335601e19843603018112611bf657600080fd5b8301803591506001600160401b03821115611c1057600080fd5b6020019150368190038213156116b157600080fd5b808201808211156102ea576102ea611a2c565b8183823760009101908152919050565b604081526000611c5c604083018587611b93565b90506001600160401b0383166020830152949350505050565b6001600160a01b0388168152608060208201819052600090611c9a908301888a611b93565b8281036040840152611cad818789611b93565b90508281036060840152611cc2818587611b93565b9a9950505050505050505050565b60a081526000611ce460a083018b8d611b93565b8281036020840152611cf7818a8c611b93565b90508281036040840152611d0c81888a611b93565b90508281036060840152611d21818688611b93565b9150508260808301529a9950505050505050505050565b60008351611d4a818460208801611777565b835190830190611d5e818360208801611777565b01949350505050565b81516001600160401b03811115611d8057611d80611a6e565b611d9481611d8e84546119bb565b84611a84565b602080601f831160018114611dc95760008415611db15750858301515b600019600386901b1c1916600185901b178555611aca565b600085815260208120601f198616915b82811015611df857888601518255948401946001909101908401611dd9565b5085821015611e165787850151600019600388901b60f8161c191681555b5050505050600190811b01905550565b634e487b7160e01b600052602160045260246000fdfea2646970667358221220827e2d90ee63bec158c7e74606bf3a0e6e9126f2dfa411dbf7412c8797618e2564736f6c63430008140033",
  "linkReferences": {},
  "deployedLinkReferences": {}
}