{
  "_format": "hh-sol-artifact-1",
  "contractName": "StealthRegistry",
  "sourceName": "contracts/core/StealthRegistry.sol",
  "abi": [
    {
      "inputs": [],
      "name": "ECDSAInvalidSignature",
      "type": "error"
    },
    {
      "inputs": [
        {
          "internalType": "uint256",
          "name": "length",
          "type": "uint256"
        }
      ],
      "name": "ECDSAInvalidSignatureLength",
      "type": "error"
    },
    {
      "inputs": [
        {
          "internalType": "bytes32",
          "name": "s",
          "type": "bytes32"
        }
      ],
      "name": "ECDSAInvalidSignatureS",
      "type": "error"
    },
    {
      "anonymous": false,
      "inputs": [
        {
          "indexed": true,
          "internalType": "address",
          "name": "owner",
          "type": "address"
        },
        {
          "indexed": false,
          "internalType": "bytes32",
          "name": "bundleHash",
          "type": "bytes32"
        },
        {
          "indexed": false,
          "internalType": "string",
          "name": "oneTimePreKeyBundleCid",
          "type": "string"
        }
      ],
      "name": "KeyBundleRegistered",
      "type": "event"
    },
    {
      "anonymous": false,
      "inputs": [
        {
          "indexed": true,
          "internalType": "address",
          "name": "owner",
          "type": "address"
        }
      ],
      "name": "KeyBundleRevoked",
      "type": "event"
    },
    {
      "anonymous": false,
      "inputs": [
        {
          "indexed": true,
          "internalType": "address",
          "name": "owner",
          "type": "address"
        },
        {
          "indexed": false,
          "internalType": "uint256",
          "name": "preKeyIndex",
          "type": "uint256"
        },
        {
          "indexed": false,
          "internalType": "uint256",
          "name": "remaining",
          "type": "uint256"
        }
      ],
      "name": "OneTimePreKeyConsumed",
      "type": "event"
    },
    {
      "anonymous": false,
      "inputs": [
        {
          "indexed": true,
          "internalType": "address",
          "name": "owner",
          "type": "address"
        },
        {
          "indexed": false,
          "internalType": "uint256",
          "name": "newCount",
          "type": "uint256"
        },
        {
          "indexed": false,
          "internalType": "string",
          "name": "newBundleCid",
          "type": "string"
        }
      ],
      "name": "OneTimePreKeysRefilled",
      "type": "event"
    },
    {
      "anonymous": false,
      "inputs": [
        {
          "indexed": true,
          "internalType": "address",
          "name": "owner",
          "type": "address"
        },
        {
          "indexed": false,
          "internalType": "bytes",
          "name": "newSignedPreKey",
          "type": "bytes"
        },
        {
          "indexed": false,
          "internalType": "uint64",
          "name": "timestamp",
          "type": "uint64"
        }
      ],
      "name": "SignedPreKeyRotated",
      "type": "event"
    },
    {
      "inputs": [],
      "name": "MIN_UPDATE_INTERVAL",
      "outputs": [
        {
          "internalType": "uint256",
          "name": "",
          "type": "uint256"
        }
      ],
      "stateMutability": "view",
      "type": "function"
    },
    {
      "inputs": [
        {
          "internalType": "address",
          "name": "owner",
          "type": "address"
        },
        {
          "internalType": "uint256",
          "name": "preKeyIndex",
          "type": "uint256"
        }
      ],
      "name": "consumeOneTimePreKey",
      "outputs": [
        {
          "internalType": "bool",
          "name": "",
          "type": "bool"
        }
      ],
      "stateMutability": "nonpayable",
      "type": "function"
    },
    {
      "inputs": [
        {
          "internalType": "address",
          "name": "",
          "type": "address"
        },
        {
          "internalType": "uint256",
          "name": "",
          "type": "uint256"
        }
      ],
      "name": "consumedOneTimePreKeys",
      "outputs": [
        {
          "internalType": "bool",
          "name": "",
          "type": "bool"
        }
      ],
      "stateMutability": "view",
      "type": "function"
    },
    {
      "inputs": [
        {
          "internalType": "address",
          "name": "owner",
          "type": "address"
        }
      ],
      "name": "getKeyBundle",
      "outputs": [
        {
          "components": [
            {
              "internalType": "bytes",
              "name": "identityKey",
              "type": "bytes"
            },
            {
              "internalType": "bytes",
              "name": "signedPreKey",
              "type": "bytes"
            },
            {
              "internalType": "bytes",
              "name": "signedPreKeySignature",
              "type": "bytes"
            },
            {
              "internalType": "string",
              "name": "oneTimePreKeyBundleCid",
              "type": "string"
            },
            {
              "internalType": "bytes",
              "name": "stealthSpendingPubKey",
              "type": "bytes"
            },
            {
              "internalType": "bytes",
              "name": "stealthViewingPubKey",
              "type": "bytes"
            },
            {
              "internalType": "bytes",
              "name": "pqPublicKey",
              "type": "bytes"
            },
            {
              "internalType": "uint64",
              "name": "updatedAt",
              "type": "uint64"
            },
            {
              "internalType": "uint256",
              "name": "oneTimePreKeyCount",
              "type": "uint256"
            },
            {
              "internalType": "uint256",
              "name": "oneTimePreKeyConsumed",
              "type": "uint256"
            }
          ],
          "internalType": "struct StealthRegistry.KeyBundle",
          "name": "",
          "type": "tuple"
        }
      ],
      "stateMutability": "view",
      "type": "function"
    },
    {
      "inputs": [
        {
          "internalType": "address",
          "name": "owner",
          "type": "address"
        }
      ],
      "name": "getRemainingOneTimePreKeys",
      "outputs": [
        {
          "internalType": "uint256",
          "name": "",
          "type": "uint256"
        }
      ],
      "stateMutability": "view",
      "type": "function"
    },
    {
      "inputs": [
        {
          "internalType": "address",
          "name": "owner",
          "type": "address"
        }
      ],
      "name": "hasKeyBundle",
      "outputs": [
        {
          "internalType": "bool",
          "name": "",
          "type": "bool"
        }
      ],
      "stateMutability": "view",
      "type": "function"
    },
    {
      "inputs": [
        {
          "internalType": "address",
          "name": "owner",
          "type": "address"
        },
        {
          "internalType": "uint256",
          "name": "preKeyIndex",
          "type": "uint256"
        }
      ],
      "name": "isOneTimePreKeyAvailable",
      "outputs": [
        {
          "internalType": "bool",
          "name": "",
          "type": "bool"
        }
      ],
      "stateMutability": "view",
      "type": "function"
    },
    {
      "inputs": [
        {
          "internalType": "string",
          "name": "newBundleCid",
          "type": "string"
        },
        {
          "internalType": "uint256",
          "name": "newCount",
          "type": "uint256"
        }
      ],
      "name": "refillOneTimePreKeys",
      "outputs": [],
      "stateMutability": "nonpayable",
      "type": "function"
    },
    {
      "inputs": [
        {
          "components": [
            {
              "internalType": "bytes",
              "name": "identityKey",
              "type": "bytes"
            },
            {
              "internalType": "bytes",
              "name": "signedPreKey",
              "type": "bytes"
            },
            {
              "internalType": "bytes",
              "name": "signedPreKeySignature",
              "type": "bytes"
            },
            {
              "internalType": "string",
              "name": "oneTimePreKeyBundleCid",
              "type": "string"
            },
            {
              "internalType": "bytes",
              "name": "stealthSpendingPubKey",
              "type": "bytes"
            },
            {
              "internalType": "bytes",
              "name": "stealthViewingPubKey",
              "type": "bytes"
            },
            {
              "internalType": "bytes",
              "name": "pqPublicKey",
              "type": "bytes"
            },
            {
              "internalType": "uint256",
              "name": "oneTimePreKeyCount",
              "type": "uint256"
            }
          ],
          "internalType": "struct StealthRegistry.KeyBundleInput",
          "name": "bundle",
          "type": "tuple"
        },
        {
          "internalType": "bytes",
          "name": "ethSignature",
          "type": "bytes"
        }
      ],
      "name": "registerKeyBundle",
      "outputs": [],
      "stateMutability": "nonpayable",
      "type": "function"
    },
    {
      "inputs": [],
      "name": "revokeKeyBundle",
      "outputs": [],
      "stateMutability": "nonpayable",
      "type": "function"
    },
    {
      "inputs": [
        {
          "internalType": "bytes",
          "name": "newSignedPreKey",
          "type": "bytes"
        },
        {
          "internalType": "bytes",
          "name": "newSignature",
          "type": "bytes"
        }
      ],
      "name": "rotateSignedPreKey",
      "outputs": [],
      "stateMutability": "nonpayable",
      "type": "function"
    }
  ],
  "bytecode": "0x6080806040523461001657611a62908161001c8239f35b600080fdfe6080604052600436101561001257600080fd5b60003560e01c80631bb5577d1461140357806345263b46146113d25780637cf318dc14611252578063a37b127d14611013578063b3d7c3da14610645578063bd3be27c14610628578063bf00bae9146105fd578063d4f5e7a7146105b9578063f3872e861461056c578063f7763368146104005763fa83f6ba1461009557600080fd5b346103fb5760403660031901126103fb576001600160401b036004358181116103fb576100c690369060040161150a565b6024358381116103fb576100de90369060040161150a565b909333600052602094600086526040600020926101056100fe855461168d565b1515611876565b600784019383855416610e1081018091116103e55742106103aa5761012b368789611607565b8881519101207f19457468657265756d205369676e6564204d6573736167653a0a333200000000600052601c52610190610180610177603c600020610171368789611607565b90611725565b909291926117f1565b6001600160a01b0316331461164d565b6001908181019085881161031b576101b2886101ac845461168d565b846116de565b60009188601f811160011461033c57600293600091610331575b5060001960038b901b1c191689851b1790555b019284831161031b576101fc836101f6865461168d565b866116de565b600090601f841160011461028d5792807f92001a3adc7278eb9143c080fb44958d66a0172a87407b7206260211e4f398c099959381936102769896600094610282575b50501b916000199060031b1c19161790555b421692836001600160401b0319825416179055604051936040855260408501916115a9565b938201528033930390a2005b01359250388061023f565b601f93929319831691856000528a6000209260005b8c8282106103075750509161027697959391857f92001a3adc7278eb9143c080fb44958d66a0172a87407b7206260211e4f398c09c989694106102ed575b505050811b019055610251565b0135600019600384901b60f8161c191690553880806102e0565b8484013586559487019492830192016102a2565b634e487b7160e01b600052604160045260246000fd5b90508a0135386101cc565b8a938c91601f1981168460005283600020936000905b8983831061038f575050506002965010610375575b50508389811b0190556101df565b8b013560001960038c901b60f8161c191690553880610367565b9885013586558f989590950194938401938e9350018f610352565b60405162461bcd60e51b8152600481018990526013602482015272155c19185d19481d1bdbc8199c995c5d595b9d606a1b6044820152606490fd5b634e487b7160e01b600052601160045260246000fd5b600080fd5b346103fb5760403660031901126103fb576104196114f4565b6024359060018060a01b0316806000526020916000835260406000206104426100fe825461168d565b60088101908154831015610530578360005260018552604060002083600052855260ff604060002054166104eb57600990846000526001865260406000208460005286526040600020600160ff198254161790550191825460001981146103e5577fe0e2f2d97dfcceb42a1c0d386ab3ebd035de376d1af5c8926efa3b99e331304f9360409360016104d89301809255546118c2565b825191825285820152a260405160018152f35b60405162461bcd60e51b815260048101869052601760248201527f5072656b657920616c726561647920636f6e73756d65640000000000000000006044820152606490fd5b60405162461bcd60e51b8152600481018690526014602482015273092dcecc2d8d2c840e0e4cad6caf240d2dcc8caf60631b6044820152606490fd5b346103fb5760403660031901126103fb576001600160a01b0361058d6114f4565b1660005260016020526040600020602435600052602052602060ff604060002054166040519015158152f35b346103fb5760203660031901126103fb576001600160a01b036105da6114f4565b16600052600060205260206105f360406000205461168d565b1515604051908152f35b346103fb5760203660031901126103fb57602061062061061b6114f4565b6119ae565b604051908152f35b346103fb5760003660031901126103fb576020604051610e108152f35b346103fb576003196040368201126103fb576001600160401b03600435116103fb5761010090600435360301126103fb576024356001600160401b0381116103fb5761069590369060040161150a565b6106a3600480350180611577565b6106b560048035602481019101611577565b906106c860048035604481019101611577565b906106db60048035606481019101611577565b906106ee60048035608481019101611577565b91909260043560a4016004356004019061070791611577565b95909660043560c4016004356004019061072091611577565b99909a6040519d8e9d8e3360208201526040810161012090526101400190610747926115a9565b908d601f1981840301906060015261075e926115a9565b90601f198c83030160808d0152610774926115a9565b90601f198a83030160a08b015261078a926115a9565b90601f198883030160c08901526107a0926115a9565b90601f198683030160e08701526107b6926115a9565b90601f19848303016101008501526107cd926115a9565b60043560e4013561012083015203601f19810182526107ec90826115e6565b80519060200120917f19457468657265756d205369676e6564204d6573736167653a0a33320000000060005282601c52603c60002091369061082d92611607565b61083691611725565b61083f916117f1565b610853906001600160a01b0316331461164d565b610861600480350180611577565b9061087460048035602481019101611577565b9061088760048035604481019101611577565b9061089a60048035606481019101611577565b906108ad60048035608481019101611577565b92909360043560a401600435600401906108c691611577565b96909760043560c401600435600401906108df91611577565b9a909b6040519d6108ef8f6115ca565b36906108fa92611607565b8d52369061090792611607565b60208c0152369061091792611607565b60408a0152369061092792611607565b6060880152369061093792611607565b6080860152369061094792611607565b60a0840152369061095792611607565b60c0820152426001600160401b031660e082015260043560e4013561010082015261012081016000905233600052600060205260406000209080519283516001600160401b03811161031b576109b1816101f6865461168d565b6020601f8211600114610faa578192939495600092610f9f575b50508160011b916000199060031b1c19161783555b60208201519283516001600160401b03811161031b57610a1081610a07600185015461168d565b600185016116de565b6020601f8211600114610f30578192939495600092610f25575b50508160011b916000199060031b1c19161760018201555b60408301519283516001600160401b03811161031b57610a7281610a69600286015461168d565b600286016116de565b6020601f8211600114610eb6578192939495600092610eab575b50508160011b916000199060031b1c19161760028301555b60608101519283516001600160401b03811161031b57610ad481610acb600387015461168d565b600387016116de565b6020601f8211600114610e3c578192939495600092610e31575b50508160011b916000199060031b1c19161760038401555b60808201519283516001600160401b03811161031b57610b3681610b2d600485015461168d565b600485016116de565b6020601f8211600114610dc2578192939495600092610db7575b50508160011b916000199060031b1c19161760048201555b60a08301519283516001600160401b03811161031b57610b9881610b8f600586015461168d565b600586016116de565b6020601f8211600114610d48578192939495600092610d3d575b50508160011b916000199060031b1c19161760058301555b60c08101518051906001600160401b03821161031b57610bfa82610bf1600687015461168d565b600687016116de565b602090601f8311600114610cc75791806009949261012094600092610cbc575b50508160011b916000199060031b1c19161760068501555b600784016001600160401b0360e0830151166001600160401b0319825416179055610100810151600885015501519101557f2ee13333ac8811576582ab97d74d21f45d3d9508b1ee0a7b53f8f8ef6ff74d43610c98606460043501600435600401611577565b92610cb7604051928392835260406020840152339560408401916115a9565b0390a2005b015190508780610c1a565b906006850160005260206000209160005b601f1985168110610d25575092600994926001926101209583601f19811610610d0c575b505050811b016006850155610c32565b015160001960f88460031b161c19169055878080610cfc565b91926020600181928685015181550194019201610cd8565b015190508580610bb2565b6005840160005260206000209060005b601f1984168110610d9f575060019394959683601f19811610610d86575b505050811b016005830155610bca565b015160001960f88460031b161c19169055858080610d76565b9091602060018192858b015181550193019101610d58565b015190508580610b50565b6004830160005260206000209060005b601f1984168110610e19575060019394959683601f19811610610e00575b505050811b016004820155610b68565b015160001960f88460031b161c19169055858080610df0565b9091602060018192858b015181550193019101610dd2565b015190508580610aee565b6003850160005260206000209060005b601f1984168110610e93575060019394959683601f19811610610e7a575b505050811b016003840155610b06565b015160001960f88460031b161c19169055858080610e6a565b9091602060018192858b015181550193019101610e4c565b015190508580610a8c565b6002840160005260206000209060005b601f1984168110610f0d575060019394959683601f19811610610ef4575b505050811b016002830155610aa4565b015160001960f88460031b161c19169055858080610ee4565b9091602060018192858b015181550193019101610ec6565b015190508580610a2a565b6001830160005260206000209060005b601f1984168110610f87575060019394959683601f19811610610f6e575b505050811b016001820155610a42565b015160001960f88460031b161c19169055858080610f5e565b9091602060018192858b015181550193019101610f40565b0151905085806109cb565b8460005260206000209060005b601f1984168110610ffb575060019394959683601f19811610610fe2575b505050811b0183556109e0565b015160001960f88460031b161c19169055858080610fd5565b9091602060018192858b015181550193019101610fb7565b346103fb5760203660031901126103fb5761102c6114f4565b600061012060405161103d816115ca565b60608152606060208201526060604082015260608082015260606080820152606060a0820152606060c08201528260e082015282610100820152015260018060a01b03166000526000602052604060002060096040519161109d836115ca565b6040516110b5816110ae8185611918565b03826115e6565b83526040516110cb816110ae8160018601611918565b60208401526040516110e4816110ae8160028601611918565b60408401526040516110fd816110ae8160038601611918565b6060840152604051611116816110ae8160048601611918565b608084015260405161112f816110ae8160058601611918565b60a0840152604051611148816110ae8160068601611918565b60c08401526001600160401b0360078201541660e08401526008810154610100840152015461012082015260405180916020825261012061122761119a83516101406020870152610160860190611537565b6112126111fe6111ea6111d66111c2602089015195601f1996878c83030160408d0152611537565b6040890151868b83030160608c0152611537565b6060880151858a83030160808b0152611537565b6080870151848983030160a08a0152611537565b60a0860151838883030160c0890152611537565b9060c0850151908683030160e0870152611537565b916001600160401b0360e0820151166101008501526101008101518285015201516101408301520390f35b346103fb5760403660031901126103fb576001600160401b036004358181116103fb5761128390369060040161150a565b90602435336000526020916000835260406000206112a46100fe825461168d565b6003810195851161031b576112c3856112bd885461168d565b886116de565b600095601f8611600114611344576009610cb79392600092887f3e746005717a4386d83e0a7c8f08d31e690abeea1593d82e68db7aa0307ff49c999a8591611339575b508a60011b9085198c60031b1c19161790555b8560088201550155604080519485948552840152339560408401916115a9565b90508501358b611306565b601f19861681600052856000209060005b8181106113bb575092600092600992899a7f3e746005717a4386d83e0a7c8f08d31e690abeea1593d82e68db7aa0307ff49c9a610cb79897106113a2575b505060018a811b019055611319565b851960f88d60031b161c19908701351690558a80611393565b858a01358355988701986001909201918701611355565b346103fb5760403660031901126103fb5760206113f96113f06114f4565b602435906119e8565b6040519015158152f35b346103fb5760003660031901126103fb57336000526000602052600060096040822061142e816118cf565b61143a600182016118cf565b611446600282016118cf565b60038101611454815461168d565b90816114b7575b5050611469600482016118cf565b611475600582016118cf565b611481600682016118cf565b8260078201558260088201550155337f0b6cc1736560b261cf186ac787327c60ef75690ea619f1750d9e7f44f58ee5af600080a2005b81601f8693116001146114ce5750555b838061145b565b9080839182526114ed601f60208420940160051c8401600185016116c7565b55556114c7565b600435906001600160a01b03821682036103fb57565b9181601f840112156103fb578235916001600160401b0383116103fb57602083818601950101116103fb57565b919082519283825260005b848110611563575050826000602080949584010152601f8019910116010190565b602081830181015184830182015201611542565b903590601e19813603018212156103fb57018035906001600160401b0382116103fb576020019181360383136103fb57565b908060209392818452848401376000828201840152601f01601f1916010190565b61014081019081106001600160401b0382111761031b57604052565b90601f801991011681019081106001600160401b0382111761031b57604052565b9291926001600160401b03821161031b5760405191611630601f8201601f1916602001846115e6565b8294818452818301116103fb578281602093846000960137010152565b1561165457565b60405162461bcd60e51b8152602060048201526011602482015270496e76616c6964207369676e617475726560781b6044820152606490fd5b90600182811c921680156116bd575b60208310146116a757565b634e487b7160e01b600052602260045260246000fd5b91607f169161169c565b8181106116d2575050565b600081556001016116c7565b9190601f81116116ed57505050565b611719926000526020600020906020601f840160051c8301931061171b575b601f0160051c01906116c7565b565b909150819061170c565b81519190604183036117565761174f92506020820151906060604084015193015160001a90611761565b9192909190565b505060009160029190565b91907f7fffffffffffffffffffffffffffffff5d576e7357a4501ddfe92f46681b20a084116117e557926020929160ff608095604051948552168484015260408301526060820152600092839182805260015afa156117d95780516001600160a01b038116156117d057918190565b50809160019190565b604051903d90823e3d90fd5b50505060009160039190565b60048110156118605780611803575050565b6001810361181d5760405163f645eedf60e01b8152600490fd5b6002810361183e5760405163fce698f760e01b815260048101839052602490fd5b6003146118485750565b602490604051906335e2f38360e21b82526004820152fd5b634e487b7160e01b600052602160045260246000fd5b1561187d57565b60405162461bcd60e51b815260206004820152601860248201527f4e6f206b65792062756e646c65207265676973746572656400000000000000006044820152606490fd5b919082039182116103e557565b6118d9815461168d565b90816118e3575050565b81601f600093116001146118f5575055565b908083918252611914601f60208420940160051c8401600185016116c7565b5555565b90600092918054916119298361168d565b91828252600193848116908160001461198b575060011461194b575b50505050565b90919394506000526020928360002092846000945b838610611977575050505001019038808080611945565b805485870183015294019385908201611960565b9294505050602093945060ff191683830152151560051b01019038808080611945565b6001600160a01b03166000908152602081905260409020600881015480156119e15760096119de920154906118c2565b90565b5050600090565b6001600160a01b0316600090815260208190526040812060080154909190811015611a285760ff9160409160016020528282209082526020522054161590565b509056fea26469706673582212202782f27b7da5e9e9f83f03a1426b7302b41b772ab4459fbf6e0f6fc4e058e28864736f6c63430008140033",
  "linkReferences": {},
  "deployedLinkReferences": {}
}