{
  "_format": "hh-sol-artifact-1",
  "contractName": "GroupRegistry",
  "sourceName": "contracts/core/GroupRegistry.sol",
  "abi": [
    {
      "inputs": [],
      "name": "ECDSAInvalidSignature",
      "type": "error"
    },
    {
      "inputs": [
        {
          "internalType": "uint256",
          "name": "length",
          "type": "uint256"
        }
      ],
      "name": "ECDSAInvalidSignatureLength",
      "type": "error"
    },
    {
      "inputs": [
        {
          "internalType": "bytes32",
          "name": "s",
          "type": "bytes32"
        }
      ],
      "name": "ECDSAInvalidSignatureS",
      "type": "error"
    },
    {
      "anonymous": false,
      "inputs": [
        {
          "indexed": true,
          "internalType": "bytes32",
          "name": "groupId",
          "type": "bytes32"
        },
        {
          "indexed": false,
          "internalType": "address",
          "name": "previousAdmin",
          "type": "address"
        },
        {
          "indexed": false,
          "internalType": "address",
          "name": "newAdmin",
          "type": "address"
        }
      ],
      "name": "AdminTransferred",
      "type": "event"
    },
    {
      "anonymous": false,
      "inputs": [
        {
          "indexed": true,
          "internalType": "bytes32",
          "name": "groupId",
          "type": "bytes32"
        },
        {
          "indexed": false,
          "internalType": "address",
          "name": "admin",
          "type": "address"
        }
      ],
      "name": "GroupCreated",
      "type": "event"
    },
    {
      "anonymous": false,
      "inputs": [
        {
          "indexed": true,
          "internalType": "bytes32",
          "name": "groupId",
          "type": "bytes32"
        },
        {
          "indexed": false,
          "internalType": "bytes",
          "name": "newEncryptedKey",
          "type": "bytes"
        },
        {
          "indexed": false,
          "internalType": "uint256",
          "name": "newEpoch",
          "type": "uint256"
        }
      ],
      "name": "GroupKeyRotated",
      "type": "event"
    },
    {
      "anonymous": false,
      "inputs": [
        {
          "indexed": true,
          "internalType": "bytes32",
          "name": "groupId",
          "type": "bytes32"
        },
        {
          "indexed": false,
          "internalType": "bytes32",
          "name": "identityCommitment",
          "type": "bytes32"
        },
        {
          "indexed": false,
          "internalType": "uint256",
          "name": "memberIndex",
          "type": "uint256"
        }
      ],
      "name": "MemberAdded",
      "type": "event"
    },
    {
      "anonymous": false,
      "inputs": [
        {
          "indexed": true,
          "internalType": "bytes32",
          "name": "groupId",
          "type": "bytes32"
        },
        {
          "indexed": false,
          "internalType": "bytes32",
          "name": "identityCommitment",
          "type": "bytes32"
        },
        {
          "indexed": false,
          "internalType": "uint256",
          "name": "newMemberCount",
          "type": "uint256"
        }
      ],
      "name": "MemberRemoved",
      "type": "event"
    },
    {
      "inputs": [
        {
          "internalType": "bytes32",
          "name": "groupId",
          "type": "bytes32"
        },
        {
          "internalType": "bytes32",
          "name": "identityCommitment",
          "type": "bytes32"
        },
        {
          "internalType": "bytes32",
          "name": "newMerkleRoot",
          "type": "bytes32"
        },
        {
          "internalType": "bytes",
          "name": "encryptedKeyForMember",
          "type": "bytes"
        }
      ],
      "name": "addMember",
      "outputs": [],
      "stateMutability": "nonpayable",
      "type": "function"
    },
    {
      "inputs": [
        {
          "internalType": "bytes32",
          "name": "groupId",
          "type": "bytes32"
        },
        {
          "internalType": "bool",
          "name": "isPublic",
          "type": "bool"
        },
        {
          "internalType": "bytes",
          "name": "adminEncryptedKey",
          "type": "bytes"
        }
      ],
      "name": "createGroup",
      "outputs": [],
      "stateMutability": "nonpayable",
      "type": "function"
    },
    {
      "inputs": [
        {
          "internalType": "bytes32",
          "name": "groupId",
          "type": "bytes32"
        }
      ],
      "name": "getGroupInfo",
      "outputs": [
        {
          "internalType": "address",
          "name": "admin",
          "type": "address"
        },
        {
          "internalType": "bytes32",
          "name": "merkleRoot",
          "type": "bytes32"
        },
        {
          "internalType": "uint256",
          "name": "memberCount",
          "type": "uint256"
        },
        {
          "internalType": "bool",
          "name": "isPublic",
          "type": "bool"
        },
        {
          "internalType": "uint256",
          "name": "epoch",
          "type": "uint256"
        }
      ],
      "stateMutability": "view",
      "type": "function"
    },
    {
      "inputs": [
        {
          "internalType": "bytes32",
          "name": "groupId",
          "type": "bytes32"
        },
        {
          "internalType": "uint256",
          "name": "index",
          "type": "uint256"
        }
      ],
      "name": "getMemberByIndex",
      "outputs": [
        {
          "internalType": "bytes32",
          "name": "",
          "type": "bytes32"
        }
      ],
      "stateMutability": "view",
      "type": "function"
    },
    {
      "inputs": [
        {
          "internalType": "bytes32",
          "name": "",
          "type": "bytes32"
        }
      ],
      "name": "groups",
      "outputs": [
        {
          "internalType": "address",
          "name": "admin",
          "type": "address"
        },
        {
          "internalType": "bytes32",
          "name": "merkleRoot",
          "type": "bytes32"
        },
        {
          "internalType": "uint256",
          "name": "memberCount",
          "type": "uint256"
        },
        {
          "internalType": "bool",
          "name": "isPublic",
          "type": "bool"
        },
        {
          "internalType": "bytes",
          "name": "encryptedGroupKey",
          "type": "bytes"
        },
        {
          "internalType": "uint256",
          "name": "epoch",
          "type": "uint256"
        }
      ],
      "stateMutability": "view",
      "type": "function"
    },
    {
      "inputs": [
        {
          "internalType": "bytes32",
          "name": "groupId",
          "type": "bytes32"
        },
        {
          "internalType": "bytes32",
          "name": "identityCommitment",
          "type": "bytes32"
        }
      ],
      "name": "isMember",
      "outputs": [
        {
          "internalType": "bool",
          "name": "",
          "type": "bool"
        }
      ],
      "stateMutability": "view",
      "type": "function"
    },
    {
      "inputs": [
        {
          "internalType": "bytes32",
          "name": "",
          "type": "bytes32"
        },
        {
          "internalType": "uint256",
          "name": "",
          "type": "uint256"
        }
      ],
      "name": "memberEncryptedKeys",
      "outputs": [
        {
          "internalType": "bytes",
          "name": "",
          "type": "bytes"
        }
      ],
      "stateMutability": "view",
      "type": "function"
    },
    {
      "inputs": [
        {
          "internalType": "bytes32",
          "name": "groupId",
          "type": "bytes32"
        },
        {
          "internalType": "bytes32",
          "name": "identityCommitment",
          "type": "bytes32"
        },
        {
          "internalType": "bytes32",
          "name": "newMerkleRoot",
          "type": "bytes32"
        },
        {
          "internalType": "bytes",
          "name": "newEncryptedGroupKey",
          "type": "bytes"
        }
      ],
      "name": "removeMember",
      "outputs": [],
      "stateMutability": "nonpayable",
      "type": "function"
    },
    {
      "inputs": [
        {
          "internalType": "bytes32",
          "name": "groupId",
          "type": "bytes32"
        },
        {
          "internalType": "bytes",
          "name": "newEncryptedGroupKey",
          "type": "bytes"
        }
      ],
      "name": "rotateGroupKey",
      "outputs": [],
      "stateMutability": "nonpayable",
      "type": "function"
    },
    {
      "inputs": [
        {
          "internalType": "bytes32",
          "name": "groupId",
          "type": "bytes32"
        },
        {
          "internalType": "address",
          "name": "newAdmin",
          "type": "address"
        },
        {
          "internalType": "bytes",
          "name": "signature",
          "type": "bytes"
        }
      ],
      "name": "transferAdmin",
      "outputs": [],
      "stateMutability": "nonpayable",
      "type": "function"
    }
  ],
  "bytecode": "0x608060405234801561001057600080fd5b50611583806100206000396000f3fe608060405234801561001057600080fd5b506004361061009e5760003560e01c80639d8f7ee1116100665780639d8f7ee114610190578063d3bad368146101a3578063d9439d43146101b6578063ddeef5b7146101d9578063ef161bcb146101ec57600080fd5b806359f89246146100a357806360831ca2146100b85780636b2b7dd8146100de5780637ea621171461015d57806399d8812d1461017d575b600080fd5b6100b66100b1366004610fc3565b610211565b005b6100cb6100c6366004611024565b6102fc565b6040519081526020015b60405180910390f35b6101296100ec366004611046565b600090815260208190526040902080546001820154600283015460038401546005909401546001600160a01b03909316949193909260ff90911691565b604080516001600160a01b03909616865260208601949094529284019190915215156060830152608082015260a0016100d5565b61017061016b366004611024565b61031e565b6040516100d591906110a5565b6100b661018b3660046110bf565b6103c3565b6100b661019e366004611120565b610675565b6100b66101b13660046110bf565b6108f8565b6101c96101c4366004611024565b610b16565b60405190151581526020016100d5565b6100b66101e7366004611154565b610b69565b6101ff6101fa366004611046565b610c54565b6040516100d5969594939291906111a0565b6000848152602081905260409020546001600160a01b03161561026a5760405162461bcd60e51b815260206004820152600c60248201526b47726f75702065786973747360a01b60448201526064015b60405180910390fd5b600084815260208190526040812080546001600160a01b0319163317815560018101829055600281019190915560038101805485151560ff19909116179055600481016102b8838583611287565b506000600582015560405133815285907fe6a96675e2b0e31cf54a0b5ba9b935dcd1a4374a0f999a4a071d9144c9b47d569060200160405180910390a25050505050565b6000828152602081815260408083208484526007019091529020545b92915050565b600160209081526000928352604080842090915290825290208054610342906111fe565b80601f016020809104026020016040519081016040528092919081815260200182805461036e906111fe565b80156103bb5780601f10610390576101008083540402835291602001916103bb565b820191906000526020600020905b81548152906001019060200180831161039e57829003601f168201915b505050505081565b60008581526020819052604090205485906001600160a01b03166103f95760405162461bcd60e51b815260040161026190611348565b60008681526020819052604090205486906001600160a01b031633146104315760405162461bcd60e51b815260040161026190611376565b60008781526020818152604080832089845260068101909252909120548015801590610461575081600201548111155b6104a05760405162461bcd60e51b815260206004820152601060248201526f13595b58995c881b9bdd08199bdd5b9960821b6044820152606401610261565b600081815260078301602052604090205488146104f25760405162461bcd60e51b815260206004820152601060248201526f13595b58995c881b9bdd08199bdd5b9960821b6044820152606401610261565b81600201548110156105585760028201805460009081526007840160209081526040808320548584528184208190558084526006870183528184208690558d84526001835281842094548452939091528082208483529120906105559082611399565b50505b6000888152600683016020908152604080832083905560028501805484526007860183528184208490558c84526001835281842090548452909152812061059e91610f24565b6002820180549060006105b08361148c565b909155505060018201879055600482016105cb868883611287565b506005820180549060006105de836114a3565b9190505550887f17de7337c4be011a90cd408064e63eebb492e642383223b9dfd97a51fab95ef6898460020154604051610622929190918252602082015260400190565b60405180910390a2887f479b4ba8c2af1ac84341b9ab248a8186984f1aef769921cbbe1e561cfc5bcd5887878560050154604051610662939291906114bc565b60405180910390a2505050505050505050565b60008481526020819052604090205484906001600160a01b03166106ab5760405162461bcd60e51b815260040161026190611348565b60008581526020819052604090205485906001600160a01b031633146106e35760405162461bcd60e51b815260040161026190611376565b6001600160a01b03851661072d5760405162461bcd60e51b815260206004820152601160248201527024b73b30b634b2103732bb9030b236b4b760791b6044820152606401610261565b336001600160a01b038616036107755760405162461bcd60e51b815260206004820152600d60248201526c20b63932b0b23c9030b236b4b760991b6044820152606401610261565b604080516020810188905233918101919091526001600160a01b03861660608201526000906107ea90608001604051602081830303815290604052805190602001207f19457468657265756d205369676e6564204d6573736167653a0a3332000000006000908152601c91909152603c902090565b9050600061082e8287878080601f016020809104026020016040519081016040528093929190818152602001838380828437600092019190915250610d2192505050565b9050866001600160a01b0316816001600160a01b0316146108915760405162461bcd60e51b815260206004820152601c60248201527f496e76616c696420616363657074616e6365207369676e6174757265000000006044820152606401610261565b6000888152602081815260409182902080546001600160a01b031981166001600160a01b038c81169182179093558451929091168083529282015290918a917fa0751ba96f4891ec774fc1c75567a02a09fcb509643b1b7b668315b9d53ee4b99101610662565b60008581526020819052604090205485906001600160a01b031661092e5760405162461bcd60e51b815260040161026190611348565b60008681526020819052604090205486906001600160a01b031633146109665760405162461bcd60e51b815260040161026190611376565b6000878152602081815260408083208984526006810190925290912054158061099e5750600080805260078201602052604090205487145b6109ba5760405162461bcd60e51b8152600401610261906114f5565b80600201546000036109f9576000878152600682016020526040902054156109f45760405162461bcd60e51b8152600401610261906114f5565b610a62565b600087815260068201602052604090205415610a6257600087815260068201602052604090205460028201548111801590610a435750600081815260078301602052604090205488145b15610a605760405162461bcd60e51b8152600401610261906114f5565b505b600081600201546001610a759190611524565b600089815260068401602090815260408083208490558383526007860190915281208a90556001840189905560028401805492935090610ab4836114a3565b909155505060008981526001602090815260408083208484529091529020610add868883611287565b5060408051898152602081018390528a917f305eb4a9bda9d1450aad3ef22a96a4e74506ec656c501785ea7c04774b7853629101610662565b600082815260208181526040808320848452600681019092528220548015801590610b45575081600201548111155b8015610b605750600081815260078301602052604090205484145b95945050505050565b60008381526020819052604090205483906001600160a01b0316610b9f5760405162461bcd60e51b815260040161026190611348565b60008481526020819052604090205484906001600160a01b03163314610bd75760405162461bcd60e51b815260040161026190611376565b600085815260208190526040902060048101610bf4858783611287565b50600581018054906000610c07836114a3565b9190505550857f479b4ba8c2af1ac84341b9ab248a8186984f1aef769921cbbe1e561cfc5bcd5886868460050154604051610c44939291906114bc565b60405180910390a2505050505050565b600060208190529081526040902080546001820154600283015460038401546004850180546001600160a01b03909516959394929360ff90921692610c98906111fe565b80601f0160208091040260200160405190810160405280929190818152602001828054610cc4906111fe565b8015610d115780601f10610ce657610100808354040283529160200191610d11565b820191906000526020600020905b815481529060010190602001808311610cf457829003601f168201915b5050505050908060050154905086565b600080600080610d318686610d4b565b925092509250610d418282610d98565b5090949350505050565b60008060008351604103610d855760208401516040850151606086015160001a610d7788828585610e55565b955095509550505050610d91565b50508151600091506002905b9250925092565b6000826003811115610dac57610dac611537565b03610db5575050565b6001826003811115610dc957610dc9611537565b03610de75760405163f645eedf60e01b815260040160405180910390fd5b6002826003811115610dfb57610dfb611537565b03610e1c5760405163fce698f760e01b815260048101829052602401610261565b6003826003811115610e3057610e30611537565b03610e51576040516335e2f38360e21b815260048101829052602401610261565b5050565b600080807f7fffffffffffffffffffffffffffffff5d576e7357a4501ddfe92f46681b20a0841115610e905750600091506003905082610f1a565b604080516000808252602082018084528a905260ff891692820192909252606081018790526080810186905260019060a0016020604051602081039080840390855afa158015610ee4573d6000803e3d6000fd5b5050604051601f1901519150506001600160a01b038116610f1057506000925060019150829050610f1a565b9250600091508190505b9450945094915050565b508054610f30906111fe565b6000825580601f10610f40575050565b601f016020900490600052602060002090810190610f5e9190610f61565b50565b5b80821115610f765760008155600101610f62565b5090565b60008083601f840112610f8c57600080fd5b50813567ffffffffffffffff811115610fa457600080fd5b602083019150836020828501011115610fbc57600080fd5b9250929050565b60008060008060608587031215610fd957600080fd5b8435935060208501358015158114610ff057600080fd5b9250604085013567ffffffffffffffff81111561100c57600080fd5b61101887828801610f7a565b95989497509550505050565b6000806040838503121561103757600080fd5b50508035926020909101359150565b60006020828403121561105857600080fd5b5035919050565b6000815180845260005b8181101561108557602081850181015186830182015201611069565b506000602082860101526020601f19601f83011685010191505092915050565b6020815260006110b8602083018461105f565b9392505050565b6000806000806000608086880312156110d757600080fd5b853594506020860135935060408601359250606086013567ffffffffffffffff81111561110357600080fd5b61110f88828901610f7a565b969995985093965092949392505050565b6000806000806060858703121561113657600080fd5b8435935060208501356001600160a01b0381168114610ff057600080fd5b60008060006040848603121561116957600080fd5b83359250602084013567ffffffffffffffff81111561118757600080fd5b61119386828701610f7a565b9497909650939450505050565b60018060a01b0387168152856020820152846040820152831515606082015260c0608082015260006111d560c083018561105f565b90508260a0830152979650505050505050565b634e487b7160e01b600052604160045260246000fd5b600181811c9082168061121257607f821691505b60208210810361123257634e487b7160e01b600052602260045260246000fd5b50919050565b601f82111561128257600081815260208120601f850160051c8101602086101561125f5750805b601f850160051c820191505b8181101561127e5782815560010161126b565b5050505b505050565b67ffffffffffffffff83111561129f5761129f6111e8565b6112b3836112ad83546111fe565b83611238565b6000601f8411600181146112e757600085156112cf5750838201355b600019600387901b1c1916600186901b178355611341565b600083815260209020601f19861690835b8281101561131857868501358255602094850194600190920191016112f8565b50868210156113355760001960f88860031b161c19848701351681555b505060018560011b0183555b5050505050565b60208082526014908201527311dc9bdd5c08191bd95cc81b9bdd08195e1a5cdd60621b604082015260600190565b6020808252600990820152682737ba1030b236b4b760b91b604082015260600190565b8181036113a4575050565b6113ae82546111fe565b67ffffffffffffffff8111156113c6576113c66111e8565b6113da816113d484546111fe565b84611238565b6000601f82116001811461140e57600083156113f65750848201545b600019600385901b1c1916600184901b178455611341565b600085815260209020601f19841690600086815260209020845b838110156114485782860154825560019586019590910190602001611428565b50858310156114665781850154600019600388901b60f8161c191681555b5050505050600190811b01905550565b634e487b7160e01b600052601160045260246000fd5b60008161149b5761149b611476565b506000190190565b6000600182016114b5576114b5611476565b5060010190565b604081528260408201528284606083013760006060848301015260006060601f19601f8601168301019050826020830152949350505050565b6020808252601590820152744d656d62657220616c72656164792065786973747360581b604082015260600190565b8082018082111561031857610318611476565b634e487b7160e01b600052602160045260246000fdfea26469706673582212203e3e66e07654416b9a527ccd64c05d3a8b7690fed47c70328e8b4bd2a820d27c64736f6c63430008140033",
  "linkReferences": {},
  "deployedLinkReferences": {}
}