{
  "_format": "hh-sol-artifact-1",
  "contractName": "ZKVerifier",
  "sourceName": "contracts/core/ZKVerifier.sol",
  "abi": [
    {
      "inputs": [],
      "stateMutability": "nonpayable",
      "type": "constructor"
    },
    {
      "anonymous": false,
      "inputs": [
        {
          "indexed": true,
          "internalType": "bytes32",
          "name": "groupId",
          "type": "bytes32"
        },
        {
          "indexed": false,
          "internalType": "bytes32",
          "name": "nullifier",
          "type": "bytes32"
        }
      ],
      "name": "NullifierUsed",
      "type": "event"
    },
    {
      "anonymous": false,
      "inputs": [
        {
          "indexed": true,
          "internalType": "bytes32",
          "name": "groupId",
          "type": "bytes32"
        },
        {
          "indexed": false,
          "internalType": "bytes32",
          "name": "merkleRoot",
          "type": "bytes32"
        }
      ],
      "name": "RootRegistered",
      "type": "event"
    },
    {
      "anonymous": false,
      "inputs": [
        {
          "indexed": true,
          "internalType": "address",
          "name": "registrar",
          "type": "address"
        },
        {
          "indexed": false,
          "internalType": "bool",
          "name": "authorized",
          "type": "bool"
        }
      ],
      "name": "RootRegistrarUpdated",
      "type": "event"
    },
    {
      "anonymous": false,
      "inputs": [
        {
          "indexed": true,
          "internalType": "bytes32",
          "name": "groupId",
          "type": "bytes32"
        },
        {
          "indexed": false,
          "internalType": "bytes32",
          "name": "merkleRoot",
          "type": "bytes32"
        }
      ],
      "name": "RootValidated",
      "type": "event"
    },
    {
      "anonymous": false,
      "inputs": [],
      "name": "VerificationKeyUpdated",
      "type": "event"
    },
    {
      "inputs": [
        {
          "internalType": "address",
          "name": "",
          "type": "address"
        }
      ],
      "name": "authorizedRootRegistrars",
      "outputs": [
        {
          "internalType": "bool",
          "name": "",
          "type": "bool"
        }
      ],
      "stateMutability": "view",
      "type": "function"
    },
    {
      "inputs": [
        {
          "internalType": "bytes32",
          "name": "",
          "type": "bytes32"
        },
        {
          "internalType": "bytes32",
          "name": "",
          "type": "bytes32"
        }
      ],
      "name": "groupNullifiers",
      "outputs": [
        {
          "internalType": "bool",
          "name": "",
          "type": "bool"
        }
      ],
      "stateMutability": "view",
      "type": "function"
    },
    {
      "inputs": [],
      "name": "owner",
      "outputs": [
        {
          "internalType": "address",
          "name": "",
          "type": "address"
        }
      ],
      "stateMutability": "view",
      "type": "function"
    },
    {
      "inputs": [
        {
          "internalType": "bytes32",
          "name": "groupId",
          "type": "bytes32"
        },
        {
          "internalType": "bytes32",
          "name": "root",
          "type": "bytes32"
        }
      ],
      "name": "registerRoot",
      "outputs": [],
      "stateMutability": "nonpayable",
      "type": "function"
    },
    {
      "inputs": [
        {
          "internalType": "bytes32[]",
          "name": "groupIds",
          "type": "bytes32[]"
        },
        {
          "internalType": "bytes32[]",
          "name": "roots",
          "type": "bytes32[]"
        }
      ],
      "name": "registerRoots",
      "outputs": [],
      "stateMutability": "nonpayable",
      "type": "function"
    },
    {
      "inputs": [],
      "name": "rootValidationEnabled",
      "outputs": [
        {
          "internalType": "bool",
          "name": "",
          "type": "bool"
        }
      ],
      "stateMutability": "view",
      "type": "function"
    },
    {
      "inputs": [
        {
          "internalType": "address",
          "name": "registrar",
          "type": "address"
        },
        {
          "internalType": "bool",
          "name": "authorized",
          "type": "bool"
        }
      ],
      "name": "setAuthorizedRootRegistrar",
      "outputs": [],
      "stateMutability": "nonpayable",
      "type": "function"
    },
    {
      "inputs": [
        {
          "internalType": "bool",
          "name": "enabled",
          "type": "bool"
        }
      ],
      "name": "setRootValidationEnabled",
      "outputs": [],
      "stateMutability": "nonpayable",
      "type": "function"
    },
    {
      "inputs": [
        {
          "internalType": "bytes32",
          "name": "groupId",
          "type": "bytes32"
        },
        {
          "internalType": "bytes32",
          "name": "root",
          "type": "bytes32"
        },
        {
          "internalType": "bool",
          "name": "valid",
          "type": "bool"
        }
      ],
      "name": "setValidRoot",
      "outputs": [],
      "stateMutability": "nonpayable",
      "type": "function"
    },
    {
      "inputs": [
        {
          "components": [
            {
              "components": [
                {
                  "internalType": "uint256",
                  "name": "X",
                  "type": "uint256"
                },
                {
                  "internalType": "uint256",
                  "name": "Y",
                  "type": "uint256"
                }
              ],
              "internalType": "struct ZKVerifier.G1Point",
              "name": "alpha",
              "type": "tuple"
            },
            {
              "components": [
                {
                  "internalType": "uint256[2]",
                  "name": "X",
                  "type": "uint256[2]"
                },
                {
                  "internalType": "uint256[2]",
                  "name": "Y",
                  "type": "uint256[2]"
                }
              ],
              "internalType": "struct ZKVerifier.G2Point",
              "name": "beta",
              "type": "tuple"
            },
            {
              "components": [
                {
                  "internalType": "uint256[2]",
                  "name": "X",
                  "type": "uint256[2]"
                },
                {
                  "internalType": "uint256[2]",
                  "name": "Y",
                  "type": "uint256[2]"
                }
              ],
              "internalType": "struct ZKVerifier.G2Point",
              "name": "gamma",
              "type": "tuple"
            },
            {
              "components": [
                {
                  "internalType": "uint256[2]",
                  "name": "X",
                  "type": "uint256[2]"
                },
                {
                  "internalType": "uint256[2]",
                  "name": "Y",
                  "type": "uint256[2]"
                }
              ],
              "internalType": "struct ZKVerifier.G2Point",
              "name": "delta",
              "type": "tuple"
            },
            {
              "components": [
                {
                  "internalType": "uint256",
                  "name": "X",
                  "type": "uint256"
                },
                {
                  "internalType": "uint256",
                  "name": "Y",
                  "type": "uint256"
                }
              ],
              "internalType": "struct ZKVerifier.G1Point[]",
              "name": "gammaABC",
              "type": "tuple[]"
            }
          ],
          "internalType": "struct ZKVerifier.VerifyingKey",
          "name": "newVk",
          "type": "tuple"
        }
      ],
      "name": "setVerifyingKey",
      "outputs": [],
      "stateMutability": "nonpayable",
      "type": "function"
    },
    {
      "inputs": [
        {
          "internalType": "bytes32",
          "name": "",
          "type": "bytes32"
        },
        {
          "internalType": "bytes32",
          "name": "",
          "type": "bytes32"
        }
      ],
      "name": "validRoots",
      "outputs": [
        {
          "internalType": "bool",
          "name": "",
          "type": "bool"
        }
      ],
      "stateMutability": "view",
      "type": "function"
    },
    {
      "inputs": [
        {
          "internalType": "bytes",
          "name": "proof",
          "type": "bytes"
        },
        {
          "internalType": "bytes32",
          "name": "merkleRoot",
          "type": "bytes32"
        },
        {
          "internalType": "bytes32",
          "name": "groupId",
          "type": "bytes32"
        },
        {
          "internalType": "bytes32",
          "name": "nullifier",
          "type": "bytes32"
        }
      ],
      "name": "verifyAndConsumeNullifier",
      "outputs": [
        {
          "internalType": "bool",
          "name": "",
          "type": "bool"
        }
      ],
      "stateMutability": "nonpayable",
      "type": "function"
    },
    {
      "inputs": [
        {
          "internalType": "bytes",
          "name": "proof",
          "type": "bytes"
        },
        {
          "internalType": "bytes32",
          "name": "merkleRoot",
          "type": "bytes32"
        },
        {
          "internalType": "bytes32",
          "name": "groupId",
          "type": "bytes32"
        },
        {
          "internalType": "bytes32",
          "name": "nullifier",
          "type": "bytes32"
        }
      ],
      "name": "verifyMembership",
      "outputs": [
        {
          "internalType": "bool",
          "name": "",
          "type": "bool"
        }
      ],
      "stateMutability": "view",
      "type": "function"
    },
    {
      "inputs": [],
      "name": "vkInitialized",
      "outputs": [
        {
          "internalType": "bool",
          "name": "",
          "type": "bool"
        }
      ],
      "stateMutability": "view",
      "type": "function"
    }
  ],
  "bytecode": "0x608060405234801561001057600080fd5b506000805460ff60a01b1933166001600160a81b03199091161790556116888061003b6000396000f3fe608060405234801561001057600080fd5b50600436106100ea5760003560e01c8063aa6282f01161008c578063cf90c6b611610066578063cf90c6b614610214578063f060011b14610227578063fb8f16fb1461023a578063fd2198301461024d57600080fd5b8063aa6282f0146101da578063ad08d209146101ed578063b6c1ecbe1461020057600080fd5b80633fc780dc116100c85780633fc780dc146101735780635e16ef7d146101885780638851a7ee1461019c5780638da5cb5b146101af57600080fd5b806319b390e8146100ef57806325d39f431461013257806326f1a86414610145575b600080fd5b61011d6100fd3660046110c3565b601160209081526000928352604080842090915290825290205460ff1681565b60405190151581526020015b60405180910390f35b61011d6101403660046110e5565b610270565b61011d6101533660046110c3565b601060209081526000928352604080842090915290825290205460ff1681565b610186610181366004611182565b6104cb565b005b60005461011d90600160a01b900460ff1681565b6101866101aa3660046111bb565b610513565b6000546101c2906001600160a01b031681565b6040516001600160a01b039091168152602001610129565b6101866101e836600461123a565b61059d565b6101866101fb3660046112a6565b610738565b60005461011d90600160a81b900460ff1681565b6101866102223660046112db565b6107bf565b6101866102353660046110c3565b610835565b61011d6102483660046110e5565b6108e8565b61011d61025b366004611317565b60126020526000908152604090205460ff1681565b60008054600160a01b900460ff166102c45760405162461bcd60e51b81526020600482015260126024820152711592c81b9bdd081a5b9a5d1a585b1a5e995960721b60448201526064015b60405180910390fd5b610100851461030c5760405162461bcd60e51b8152602060048201526014602482015273092dcecc2d8d2c840e0e4dedecc40d8cadccee8d60631b60448201526064016102bb565b816103545760405162461bcd60e51b81526020600482015260186024820152774e756c6c69666965722063616e6e6f74206265207a65726f60401b60448201526064016102bb565b600083815260116020908152604080832085845290915290205460ff16156103b75760405162461bcd60e51b8152602060048201526016602482015275139d5b1b1a599a595c88185b1c9958591e481d5cd95960521b60448201526064016102bb565b60006103c38787610b4b565b6040805160038082526080820190925291925060009190602082016060803683370190505090508560001c8160008151811061040157610401611348565b6020026020010181815250508460001c8160018151811061042457610424611348565b6020026020010181815250508360001c8160028151811061044757610447611348565b602002602001018181525050600061045f8383610ca0565b905080156104bf576000868152601160209081526040808320888452825291829020805460ff19166001179055905186815287917f7bf7b383fa73202309da50f1feabeff4936f245a2f469ad667e684555c92eb2b910160405180910390a25b98975050505050505050565b6000546001600160a01b031633146104f55760405162461bcd60e51b81526004016102bb9061135e565b60008054911515600160a81b0260ff60a81b19909216919091179055565b6000546001600160a01b0316331461053d5760405162461bcd60e51b81526004016102bb9061135e565b6001600160a01b038216600081815260126020908152604091829020805460ff191685151590811790915591519182527faa8a934d24ce6b6957fa7024180be1ceb6d05529bd99c44cd646dad7809bdf9091015b60405180910390a25050565b3360009081526012602052604090205460ff166105fc5760405162461bcd60e51b815260206004820181905260248201527f4e6f7420617574686f72697a656420746f20726567697374657220726f6f747360448201526064016102bb565b82811461063d5760405162461bcd60e51b815260206004820152600f60248201526e098cadccee8d040dad2e6dac2e8c6d608b1b60448201526064016102bb565b60005b838110156107315760016010600087878581811061066057610660611348565b905060200201358152602001908152602001600020600085858581811061068957610689611348565b90506020020135815260200190815260200160002060006101000a81548160ff0219169083151502179055508484828181106106c7576106c7611348565b905060200201357fe8086aa3aceb47ef0871f343acd026da49c9c32e8543445ba3405d11cd1ef72d84848481811061070157610701611348565b9050602002013560405161071791815260200190565b60405180910390a28061072981611397565b915050610640565b5050505050565b6000546001600160a01b031633146107625760405162461bcd60e51b81526004016102bb9061135e565b6000838152601060209081526040808320858452825291829020805460ff1916841515179055905183815284917fa15474ecae8e2948af6aa117308b027ee98a3ceabb662802e18256d92bea1041910160405180910390a2505050565b6000546001600160a01b031633146107e95760405162461bcd60e51b81526004016102bb9061135e565b8060016107f68282611537565b50506000805460ff60a01b1916600160a01b1781556040517f700ad29a50ef4fb344099eee3ea1747a3082e61404dc86e753b7fde79277e8069190a150565b3360009081526012602052604090205460ff166108945760405162461bcd60e51b815260206004820181905260248201527f4e6f7420617574686f72697a656420746f20726567697374657220726f6f747360448201526064016102bb565b6000828152601060209081526040808320848452825291829020805460ff19166001179055905182815283917fe8086aa3aceb47ef0871f343acd026da49c9c32e8543445ba3405d11cd1ef72d9101610591565b60008054600160a01b900460ff166109375760405162461bcd60e51b81526020600482015260126024820152711592c81b9bdd081a5b9a5d1a585b1a5e995960721b60448201526064016102bb565b610100851461097f5760405162461bcd60e51b8152602060048201526014602482015273092dcecc2d8d2c840e0e4dedecc40d8cadccee8d60631b60448201526064016102bb565b816109c75760405162461bcd60e51b81526020600482015260186024820152774e756c6c69666965722063616e6e6f74206265207a65726f60401b60448201526064016102bb565b600054600160a81b900460ff1615610a4257600083815260106020908152604080832087845290915290205460ff16610a425760405162461bcd60e51b815260206004820152601d60248201527f496e76616c6964206d65726b6c6520726f6f7420666f722067726f757000000060448201526064016102bb565b600083815260116020908152604080832085845290915290205460ff1615610aa55760405162461bcd60e51b8152602060048201526016602482015275139d5b1b1a599a595c88185b1c9958591e481d5cd95960521b60448201526064016102bb565b6000610ab18787610b4b565b6040805160038082526080820190925291925060009190602082016060803683370190505090508560001c81600081518110610aef57610aef611348565b6020026020010181815250508460001c81600181518110610b1257610b12611348565b6020026020010181815250508360001c81600281518110610b3557610b35611348565b6020026020010181815250506104bf8282610ca0565b610b53610ff7565b610100821015610b975760405162461bcd60e51b815260206004820152600f60248201526e141c9bdbd9881d1bdbc81cda1bdc9d608a1b60448201526064016102bb565b610b9f611048565b60005b6008811015610c0e578484610bb88360206113b0565b90610bc48460016115c2565b610bcf9060206113b0565b92610bdc939291906115d5565b610be5916115ff565b828260088110610bf757610bf7611348565b602002015280610c0681611397565b915050610ba2565b506040805160a08082018352835160608084019182526020808701516080808701919091529285528551808401875282880151818801908152888801519382019390935291825285518087018752938701518452918601518383015280820192909252808301919091528251808401845260c0850151815260e090940151908401529081019190915290505b92915050565b6040805180820190915260008082526020820181905290815b8351811015610d9557600f548110610d0c5760405162461bcd60e51b8152602060048201526016602482015275546f6f206d616e79207075626c696320696e7075747360501b60448201526064016102bb565b6000610d736001600e018381548110610d2757610d27611348565b906000526020600020906002020160405180604001604052908160008201548152602001600182015481525050868481518110610d6657610d66611348565b6020026020010151610e9e565b9050610d7f8382610f12565b9250508080610d8d90611397565b915050610cb9565b506000610da182610f6c565b90506000610db28660400151610f6c565b60408051610240810182528851518152885160209081015181830152808a01805151820151938301939093528251515160608301528251810151810151608083015291518201515160a0820152845160c08201528482015160e0820152600854610100820152600754610120820152600a546101408201526009546101608201528251610180820152908201516101a0820152600c546101c0820152600b546101e0820152600e54610200820152600d54610220820152909150610e74611067565b60006020826102408560085afa9050808015610e91575081516001145b9998505050505050505050565b6040805180820190915260008082526020820152604080516060810182528451815260208086015190820152908101839052610ed8611085565b60408160608460075afa80610eec57600080fd5b506040805180820190915281518152602081018260016020020151905295945050505050565b6040805180820190915260008082526020820152604080516080810182528451815260208086015181830152845192820192909252908301516060820152610f58611085565b60408160808460065afa80610eec57600080fd5b60408051808201909152600080825260208201526040518060400160405280836000015181526020017f30644e72e131a029b85045b68181585d2833e84879b9709143e1f593f00000018460200151610fc5919061161d565b610fef907f30644e72e131a029b85045b68181585d2833e84879b9709143e1f593f000000161163f565b905292915050565b6040805160a0810190915260006060820181815260808301919091528152602081016110216110a3565b8152602001611043604051806040016040528060008152602001600081525090565b905290565b6040518061010001604052806008906020820280368337509192915050565b60405180602001604052806001906020820280368337509192915050565b60405180604001604052806002906020820280368337509192915050565b60405180604001604052806110b6611085565b8152602001611043611085565b600080604083850312156110d657600080fd5b50508035926020909101359150565b6000806000806000608086880312156110fd57600080fd5b853567ffffffffffffffff8082111561111557600080fd5b818801915088601f83011261112957600080fd5b81358181111561113857600080fd5b89602082850101111561114a57600080fd5b60209283019a909950918801359760408101359750606001359550909350505050565b8035801515811461117d57600080fd5b919050565b60006020828403121561119457600080fd5b61119d8261116d565b9392505050565b80356001600160a01b038116811461117d57600080fd5b600080604083850312156111ce57600080fd5b6111d7836111a4565b91506111e56020840161116d565b90509250929050565b60008083601f84011261120057600080fd5b50813567ffffffffffffffff81111561121857600080fd5b6020830191508360208260051b850101111561123357600080fd5b9250929050565b6000806000806040858703121561125057600080fd5b843567ffffffffffffffff8082111561126857600080fd5b611274888389016111ee565b9096509450602087013591508082111561128d57600080fd5b5061129a878288016111ee565b95989497509550505050565b6000806000606084860312156112bb57600080fd5b83359250602084013591506112d26040850161116d565b90509250925092565b6000602082840312156112ed57600080fd5b813567ffffffffffffffff81111561130457600080fd5b82016101e0818503121561119d57600080fd5b60006020828403121561132957600080fd5b61119d826111a4565b634e487b7160e01b600052604160045260246000fd5b634e487b7160e01b600052603260045260246000fd5b6020808252600990820152682737ba1037bbb732b960b91b604082015260600190565b634e487b7160e01b600052601160045260246000fd5b6000600182016113a9576113a9611381565b5060010190565b8082028115828204841417610c9a57610c9a611381565b8160005b60028110156113e8578135838201556020909101906001016113cb565b50505050565b8160005b600281101561140f578135838201556020909101906001016113f2565b505061142160408301600283016113c7565b5050565b6000808335601e1984360301811261143c57600080fd5b83018035915067ffffffffffffffff82111561145757600080fd5b6020019150600681901b360382131561123357600080fd5b6801000000000000000083111561148857611488611332565b8054838255808410156114f65760016001600160ff1b0382811683146114b0576114b0611381565b80861686146114c1576114c1611381565b5060008381526020812086831b81019084841b015b808210156114f15782825582848301556002820191506114d6565b505050505b5060008181526020812083915b8581101561152f5782358255602083013560018301556040929092019160029190910190600101611503565b505050505050565b813581556001602080840135828401556040840160005b600280821061155d5750611571565b82358683019091015590820190830161154e565b5050505061158560808301600483016113c7565b61159560c08301600683016113ee565b6115a66101408301600a83016113ee565b6115b46101c0830183611425565b6113e88183600e860161146f565b80820180821115610c9a57610c9a611381565b600080858511156115e557600080fd5b838611156115f257600080fd5b5050820193919092039150565b80356020831015610c9a57600019602084900360031b1b1692915050565b60008261163a57634e487b7160e01b600052601260045260246000fd5b500690565b81810381811115610c9a57610c9a61138156fea2646970667358221220ab9d08ad02c340f0665085d74736c83f22fce4555a602a2d513c05845ccc470664736f6c63430008140033",
  "linkReferences": {},
  "deployedLinkReferences": {}
}