{
  "_format": "hh-sol-artifact-1",
  "contractName": "MessageHub",
  "sourceName": "contracts/core/MessageHub.sol",
  "abi": [
    {
      "inputs": [
        {
          "internalType": "address",
          "name": "verifierAddress",
          "type": "address"
        }
      ],
      "stateMutability": "nonpayable",
      "type": "constructor"
    },
    {
      "anonymous": false,
      "inputs": [
        {
          "indexed": true,
          "internalType": "bytes32",
          "name": "groupId",
          "type": "bytes32"
        },
        {
          "indexed": true,
          "internalType": "bytes32",
          "name": "commitment",
          "type": "bytes32"
        },
        {
          "indexed": false,
          "internalType": "bytes",
          "name": "encryptedMetadata",
          "type": "bytes"
        },
        {
          "indexed": false,
          "internalType": "bytes",
          "name": "zkProof",
          "type": "bytes"
        },
        {
          "indexed": false,
          "internalType": "bytes32",
          "name": "nullifier",
          "type": "bytes32"
        }
      ],
      "name": "GroupMessagePosted",
      "type": "event"
    },
    {
      "anonymous": false,
      "inputs": [
        {
          "indexed": true,
          "internalType": "bytes32",
          "name": "commitment",
          "type": "bytes32"
        },
        {
          "indexed": true,
          "internalType": "address",
          "name": "stealthRecipient",
          "type": "address"
        },
        {
          "indexed": false,
          "internalType": "bytes",
          "name": "ephemeralPubKey",
          "type": "bytes"
        },
        {
          "indexed": false,
          "internalType": "bytes1",
          "name": "viewTag",
          "type": "bytes1"
        },
        {
          "indexed": false,
          "internalType": "bytes",
          "name": "encryptedMetadata",
          "type": "bytes"
        },
        {
          "indexed": false,
          "internalType": "bytes32",
          "name": "nullifier",
          "type": "bytes32"
        }
      ],
      "name": "MessagePosted",
      "type": "event"
    },
    {
      "inputs": [],
      "name": "MAX_BATCH_SIZE",
      "outputs": [
        {
          "internalType": "uint256",
          "name": "",
          "type": "uint256"
        }
      ],
      "stateMutability": "view",
      "type": "function"
    },
    {
      "inputs": [],
      "name": "MAX_MESSAGES_PER_VIEW_TAG",
      "outputs": [
        {
          "internalType": "uint256",
          "name": "",
          "type": "uint256"
        }
      ],
      "stateMutability": "view",
      "type": "function"
    },
    {
      "inputs": [
        {
          "internalType": "bytes32",
          "name": "",
          "type": "bytes32"
        }
      ],
      "name": "commitmentTimestamp",
      "outputs": [
        {
          "internalType": "uint256",
          "name": "",
          "type": "uint256"
        }
      ],
      "stateMutability": "view",
      "type": "function"
    },
    {
      "inputs": [
        {
          "internalType": "bytes1",
          "name": "viewTag",
          "type": "bytes1"
        },
        {
          "internalType": "uint256",
          "name": "offset",
          "type": "uint256"
        },
        {
          "internalType": "uint256",
          "name": "limit",
          "type": "uint256"
        }
      ],
      "name": "getMessagesByViewTag",
      "outputs": [
        {
          "internalType": "uint256[]",
          "name": "",
          "type": "uint256[]"
        }
      ],
      "stateMutability": "view",
      "type": "function"
    },
    {
      "inputs": [
        {
          "internalType": "bytes1",
          "name": "viewTag",
          "type": "bytes1"
        }
      ],
      "name": "getViewTagCount",
      "outputs": [
        {
          "internalType": "uint256",
          "name": "",
          "type": "uint256"
        }
      ],
      "stateMutability": "view",
      "type": "function"
    },
    {
      "inputs": [
        {
          "internalType": "bytes32",
          "name": "nullifier",
          "type": "bytes32"
        }
      ],
      "name": "isNullifierUsed",
      "outputs": [
        {
          "internalType": "bool",
          "name": "",
          "type": "bool"
        }
      ],
      "stateMutability": "view",
      "type": "function"
    },
    {
      "inputs": [
        {
          "internalType": "bytes1",
          "name": "",
          "type": "bytes1"
        },
        {
          "internalType": "uint256",
          "name": "",
          "type": "uint256"
        }
      ],
      "name": "messagesByViewTag",
      "outputs": [
        {
          "internalType": "uint256",
          "name": "",
          "type": "uint256"
        }
      ],
      "stateMutability": "view",
      "type": "function"
    },
    {
      "inputs": [
        {
          "internalType": "address",
          "name": "stealthRecipient",
          "type": "address"
        },
        {
          "internalType": "bytes",
          "name": "ephemeralPubKey",
          "type": "bytes"
        },
        {
          "internalType": "bytes1",
          "name": "viewTag",
          "type": "bytes1"
        },
        {
          "internalType": "bytes",
          "name": "encryptedMetadata",
          "type": "bytes"
        },
        {
          "internalType": "bytes32",
          "name": "nullifier",
          "type": "bytes32"
        }
      ],
      "name": "postDirectMessage",
      "outputs": [],
      "stateMutability": "nonpayable",
      "type": "function"
    },
    {
      "inputs": [
        {
          "internalType": "address[]",
          "name": "stealthRecipients",
          "type": "address[]"
        },
        {
          "internalType": "bytes[]",
          "name": "ephemeralPubKeys",
          "type": "bytes[]"
        },
        {
          "internalType": "bytes1[]",
          "name": "viewTags",
          "type": "bytes1[]"
        },
        {
          "internalType": "bytes[]",
          "name": "encryptedMetadatas",
          "type": "bytes[]"
        },
        {
          "internalType": "bytes32[]",
          "name": "nullifiers",
          "type": "bytes32[]"
        }
      ],
      "name": "postDirectMessageBatch",
      "outputs": [],
      "stateMutability": "nonpayable",
      "type": "function"
    },
    {
      "inputs": [
        {
          "internalType": "bytes32",
          "name": "groupId",
          "type": "bytes32"
        },
        {
          "internalType": "bytes",
          "name": "encryptedMetadata",
          "type": "bytes"
        },
        {
          "internalType": "bytes",
          "name": "zkProof",
          "type": "bytes"
        },
        {
          "internalType": "bytes32",
          "name": "nullifier",
          "type": "bytes32"
        },
        {
          "internalType": "bytes32",
          "name": "merkleRoot",
          "type": "bytes32"
        }
      ],
      "name": "postGroupMessage",
      "outputs": [],
      "stateMutability": "nonpayable",
      "type": "function"
    },
    {
      "inputs": [],
      "name": "totalMessages",
      "outputs": [
        {
          "internalType": "uint256",
          "name": "",
          "type": "uint256"
        }
      ],
      "stateMutability": "view",
      "type": "function"
    },
    {
      "inputs": [
        {
          "internalType": "bytes32",
          "name": "",
          "type": "bytes32"
        }
      ],
      "name": "usedNullifiers",
      "outputs": [
        {
          "internalType": "bool",
          "name": "",
          "type": "bool"
        }
      ],
      "stateMutability": "view",
      "type": "function"
    },
    {
      "inputs": [],
      "name": "verifier",
      "outputs": [
        {
          "internalType": "contract IZKVerifier",
          "name": "",
          "type": "address"
        }
      ],
      "stateMutability": "view",
      "type": "function"
    },
    {
      "inputs": [
        {
          "internalType": "bytes1",
          "name": "",
          "type": "bytes1"
        }
      ],
      "name": "viewTagArrayLength",
      "outputs": [
        {
          "internalType": "uint256",
          "name": "",
          "type": "uint256"
        }
      ],
      "stateMutability": "view",
      "type": "function"
    }
  ],
  "bytecode": "0x608060405234801561001057600080fd5b5060405161122438038061122483398101604081905261002f91610054565b600580546001600160a01b0319166001600160a01b0392909216919091179055610084565b60006020828403121561006657600080fd5b81516001600160a01b038116811461007d57600080fd5b9392505050565b611191806100936000396000f3fe608060405234801561001057600080fd5b50600436106100ea5760003560e01c806383649c631161008c578063c525927a11610066578063c525927a1461021a578063cfdbf2541461023a578063d4e81b8314610242578063fb6162b01461025557600080fd5b806383649c63146101eb578063951166c0146101fe578063b899e9b51461020757600080fd5b806335f62e20116100c857806335f62e201461017557806356a1bc5c1461018c5780637284a67b146101b657806376989a72146101d657600080fd5b8063206137aa146100ef57806322dc7b4c146101275780632b7ac3f31461014a575b600080fd5b6101126100fd366004610b8b565b60006020819052908152604090205460ff1681565b60405190151581526020015b60405180910390f35b610112610135366004610b8b565b60009081526020819052604090205460ff1690565b60055461015d906001600160a01b031681565b6040516001600160a01b03909116815260200161011e565b61017e61271081565b60405190815260200161011e565b61017e61019a366004610bc1565b6001600160f81b03191660009081526003602052604090205490565b61017e6101c4366004610bc1565b60036020526000908152604090205481565b6101e96101e4366004610c28565b610275565b005b6101e96101f9366004610d72565b6106f0565b61017e60045481565b61017e610215366004610e0f565b6108c8565b61022d610228366004610e39565b6108f9565b60405161011e9190610e6c565b61017e606481565b6101e9610250366004610eb0565b610a14565b61017e610263366004610b8b565b60016020526000908152604090205481565b888714801561028357508685145b801561028e57508483145b801561029957508281145b6102dc5760405162461bcd60e51b815260206004820152600f60248201526e098cadccee8d040dad2e6dac2e8c6d608b1b60448201526064015b60405180910390fd5b606489111561031f5760405162461bcd60e51b815260206004820152600f60248201526e426174636820746f6f206c6172676560881b60448201526064016102d3565b60005b898110156106e35760008084848481811061033f5761033f610f39565b602090810292909201358352508101919091526040016000205460ff16156103795760405162461bcd60e51b81526004016102d390610f4f565b88888281811061038b5761038b610f39565b905060200281019061039d9190610f77565b90506021146103ee5760405162461bcd60e51b815260206004820152601c60248201527f496e76616c696420657068656d6572616c206b6579206c656e6774680000000060448201526064016102d3565b6127106003600089898581811061040757610407610f39565b905060200201602081019061041c9190610bc1565b6001600160f81b03191681526020810191909152604001600020541061047a5760405162461bcd60e51b8152602060048201526013602482015272159a595dc81d1859c8185c9c985e48199d5b1b606a1b60448201526064016102d3565b600160008085858581811061049157610491610f39565b90506020020135815260200190815260200160002060006101000a81548160ff02191690831515021790555060008585838181106104d1576104d1610f39565b90506020028101906104e39190610f77565b6040516104f1929190610fbe565b604080519182900390912060008181526001602052918220429055600454909250906002908a8a8681811061052857610528610f39565b905060200201602081019061053d9190610bc1565b6001600160f81b0319168152602080820192909252604001600090812080546001810182559082529181209091018290556003908a8a8681811061058357610583610f39565b90506020020160208101906105989190610bc1565b6001600160f81b0319168152602081019190915260400160009081208054916105c083610fe4565b9091555050600480549060006105d583610fe4565b91905055508c8c848181106105ec576105ec610f39565b90506020020160208101906106019190610ffd565b6001600160a01b0316827f4f8d47bde0b0002726791070bd985462a30a10fca5fdf7aad758a033055994de8d8d8781811061063e5761063e610f39565b90506020028101906106509190610f77565b8d8d8981811061066257610662610f39565b90506020020160208101906106779190610bc1565b8c8c8a81811061068957610689610f39565b905060200281019061069b9190610f77565b8c8c8c8181106106ad576106ad610f39565b905060200201356040516106c696959493929190611041565b60405180910390a3505080806106db90610fe4565b915050610322565b5050505050505050505050565b60008181526020819052604090205460ff161561071f5760405162461bcd60e51b81526004016102d390610f4f565b6021851461076f5760405162461bcd60e51b815260206004820152601c60248201527f496e76616c696420657068656d6572616c206b6579206c656e6774680000000060448201526064016102d3565b6001600160f81b03198416600090815260036020526040902054612710116107cf5760405162461bcd60e51b8152602060048201526013602482015272159a595dc81d1859c8185c9c985e48199d5b1b606a1b60448201526064016102d3565b600081815260208190526040808220805460ff19166001179055516107f79085908590610fbe565b60408051918290039091206000818152600160208181528483204290556004546001600160f81b03198b16808552600283528685208054948501815585528285209093018190559183526003905292812080549294509061085783610fe4565b90915550506004805490600061086c83610fe4565b9190505550886001600160a01b0316827f4f8d47bde0b0002726791070bd985462a30a10fca5fdf7aad758a033055994de8a8a8a8a8a8a6040516108b596959493929190611041565b60405180910390a3505050505050505050565b600260205281600052604060002081815481106108e457600080fd5b90600052602060002001600091509150505481565b6001600160f81b0319831660009081526002602052604090208054606091908085106109375750506040805160008152602081019091529050610a0d565b600061094385876110a2565b9050818111156109505750805b600061095c87836110bb565b905060008167ffffffffffffffff8111156109795761097961108c565b6040519080825280602002602001820160405280156109a2578160200160208202803683370190505b50905060005b82811015610a0557856109bb828b6110a2565b815481106109cb576109cb610f39565b90600052602060002001548282815181106109e8576109e8610f39565b6020908102919091010152806109fd81610fe4565b9150506109a8565b509450505050505b9392505050565b60008281526020819052604090205460ff1615610a435760405162461bcd60e51b81526004016102d390610f4f565b60055460405163fb8f16fb60e01b81526001600160a01b039091169063fb8f16fb90610a7b908790879086908d9089906004016110ce565b602060405180830381865afa158015610a98573d6000803e3d6000fd5b505050506040513d601f19601f82011682018060405250810190610abc91906110ff565b610af85760405162461bcd60e51b815260206004820152600d60248201526c24b73b30b634b210383937b7b360991b60448201526064016102d3565b600082815260208190526040808220805460ff1916600117905551610b209088908890610fbe565b604051908190039020600480549192506000610b3b83610fe4565b919050555080887f15920d6fb18e6d69dfb1e81b124c94477372d54a2bca92e37920f95bc5e0f2fb8989898989604051610b79959493929190611121565b60405180910390a35050505050505050565b600060208284031215610b9d57600080fd5b5035919050565b80356001600160f81b031981168114610bbc57600080fd5b919050565b600060208284031215610bd357600080fd5b610a0d82610ba4565b60008083601f840112610bee57600080fd5b50813567ffffffffffffffff811115610c0657600080fd5b6020830191508360208260051b8501011115610c2157600080fd5b9250929050565b60008060008060008060008060008060a08b8d031215610c4757600080fd5b8a3567ffffffffffffffff80821115610c5f57600080fd5b610c6b8e838f01610bdc565b909c509a5060208d0135915080821115610c8457600080fd5b610c908e838f01610bdc565b909a50985060408d0135915080821115610ca957600080fd5b610cb58e838f01610bdc565b909850965060608d0135915080821115610cce57600080fd5b610cda8e838f01610bdc565b909650945060808d0135915080821115610cf357600080fd5b50610d008d828e01610bdc565b915080935050809150509295989b9194979a5092959850565b80356001600160a01b0381168114610bbc57600080fd5b60008083601f840112610d4257600080fd5b50813567ffffffffffffffff811115610d5a57600080fd5b602083019150836020828501011115610c2157600080fd5b600080600080600080600060a0888a031215610d8d57600080fd5b610d9688610d19565b9650602088013567ffffffffffffffff80821115610db357600080fd5b610dbf8b838c01610d30565b9098509650869150610dd360408b01610ba4565b955060608a0135915080821115610de957600080fd5b50610df68a828b01610d30565b989b979a50959894979596608090950135949350505050565b60008060408385031215610e2257600080fd5b610e2b83610ba4565b946020939093013593505050565b600080600060608486031215610e4e57600080fd5b610e5784610ba4565b95602085013595506040909401359392505050565b6020808252825182820181905260009190848201906040850190845b81811015610ea457835183529284019291840191600101610e88565b50909695505050505050565b600080600080600080600060a0888a031215610ecb57600080fd5b87359650602088013567ffffffffffffffff80821115610eea57600080fd5b610ef68b838c01610d30565b909850965060408a0135915080821115610f0f57600080fd5b50610f1c8a828b01610d30565b989b979a5095989597966060870135966080013595509350505050565b634e487b7160e01b600052603260045260246000fd5b6020808252600e908201526d139d5b1b1a599a595c881d5cd95960921b604082015260600190565b6000808335601e19843603018112610f8e57600080fd5b83018035915067ffffffffffffffff821115610fa957600080fd5b602001915036819003821315610c2157600080fd5b8183823760009101908152919050565b634e487b7160e01b600052601160045260246000fd5b600060018201610ff657610ff6610fce565b5060010190565b60006020828403121561100f57600080fd5b610a0d82610d19565b81835281816020850137506000828201602090810191909152601f909101601f19169091010190565b60808152600061105560808301888a611018565b6001600160f81b0319871660208401528281036040840152611078818688611018565b915050826060830152979650505050505050565b634e487b7160e01b600052604160045260246000fd5b808201808211156110b5576110b5610fce565b92915050565b818103818111156110b5576110b5610fce565b6080815260006110e2608083018789611018565b602083019590955250604081019290925260609091015292915050565b60006020828403121561111157600080fd5b81518015158114610a0d57600080fd5b606081526000611135606083018789611018565b8281036020840152611148818688611018565b915050826040830152969550505050505056fea2646970667358221220cf7517b44afae674840683fa154880213539727fbe11b345f689d906babbc3b264736f6c63430008140033",
  "linkReferences": {},
  "deployedLinkReferences": {}
}